{
	"contracts/2_Owner.sol": {
		"MultisignWallet": {
			"abi": [
				{
					"inputs": [],
					"stateMutability": "nonpayable",
					"type": "constructor"
				},
				{
					"anonymous": false,
					"inputs": [
						{
							"indexed": true,
							"internalType": "address",
							"name": "newOwner",
							"type": "address"
						}
					],
					"name": "OwnerAdded",
					"type": "event"
				},
				{
					"anonymous": false,
					"inputs": [
						{
							"indexed": true,
							"internalType": "uint256",
							"name": "transactionId",
							"type": "uint256"
						}
					],
					"name": "TransactionCancelled",
					"type": "event"
				},
				{
					"anonymous": false,
					"inputs": [
						{
							"indexed": true,
							"internalType": "uint256",
							"name": "transactionId",
							"type": "uint256"
						},
						{
							"indexed": true,
							"internalType": "address",
							"name": "owner",
							"type": "address"
						}
					],
					"name": "TransactionConfirmed",
					"type": "event"
				},
				{
					"anonymous": false,
					"inputs": [
						{
							"indexed": true,
							"internalType": "uint256",
							"name": "transactionId",
							"type": "uint256"
						},
						{
							"indexed": true,
							"internalType": "address",
							"name": "receiver",
							"type": "address"
						},
						{
							"indexed": false,
							"internalType": "uint256",
							"name": "amount",
							"type": "uint256"
						}
					],
					"name": "TransactionCreated",
					"type": "event"
				},
				{
					"anonymous": false,
					"inputs": [
						{
							"indexed": true,
							"internalType": "uint256",
							"name": "transactionId",
							"type": "uint256"
						}
					],
					"name": "TransactionExecuted",
					"type": "event"
				},
				{
					"inputs": [
						{
							"internalType": "uint256",
							"name": "_amount",
							"type": "uint256"
						}
					],
					"name": "_mint",
					"outputs": [],
					"stateMutability": "nonpayable",
					"type": "function"
				},
				{
					"inputs": [
						{
							"internalType": "address",
							"name": "newOwner",
							"type": "address"
						}
					],
					"name": "addOwner",
					"outputs": [],
					"stateMutability": "nonpayable",
					"type": "function"
				},
				{
					"inputs": [],
					"name": "balance",
					"outputs": [
						{
							"internalType": "uint256",
							"name": "",
							"type": "uint256"
						}
					],
					"stateMutability": "view",
					"type": "function"
				},
				{
					"inputs": [
						{
							"internalType": "uint256",
							"name": "_transactionId",
							"type": "uint256"
						}
					],
					"name": "cancelTransaction",
					"outputs": [],
					"stateMutability": "nonpayable",
					"type": "function"
				},
				{
					"inputs": [
						{
							"internalType": "uint256",
							"name": "_transactionId",
							"type": "uint256"
						}
					],
					"name": "confirmTransaction",
					"outputs": [],
					"stateMutability": "nonpayable",
					"type": "function"
				},
				{
					"inputs": [
						{
							"internalType": "address",
							"name": "_receiver",
							"type": "address"
						},
						{
							"internalType": "uint256",
							"name": "_amount",
							"type": "uint256"
						}
					],
					"name": "createTransaction",
					"outputs": [],
					"stateMutability": "nonpayable",
					"type": "function"
				},
				{
					"inputs": [
						{
							"internalType": "uint256",
							"name": "_transactionId",
							"type": "uint256"
						}
					],
					"name": "executeTransaction",
					"outputs": [],
					"stateMutability": "nonpayable",
					"type": "function"
				},
				{
					"inputs": [
						{
							"internalType": "uint256",
							"name": "_transactionId",
							"type": "uint256"
						}
					],
					"name": "getTransactionSignatures",
					"outputs": [
						{
							"internalType": "uint256",
							"name": "",
							"type": "uint256"
						}
					],
					"stateMutability": "view",
					"type": "function"
				},
				{
					"inputs": [
						{
							"internalType": "uint256",
							"name": "",
							"type": "uint256"
						}
					],
					"name": "owners",
					"outputs": [
						{
							"internalType": "address",
							"name": "",
							"type": "address"
						}
					],
					"stateMutability": "view",
					"type": "function"
				},
				{
					"inputs": [
						{
							"internalType": "uint256",
							"name": "",
							"type": "uint256"
						}
					],
					"name": "transactionsList",
					"outputs": [
						{
							"internalType": "address",
							"name": "receiver",
							"type": "address"
						},
						{
							"internalType": "uint256",
							"name": "amount",
							"type": "uint256"
						},
						{
							"internalType": "enum MultisignWallet.TransactionStatus",
							"name": "status",
							"type": "uint8"
						},
						{
							"internalType": "uint256",
							"name": "totalSigns",
							"type": "uint256"
						}
					],
					"stateMutability": "view",
					"type": "function"
				}
			],
			"devdoc": {
				"kind": "dev",
				"methods": {},
				"version": 1
			},
			"evm": {
				"assembly": "    /* \"contracts/2_Owner.sol\":58:4578  contract MultisignWallet {... */\n  mstore(0x40, 0x80)\n    /* \"contracts/2_Owner.sol\":891:981  constructor() {... */\n  callvalue\n  dup1\n  iszero\n  tag_1\n  jumpi\n  0x00\n  dup1\n  revert\ntag_1:\n  pop\n    /* \"contracts/2_Owner.sol\":937:941  true */\n  0x01\n    /* \"contracts/2_Owner.sol\":915:922  isOwner */\n  0x03\n    /* \"contracts/2_Owner.sol\":915:934  isOwner[msg.sender] */\n  0x00\n    /* \"contracts/2_Owner.sol\":923:933  msg.sender */\n  caller\n    /* \"contracts/2_Owner.sol\":915:934  isOwner[msg.sender] */\n  0xffffffffffffffffffffffffffffffffffffffff\n  and\n  0xffffffffffffffffffffffffffffffffffffffff\n  and\n  dup2\n  mstore\n  0x20\n  add\n  swap1\n  dup2\n  mstore\n  0x20\n  add\n  0x00\n  keccak256\n  0x00\n    /* \"contracts/2_Owner.sol\":915:941  isOwner[msg.sender] = true */\n  0x0100\n  exp\n  dup2\n  sload\n  dup2\n  0xff\n  mul\n  not\n  and\n  swap1\n  dup4\n  iszero\n  iszero\n  mul\n  or\n  swap1\n  sstore\n  pop\n    /* \"contracts/2_Owner.sol\":951:957  owners */\n  0x01\n    /* \"contracts/2_Owner.sol\":963:973  msg.sender */\n  caller\n    /* \"contracts/2_Owner.sol\":951:974  owners.push(msg.sender) */\n  swap1\n  dup1\n  0x01\n  dup2\n  sload\n  add\n  dup1\n  dup3\n  sstore\n  dup1\n  swap2\n  pop\n  pop\n  0x01\n  swap1\n  sub\n  swap1\n  0x00\n  mstore\n  keccak256(0x00, 0x20)\n  add\n  0x00\n  swap1\n  swap2\n  swap1\n  swap2\n  swap1\n  swap2\n  0x0100\n  exp\n  dup2\n  sload\n  dup2\n  0xffffffffffffffffffffffffffffffffffffffff\n  mul\n  not\n  and\n  swap1\n  dup4\n  0xffffffffffffffffffffffffffffffffffffffff\n  and\n  mul\n  or\n  swap1\n  sstore\n  pop\n    /* \"contracts/2_Owner.sol\":58:4578  contract MultisignWallet {... */\n  dataSize(sub_0)\n  dup1\n  dataOffset(sub_0)\n  0x00\n  codecopy\n  0x00\n  return\nstop\n\nsub_0: assembly {\n        /* \"contracts/2_Owner.sol\":58:4578  contract MultisignWallet {... */\n      mstore(0x40, 0x80)\n      callvalue\n      dup1\n      iszero\n      tag_1\n      jumpi\n      0x00\n      dup1\n      revert\n    tag_1:\n      pop\n      jumpi(tag_2, lt(calldatasize, 0x04))\n      shr(0xe0, calldataload(0x00))\n      dup1\n      0x94205469\n      gt\n      tag_13\n      jumpi\n      dup1\n      0x94205469\n      eq\n      tag_8\n      jumpi\n      dup1\n      0xb69ef8a8\n      eq\n      tag_9\n      jumpi\n      dup1\n      0xc01a8c84\n      eq\n      tag_10\n      jumpi\n      dup1\n      0xe598c340\n      eq\n      tag_11\n      jumpi\n      dup1\n      0xee22610b\n      eq\n      tag_12\n      jumpi\n      jump(tag_2)\n    tag_13:\n      dup1\n      0x025e7c27\n      eq\n      tag_3\n      jumpi\n      dup1\n      0x1e7f8f0f\n      eq\n      tag_4\n      jumpi\n      dup1\n      0x2c526196\n      eq\n      tag_5\n      jumpi\n      dup1\n      0x3380c0d8\n      eq\n      tag_6\n      jumpi\n      dup1\n      0x7065cb48\n      eq\n      tag_7\n      jumpi\n    tag_2:\n      0x00\n      dup1\n      revert\n        /* \"contracts/2_Owner.sol\":417:440  address[] public owners */\n    tag_3:\n      tag_14\n      0x04\n      dup1\n      calldatasize\n      sub\n      dup2\n      add\n      swap1\n      tag_15\n      swap2\n      swap1\n      tag_16\n      jump\t// in\n    tag_15:\n      tag_17\n      jump\t// in\n    tag_14:\n      mload(0x40)\n      tag_18\n      swap2\n      swap1\n      tag_19\n      jump\t// in\n    tag_18:\n      mload(0x40)\n      dup1\n      swap2\n      sub\n      swap1\n      return\n        /* \"contracts/2_Owner.sol\":2053:2584  function createTransaction(address _receiver, uint256 _amount) public... */\n    tag_4:\n      tag_20\n      0x04\n      dup1\n      calldatasize\n      sub\n      dup2\n      add\n      swap1\n      tag_21\n      swap2\n      swap1\n      tag_22\n      jump\t// in\n    tag_21:\n      tag_23\n      jump\t// in\n    tag_20:\n      stop\n        /* \"contracts/2_Owner.sol\":1962:2047  function _mint(uint256 _amount) public OnlyOwners {... */\n    tag_5:\n      tag_24\n      0x04\n      dup1\n      calldatasize\n      sub\n      dup2\n      add\n      swap1\n      tag_25\n      swap2\n      swap1\n      tag_16\n      jump\t// in\n    tag_25:\n      tag_26\n      jump\t// in\n    tag_24:\n      stop\n        /* \"contracts/2_Owner.sol\":4046:4415  function cancelTransaction(uint256 _transactionId) public OnlyOwners... */\n    tag_6:\n      tag_27\n      0x04\n      dup1\n      calldatasize\n      sub\n      dup2\n      add\n      swap1\n      tag_28\n      swap2\n      swap1\n      tag_16\n      jump\t// in\n    tag_28:\n      tag_29\n      jump\t// in\n    tag_27:\n      stop\n        /* \"contracts/2_Owner.sol\":1726:1956  function addOwner(address newOwner) public OnlyOwners {... */\n    tag_7:\n      tag_30\n      0x04\n      dup1\n      calldatasize\n      sub\n      dup2\n      add\n      swap1\n      tag_31\n      swap2\n      swap1\n      tag_32\n      jump\t// in\n    tag_31:\n      tag_33\n      jump\t// in\n    tag_30:\n      stop\n        /* \"contracts/2_Owner.sol\":4421:4576  function getTransactionSignatures(uint256 _transactionId) public view returns (uint256) {... */\n    tag_8:\n      tag_34\n      0x04\n      dup1\n      calldatasize\n      sub\n      dup2\n      add\n      swap1\n      tag_35\n      swap2\n      swap1\n      tag_16\n      jump\t// in\n    tag_35:\n      tag_36\n      jump\t// in\n    tag_34:\n      mload(0x40)\n      tag_37\n      swap2\n      swap1\n      tag_38\n      jump\t// in\n    tag_37:\n      mload(0x40)\n      dup1\n      swap2\n      sub\n      swap1\n      return\n        /* \"contracts/2_Owner.sol\":389:411  uint256 public balance */\n    tag_9:\n      tag_39\n      tag_40\n      jump\t// in\n    tag_39:\n      mload(0x40)\n      tag_41\n      swap2\n      swap1\n      tag_38\n      jump\t// in\n    tag_41:\n      mload(0x40)\n      dup1\n      swap2\n      sub\n      swap1\n      return\n        /* \"contracts/2_Owner.sol\":2590:3347  function confirmTransaction(uint256 _transactionId) public OnlyOwners... */\n    tag_10:\n      tag_42\n      0x04\n      dup1\n      calldatasize\n      sub\n      dup2\n      add\n      swap1\n      tag_43\n      swap2\n      swap1\n      tag_16\n      jump\t// in\n    tag_43:\n      tag_44\n      jump\t// in\n    tag_42:\n      stop\n        /* \"contracts/2_Owner.sol\":446:483  Transaction[] public transactionsList */\n    tag_11:\n      tag_45\n      0x04\n      dup1\n      calldatasize\n      sub\n      dup2\n      add\n      swap1\n      tag_46\n      swap2\n      swap1\n      tag_16\n      jump\t// in\n    tag_46:\n      tag_47\n      jump\t// in\n    tag_45:\n      mload(0x40)\n      tag_48\n      swap5\n      swap4\n      swap3\n      swap2\n      swap1\n      tag_49\n      jump\t// in\n    tag_48:\n      mload(0x40)\n      dup1\n      swap2\n      sub\n      swap1\n      return\n        /* \"contracts/2_Owner.sol\":3353:4040  function executeTransaction(uint256 _transactionId) public OnlyOwners... */\n    tag_12:\n      tag_50\n      0x04\n      dup1\n      calldatasize\n      sub\n      dup2\n      add\n      swap1\n      tag_51\n      swap2\n      swap1\n      tag_16\n      jump\t// in\n    tag_51:\n      tag_52\n      jump\t// in\n    tag_50:\n      stop\n        /* \"contracts/2_Owner.sol\":417:440  address[] public owners */\n    tag_17:\n      0x01\n      dup2\n      dup2\n      sload\n      dup2\n      lt\n      tag_53\n      jumpi\n      0x00\n      dup1\n      revert\n    tag_53:\n      swap1\n      0x00\n      mstore\n      keccak256(0x00, 0x20)\n      add\n      0x00\n      swap2\n      pop\n      sload\n      swap1\n      0x0100\n      exp\n      swap1\n      div\n      0xffffffffffffffffffffffffffffffffffffffff\n      and\n      dup2\n      jump\t// out\n        /* \"contracts/2_Owner.sol\":2053:2584  function createTransaction(address _receiver, uint256 _amount) public... */\n    tag_23:\n        /* \"contracts/2_Owner.sol\":1025:1032  isOwner */\n      0x03\n        /* \"contracts/2_Owner.sol\":1025:1044  isOwner[msg.sender] */\n      0x00\n        /* \"contracts/2_Owner.sol\":1033:1043  msg.sender */\n      caller\n        /* \"contracts/2_Owner.sol\":1025:1044  isOwner[msg.sender] */\n      0xffffffffffffffffffffffffffffffffffffffff\n      and\n      0xffffffffffffffffffffffffffffffffffffffff\n      and\n      dup2\n      mstore\n      0x20\n      add\n      swap1\n      dup2\n      mstore\n      0x20\n      add\n      0x00\n      keccak256\n      0x00\n      swap1\n      sload\n      swap1\n      0x0100\n      exp\n      swap1\n      div\n      0xff\n      and\n        /* \"contracts/2_Owner.sol\":1017:1070  require(isOwner[msg.sender], \"You must be an owner!\") */\n      tag_56\n      jumpi\n      mload(0x40)\n      0x08c379a000000000000000000000000000000000000000000000000000000000\n      dup2\n      mstore\n      0x04\n      add\n      tag_57\n      swap1\n      tag_58\n      jump\t// in\n    tag_57:\n      mload(0x40)\n      dup1\n      swap2\n      sub\n      swap1\n      revert\n    tag_56:\n        /* \"contracts/2_Owner.sol\":2171:2178  _amount */\n      dup1\n        /* \"contracts/2_Owner.sol\":1170:1177  _amount */\n      dup1\n        /* \"contracts/2_Owner.sol\":1159:1166  balance */\n      sload(0x00)\n        /* \"contracts/2_Owner.sol\":1159:1177  balance >= _amount */\n      lt\n      iszero\n        /* \"contracts/2_Owner.sol\":1151:1203  require(balance >= _amount, \"Insufficient balance!\") */\n      tag_60\n      jumpi\n      mload(0x40)\n      0x08c379a000000000000000000000000000000000000000000000000000000000\n      dup2\n      mstore\n      0x04\n      add\n      tag_61\n      swap1\n      tag_62\n      jump\t// in\n    tag_61:\n      mload(0x40)\n      dup1\n      swap2\n      sub\n      swap1\n      revert\n    tag_60:\n        /* \"contracts/2_Owner.sol\":2194:2228  Transaction storage newTransaction */\n      0x00\n        /* \"contracts/2_Owner.sol\":2231:2247  transactionsList */\n      0x02\n        /* \"contracts/2_Owner.sol\":2231:2254  transactionsList.push() */\n      0x01\n      dup2\n      0x01\n      dup2\n      sload\n      add\n      dup1\n      dup3\n      sstore\n      dup1\n      swap2\n      pop\n      pop\n      sub\n      swap1\n      0x00\n      mstore\n      keccak256(0x00, 0x20)\n      swap1\n      0x05\n      mul\n      add\n        /* \"contracts/2_Owner.sol\":2194:2254  Transaction storage newTransaction = transactionsList.push() */\n      swap1\n      pop\n        /* \"contracts/2_Owner.sol\":2290:2299  _receiver */\n      dup4\n        /* \"contracts/2_Owner.sol\":2264:2278  newTransaction */\n      dup2\n        /* \"contracts/2_Owner.sol\":2264:2287  newTransaction.receiver */\n      0x00\n      add\n      0x00\n        /* \"contracts/2_Owner.sol\":2264:2299  newTransaction.receiver = _receiver */\n      0x0100\n      exp\n      dup2\n      sload\n      dup2\n      0xffffffffffffffffffffffffffffffffffffffff\n      mul\n      not\n      and\n      swap1\n      dup4\n      0xffffffffffffffffffffffffffffffffffffffff\n      and\n      mul\n      or\n      swap1\n      sstore\n      pop\n        /* \"contracts/2_Owner.sol\":2333:2340  _amount */\n      dup3\n        /* \"contracts/2_Owner.sol\":2309:2323  newTransaction */\n      dup2\n        /* \"contracts/2_Owner.sol\":2309:2330  newTransaction.amount */\n      0x01\n      add\n        /* \"contracts/2_Owner.sol\":2309:2340  newTransaction.amount = _amount */\n      dup2\n      swap1\n      sstore\n      pop\n        /* \"contracts/2_Owner.sol\":2374:2399  TransactionStatus.Pending */\n      0x00\n        /* \"contracts/2_Owner.sol\":2350:2364  newTransaction */\n      dup2\n        /* \"contracts/2_Owner.sol\":2350:2371  newTransaction.status */\n      0x02\n      add\n      0x00\n        /* \"contracts/2_Owner.sol\":2350:2399  newTransaction.status = TransactionStatus.Pending */\n      0x0100\n      exp\n      dup2\n      sload\n      dup2\n      0xff\n      mul\n      not\n      and\n      swap1\n      dup4\n      0x03\n      dup2\n      gt\n      iszero\n      tag_65\n      jumpi\n      tag_66\n      tag_67\n      jump\t// in\n    tag_66:\n    tag_65:\n      mul\n      or\n      swap1\n      sstore\n      pop\n        /* \"contracts/2_Owner.sol\":2437:2438  1 */\n      0x01\n        /* \"contracts/2_Owner.sol\":2409:2423  newTransaction */\n      dup2\n        /* \"contracts/2_Owner.sol\":2409:2434  newTransaction.totalSigns */\n      0x04\n      add\n        /* \"contracts/2_Owner.sol\":2409:2438  newTransaction.totalSigns = 1 */\n      dup2\n      swap1\n      sstore\n      pop\n        /* \"contracts/2_Owner.sol\":2490:2494  true */\n      0x01\n        /* \"contracts/2_Owner.sol\":2448:2462  newTransaction */\n      dup2\n        /* \"contracts/2_Owner.sol\":2448:2475  newTransaction.ownersSigned */\n      0x03\n      add\n        /* \"contracts/2_Owner.sol\":2448:2487  newTransaction.ownersSigned[msg.sender] */\n      0x00\n        /* \"contracts/2_Owner.sol\":2476:2486  msg.sender */\n      caller\n        /* \"contracts/2_Owner.sol\":2448:2487  newTransaction.ownersSigned[msg.sender] */\n      0xffffffffffffffffffffffffffffffffffffffff\n      and\n      0xffffffffffffffffffffffffffffffffffffffff\n      and\n      dup2\n      mstore\n      0x20\n      add\n      swap1\n      dup2\n      mstore\n      0x20\n      add\n      0x00\n      keccak256\n      0x00\n        /* \"contracts/2_Owner.sol\":2448:2494  newTransaction.ownersSigned[msg.sender] = true */\n      0x0100\n      exp\n      dup2\n      sload\n      dup2\n      0xff\n      mul\n      not\n      and\n      swap1\n      dup4\n      iszero\n      iszero\n      mul\n      or\n      swap1\n      sstore\n      pop\n        /* \"contracts/2_Owner.sol\":2558:2567  _receiver */\n      dup4\n        /* \"contracts/2_Owner.sol\":2510:2577  TransactionCreated(transactionsList.length - 1, _receiver, _amount) */\n      0xffffffffffffffffffffffffffffffffffffffff\n      and\n        /* \"contracts/2_Owner.sol\":2555:2556  1 */\n      0x01\n        /* \"contracts/2_Owner.sol\":2529:2545  transactionsList */\n      0x02\n        /* \"contracts/2_Owner.sol\":2529:2552  transactionsList.length */\n      dup1\n      sload\n      swap1\n      pop\n        /* \"contracts/2_Owner.sol\":2529:2556  transactionsList.length - 1 */\n      tag_68\n      swap2\n      swap1\n      tag_69\n      jump\t// in\n    tag_68:\n        /* \"contracts/2_Owner.sol\":2510:2577  TransactionCreated(transactionsList.length - 1, _receiver, _amount) */\n      0xfd27d176b6ebb21e0182c0e43df5818e0d632867e1eb47c383c58d221205fce3\n        /* \"contracts/2_Owner.sol\":2569:2576  _amount */\n      dup6\n        /* \"contracts/2_Owner.sol\":2510:2577  TransactionCreated(transactionsList.length - 1, _receiver, _amount) */\n      mload(0x40)\n      tag_70\n      swap2\n      swap1\n      tag_38\n      jump\t// in\n    tag_70:\n      mload(0x40)\n      dup1\n      swap2\n      sub\n      swap1\n      log3\n        /* \"contracts/2_Owner.sol\":2184:2584  {... */\n      pop\n        /* \"contracts/2_Owner.sol\":1080:1081  _ */\n      pop\n        /* \"contracts/2_Owner.sol\":2053:2584  function createTransaction(address _receiver, uint256 _amount) public... */\n      pop\n      pop\n      jump\t// out\n        /* \"contracts/2_Owner.sol\":1962:2047  function _mint(uint256 _amount) public OnlyOwners {... */\n    tag_26:\n        /* \"contracts/2_Owner.sol\":1025:1032  isOwner */\n      0x03\n        /* \"contracts/2_Owner.sol\":1025:1044  isOwner[msg.sender] */\n      0x00\n        /* \"contracts/2_Owner.sol\":1033:1043  msg.sender */\n      caller\n        /* \"contracts/2_Owner.sol\":1025:1044  isOwner[msg.sender] */\n      0xffffffffffffffffffffffffffffffffffffffff\n      and\n      0xffffffffffffffffffffffffffffffffffffffff\n      and\n      dup2\n      mstore\n      0x20\n      add\n      swap1\n      dup2\n      mstore\n      0x20\n      add\n      0x00\n      keccak256\n      0x00\n      swap1\n      sload\n      swap1\n      0x0100\n      exp\n      swap1\n      div\n      0xff\n      and\n        /* \"contracts/2_Owner.sol\":1017:1070  require(isOwner[msg.sender], \"You must be an owner!\") */\n      tag_72\n      jumpi\n      mload(0x40)\n      0x08c379a000000000000000000000000000000000000000000000000000000000\n      dup2\n      mstore\n      0x04\n      add\n      tag_73\n      swap1\n      tag_58\n      jump\t// in\n    tag_73:\n      mload(0x40)\n      dup1\n      swap2\n      sub\n      swap1\n      revert\n    tag_72:\n        /* \"contracts/2_Owner.sol\":2033:2040  _amount */\n      dup1\n        /* \"contracts/2_Owner.sol\":2022:2029  balance */\n      0x00\n      dup1\n        /* \"contracts/2_Owner.sol\":2022:2040  balance += _amount */\n      dup3\n      dup3\n      sload\n      tag_75\n      swap2\n      swap1\n      tag_76\n      jump\t// in\n    tag_75:\n      swap3\n      pop\n      pop\n      dup2\n      swap1\n      sstore\n      pop\n        /* \"contracts/2_Owner.sol\":1962:2047  function _mint(uint256 _amount) public OnlyOwners {... */\n      pop\n      jump\t// out\n        /* \"contracts/2_Owner.sol\":4046:4415  function cancelTransaction(uint256 _transactionId) public OnlyOwners... */\n    tag_29:\n        /* \"contracts/2_Owner.sol\":1025:1032  isOwner */\n      0x03\n        /* \"contracts/2_Owner.sol\":1025:1044  isOwner[msg.sender] */\n      0x00\n        /* \"contracts/2_Owner.sol\":1033:1043  msg.sender */\n      caller\n        /* \"contracts/2_Owner.sol\":1025:1044  isOwner[msg.sender] */\n      0xffffffffffffffffffffffffffffffffffffffff\n      and\n      0xffffffffffffffffffffffffffffffffffffffff\n      and\n      dup2\n      mstore\n      0x20\n      add\n      swap1\n      dup2\n      mstore\n      0x20\n      add\n      0x00\n      keccak256\n      0x00\n      swap1\n      sload\n      swap1\n      0x0100\n      exp\n      swap1\n      div\n      0xff\n      and\n        /* \"contracts/2_Owner.sol\":1017:1070  require(isOwner[msg.sender], \"You must be an owner!\") */\n      tag_78\n      jumpi\n      mload(0x40)\n      0x08c379a000000000000000000000000000000000000000000000000000000000\n      dup2\n      mstore\n      0x04\n      add\n      tag_79\n      swap1\n      tag_58\n      jump\t// in\n    tag_79:\n      mload(0x40)\n      dup1\n      swap2\n      sub\n      swap1\n      revert\n    tag_78:\n        /* \"contracts/2_Owner.sol\":4141:4155  _transactionId */\n      dup1\n        /* \"contracts/2_Owner.sol\":1313:1329  transactionsList */\n      0x02\n        /* \"contracts/2_Owner.sol\":1313:1336  transactionsList.length */\n      dup1\n      sload\n      swap1\n      pop\n        /* \"contracts/2_Owner.sol\":1296:1310  _transactionId */\n      dup2\n        /* \"contracts/2_Owner.sol\":1296:1336  _transactionId < transactionsList.length */\n      lt\n        /* \"contracts/2_Owner.sol\":1288:1368  require(_transactionId < transactionsList.length, \"Transaction does not exist!\") */\n      tag_81\n      jumpi\n      mload(0x40)\n      0x08c379a000000000000000000000000000000000000000000000000000000000\n      dup2\n      mstore\n      0x04\n      add\n      tag_82\n      swap1\n      tag_83\n      jump\t// in\n    tag_82:\n      mload(0x40)\n      dup1\n      swap2\n      sub\n      swap1\n      revert\n    tag_81:\n        /* \"contracts/2_Owner.sol\":4188:4202  _transactionId */\n      dup2\n        /* \"contracts/2_Owner.sol\":1458:1481  Transaction storage txn */\n      0x00\n        /* \"contracts/2_Owner.sol\":1484:1500  transactionsList */\n      0x02\n        /* \"contracts/2_Owner.sol\":1501:1515  _transactionId */\n      dup3\n        /* \"contracts/2_Owner.sol\":1484:1516  transactionsList[_transactionId] */\n      dup2\n      sload\n      dup2\n      lt\n      tag_85\n      jumpi\n      tag_86\n      tag_87\n      jump\t// in\n    tag_86:\n    tag_85:\n      swap1\n      0x00\n      mstore\n      keccak256(0x00, 0x20)\n      swap1\n      0x05\n      mul\n      add\n        /* \"contracts/2_Owner.sol\":1458:1516  Transaction storage txn = transactionsList[_transactionId] */\n      swap1\n      pop\n        /* \"contracts/2_Owner.sol\":1548:1574  TransactionStatus.Executed */\n      0x02\n        /* \"contracts/2_Owner.sol\":1534:1574  txn.status != TransactionStatus.Executed */\n      0x03\n      dup2\n      gt\n      iszero\n      tag_89\n      jumpi\n      tag_90\n      tag_67\n      jump\t// in\n    tag_90:\n    tag_89:\n        /* \"contracts/2_Owner.sol\":1534:1537  txn */\n      dup2\n        /* \"contracts/2_Owner.sol\":1534:1544  txn.status */\n      0x02\n      add\n      0x00\n      swap1\n      sload\n      swap1\n      0x0100\n      exp\n      swap1\n      div\n      0xff\n      and\n        /* \"contracts/2_Owner.sol\":1534:1574  txn.status != TransactionStatus.Executed */\n      0x03\n      dup2\n      gt\n      iszero\n      tag_91\n      jumpi\n      tag_92\n      tag_67\n      jump\t// in\n    tag_92:\n    tag_91:\n      sub\n        /* \"contracts/2_Owner.sol\":1526:1608  require(txn.status != TransactionStatus.Executed, \"Transaction already executed!\") */\n      tag_93\n      jumpi\n      mload(0x40)\n      0x08c379a000000000000000000000000000000000000000000000000000000000\n      dup2\n      mstore\n      0x04\n      add\n      tag_94\n      swap1\n      tag_95\n      jump\t// in\n    tag_94:\n      mload(0x40)\n      dup1\n      swap2\n      sub\n      swap1\n      revert\n    tag_93:\n        /* \"contracts/2_Owner.sol\":1640:1667  TransactionStatus.Cancelled */\n      0x03\n        /* \"contracts/2_Owner.sol\":1626:1667  txn.status != TransactionStatus.Cancelled */\n      dup1\n      dup2\n      gt\n      iszero\n      tag_96\n      jumpi\n      tag_97\n      tag_67\n      jump\t// in\n    tag_97:\n    tag_96:\n        /* \"contracts/2_Owner.sol\":1626:1629  txn */\n      dup2\n        /* \"contracts/2_Owner.sol\":1626:1636  txn.status */\n      0x02\n      add\n      0x00\n      swap1\n      sload\n      swap1\n      0x0100\n      exp\n      swap1\n      div\n      0xff\n      and\n        /* \"contracts/2_Owner.sol\":1626:1667  txn.status != TransactionStatus.Cancelled */\n      0x03\n      dup2\n      gt\n      iszero\n      tag_98\n      jumpi\n      tag_99\n      tag_67\n      jump\t// in\n    tag_99:\n    tag_98:\n      sub\n        /* \"contracts/2_Owner.sol\":1618:1702  require(txn.status != TransactionStatus.Cancelled, \"Transaction already cancelled!\") */\n      tag_100\n      jumpi\n      mload(0x40)\n      0x08c379a000000000000000000000000000000000000000000000000000000000\n      dup2\n      mstore\n      0x04\n      add\n      tag_101\n      swap1\n      tag_102\n      jump\t// in\n    tag_101:\n      mload(0x40)\n      dup1\n      swap2\n      sub\n      swap1\n      revert\n    tag_100:\n        /* \"contracts/2_Owner.sol\":4218:4256  Transaction storage currentTransaction */\n      0x00\n        /* \"contracts/2_Owner.sol\":4259:4275  transactionsList */\n      0x02\n        /* \"contracts/2_Owner.sol\":4276:4290  _transactionId */\n      dup6\n        /* \"contracts/2_Owner.sol\":4259:4291  transactionsList[_transactionId] */\n      dup2\n      sload\n      dup2\n      lt\n      tag_104\n      jumpi\n      tag_105\n      tag_87\n      jump\t// in\n    tag_105:\n    tag_104:\n      swap1\n      0x00\n      mstore\n      keccak256(0x00, 0x20)\n      swap1\n      0x05\n      mul\n      add\n        /* \"contracts/2_Owner.sol\":4218:4291  Transaction storage currentTransaction = transactionsList[_transactionId] */\n      swap1\n      pop\n        /* \"contracts/2_Owner.sol\":4329:4356  TransactionStatus.Cancelled */\n      0x03\n        /* \"contracts/2_Owner.sol\":4301:4319  currentTransaction */\n      dup2\n        /* \"contracts/2_Owner.sol\":4301:4326  currentTransaction.status */\n      0x02\n      add\n      0x00\n        /* \"contracts/2_Owner.sol\":4301:4356  currentTransaction.status = TransactionStatus.Cancelled */\n      0x0100\n      exp\n      dup2\n      sload\n      dup2\n      0xff\n      mul\n      not\n      and\n      swap1\n      dup4\n      0x03\n      dup2\n      gt\n      iszero\n      tag_107\n      jumpi\n      tag_108\n      tag_67\n      jump\t// in\n    tag_108:\n    tag_107:\n      mul\n      or\n      swap1\n      sstore\n      pop\n        /* \"contracts/2_Owner.sol\":4393:4407  _transactionId */\n      dup5\n        /* \"contracts/2_Owner.sol\":4372:4408  TransactionCancelled(_transactionId) */\n      0x956fb32199d8b882b2039a14e1be35ab14f7a80b9089fc223f14b43937173e60\n      mload(0x40)\n      mload(0x40)\n      dup1\n      swap2\n      sub\n      swap1\n      log2\n        /* \"contracts/2_Owner.sol\":4208:4415  {... */\n      pop\n        /* \"contracts/2_Owner.sol\":1448:1720  {... */\n      pop\n        /* \"contracts/2_Owner.sol\":1378:1379  _ */\n      pop\n        /* \"contracts/2_Owner.sol\":1080:1081  _ */\n      pop\n        /* \"contracts/2_Owner.sol\":4046:4415  function cancelTransaction(uint256 _transactionId) public OnlyOwners... */\n      pop\n      jump\t// out\n        /* \"contracts/2_Owner.sol\":1726:1956  function addOwner(address newOwner) public OnlyOwners {... */\n    tag_33:\n        /* \"contracts/2_Owner.sol\":1025:1032  isOwner */\n      0x03\n        /* \"contracts/2_Owner.sol\":1025:1044  isOwner[msg.sender] */\n      0x00\n        /* \"contracts/2_Owner.sol\":1033:1043  msg.sender */\n      caller\n        /* \"contracts/2_Owner.sol\":1025:1044  isOwner[msg.sender] */\n      0xffffffffffffffffffffffffffffffffffffffff\n      and\n      0xffffffffffffffffffffffffffffffffffffffff\n      and\n      dup2\n      mstore\n      0x20\n      add\n      swap1\n      dup2\n      mstore\n      0x20\n      add\n      0x00\n      keccak256\n      0x00\n      swap1\n      sload\n      swap1\n      0x0100\n      exp\n      swap1\n      div\n      0xff\n      and\n        /* \"contracts/2_Owner.sol\":1017:1070  require(isOwner[msg.sender], \"You must be an owner!\") */\n      tag_110\n      jumpi\n      mload(0x40)\n      0x08c379a000000000000000000000000000000000000000000000000000000000\n      dup2\n      mstore\n      0x04\n      add\n      tag_111\n      swap1\n      tag_58\n      jump\t// in\n    tag_111:\n      mload(0x40)\n      dup1\n      swap2\n      sub\n      swap1\n      revert\n    tag_110:\n        /* \"contracts/2_Owner.sol\":1799:1806  isOwner */\n      0x03\n        /* \"contracts/2_Owner.sol\":1799:1816  isOwner[newOwner] */\n      0x00\n        /* \"contracts/2_Owner.sol\":1807:1815  newOwner */\n      dup3\n        /* \"contracts/2_Owner.sol\":1799:1816  isOwner[newOwner] */\n      0xffffffffffffffffffffffffffffffffffffffff\n      and\n      0xffffffffffffffffffffffffffffffffffffffff\n      and\n      dup2\n      mstore\n      0x20\n      add\n      swap1\n      dup2\n      mstore\n      0x20\n      add\n      0x00\n      keccak256\n      0x00\n      swap1\n      sload\n      swap1\n      0x0100\n      exp\n      swap1\n      div\n      0xff\n      and\n        /* \"contracts/2_Owner.sol\":1798:1816  !isOwner[newOwner] */\n      iszero\n        /* \"contracts/2_Owner.sol\":1790:1849  require(!isOwner[newOwner], \"Address is already an owner!\") */\n      tag_113\n      jumpi\n      mload(0x40)\n      0x08c379a000000000000000000000000000000000000000000000000000000000\n      dup2\n      mstore\n      0x04\n      add\n      tag_114\n      swap1\n      tag_115\n      jump\t// in\n    tag_114:\n      mload(0x40)\n      dup1\n      swap2\n      sub\n      swap1\n      revert\n    tag_113:\n        /* \"contracts/2_Owner.sol\":1879:1883  true */\n      0x01\n        /* \"contracts/2_Owner.sol\":1859:1866  isOwner */\n      0x03\n        /* \"contracts/2_Owner.sol\":1859:1876  isOwner[newOwner] */\n      0x00\n        /* \"contracts/2_Owner.sol\":1867:1875  newOwner */\n      dup4\n        /* \"contracts/2_Owner.sol\":1859:1876  isOwner[newOwner] */\n      0xffffffffffffffffffffffffffffffffffffffff\n      and\n      0xffffffffffffffffffffffffffffffffffffffff\n      and\n      dup2\n      mstore\n      0x20\n      add\n      swap1\n      dup2\n      mstore\n      0x20\n      add\n      0x00\n      keccak256\n      0x00\n        /* \"contracts/2_Owner.sol\":1859:1883  isOwner[newOwner] = true */\n      0x0100\n      exp\n      dup2\n      sload\n      dup2\n      0xff\n      mul\n      not\n      and\n      swap1\n      dup4\n      iszero\n      iszero\n      mul\n      or\n      swap1\n      sstore\n      pop\n        /* \"contracts/2_Owner.sol\":1893:1899  owners */\n      0x01\n        /* \"contracts/2_Owner.sol\":1905:1913  newOwner */\n      dup2\n        /* \"contracts/2_Owner.sol\":1893:1914  owners.push(newOwner) */\n      swap1\n      dup1\n      0x01\n      dup2\n      sload\n      add\n      dup1\n      dup3\n      sstore\n      dup1\n      swap2\n      pop\n      pop\n      0x01\n      swap1\n      sub\n      swap1\n      0x00\n      mstore\n      keccak256(0x00, 0x20)\n      add\n      0x00\n      swap1\n      swap2\n      swap1\n      swap2\n      swap1\n      swap2\n      0x0100\n      exp\n      dup2\n      sload\n      dup2\n      0xffffffffffffffffffffffffffffffffffffffff\n      mul\n      not\n      and\n      swap1\n      dup4\n      0xffffffffffffffffffffffffffffffffffffffff\n      and\n      mul\n      or\n      swap1\n      sstore\n      pop\n        /* \"contracts/2_Owner.sol\":1940:1948  newOwner */\n      dup1\n        /* \"contracts/2_Owner.sol\":1929:1949  OwnerAdded(newOwner) */\n      0xffffffffffffffffffffffffffffffffffffffff\n      and\n      0x994a936646fe87ffe4f1e469d3d6aa417d6b855598397f323de5b449f765f0c3\n      mload(0x40)\n      mload(0x40)\n      dup1\n      swap2\n      sub\n      swap1\n      log2\n        /* \"contracts/2_Owner.sol\":1726:1956  function addOwner(address newOwner) public OnlyOwners {... */\n      pop\n      jump\t// out\n        /* \"contracts/2_Owner.sol\":4421:4576  function getTransactionSignatures(uint256 _transactionId) public view returns (uint256) {... */\n    tag_36:\n        /* \"contracts/2_Owner.sol\":4500:4507  uint256 */\n      0x00\n        /* \"contracts/2_Owner.sol\":4526:4542  transactionsList */\n      0x02\n        /* \"contracts/2_Owner.sol\":4543:4557  _transactionId */\n      dup3\n        /* \"contracts/2_Owner.sol\":4526:4558  transactionsList[_transactionId] */\n      dup2\n      sload\n      dup2\n      lt\n      tag_118\n      jumpi\n      tag_119\n      tag_87\n      jump\t// in\n    tag_119:\n    tag_118:\n      swap1\n      0x00\n      mstore\n      keccak256(0x00, 0x20)\n      swap1\n      0x05\n      mul\n      add\n        /* \"contracts/2_Owner.sol\":4526:4569  transactionsList[_transactionId].totalSigns */\n      0x04\n      add\n      sload\n        /* \"contracts/2_Owner.sol\":4519:4569  return transactionsList[_transactionId].totalSigns */\n      swap1\n      pop\n        /* \"contracts/2_Owner.sol\":4421:4576  function getTransactionSignatures(uint256 _transactionId) public view returns (uint256) {... */\n      swap2\n      swap1\n      pop\n      jump\t// out\n        /* \"contracts/2_Owner.sol\":389:411  uint256 public balance */\n    tag_40:\n      sload(0x00)\n      dup2\n      jump\t// out\n        /* \"contracts/2_Owner.sol\":2590:3347  function confirmTransaction(uint256 _transactionId) public OnlyOwners... */\n    tag_44:\n        /* \"contracts/2_Owner.sol\":1025:1032  isOwner */\n      0x03\n        /* \"contracts/2_Owner.sol\":1025:1044  isOwner[msg.sender] */\n      0x00\n        /* \"contracts/2_Owner.sol\":1033:1043  msg.sender */\n      caller\n        /* \"contracts/2_Owner.sol\":1025:1044  isOwner[msg.sender] */\n      0xffffffffffffffffffffffffffffffffffffffff\n      and\n      0xffffffffffffffffffffffffffffffffffffffff\n      and\n      dup2\n      mstore\n      0x20\n      add\n      swap1\n      dup2\n      mstore\n      0x20\n      add\n      0x00\n      keccak256\n      0x00\n      swap1\n      sload\n      swap1\n      0x0100\n      exp\n      swap1\n      div\n      0xff\n      and\n        /* \"contracts/2_Owner.sol\":1017:1070  require(isOwner[msg.sender], \"You must be an owner!\") */\n      tag_122\n      jumpi\n      mload(0x40)\n      0x08c379a000000000000000000000000000000000000000000000000000000000\n      dup2\n      mstore\n      0x04\n      add\n      tag_123\n      swap1\n      tag_58\n      jump\t// in\n    tag_123:\n      mload(0x40)\n      dup1\n      swap2\n      sub\n      swap1\n      revert\n    tag_122:\n        /* \"contracts/2_Owner.sol\":2686:2700  _transactionId */\n      dup1\n        /* \"contracts/2_Owner.sol\":1313:1329  transactionsList */\n      0x02\n        /* \"contracts/2_Owner.sol\":1313:1336  transactionsList.length */\n      dup1\n      sload\n      swap1\n      pop\n        /* \"contracts/2_Owner.sol\":1296:1310  _transactionId */\n      dup2\n        /* \"contracts/2_Owner.sol\":1296:1336  _transactionId < transactionsList.length */\n      lt\n        /* \"contracts/2_Owner.sol\":1288:1368  require(_transactionId < transactionsList.length, \"Transaction does not exist!\") */\n      tag_125\n      jumpi\n      mload(0x40)\n      0x08c379a000000000000000000000000000000000000000000000000000000000\n      dup2\n      mstore\n      0x04\n      add\n      tag_126\n      swap1\n      tag_83\n      jump\t// in\n    tag_126:\n      mload(0x40)\n      dup1\n      swap2\n      sub\n      swap1\n      revert\n    tag_125:\n        /* \"contracts/2_Owner.sol\":2733:2747  _transactionId */\n      dup2\n        /* \"contracts/2_Owner.sol\":1458:1481  Transaction storage txn */\n      0x00\n        /* \"contracts/2_Owner.sol\":1484:1500  transactionsList */\n      0x02\n        /* \"contracts/2_Owner.sol\":1501:1515  _transactionId */\n      dup3\n        /* \"contracts/2_Owner.sol\":1484:1516  transactionsList[_transactionId] */\n      dup2\n      sload\n      dup2\n      lt\n      tag_128\n      jumpi\n      tag_129\n      tag_87\n      jump\t// in\n    tag_129:\n    tag_128:\n      swap1\n      0x00\n      mstore\n      keccak256(0x00, 0x20)\n      swap1\n      0x05\n      mul\n      add\n        /* \"contracts/2_Owner.sol\":1458:1516  Transaction storage txn = transactionsList[_transactionId] */\n      swap1\n      pop\n        /* \"contracts/2_Owner.sol\":1548:1574  TransactionStatus.Executed */\n      0x02\n        /* \"contracts/2_Owner.sol\":1534:1574  txn.status != TransactionStatus.Executed */\n      0x03\n      dup2\n      gt\n      iszero\n      tag_131\n      jumpi\n      tag_132\n      tag_67\n      jump\t// in\n    tag_132:\n    tag_131:\n        /* \"contracts/2_Owner.sol\":1534:1537  txn */\n      dup2\n        /* \"contracts/2_Owner.sol\":1534:1544  txn.status */\n      0x02\n      add\n      0x00\n      swap1\n      sload\n      swap1\n      0x0100\n      exp\n      swap1\n      div\n      0xff\n      and\n        /* \"contracts/2_Owner.sol\":1534:1574  txn.status != TransactionStatus.Executed */\n      0x03\n      dup2\n      gt\n      iszero\n      tag_133\n      jumpi\n      tag_134\n      tag_67\n      jump\t// in\n    tag_134:\n    tag_133:\n      sub\n        /* \"contracts/2_Owner.sol\":1526:1608  require(txn.status != TransactionStatus.Executed, \"Transaction already executed!\") */\n      tag_135\n      jumpi\n      mload(0x40)\n      0x08c379a000000000000000000000000000000000000000000000000000000000\n      dup2\n      mstore\n      0x04\n      add\n      tag_136\n      swap1\n      tag_95\n      jump\t// in\n    tag_136:\n      mload(0x40)\n      dup1\n      swap2\n      sub\n      swap1\n      revert\n    tag_135:\n        /* \"contracts/2_Owner.sol\":1640:1667  TransactionStatus.Cancelled */\n      0x03\n        /* \"contracts/2_Owner.sol\":1626:1667  txn.status != TransactionStatus.Cancelled */\n      dup1\n      dup2\n      gt\n      iszero\n      tag_137\n      jumpi\n      tag_138\n      tag_67\n      jump\t// in\n    tag_138:\n    tag_137:\n        /* \"contracts/2_Owner.sol\":1626:1629  txn */\n      dup2\n        /* \"contracts/2_Owner.sol\":1626:1636  txn.status */\n      0x02\n      add\n      0x00\n      swap1\n      sload\n      swap1\n      0x0100\n      exp\n      swap1\n      div\n      0xff\n      and\n        /* \"contracts/2_Owner.sol\":1626:1667  txn.status != TransactionStatus.Cancelled */\n      0x03\n      dup2\n      gt\n      iszero\n      tag_139\n      jumpi\n      tag_140\n      tag_67\n      jump\t// in\n    tag_140:\n    tag_139:\n      sub\n        /* \"contracts/2_Owner.sol\":1618:1702  require(txn.status != TransactionStatus.Cancelled, \"Transaction already cancelled!\") */\n      tag_141\n      jumpi\n      mload(0x40)\n      0x08c379a000000000000000000000000000000000000000000000000000000000\n      dup2\n      mstore\n      0x04\n      add\n      tag_142\n      swap1\n      tag_102\n      jump\t// in\n    tag_142:\n      mload(0x40)\n      dup1\n      swap2\n      sub\n      swap1\n      revert\n    tag_141:\n        /* \"contracts/2_Owner.sol\":2763:2801  Transaction storage currentTransaction */\n      0x00\n        /* \"contracts/2_Owner.sol\":2804:2820  transactionsList */\n      0x02\n        /* \"contracts/2_Owner.sol\":2821:2835  _transactionId */\n      dup6\n        /* \"contracts/2_Owner.sol\":2804:2836  transactionsList[_transactionId] */\n      dup2\n      sload\n      dup2\n      lt\n      tag_144\n      jumpi\n      tag_145\n      tag_87\n      jump\t// in\n    tag_145:\n    tag_144:\n      swap1\n      0x00\n      mstore\n      keccak256(0x00, 0x20)\n      swap1\n      0x05\n      mul\n      add\n        /* \"contracts/2_Owner.sol\":2763:2836  Transaction storage currentTransaction = transactionsList[_transactionId] */\n      swap1\n      pop\n        /* \"contracts/2_Owner.sol\":2856:2874  currentTransaction */\n      dup1\n        /* \"contracts/2_Owner.sol\":2856:2887  currentTransaction.ownersSigned */\n      0x03\n      add\n        /* \"contracts/2_Owner.sol\":2856:2899  currentTransaction.ownersSigned[msg.sender] */\n      0x00\n        /* \"contracts/2_Owner.sol\":2888:2898  msg.sender */\n      caller\n        /* \"contracts/2_Owner.sol\":2856:2899  currentTransaction.ownersSigned[msg.sender] */\n      0xffffffffffffffffffffffffffffffffffffffff\n      and\n      0xffffffffffffffffffffffffffffffffffffffff\n      and\n      dup2\n      mstore\n      0x20\n      add\n      swap1\n      dup2\n      mstore\n      0x20\n      add\n      0x00\n      keccak256\n      0x00\n      swap1\n      sload\n      swap1\n      0x0100\n      exp\n      swap1\n      div\n      0xff\n      and\n        /* \"contracts/2_Owner.sol\":2855:2899  !currentTransaction.ownersSigned[msg.sender] */\n      iszero\n        /* \"contracts/2_Owner.sol\":2847:2945  require(!currentTransaction.ownersSigned[msg.sender], \"You have already signed this transaction!\") */\n      tag_147\n      jumpi\n      mload(0x40)\n      0x08c379a000000000000000000000000000000000000000000000000000000000\n      dup2\n      mstore\n      0x04\n      add\n      tag_148\n      swap1\n      tag_149\n      jump\t// in\n    tag_148:\n      mload(0x40)\n      dup1\n      swap2\n      sub\n      swap1\n      revert\n    tag_147:\n        /* \"contracts/2_Owner.sol\":3002:3006  true */\n      0x01\n        /* \"contracts/2_Owner.sol\":2956:2974  currentTransaction */\n      dup2\n        /* \"contracts/2_Owner.sol\":2956:2987  currentTransaction.ownersSigned */\n      0x03\n      add\n        /* \"contracts/2_Owner.sol\":2956:2999  currentTransaction.ownersSigned[msg.sender] */\n      0x00\n        /* \"contracts/2_Owner.sol\":2988:2998  msg.sender */\n      caller\n        /* \"contracts/2_Owner.sol\":2956:2999  currentTransaction.ownersSigned[msg.sender] */\n      0xffffffffffffffffffffffffffffffffffffffff\n      and\n      0xffffffffffffffffffffffffffffffffffffffff\n      and\n      dup2\n      mstore\n      0x20\n      add\n      swap1\n      dup2\n      mstore\n      0x20\n      add\n      0x00\n      keccak256\n      0x00\n        /* \"contracts/2_Owner.sol\":2956:3006  currentTransaction.ownersSigned[msg.sender] = true */\n      0x0100\n      exp\n      dup2\n      sload\n      dup2\n      0xff\n      mul\n      not\n      and\n      swap1\n      dup4\n      iszero\n      iszero\n      mul\n      or\n      swap1\n      sstore\n      pop\n        /* \"contracts/2_Owner.sol\":3016:3034  currentTransaction */\n      dup1\n        /* \"contracts/2_Owner.sol\":3016:3045  currentTransaction.totalSigns */\n      0x04\n      add\n      0x00\n        /* \"contracts/2_Owner.sol\":3016:3047  currentTransaction.totalSigns++ */\n      dup2\n      sload\n      dup1\n      swap3\n      swap2\n      swap1\n      tag_150\n      swap1\n      tag_151\n      jump\t// in\n    tag_150:\n      swap2\n      swap1\n      pop\n      sstore\n      pop\n        /* \"contracts/2_Owner.sol\":3058:3079  uint256 requiredSigns */\n      0x00\n        /* \"contracts/2_Owner.sol\":3124:3125  0 */\n      dup1\n        /* \"contracts/2_Owner.sol\":3119:3120  2 */\n      0x02\n        /* \"contracts/2_Owner.sol\":3103:3109  owners */\n      0x01\n        /* \"contracts/2_Owner.sol\":3103:3116  owners.length */\n      dup1\n      sload\n      swap1\n      pop\n        /* \"contracts/2_Owner.sol\":3103:3120  owners.length % 2 */\n      tag_152\n      swap2\n      swap1\n      tag_153\n      jump\t// in\n    tag_152:\n        /* \"contracts/2_Owner.sol\":3103:3125  owners.length % 2 == 0 */\n      eq\n        /* \"contracts/2_Owner.sol\":3103:3133  owners.length % 2 == 0 ? 1 : 0 */\n      tag_154\n      jumpi\n        /* \"contracts/2_Owner.sol\":3132:3133  0 */\n      0x00\n        /* \"contracts/2_Owner.sol\":3103:3133  owners.length % 2 == 0 ? 1 : 0 */\n      jump(tag_155)\n    tag_154:\n        /* \"contracts/2_Owner.sol\":3128:3129  1 */\n      0x01\n        /* \"contracts/2_Owner.sol\":3103:3133  owners.length % 2 == 0 ? 1 : 0 */\n    tag_155:\n        /* \"contracts/2_Owner.sol\":3082:3134  owners.length / 2 + (owners.length % 2 == 0 ? 1 : 0) */\n      0xff\n      and\n        /* \"contracts/2_Owner.sol\":3098:3099  2 */\n      0x02\n        /* \"contracts/2_Owner.sol\":3082:3088  owners */\n      0x01\n        /* \"contracts/2_Owner.sol\":3082:3095  owners.length */\n      dup1\n      sload\n      swap1\n      pop\n        /* \"contracts/2_Owner.sol\":3082:3099  owners.length / 2 */\n      tag_156\n      swap2\n      swap1\n      tag_157\n      jump\t// in\n    tag_156:\n        /* \"contracts/2_Owner.sol\":3082:3134  owners.length / 2 + (owners.length % 2 == 0 ? 1 : 0) */\n      tag_158\n      swap2\n      swap1\n      tag_76\n      jump\t// in\n    tag_158:\n        /* \"contracts/2_Owner.sol\":3058:3134  uint256 requiredSigns = owners.length / 2 + (owners.length % 2 == 0 ? 1 : 0) */\n      swap1\n      pop\n        /* \"contracts/2_Owner.sol\":3187:3197  msg.sender */\n      caller\n        /* \"contracts/2_Owner.sol\":3150:3198  TransactionConfirmed(_transactionId, msg.sender) */\n      0xffffffffffffffffffffffffffffffffffffffff\n      and\n        /* \"contracts/2_Owner.sol\":3171:3185  _transactionId */\n      dup7\n        /* \"contracts/2_Owner.sol\":3150:3198  TransactionConfirmed(_transactionId, msg.sender) */\n      0x15c2f311c9e0f53b50388279894aeff029a3457884a6601e924fca879e12adcc\n      mload(0x40)\n      mload(0x40)\n      dup1\n      swap2\n      sub\n      swap1\n      log3\n        /* \"contracts/2_Owner.sol\":3246:3259  requiredSigns */\n      dup1\n        /* \"contracts/2_Owner.sol\":3213:3231  currentTransaction */\n      dup3\n        /* \"contracts/2_Owner.sol\":3213:3242  currentTransaction.totalSigns */\n      0x04\n      add\n      sload\n        /* \"contracts/2_Owner.sol\":3213:3259  currentTransaction.totalSigns >= requiredSigns */\n      lt\n        /* \"contracts/2_Owner.sol\":3209:3341  if (currentTransaction.totalSigns >= requiredSigns) {... */\n      tag_159\n      jumpi\n        /* \"contracts/2_Owner.sol\":3303:3330  TransactionStatus.Confirmed */\n      0x01\n        /* \"contracts/2_Owner.sol\":3275:3293  currentTransaction */\n      dup3\n        /* \"contracts/2_Owner.sol\":3275:3300  currentTransaction.status */\n      0x02\n      add\n      0x00\n        /* \"contracts/2_Owner.sol\":3275:3330  currentTransaction.status = TransactionStatus.Confirmed */\n      0x0100\n      exp\n      dup2\n      sload\n      dup2\n      0xff\n      mul\n      not\n      and\n      swap1\n      dup4\n      0x03\n      dup2\n      gt\n      iszero\n      tag_160\n      jumpi\n      tag_161\n      tag_67\n      jump\t// in\n    tag_161:\n    tag_160:\n      mul\n      or\n      swap1\n      sstore\n      pop\n        /* \"contracts/2_Owner.sol\":3209:3341  if (currentTransaction.totalSigns >= requiredSigns) {... */\n    tag_159:\n        /* \"contracts/2_Owner.sol\":2753:3347  {... */\n      pop\n      pop\n        /* \"contracts/2_Owner.sol\":1448:1720  {... */\n      pop\n        /* \"contracts/2_Owner.sol\":1378:1379  _ */\n      pop\n        /* \"contracts/2_Owner.sol\":1080:1081  _ */\n      pop\n        /* \"contracts/2_Owner.sol\":2590:3347  function confirmTransaction(uint256 _transactionId) public OnlyOwners... */\n      pop\n      jump\t// out\n        /* \"contracts/2_Owner.sol\":446:483  Transaction[] public transactionsList */\n    tag_47:\n      0x02\n      dup2\n      dup2\n      sload\n      dup2\n      lt\n      tag_162\n      jumpi\n      0x00\n      dup1\n      revert\n    tag_162:\n      swap1\n      0x00\n      mstore\n      keccak256(0x00, 0x20)\n      swap1\n      0x05\n      mul\n      add\n      0x00\n      swap2\n      pop\n      swap1\n      pop\n      dup1\n      0x00\n      add\n      0x00\n      swap1\n      sload\n      swap1\n      0x0100\n      exp\n      swap1\n      div\n      0xffffffffffffffffffffffffffffffffffffffff\n      and\n      swap1\n      dup1\n      0x01\n      add\n      sload\n      swap1\n      dup1\n      0x02\n      add\n      0x00\n      swap1\n      sload\n      swap1\n      0x0100\n      exp\n      swap1\n      div\n      0xff\n      and\n      swap1\n      dup1\n      0x04\n      add\n      sload\n      swap1\n      pop\n      dup5\n      jump\t// out\n        /* \"contracts/2_Owner.sol\":3353:4040  function executeTransaction(uint256 _transactionId) public OnlyOwners... */\n    tag_52:\n        /* \"contracts/2_Owner.sol\":1025:1032  isOwner */\n      0x03\n        /* \"contracts/2_Owner.sol\":1025:1044  isOwner[msg.sender] */\n      0x00\n        /* \"contracts/2_Owner.sol\":1033:1043  msg.sender */\n      caller\n        /* \"contracts/2_Owner.sol\":1025:1044  isOwner[msg.sender] */\n      0xffffffffffffffffffffffffffffffffffffffff\n      and\n      0xffffffffffffffffffffffffffffffffffffffff\n      and\n      dup2\n      mstore\n      0x20\n      add\n      swap1\n      dup2\n      mstore\n      0x20\n      add\n      0x00\n      keccak256\n      0x00\n      swap1\n      sload\n      swap1\n      0x0100\n      exp\n      swap1\n      div\n      0xff\n      and\n        /* \"contracts/2_Owner.sol\":1017:1070  require(isOwner[msg.sender], \"You must be an owner!\") */\n      tag_165\n      jumpi\n      mload(0x40)\n      0x08c379a000000000000000000000000000000000000000000000000000000000\n      dup2\n      mstore\n      0x04\n      add\n      tag_166\n      swap1\n      tag_58\n      jump\t// in\n    tag_166:\n      mload(0x40)\n      dup1\n      swap2\n      sub\n      swap1\n      revert\n    tag_165:\n        /* \"contracts/2_Owner.sol\":3449:3463  _transactionId */\n      dup1\n        /* \"contracts/2_Owner.sol\":1313:1329  transactionsList */\n      0x02\n        /* \"contracts/2_Owner.sol\":1313:1336  transactionsList.length */\n      dup1\n      sload\n      swap1\n      pop\n        /* \"contracts/2_Owner.sol\":1296:1310  _transactionId */\n      dup2\n        /* \"contracts/2_Owner.sol\":1296:1336  _transactionId < transactionsList.length */\n      lt\n        /* \"contracts/2_Owner.sol\":1288:1368  require(_transactionId < transactionsList.length, \"Transaction does not exist!\") */\n      tag_168\n      jumpi\n      mload(0x40)\n      0x08c379a000000000000000000000000000000000000000000000000000000000\n      dup2\n      mstore\n      0x04\n      add\n      tag_169\n      swap1\n      tag_83\n      jump\t// in\n    tag_169:\n      mload(0x40)\n      dup1\n      swap2\n      sub\n      swap1\n      revert\n    tag_168:\n        /* \"contracts/2_Owner.sol\":3496:3510  _transactionId */\n      dup2\n        /* \"contracts/2_Owner.sol\":1458:1481  Transaction storage txn */\n      0x00\n        /* \"contracts/2_Owner.sol\":1484:1500  transactionsList */\n      0x02\n        /* \"contracts/2_Owner.sol\":1501:1515  _transactionId */\n      dup3\n        /* \"contracts/2_Owner.sol\":1484:1516  transactionsList[_transactionId] */\n      dup2\n      sload\n      dup2\n      lt\n      tag_171\n      jumpi\n      tag_172\n      tag_87\n      jump\t// in\n    tag_172:\n    tag_171:\n      swap1\n      0x00\n      mstore\n      keccak256(0x00, 0x20)\n      swap1\n      0x05\n      mul\n      add\n        /* \"contracts/2_Owner.sol\":1458:1516  Transaction storage txn = transactionsList[_transactionId] */\n      swap1\n      pop\n        /* \"contracts/2_Owner.sol\":1548:1574  TransactionStatus.Executed */\n      0x02\n        /* \"contracts/2_Owner.sol\":1534:1574  txn.status != TransactionStatus.Executed */\n      0x03\n      dup2\n      gt\n      iszero\n      tag_174\n      jumpi\n      tag_175\n      tag_67\n      jump\t// in\n    tag_175:\n    tag_174:\n        /* \"contracts/2_Owner.sol\":1534:1537  txn */\n      dup2\n        /* \"contracts/2_Owner.sol\":1534:1544  txn.status */\n      0x02\n      add\n      0x00\n      swap1\n      sload\n      swap1\n      0x0100\n      exp\n      swap1\n      div\n      0xff\n      and\n        /* \"contracts/2_Owner.sol\":1534:1574  txn.status != TransactionStatus.Executed */\n      0x03\n      dup2\n      gt\n      iszero\n      tag_176\n      jumpi\n      tag_177\n      tag_67\n      jump\t// in\n    tag_177:\n    tag_176:\n      sub\n        /* \"contracts/2_Owner.sol\":1526:1608  require(txn.status != TransactionStatus.Executed, \"Transaction already executed!\") */\n      tag_178\n      jumpi\n      mload(0x40)\n      0x08c379a000000000000000000000000000000000000000000000000000000000\n      dup2\n      mstore\n      0x04\n      add\n      tag_179\n      swap1\n      tag_95\n      jump\t// in\n    tag_179:\n      mload(0x40)\n      dup1\n      swap2\n      sub\n      swap1\n      revert\n    tag_178:\n        /* \"contracts/2_Owner.sol\":1640:1667  TransactionStatus.Cancelled */\n      0x03\n        /* \"contracts/2_Owner.sol\":1626:1667  txn.status != TransactionStatus.Cancelled */\n      dup1\n      dup2\n      gt\n      iszero\n      tag_180\n      jumpi\n      tag_181\n      tag_67\n      jump\t// in\n    tag_181:\n    tag_180:\n        /* \"contracts/2_Owner.sol\":1626:1629  txn */\n      dup2\n        /* \"contracts/2_Owner.sol\":1626:1636  txn.status */\n      0x02\n      add\n      0x00\n      swap1\n      sload\n      swap1\n      0x0100\n      exp\n      swap1\n      div\n      0xff\n      and\n        /* \"contracts/2_Owner.sol\":1626:1667  txn.status != TransactionStatus.Cancelled */\n      0x03\n      dup2\n      gt\n      iszero\n      tag_182\n      jumpi\n      tag_183\n      tag_67\n      jump\t// in\n    tag_183:\n    tag_182:\n      sub\n        /* \"contracts/2_Owner.sol\":1618:1702  require(txn.status != TransactionStatus.Cancelled, \"Transaction already cancelled!\") */\n      tag_184\n      jumpi\n      mload(0x40)\n      0x08c379a000000000000000000000000000000000000000000000000000000000\n      dup2\n      mstore\n      0x04\n      add\n      tag_185\n      swap1\n      tag_102\n      jump\t// in\n    tag_185:\n      mload(0x40)\n      dup1\n      swap2\n      sub\n      swap1\n      revert\n    tag_184:\n        /* \"contracts/2_Owner.sol\":3526:3564  Transaction storage currentTransaction */\n      0x00\n        /* \"contracts/2_Owner.sol\":3567:3583  transactionsList */\n      0x02\n        /* \"contracts/2_Owner.sol\":3584:3598  _transactionId */\n      dup6\n        /* \"contracts/2_Owner.sol\":3567:3599  transactionsList[_transactionId] */\n      dup2\n      sload\n      dup2\n      lt\n      tag_187\n      jumpi\n      tag_188\n      tag_87\n      jump\t// in\n    tag_188:\n    tag_187:\n      swap1\n      0x00\n      mstore\n      keccak256(0x00, 0x20)\n      swap1\n      0x05\n      mul\n      add\n        /* \"contracts/2_Owner.sol\":3526:3599  Transaction storage currentTransaction = transactionsList[_transactionId] */\n      swap1\n      pop\n        /* \"contracts/2_Owner.sol\":3647:3674  TransactionStatus.Confirmed */\n      0x01\n        /* \"contracts/2_Owner.sol\":3618:3674  currentTransaction.status == TransactionStatus.Confirmed */\n      0x03\n      dup2\n      gt\n      iszero\n      tag_190\n      jumpi\n      tag_191\n      tag_67\n      jump\t// in\n    tag_191:\n    tag_190:\n        /* \"contracts/2_Owner.sol\":3618:3636  currentTransaction */\n      dup2\n        /* \"contracts/2_Owner.sol\":3618:3643  currentTransaction.status */\n      0x02\n      add\n      0x00\n      swap1\n      sload\n      swap1\n      0x0100\n      exp\n      swap1\n      div\n      0xff\n      and\n        /* \"contracts/2_Owner.sol\":3618:3674  currentTransaction.status == TransactionStatus.Confirmed */\n      0x03\n      dup2\n      gt\n      iszero\n      tag_192\n      jumpi\n      tag_193\n      tag_67\n      jump\t// in\n    tag_193:\n    tag_192:\n      eq\n        /* \"contracts/2_Owner.sol\":3610:3708  require(currentTransaction.status == TransactionStatus.Confirmed, \"Transaction is not confirmed!\") */\n      tag_194\n      jumpi\n      mload(0x40)\n      0x08c379a000000000000000000000000000000000000000000000000000000000\n      dup2\n      mstore\n      0x04\n      add\n      tag_195\n      swap1\n      tag_196\n      jump\t// in\n    tag_195:\n      mload(0x40)\n      dup1\n      swap2\n      sub\n      swap1\n      revert\n    tag_194:\n        /* \"contracts/2_Owner.sol\":3737:3755  currentTransaction */\n      dup1\n        /* \"contracts/2_Owner.sol\":3737:3762  currentTransaction.amount */\n      0x01\n      add\n      sload\n        /* \"contracts/2_Owner.sol\":3726:3733  balance */\n      sload(0x00)\n        /* \"contracts/2_Owner.sol\":3726:3762  balance >= currentTransaction.amount */\n      lt\n      iszero\n        /* \"contracts/2_Owner.sol\":3718:3788  require(balance >= currentTransaction.amount, \"Insufficient balance!\") */\n      tag_197\n      jumpi\n      mload(0x40)\n      0x08c379a000000000000000000000000000000000000000000000000000000000\n      dup2\n      mstore\n      0x04\n      add\n      tag_198\n      swap1\n      tag_62\n      jump\t// in\n    tag_198:\n      mload(0x40)\n      dup1\n      swap2\n      sub\n      swap1\n      revert\n    tag_197:\n        /* \"contracts/2_Owner.sol\":3810:3828  currentTransaction */\n      dup1\n        /* \"contracts/2_Owner.sol\":3810:3835  currentTransaction.amount */\n      0x01\n      add\n      sload\n        /* \"contracts/2_Owner.sol\":3799:3806  balance */\n      0x00\n      dup1\n        /* \"contracts/2_Owner.sol\":3799:3835  balance -= currentTransaction.amount */\n      dup3\n      dup3\n      sload\n      tag_199\n      swap2\n      swap1\n      tag_69\n      jump\t// in\n    tag_199:\n      swap3\n      pop\n      pop\n      dup2\n      swap1\n      sstore\n      pop\n        /* \"contracts/2_Owner.sol\":3853:3871  currentTransaction */\n      dup1\n        /* \"contracts/2_Owner.sol\":3853:3880  currentTransaction.receiver */\n      0x00\n      add\n      0x00\n      swap1\n      sload\n      swap1\n      0x0100\n      exp\n      swap1\n      div\n      0xffffffffffffffffffffffffffffffffffffffff\n      and\n        /* \"contracts/2_Owner.sol\":3845:3890  payable(currentTransaction.receiver).transfer */\n      0xffffffffffffffffffffffffffffffffffffffff\n      and\n        /* \"contracts/2_Owner.sol\":3845:3917  payable(currentTransaction.receiver).transfer(currentTransaction.amount) */\n      0x08fc\n        /* \"contracts/2_Owner.sol\":3891:3909  currentTransaction */\n      dup3\n        /* \"contracts/2_Owner.sol\":3891:3916  currentTransaction.amount */\n      0x01\n      add\n      sload\n        /* \"contracts/2_Owner.sol\":3845:3917  payable(currentTransaction.receiver).transfer(currentTransaction.amount) */\n      swap1\n      dup2\n      iszero\n      mul\n      swap1\n      mload(0x40)\n      0x00\n      mload(0x40)\n      dup1\n      dup4\n      sub\n      dup2\n      dup6\n      dup9\n      dup9\n      call\n      swap4\n      pop\n      pop\n      pop\n      pop\n      iszero\n      dup1\n      iszero\n      tag_201\n      jumpi\n      returndatasize\n      0x00\n      dup1\n      returndatacopy\n      revert(0x00, returndatasize)\n    tag_201:\n      pop\n        /* \"contracts/2_Owner.sol\":3956:3982  TransactionStatus.Executed */\n      0x02\n        /* \"contracts/2_Owner.sol\":3928:3946  currentTransaction */\n      dup2\n        /* \"contracts/2_Owner.sol\":3928:3953  currentTransaction.status */\n      0x02\n      add\n      0x00\n        /* \"contracts/2_Owner.sol\":3928:3982  currentTransaction.status = TransactionStatus.Executed */\n      0x0100\n      exp\n      dup2\n      sload\n      dup2\n      0xff\n      mul\n      not\n      and\n      swap1\n      dup4\n      0x03\n      dup2\n      gt\n      iszero\n      tag_202\n      jumpi\n      tag_203\n      tag_67\n      jump\t// in\n    tag_203:\n    tag_202:\n      mul\n      or\n      swap1\n      sstore\n      pop\n        /* \"contracts/2_Owner.sol\":4018:4032  _transactionId */\n      dup5\n        /* \"contracts/2_Owner.sol\":3998:4033  TransactionExecuted(_transactionId) */\n      0x15ed165a284872ea7017f03df402a0cadfbfab588320ffaf83f160c2f82781c7\n      mload(0x40)\n      mload(0x40)\n      dup1\n      swap2\n      sub\n      swap1\n      log2\n        /* \"contracts/2_Owner.sol\":3516:4040  {... */\n      pop\n        /* \"contracts/2_Owner.sol\":1448:1720  {... */\n      pop\n        /* \"contracts/2_Owner.sol\":1378:1379  _ */\n      pop\n        /* \"contracts/2_Owner.sol\":1080:1081  _ */\n      pop\n        /* \"contracts/2_Owner.sol\":3353:4040  function executeTransaction(uint256 _transactionId) public OnlyOwners... */\n      pop\n      jump\t// out\n        /* \"#utility.yul\":88:205   */\n    tag_205:\n        /* \"#utility.yul\":197:198   */\n      0x00\n        /* \"#utility.yul\":194:195   */\n      dup1\n        /* \"#utility.yul\":187:199   */\n      revert\n        /* \"#utility.yul\":334:411   */\n    tag_207:\n        /* \"#utility.yul\":371:378   */\n      0x00\n        /* \"#utility.yul\":400:405   */\n      dup2\n        /* \"#utility.yul\":389:405   */\n      swap1\n      pop\n        /* \"#utility.yul\":334:411   */\n      swap2\n      swap1\n      pop\n      jump\t// out\n        /* \"#utility.yul\":417:539   */\n    tag_208:\n        /* \"#utility.yul\":490:514   */\n      tag_245\n        /* \"#utility.yul\":508:513   */\n      dup2\n        /* \"#utility.yul\":490:514   */\n      tag_207\n      jump\t// in\n    tag_245:\n        /* \"#utility.yul\":483:488   */\n      dup2\n        /* \"#utility.yul\":480:515   */\n      eq\n        /* \"#utility.yul\":470:533   */\n      tag_246\n      jumpi\n        /* \"#utility.yul\":529:530   */\n      0x00\n        /* \"#utility.yul\":526:527   */\n      dup1\n        /* \"#utility.yul\":519:531   */\n      revert\n        /* \"#utility.yul\":470:533   */\n    tag_246:\n        /* \"#utility.yul\":417:539   */\n      pop\n      jump\t// out\n        /* \"#utility.yul\":545:684   */\n    tag_209:\n        /* \"#utility.yul\":591:596   */\n      0x00\n        /* \"#utility.yul\":629:635   */\n      dup2\n        /* \"#utility.yul\":616:636   */\n      calldataload\n        /* \"#utility.yul\":607:636   */\n      swap1\n      pop\n        /* \"#utility.yul\":645:678   */\n      tag_248\n        /* \"#utility.yul\":672:677   */\n      dup2\n        /* \"#utility.yul\":645:678   */\n      tag_208\n      jump\t// in\n    tag_248:\n        /* \"#utility.yul\":545:684   */\n      swap3\n      swap2\n      pop\n      pop\n      jump\t// out\n        /* \"#utility.yul\":690:1019   */\n    tag_16:\n        /* \"#utility.yul\":749:755   */\n      0x00\n        /* \"#utility.yul\":798:800   */\n      0x20\n        /* \"#utility.yul\":786:795   */\n      dup3\n        /* \"#utility.yul\":777:784   */\n      dup5\n        /* \"#utility.yul\":773:796   */\n      sub\n        /* \"#utility.yul\":769:801   */\n      slt\n        /* \"#utility.yul\":766:885   */\n      iszero\n      tag_250\n      jumpi\n        /* \"#utility.yul\":804:883   */\n      tag_251\n      tag_205\n      jump\t// in\n    tag_251:\n        /* \"#utility.yul\":766:885   */\n    tag_250:\n        /* \"#utility.yul\":924:925   */\n      0x00\n        /* \"#utility.yul\":949:1002   */\n      tag_252\n        /* \"#utility.yul\":994:1001   */\n      dup5\n        /* \"#utility.yul\":985:991   */\n      dup3\n        /* \"#utility.yul\":974:983   */\n      dup6\n        /* \"#utility.yul\":970:992   */\n      add\n        /* \"#utility.yul\":949:1002   */\n      tag_209\n      jump\t// in\n    tag_252:\n        /* \"#utility.yul\":939:1002   */\n      swap2\n      pop\n        /* \"#utility.yul\":895:1012   */\n      pop\n        /* \"#utility.yul\":690:1019   */\n      swap3\n      swap2\n      pop\n      pop\n      jump\t// out\n        /* \"#utility.yul\":1025:1151   */\n    tag_210:\n        /* \"#utility.yul\":1062:1069   */\n      0x00\n        /* \"#utility.yul\":1102:1144   */\n      0xffffffffffffffffffffffffffffffffffffffff\n        /* \"#utility.yul\":1095:1100   */\n      dup3\n        /* \"#utility.yul\":1091:1145   */\n      and\n        /* \"#utility.yul\":1080:1145   */\n      swap1\n      pop\n        /* \"#utility.yul\":1025:1151   */\n      swap2\n      swap1\n      pop\n      jump\t// out\n        /* \"#utility.yul\":1157:1253   */\n    tag_211:\n        /* \"#utility.yul\":1194:1201   */\n      0x00\n        /* \"#utility.yul\":1223:1247   */\n      tag_255\n        /* \"#utility.yul\":1241:1246   */\n      dup3\n        /* \"#utility.yul\":1223:1247   */\n      tag_210\n      jump\t// in\n    tag_255:\n        /* \"#utility.yul\":1212:1247   */\n      swap1\n      pop\n        /* \"#utility.yul\":1157:1253   */\n      swap2\n      swap1\n      pop\n      jump\t// out\n        /* \"#utility.yul\":1259:1377   */\n    tag_212:\n        /* \"#utility.yul\":1346:1370   */\n      tag_257\n        /* \"#utility.yul\":1364:1369   */\n      dup2\n        /* \"#utility.yul\":1346:1370   */\n      tag_211\n      jump\t// in\n    tag_257:\n        /* \"#utility.yul\":1341:1344   */\n      dup3\n        /* \"#utility.yul\":1334:1371   */\n      mstore\n        /* \"#utility.yul\":1259:1377   */\n      pop\n      pop\n      jump\t// out\n        /* \"#utility.yul\":1383:1605   */\n    tag_19:\n        /* \"#utility.yul\":1476:1480   */\n      0x00\n        /* \"#utility.yul\":1514:1516   */\n      0x20\n        /* \"#utility.yul\":1503:1512   */\n      dup3\n        /* \"#utility.yul\":1499:1517   */\n      add\n        /* \"#utility.yul\":1491:1517   */\n      swap1\n      pop\n        /* \"#utility.yul\":1527:1598   */\n      tag_259\n        /* \"#utility.yul\":1595:1596   */\n      0x00\n        /* \"#utility.yul\":1584:1593   */\n      dup4\n        /* \"#utility.yul\":1580:1597   */\n      add\n        /* \"#utility.yul\":1571:1577   */\n      dup5\n        /* \"#utility.yul\":1527:1598   */\n      tag_212\n      jump\t// in\n    tag_259:\n        /* \"#utility.yul\":1383:1605   */\n      swap3\n      swap2\n      pop\n      pop\n      jump\t// out\n        /* \"#utility.yul\":1611:1733   */\n    tag_213:\n        /* \"#utility.yul\":1684:1708   */\n      tag_261\n        /* \"#utility.yul\":1702:1707   */\n      dup2\n        /* \"#utility.yul\":1684:1708   */\n      tag_211\n      jump\t// in\n    tag_261:\n        /* \"#utility.yul\":1677:1682   */\n      dup2\n        /* \"#utility.yul\":1674:1709   */\n      eq\n        /* \"#utility.yul\":1664:1727   */\n      tag_262\n      jumpi\n        /* \"#utility.yul\":1723:1724   */\n      0x00\n        /* \"#utility.yul\":1720:1721   */\n      dup1\n        /* \"#utility.yul\":1713:1725   */\n      revert\n        /* \"#utility.yul\":1664:1727   */\n    tag_262:\n        /* \"#utility.yul\":1611:1733   */\n      pop\n      jump\t// out\n        /* \"#utility.yul\":1739:1878   */\n    tag_214:\n        /* \"#utility.yul\":1785:1790   */\n      0x00\n        /* \"#utility.yul\":1823:1829   */\n      dup2\n        /* \"#utility.yul\":1810:1830   */\n      calldataload\n        /* \"#utility.yul\":1801:1830   */\n      swap1\n      pop\n        /* \"#utility.yul\":1839:1872   */\n      tag_264\n        /* \"#utility.yul\":1866:1871   */\n      dup2\n        /* \"#utility.yul\":1839:1872   */\n      tag_213\n      jump\t// in\n    tag_264:\n        /* \"#utility.yul\":1739:1878   */\n      swap3\n      swap2\n      pop\n      pop\n      jump\t// out\n        /* \"#utility.yul\":1884:2358   */\n    tag_22:\n        /* \"#utility.yul\":1952:1958   */\n      0x00\n        /* \"#utility.yul\":1960:1966   */\n      dup1\n        /* \"#utility.yul\":2009:2011   */\n      0x40\n        /* \"#utility.yul\":1997:2006   */\n      dup4\n        /* \"#utility.yul\":1988:1995   */\n      dup6\n        /* \"#utility.yul\":1984:2007   */\n      sub\n        /* \"#utility.yul\":1980:2012   */\n      slt\n        /* \"#utility.yul\":1977:2096   */\n      iszero\n      tag_266\n      jumpi\n        /* \"#utility.yul\":2015:2094   */\n      tag_267\n      tag_205\n      jump\t// in\n    tag_267:\n        /* \"#utility.yul\":1977:2096   */\n    tag_266:\n        /* \"#utility.yul\":2135:2136   */\n      0x00\n        /* \"#utility.yul\":2160:2213   */\n      tag_268\n        /* \"#utility.yul\":2205:2212   */\n      dup6\n        /* \"#utility.yul\":2196:2202   */\n      dup3\n        /* \"#utility.yul\":2185:2194   */\n      dup7\n        /* \"#utility.yul\":2181:2203   */\n      add\n        /* \"#utility.yul\":2160:2213   */\n      tag_214\n      jump\t// in\n    tag_268:\n        /* \"#utility.yul\":2150:2213   */\n      swap3\n      pop\n        /* \"#utility.yul\":2106:2223   */\n      pop\n        /* \"#utility.yul\":2262:2264   */\n      0x20\n        /* \"#utility.yul\":2288:2341   */\n      tag_269\n        /* \"#utility.yul\":2333:2340   */\n      dup6\n        /* \"#utility.yul\":2324:2330   */\n      dup3\n        /* \"#utility.yul\":2313:2322   */\n      dup7\n        /* \"#utility.yul\":2309:2331   */\n      add\n        /* \"#utility.yul\":2288:2341   */\n      tag_209\n      jump\t// in\n    tag_269:\n        /* \"#utility.yul\":2278:2341   */\n      swap2\n      pop\n        /* \"#utility.yul\":2233:2351   */\n      pop\n        /* \"#utility.yul\":1884:2358   */\n      swap3\n      pop\n      swap3\n      swap1\n      pop\n      jump\t// out\n        /* \"#utility.yul\":2364:2693   */\n    tag_32:\n        /* \"#utility.yul\":2423:2429   */\n      0x00\n        /* \"#utility.yul\":2472:2474   */\n      0x20\n        /* \"#utility.yul\":2460:2469   */\n      dup3\n        /* \"#utility.yul\":2451:2458   */\n      dup5\n        /* \"#utility.yul\":2447:2470   */\n      sub\n        /* \"#utility.yul\":2443:2475   */\n      slt\n        /* \"#utility.yul\":2440:2559   */\n      iszero\n      tag_271\n      jumpi\n        /* \"#utility.yul\":2478:2557   */\n      tag_272\n      tag_205\n      jump\t// in\n    tag_272:\n        /* \"#utility.yul\":2440:2559   */\n    tag_271:\n        /* \"#utility.yul\":2598:2599   */\n      0x00\n        /* \"#utility.yul\":2623:2676   */\n      tag_273\n        /* \"#utility.yul\":2668:2675   */\n      dup5\n        /* \"#utility.yul\":2659:2665   */\n      dup3\n        /* \"#utility.yul\":2648:2657   */\n      dup6\n        /* \"#utility.yul\":2644:2666   */\n      add\n        /* \"#utility.yul\":2623:2676   */\n      tag_214\n      jump\t// in\n    tag_273:\n        /* \"#utility.yul\":2613:2676   */\n      swap2\n      pop\n        /* \"#utility.yul\":2569:2686   */\n      pop\n        /* \"#utility.yul\":2364:2693   */\n      swap3\n      swap2\n      pop\n      pop\n      jump\t// out\n        /* \"#utility.yul\":2699:2817   */\n    tag_215:\n        /* \"#utility.yul\":2786:2810   */\n      tag_275\n        /* \"#utility.yul\":2804:2809   */\n      dup2\n        /* \"#utility.yul\":2786:2810   */\n      tag_207\n      jump\t// in\n    tag_275:\n        /* \"#utility.yul\":2781:2784   */\n      dup3\n        /* \"#utility.yul\":2774:2811   */\n      mstore\n        /* \"#utility.yul\":2699:2817   */\n      pop\n      pop\n      jump\t// out\n        /* \"#utility.yul\":2823:3045   */\n    tag_38:\n        /* \"#utility.yul\":2916:2920   */\n      0x00\n        /* \"#utility.yul\":2954:2956   */\n      0x20\n        /* \"#utility.yul\":2943:2952   */\n      dup3\n        /* \"#utility.yul\":2939:2957   */\n      add\n        /* \"#utility.yul\":2931:2957   */\n      swap1\n      pop\n        /* \"#utility.yul\":2967:3038   */\n      tag_277\n        /* \"#utility.yul\":3035:3036   */\n      0x00\n        /* \"#utility.yul\":3024:3033   */\n      dup4\n        /* \"#utility.yul\":3020:3037   */\n      add\n        /* \"#utility.yul\":3011:3017   */\n      dup5\n        /* \"#utility.yul\":2967:3038   */\n      tag_215\n      jump\t// in\n    tag_277:\n        /* \"#utility.yul\":2823:3045   */\n      swap3\n      swap2\n      pop\n      pop\n      jump\t// out\n        /* \"#utility.yul\":3051:3231   */\n    tag_67:\n        /* \"#utility.yul\":3099:3176   */\n      0x4e487b7100000000000000000000000000000000000000000000000000000000\n        /* \"#utility.yul\":3096:3097   */\n      0x00\n        /* \"#utility.yul\":3089:3177   */\n      mstore\n        /* \"#utility.yul\":3196:3200   */\n      0x21\n        /* \"#utility.yul\":3193:3194   */\n      0x04\n        /* \"#utility.yul\":3186:3201   */\n      mstore\n        /* \"#utility.yul\":3220:3224   */\n      0x24\n        /* \"#utility.yul\":3217:3218   */\n      0x00\n        /* \"#utility.yul\":3210:3225   */\n      revert\n        /* \"#utility.yul\":3237:3361   */\n    tag_216:\n        /* \"#utility.yul\":3329:3330   */\n      0x04\n        /* \"#utility.yul\":3322:3327   */\n      dup2\n        /* \"#utility.yul\":3319:3331   */\n      lt\n        /* \"#utility.yul\":3309:3355   */\n      tag_280\n      jumpi\n        /* \"#utility.yul\":3335:3353   */\n      tag_281\n      tag_67\n      jump\t// in\n    tag_281:\n        /* \"#utility.yul\":3309:3355   */\n    tag_280:\n        /* \"#utility.yul\":3237:3361   */\n      pop\n      jump\t// out\n        /* \"#utility.yul\":3367:3516   */\n    tag_217:\n        /* \"#utility.yul\":3423:3430   */\n      0x00\n        /* \"#utility.yul\":3452:3457   */\n      dup2\n        /* \"#utility.yul\":3441:3457   */\n      swap1\n      pop\n        /* \"#utility.yul\":3458:3510   */\n      tag_283\n        /* \"#utility.yul\":3504:3509   */\n      dup3\n        /* \"#utility.yul\":3458:3510   */\n      tag_216\n      jump\t// in\n    tag_283:\n        /* \"#utility.yul\":3367:3516   */\n      swap2\n      swap1\n      pop\n      jump\t// out\n        /* \"#utility.yul\":3522:3671   */\n    tag_218:\n        /* \"#utility.yul\":3589:3598   */\n      0x00\n        /* \"#utility.yul\":3622:3665   */\n      tag_285\n        /* \"#utility.yul\":3659:3664   */\n      dup3\n        /* \"#utility.yul\":3622:3665   */\n      tag_217\n      jump\t// in\n    tag_285:\n        /* \"#utility.yul\":3609:3665   */\n      swap1\n      pop\n        /* \"#utility.yul\":3522:3671   */\n      swap2\n      swap1\n      pop\n      jump\t// out\n        /* \"#utility.yul\":3677:3842   */\n    tag_219:\n        /* \"#utility.yul\":3781:3835   */\n      tag_287\n        /* \"#utility.yul\":3829:3834   */\n      dup2\n        /* \"#utility.yul\":3781:3835   */\n      tag_218\n      jump\t// in\n    tag_287:\n        /* \"#utility.yul\":3776:3779   */\n      dup3\n        /* \"#utility.yul\":3769:3836   */\n      mstore\n        /* \"#utility.yul\":3677:3842   */\n      pop\n      pop\n      jump\t// out\n        /* \"#utility.yul\":3848:4435   */\n    tag_49:\n        /* \"#utility.yul\":4042:4046   */\n      0x00\n        /* \"#utility.yul\":4080:4083   */\n      0x80\n        /* \"#utility.yul\":4069:4078   */\n      dup3\n        /* \"#utility.yul\":4065:4084   */\n      add\n        /* \"#utility.yul\":4057:4084   */\n      swap1\n      pop\n        /* \"#utility.yul\":4094:4165   */\n      tag_289\n        /* \"#utility.yul\":4162:4163   */\n      0x00\n        /* \"#utility.yul\":4151:4160   */\n      dup4\n        /* \"#utility.yul\":4147:4164   */\n      add\n        /* \"#utility.yul\":4138:4144   */\n      dup8\n        /* \"#utility.yul\":4094:4165   */\n      tag_212\n      jump\t// in\n    tag_289:\n        /* \"#utility.yul\":4175:4247   */\n      tag_290\n        /* \"#utility.yul\":4243:4245   */\n      0x20\n        /* \"#utility.yul\":4232:4241   */\n      dup4\n        /* \"#utility.yul\":4228:4246   */\n      add\n        /* \"#utility.yul\":4219:4225   */\n      dup7\n        /* \"#utility.yul\":4175:4247   */\n      tag_215\n      jump\t// in\n    tag_290:\n        /* \"#utility.yul\":4257:4346   */\n      tag_291\n        /* \"#utility.yul\":4342:4344   */\n      0x40\n        /* \"#utility.yul\":4331:4340   */\n      dup4\n        /* \"#utility.yul\":4327:4345   */\n      add\n        /* \"#utility.yul\":4318:4324   */\n      dup6\n        /* \"#utility.yul\":4257:4346   */\n      tag_219\n      jump\t// in\n    tag_291:\n        /* \"#utility.yul\":4356:4428   */\n      tag_292\n        /* \"#utility.yul\":4424:4426   */\n      0x60\n        /* \"#utility.yul\":4413:4422   */\n      dup4\n        /* \"#utility.yul\":4409:4427   */\n      add\n        /* \"#utility.yul\":4400:4406   */\n      dup5\n        /* \"#utility.yul\":4356:4428   */\n      tag_215\n      jump\t// in\n    tag_292:\n        /* \"#utility.yul\":3848:4435   */\n      swap6\n      swap5\n      pop\n      pop\n      pop\n      pop\n      pop\n      jump\t// out\n        /* \"#utility.yul\":4441:4610   */\n    tag_220:\n        /* \"#utility.yul\":4525:4536   */\n      0x00\n        /* \"#utility.yul\":4559:4565   */\n      dup3\n        /* \"#utility.yul\":4554:4557   */\n      dup3\n        /* \"#utility.yul\":4547:4566   */\n      mstore\n        /* \"#utility.yul\":4599:4603   */\n      0x20\n        /* \"#utility.yul\":4594:4597   */\n      dup3\n        /* \"#utility.yul\":4590:4604   */\n      add\n        /* \"#utility.yul\":4575:4604   */\n      swap1\n      pop\n        /* \"#utility.yul\":4441:4610   */\n      swap3\n      swap2\n      pop\n      pop\n      jump\t// out\n        /* \"#utility.yul\":4616:4787   */\n    tag_221:\n        /* \"#utility.yul\":4756:4779   */\n      0x596f75206d75737420626520616e206f776e6572210000000000000000000000\n        /* \"#utility.yul\":4752:4753   */\n      0x00\n        /* \"#utility.yul\":4744:4750   */\n      dup3\n        /* \"#utility.yul\":4740:4754   */\n      add\n        /* \"#utility.yul\":4733:4780   */\n      mstore\n        /* \"#utility.yul\":4616:4787   */\n      pop\n      jump\t// out\n        /* \"#utility.yul\":4793:5159   */\n    tag_222:\n        /* \"#utility.yul\":4935:4938   */\n      0x00\n        /* \"#utility.yul\":4956:5023   */\n      tag_296\n        /* \"#utility.yul\":5020:5022   */\n      0x15\n        /* \"#utility.yul\":5015:5018   */\n      dup4\n        /* \"#utility.yul\":4956:5023   */\n      tag_220\n      jump\t// in\n    tag_296:\n        /* \"#utility.yul\":4949:5023   */\n      swap2\n      pop\n        /* \"#utility.yul\":5032:5125   */\n      tag_297\n        /* \"#utility.yul\":5121:5124   */\n      dup3\n        /* \"#utility.yul\":5032:5125   */\n      tag_221\n      jump\t// in\n    tag_297:\n        /* \"#utility.yul\":5150:5152   */\n      0x20\n        /* \"#utility.yul\":5145:5148   */\n      dup3\n        /* \"#utility.yul\":5141:5153   */\n      add\n        /* \"#utility.yul\":5134:5153   */\n      swap1\n      pop\n        /* \"#utility.yul\":4793:5159   */\n      swap2\n      swap1\n      pop\n      jump\t// out\n        /* \"#utility.yul\":5165:5584   */\n    tag_58:\n        /* \"#utility.yul\":5331:5335   */\n      0x00\n        /* \"#utility.yul\":5369:5371   */\n      0x20\n        /* \"#utility.yul\":5358:5367   */\n      dup3\n        /* \"#utility.yul\":5354:5372   */\n      add\n        /* \"#utility.yul\":5346:5372   */\n      swap1\n      pop\n        /* \"#utility.yul\":5418:5427   */\n      dup2\n        /* \"#utility.yul\":5412:5416   */\n      dup2\n        /* \"#utility.yul\":5408:5428   */\n      sub\n        /* \"#utility.yul\":5404:5405   */\n      0x00\n        /* \"#utility.yul\":5393:5402   */\n      dup4\n        /* \"#utility.yul\":5389:5406   */\n      add\n        /* \"#utility.yul\":5382:5429   */\n      mstore\n        /* \"#utility.yul\":5446:5577   */\n      tag_299\n        /* \"#utility.yul\":5572:5576   */\n      dup2\n        /* \"#utility.yul\":5446:5577   */\n      tag_222\n      jump\t// in\n    tag_299:\n        /* \"#utility.yul\":5438:5577   */\n      swap1\n      pop\n        /* \"#utility.yul\":5165:5584   */\n      swap2\n      swap1\n      pop\n      jump\t// out\n        /* \"#utility.yul\":5590:5761   */\n    tag_223:\n        /* \"#utility.yul\":5730:5753   */\n      0x496e73756666696369656e742062616c616e6365210000000000000000000000\n        /* \"#utility.yul\":5726:5727   */\n      0x00\n        /* \"#utility.yul\":5718:5724   */\n      dup3\n        /* \"#utility.yul\":5714:5728   */\n      add\n        /* \"#utility.yul\":5707:5754   */\n      mstore\n        /* \"#utility.yul\":5590:5761   */\n      pop\n      jump\t// out\n        /* \"#utility.yul\":5767:6133   */\n    tag_224:\n        /* \"#utility.yul\":5909:5912   */\n      0x00\n        /* \"#utility.yul\":5930:5997   */\n      tag_302\n        /* \"#utility.yul\":5994:5996   */\n      0x15\n        /* \"#utility.yul\":5989:5992   */\n      dup4\n        /* \"#utility.yul\":5930:5997   */\n      tag_220\n      jump\t// in\n    tag_302:\n        /* \"#utility.yul\":5923:5997   */\n      swap2\n      pop\n        /* \"#utility.yul\":6006:6099   */\n      tag_303\n        /* \"#utility.yul\":6095:6098   */\n      dup3\n        /* \"#utility.yul\":6006:6099   */\n      tag_223\n      jump\t// in\n    tag_303:\n        /* \"#utility.yul\":6124:6126   */\n      0x20\n        /* \"#utility.yul\":6119:6122   */\n      dup3\n        /* \"#utility.yul\":6115:6127   */\n      add\n        /* \"#utility.yul\":6108:6127   */\n      swap1\n      pop\n        /* \"#utility.yul\":5767:6133   */\n      swap2\n      swap1\n      pop\n      jump\t// out\n        /* \"#utility.yul\":6139:6558   */\n    tag_62:\n        /* \"#utility.yul\":6305:6309   */\n      0x00\n        /* \"#utility.yul\":6343:6345   */\n      0x20\n        /* \"#utility.yul\":6332:6341   */\n      dup3\n        /* \"#utility.yul\":6328:6346   */\n      add\n        /* \"#utility.yul\":6320:6346   */\n      swap1\n      pop\n        /* \"#utility.yul\":6392:6401   */\n      dup2\n        /* \"#utility.yul\":6386:6390   */\n      dup2\n        /* \"#utility.yul\":6382:6402   */\n      sub\n        /* \"#utility.yul\":6378:6379   */\n      0x00\n        /* \"#utility.yul\":6367:6376   */\n      dup4\n        /* \"#utility.yul\":6363:6380   */\n      add\n        /* \"#utility.yul\":6356:6403   */\n      mstore\n        /* \"#utility.yul\":6420:6551   */\n      tag_305\n        /* \"#utility.yul\":6546:6550   */\n      dup2\n        /* \"#utility.yul\":6420:6551   */\n      tag_224\n      jump\t// in\n    tag_305:\n        /* \"#utility.yul\":6412:6551   */\n      swap1\n      pop\n        /* \"#utility.yul\":6139:6558   */\n      swap2\n      swap1\n      pop\n      jump\t// out\n        /* \"#utility.yul\":6564:6744   */\n    tag_225:\n        /* \"#utility.yul\":6612:6689   */\n      0x4e487b7100000000000000000000000000000000000000000000000000000000\n        /* \"#utility.yul\":6609:6610   */\n      0x00\n        /* \"#utility.yul\":6602:6690   */\n      mstore\n        /* \"#utility.yul\":6709:6713   */\n      0x11\n        /* \"#utility.yul\":6706:6707   */\n      0x04\n        /* \"#utility.yul\":6699:6714   */\n      mstore\n        /* \"#utility.yul\":6733:6737   */\n      0x24\n        /* \"#utility.yul\":6730:6731   */\n      0x00\n        /* \"#utility.yul\":6723:6738   */\n      revert\n        /* \"#utility.yul\":6750:6944   */\n    tag_69:\n        /* \"#utility.yul\":6790:6794   */\n      0x00\n        /* \"#utility.yul\":6810:6830   */\n      tag_308\n        /* \"#utility.yul\":6828:6829   */\n      dup3\n        /* \"#utility.yul\":6810:6830   */\n      tag_207\n      jump\t// in\n    tag_308:\n        /* \"#utility.yul\":6805:6830   */\n      swap2\n      pop\n        /* \"#utility.yul\":6844:6864   */\n      tag_309\n        /* \"#utility.yul\":6862:6863   */\n      dup4\n        /* \"#utility.yul\":6844:6864   */\n      tag_207\n      jump\t// in\n    tag_309:\n        /* \"#utility.yul\":6839:6864   */\n      swap3\n      pop\n        /* \"#utility.yul\":6888:6889   */\n      dup3\n        /* \"#utility.yul\":6885:6886   */\n      dup3\n        /* \"#utility.yul\":6881:6890   */\n      sub\n        /* \"#utility.yul\":6873:6890   */\n      swap1\n      pop\n        /* \"#utility.yul\":6912:6913   */\n      dup2\n        /* \"#utility.yul\":6906:6910   */\n      dup2\n        /* \"#utility.yul\":6903:6914   */\n      gt\n        /* \"#utility.yul\":6900:6937   */\n      iszero\n      tag_310\n      jumpi\n        /* \"#utility.yul\":6917:6935   */\n      tag_311\n      tag_225\n      jump\t// in\n    tag_311:\n        /* \"#utility.yul\":6900:6937   */\n    tag_310:\n        /* \"#utility.yul\":6750:6944   */\n      swap3\n      swap2\n      pop\n      pop\n      jump\t// out\n        /* \"#utility.yul\":6950:7141   */\n    tag_76:\n        /* \"#utility.yul\":6990:6993   */\n      0x00\n        /* \"#utility.yul\":7009:7029   */\n      tag_313\n        /* \"#utility.yul\":7027:7028   */\n      dup3\n        /* \"#utility.yul\":7009:7029   */\n      tag_207\n      jump\t// in\n    tag_313:\n        /* \"#utility.yul\":7004:7029   */\n      swap2\n      pop\n        /* \"#utility.yul\":7043:7063   */\n      tag_314\n        /* \"#utility.yul\":7061:7062   */\n      dup4\n        /* \"#utility.yul\":7043:7063   */\n      tag_207\n      jump\t// in\n    tag_314:\n        /* \"#utility.yul\":7038:7063   */\n      swap3\n      pop\n        /* \"#utility.yul\":7086:7087   */\n      dup3\n        /* \"#utility.yul\":7083:7084   */\n      dup3\n        /* \"#utility.yul\":7079:7088   */\n      add\n        /* \"#utility.yul\":7072:7088   */\n      swap1\n      pop\n        /* \"#utility.yul\":7107:7110   */\n      dup1\n        /* \"#utility.yul\":7104:7105   */\n      dup3\n        /* \"#utility.yul\":7101:7111   */\n      gt\n        /* \"#utility.yul\":7098:7134   */\n      iszero\n      tag_315\n      jumpi\n        /* \"#utility.yul\":7114:7132   */\n      tag_316\n      tag_225\n      jump\t// in\n    tag_316:\n        /* \"#utility.yul\":7098:7134   */\n    tag_315:\n        /* \"#utility.yul\":6950:7141   */\n      swap3\n      swap2\n      pop\n      pop\n      jump\t// out\n        /* \"#utility.yul\":7147:7324   */\n    tag_226:\n        /* \"#utility.yul\":7287:7316   */\n      0x5472616e73616374696f6e20646f6573206e6f74206578697374210000000000\n        /* \"#utility.yul\":7283:7284   */\n      0x00\n        /* \"#utility.yul\":7275:7281   */\n      dup3\n        /* \"#utility.yul\":7271:7285   */\n      add\n        /* \"#utility.yul\":7264:7317   */\n      mstore\n        /* \"#utility.yul\":7147:7324   */\n      pop\n      jump\t// out\n        /* \"#utility.yul\":7330:7696   */\n    tag_227:\n        /* \"#utility.yul\":7472:7475   */\n      0x00\n        /* \"#utility.yul\":7493:7560   */\n      tag_319\n        /* \"#utility.yul\":7557:7559   */\n      0x1b\n        /* \"#utility.yul\":7552:7555   */\n      dup4\n        /* \"#utility.yul\":7493:7560   */\n      tag_220\n      jump\t// in\n    tag_319:\n        /* \"#utility.yul\":7486:7560   */\n      swap2\n      pop\n        /* \"#utility.yul\":7569:7662   */\n      tag_320\n        /* \"#utility.yul\":7658:7661   */\n      dup3\n        /* \"#utility.yul\":7569:7662   */\n      tag_226\n      jump\t// in\n    tag_320:\n        /* \"#utility.yul\":7687:7689   */\n      0x20\n        /* \"#utility.yul\":7682:7685   */\n      dup3\n        /* \"#utility.yul\":7678:7690   */\n      add\n        /* \"#utility.yul\":7671:7690   */\n      swap1\n      pop\n        /* \"#utility.yul\":7330:7696   */\n      swap2\n      swap1\n      pop\n      jump\t// out\n        /* \"#utility.yul\":7702:8121   */\n    tag_83:\n        /* \"#utility.yul\":7868:7872   */\n      0x00\n        /* \"#utility.yul\":7906:7908   */\n      0x20\n        /* \"#utility.yul\":7895:7904   */\n      dup3\n        /* \"#utility.yul\":7891:7909   */\n      add\n        /* \"#utility.yul\":7883:7909   */\n      swap1\n      pop\n        /* \"#utility.yul\":7955:7964   */\n      dup2\n        /* \"#utility.yul\":7949:7953   */\n      dup2\n        /* \"#utility.yul\":7945:7965   */\n      sub\n        /* \"#utility.yul\":7941:7942   */\n      0x00\n        /* \"#utility.yul\":7930:7939   */\n      dup4\n        /* \"#utility.yul\":7926:7943   */\n      add\n        /* \"#utility.yul\":7919:7966   */\n      mstore\n        /* \"#utility.yul\":7983:8114   */\n      tag_322\n        /* \"#utility.yul\":8109:8113   */\n      dup2\n        /* \"#utility.yul\":7983:8114   */\n      tag_227\n      jump\t// in\n    tag_322:\n        /* \"#utility.yul\":7975:8114   */\n      swap1\n      pop\n        /* \"#utility.yul\":7702:8121   */\n      swap2\n      swap1\n      pop\n      jump\t// out\n        /* \"#utility.yul\":8127:8307   */\n    tag_87:\n        /* \"#utility.yul\":8175:8252   */\n      0x4e487b7100000000000000000000000000000000000000000000000000000000\n        /* \"#utility.yul\":8172:8173   */\n      0x00\n        /* \"#utility.yul\":8165:8253   */\n      mstore\n        /* \"#utility.yul\":8272:8276   */\n      0x32\n        /* \"#utility.yul\":8269:8270   */\n      0x04\n        /* \"#utility.yul\":8262:8277   */\n      mstore\n        /* \"#utility.yul\":8296:8300   */\n      0x24\n        /* \"#utility.yul\":8293:8294   */\n      0x00\n        /* \"#utility.yul\":8286:8301   */\n      revert\n        /* \"#utility.yul\":8313:8492   */\n    tag_228:\n        /* \"#utility.yul\":8453:8484   */\n      0x5472616e73616374696f6e20616c726561647920657865637574656421000000\n        /* \"#utility.yul\":8449:8450   */\n      0x00\n        /* \"#utility.yul\":8441:8447   */\n      dup3\n        /* \"#utility.yul\":8437:8451   */\n      add\n        /* \"#utility.yul\":8430:8485   */\n      mstore\n        /* \"#utility.yul\":8313:8492   */\n      pop\n      jump\t// out\n        /* \"#utility.yul\":8498:8864   */\n    tag_229:\n        /* \"#utility.yul\":8640:8643   */\n      0x00\n        /* \"#utility.yul\":8661:8728   */\n      tag_326\n        /* \"#utility.yul\":8725:8727   */\n      0x1d\n        /* \"#utility.yul\":8720:8723   */\n      dup4\n        /* \"#utility.yul\":8661:8728   */\n      tag_220\n      jump\t// in\n    tag_326:\n        /* \"#utility.yul\":8654:8728   */\n      swap2\n      pop\n        /* \"#utility.yul\":8737:8830   */\n      tag_327\n        /* \"#utility.yul\":8826:8829   */\n      dup3\n        /* \"#utility.yul\":8737:8830   */\n      tag_228\n      jump\t// in\n    tag_327:\n        /* \"#utility.yul\":8855:8857   */\n      0x20\n        /* \"#utility.yul\":8850:8853   */\n      dup3\n        /* \"#utility.yul\":8846:8858   */\n      add\n        /* \"#utility.yul\":8839:8858   */\n      swap1\n      pop\n        /* \"#utility.yul\":8498:8864   */\n      swap2\n      swap1\n      pop\n      jump\t// out\n        /* \"#utility.yul\":8870:9289   */\n    tag_95:\n        /* \"#utility.yul\":9036:9040   */\n      0x00\n        /* \"#utility.yul\":9074:9076   */\n      0x20\n        /* \"#utility.yul\":9063:9072   */\n      dup3\n        /* \"#utility.yul\":9059:9077   */\n      add\n        /* \"#utility.yul\":9051:9077   */\n      swap1\n      pop\n        /* \"#utility.yul\":9123:9132   */\n      dup2\n        /* \"#utility.yul\":9117:9121   */\n      dup2\n        /* \"#utility.yul\":9113:9133   */\n      sub\n        /* \"#utility.yul\":9109:9110   */\n      0x00\n        /* \"#utility.yul\":9098:9107   */\n      dup4\n        /* \"#utility.yul\":9094:9111   */\n      add\n        /* \"#utility.yul\":9087:9134   */\n      mstore\n        /* \"#utility.yul\":9151:9282   */\n      tag_329\n        /* \"#utility.yul\":9277:9281   */\n      dup2\n        /* \"#utility.yul\":9151:9282   */\n      tag_229\n      jump\t// in\n    tag_329:\n        /* \"#utility.yul\":9143:9282   */\n      swap1\n      pop\n        /* \"#utility.yul\":8870:9289   */\n      swap2\n      swap1\n      pop\n      jump\t// out\n        /* \"#utility.yul\":9295:9475   */\n    tag_230:\n        /* \"#utility.yul\":9435:9467   */\n      0x5472616e73616374696f6e20616c72656164792063616e63656c6c6564210000\n        /* \"#utility.yul\":9431:9432   */\n      0x00\n        /* \"#utility.yul\":9423:9429   */\n      dup3\n        /* \"#utility.yul\":9419:9433   */\n      add\n        /* \"#utility.yul\":9412:9468   */\n      mstore\n        /* \"#utility.yul\":9295:9475   */\n      pop\n      jump\t// out\n        /* \"#utility.yul\":9481:9847   */\n    tag_231:\n        /* \"#utility.yul\":9623:9626   */\n      0x00\n        /* \"#utility.yul\":9644:9711   */\n      tag_332\n        /* \"#utility.yul\":9708:9710   */\n      0x1e\n        /* \"#utility.yul\":9703:9706   */\n      dup4\n        /* \"#utility.yul\":9644:9711   */\n      tag_220\n      jump\t// in\n    tag_332:\n        /* \"#utility.yul\":9637:9711   */\n      swap2\n      pop\n        /* \"#utility.yul\":9720:9813   */\n      tag_333\n        /* \"#utility.yul\":9809:9812   */\n      dup3\n        /* \"#utility.yul\":9720:9813   */\n      tag_230\n      jump\t// in\n    tag_333:\n        /* \"#utility.yul\":9838:9840   */\n      0x20\n        /* \"#utility.yul\":9833:9836   */\n      dup3\n        /* \"#utility.yul\":9829:9841   */\n      add\n        /* \"#utility.yul\":9822:9841   */\n      swap1\n      pop\n        /* \"#utility.yul\":9481:9847   */\n      swap2\n      swap1\n      pop\n      jump\t// out\n        /* \"#utility.yul\":9853:10272   */\n    tag_102:\n        /* \"#utility.yul\":10019:10023   */\n      0x00\n        /* \"#utility.yul\":10057:10059   */\n      0x20\n        /* \"#utility.yul\":10046:10055   */\n      dup3\n        /* \"#utility.yul\":10042:10060   */\n      add\n        /* \"#utility.yul\":10034:10060   */\n      swap1\n      pop\n        /* \"#utility.yul\":10106:10115   */\n      dup2\n        /* \"#utility.yul\":10100:10104   */\n      dup2\n        /* \"#utility.yul\":10096:10116   */\n      sub\n        /* \"#utility.yul\":10092:10093   */\n      0x00\n        /* \"#utility.yul\":10081:10090   */\n      dup4\n        /* \"#utility.yul\":10077:10094   */\n      add\n        /* \"#utility.yul\":10070:10117   */\n      mstore\n        /* \"#utility.yul\":10134:10265   */\n      tag_335\n        /* \"#utility.yul\":10260:10264   */\n      dup2\n        /* \"#utility.yul\":10134:10265   */\n      tag_231\n      jump\t// in\n    tag_335:\n        /* \"#utility.yul\":10126:10265   */\n      swap1\n      pop\n        /* \"#utility.yul\":9853:10272   */\n      swap2\n      swap1\n      pop\n      jump\t// out\n        /* \"#utility.yul\":10278:10456   */\n    tag_232:\n        /* \"#utility.yul\":10418:10448   */\n      0x4164647265737320697320616c726561647920616e206f776e65722100000000\n        /* \"#utility.yul\":10414:10415   */\n      0x00\n        /* \"#utility.yul\":10406:10412   */\n      dup3\n        /* \"#utility.yul\":10402:10416   */\n      add\n        /* \"#utility.yul\":10395:10449   */\n      mstore\n        /* \"#utility.yul\":10278:10456   */\n      pop\n      jump\t// out\n        /* \"#utility.yul\":10462:10828   */\n    tag_233:\n        /* \"#utility.yul\":10604:10607   */\n      0x00\n        /* \"#utility.yul\":10625:10692   */\n      tag_338\n        /* \"#utility.yul\":10689:10691   */\n      0x1c\n        /* \"#utility.yul\":10684:10687   */\n      dup4\n        /* \"#utility.yul\":10625:10692   */\n      tag_220\n      jump\t// in\n    tag_338:\n        /* \"#utility.yul\":10618:10692   */\n      swap2\n      pop\n        /* \"#utility.yul\":10701:10794   */\n      tag_339\n        /* \"#utility.yul\":10790:10793   */\n      dup3\n        /* \"#utility.yul\":10701:10794   */\n      tag_232\n      jump\t// in\n    tag_339:\n        /* \"#utility.yul\":10819:10821   */\n      0x20\n        /* \"#utility.yul\":10814:10817   */\n      dup3\n        /* \"#utility.yul\":10810:10822   */\n      add\n        /* \"#utility.yul\":10803:10822   */\n      swap1\n      pop\n        /* \"#utility.yul\":10462:10828   */\n      swap2\n      swap1\n      pop\n      jump\t// out\n        /* \"#utility.yul\":10834:11253   */\n    tag_115:\n        /* \"#utility.yul\":11000:11004   */\n      0x00\n        /* \"#utility.yul\":11038:11040   */\n      0x20\n        /* \"#utility.yul\":11027:11036   */\n      dup3\n        /* \"#utility.yul\":11023:11041   */\n      add\n        /* \"#utility.yul\":11015:11041   */\n      swap1\n      pop\n        /* \"#utility.yul\":11087:11096   */\n      dup2\n        /* \"#utility.yul\":11081:11085   */\n      dup2\n        /* \"#utility.yul\":11077:11097   */\n      sub\n        /* \"#utility.yul\":11073:11074   */\n      0x00\n        /* \"#utility.yul\":11062:11071   */\n      dup4\n        /* \"#utility.yul\":11058:11075   */\n      add\n        /* \"#utility.yul\":11051:11098   */\n      mstore\n        /* \"#utility.yul\":11115:11246   */\n      tag_341\n        /* \"#utility.yul\":11241:11245   */\n      dup2\n        /* \"#utility.yul\":11115:11246   */\n      tag_233\n      jump\t// in\n    tag_341:\n        /* \"#utility.yul\":11107:11246   */\n      swap1\n      pop\n        /* \"#utility.yul\":10834:11253   */\n      swap2\n      swap1\n      pop\n      jump\t// out\n        /* \"#utility.yul\":11259:11487   */\n    tag_234:\n        /* \"#utility.yul\":11399:11433   */\n      0x596f75206861766520616c7265616479207369676e6564207468697320747261\n        /* \"#utility.yul\":11395:11396   */\n      0x00\n        /* \"#utility.yul\":11387:11393   */\n      dup3\n        /* \"#utility.yul\":11383:11397   */\n      add\n        /* \"#utility.yul\":11376:11434   */\n      mstore\n        /* \"#utility.yul\":11468:11479   */\n      0x6e73616374696f6e210000000000000000000000000000000000000000000000\n        /* \"#utility.yul\":11463:11465   */\n      0x20\n        /* \"#utility.yul\":11455:11461   */\n      dup3\n        /* \"#utility.yul\":11451:11466   */\n      add\n        /* \"#utility.yul\":11444:11480   */\n      mstore\n        /* \"#utility.yul\":11259:11487   */\n      pop\n      jump\t// out\n        /* \"#utility.yul\":11493:11859   */\n    tag_235:\n        /* \"#utility.yul\":11635:11638   */\n      0x00\n        /* \"#utility.yul\":11656:11723   */\n      tag_344\n        /* \"#utility.yul\":11720:11722   */\n      0x29\n        /* \"#utility.yul\":11715:11718   */\n      dup4\n        /* \"#utility.yul\":11656:11723   */\n      tag_220\n      jump\t// in\n    tag_344:\n        /* \"#utility.yul\":11649:11723   */\n      swap2\n      pop\n        /* \"#utility.yul\":11732:11825   */\n      tag_345\n        /* \"#utility.yul\":11821:11824   */\n      dup3\n        /* \"#utility.yul\":11732:11825   */\n      tag_234\n      jump\t// in\n    tag_345:\n        /* \"#utility.yul\":11850:11852   */\n      0x40\n        /* \"#utility.yul\":11845:11848   */\n      dup3\n        /* \"#utility.yul\":11841:11853   */\n      add\n        /* \"#utility.yul\":11834:11853   */\n      swap1\n      pop\n        /* \"#utility.yul\":11493:11859   */\n      swap2\n      swap1\n      pop\n      jump\t// out\n        /* \"#utility.yul\":11865:12284   */\n    tag_149:\n        /* \"#utility.yul\":12031:12035   */\n      0x00\n        /* \"#utility.yul\":12069:12071   */\n      0x20\n        /* \"#utility.yul\":12058:12067   */\n      dup3\n        /* \"#utility.yul\":12054:12072   */\n      add\n        /* \"#utility.yul\":12046:12072   */\n      swap1\n      pop\n        /* \"#utility.yul\":12118:12127   */\n      dup2\n        /* \"#utility.yul\":12112:12116   */\n      dup2\n        /* \"#utility.yul\":12108:12128   */\n      sub\n        /* \"#utility.yul\":12104:12105   */\n      0x00\n        /* \"#utility.yul\":12093:12102   */\n      dup4\n        /* \"#utility.yul\":12089:12106   */\n      add\n        /* \"#utility.yul\":12082:12129   */\n      mstore\n        /* \"#utility.yul\":12146:12277   */\n      tag_347\n        /* \"#utility.yul\":12272:12276   */\n      dup2\n        /* \"#utility.yul\":12146:12277   */\n      tag_235\n      jump\t// in\n    tag_347:\n        /* \"#utility.yul\":12138:12277   */\n      swap1\n      pop\n        /* \"#utility.yul\":11865:12284   */\n      swap2\n      swap1\n      pop\n      jump\t// out\n        /* \"#utility.yul\":12290:12523   */\n    tag_151:\n        /* \"#utility.yul\":12329:12332   */\n      0x00\n        /* \"#utility.yul\":12352:12376   */\n      tag_349\n        /* \"#utility.yul\":12370:12375   */\n      dup3\n        /* \"#utility.yul\":12352:12376   */\n      tag_207\n      jump\t// in\n    tag_349:\n        /* \"#utility.yul\":12343:12376   */\n      swap2\n      pop\n        /* \"#utility.yul\":12398:12464   */\n      0xffffffffffffffffffffffffffffffffffffffffffffffffffffffffffffffff\n        /* \"#utility.yul\":12391:12396   */\n      dup3\n        /* \"#utility.yul\":12388:12465   */\n      sub\n        /* \"#utility.yul\":12385:12488   */\n      tag_350\n      jumpi\n        /* \"#utility.yul\":12468:12486   */\n      tag_351\n      tag_225\n      jump\t// in\n    tag_351:\n        /* \"#utility.yul\":12385:12488   */\n    tag_350:\n        /* \"#utility.yul\":12515:12516   */\n      0x01\n        /* \"#utility.yul\":12508:12513   */\n      dup3\n        /* \"#utility.yul\":12504:12517   */\n      add\n        /* \"#utility.yul\":12497:12517   */\n      swap1\n      pop\n        /* \"#utility.yul\":12290:12523   */\n      swap2\n      swap1\n      pop\n      jump\t// out\n        /* \"#utility.yul\":12529:12709   */\n    tag_236:\n        /* \"#utility.yul\":12577:12654   */\n      0x4e487b7100000000000000000000000000000000000000000000000000000000\n        /* \"#utility.yul\":12574:12575   */\n      0x00\n        /* \"#utility.yul\":12567:12655   */\n      mstore\n        /* \"#utility.yul\":12674:12678   */\n      0x12\n        /* \"#utility.yul\":12671:12672   */\n      0x04\n        /* \"#utility.yul\":12664:12679   */\n      mstore\n        /* \"#utility.yul\":12698:12702   */\n      0x24\n        /* \"#utility.yul\":12695:12696   */\n      0x00\n        /* \"#utility.yul\":12688:12703   */\n      revert\n        /* \"#utility.yul\":12715:12891   */\n    tag_153:\n        /* \"#utility.yul\":12747:12748   */\n      0x00\n        /* \"#utility.yul\":12764:12784   */\n      tag_354\n        /* \"#utility.yul\":12782:12783   */\n      dup3\n        /* \"#utility.yul\":12764:12784   */\n      tag_207\n      jump\t// in\n    tag_354:\n        /* \"#utility.yul\":12759:12784   */\n      swap2\n      pop\n        /* \"#utility.yul\":12798:12818   */\n      tag_355\n        /* \"#utility.yul\":12816:12817   */\n      dup4\n        /* \"#utility.yul\":12798:12818   */\n      tag_207\n      jump\t// in\n    tag_355:\n        /* \"#utility.yul\":12793:12818   */\n      swap3\n      pop\n        /* \"#utility.yul\":12837:12838   */\n      dup3\n        /* \"#utility.yul\":12827:12862   */\n      tag_356\n      jumpi\n        /* \"#utility.yul\":12842:12860   */\n      tag_357\n      tag_236\n      jump\t// in\n    tag_357:\n        /* \"#utility.yul\":12827:12862   */\n    tag_356:\n        /* \"#utility.yul\":12883:12884   */\n      dup3\n        /* \"#utility.yul\":12880:12881   */\n      dup3\n        /* \"#utility.yul\":12876:12885   */\n      mod\n        /* \"#utility.yul\":12871:12885   */\n      swap1\n      pop\n        /* \"#utility.yul\":12715:12891   */\n      swap3\n      swap2\n      pop\n      pop\n      jump\t// out\n        /* \"#utility.yul\":12897:13082   */\n    tag_157:\n        /* \"#utility.yul\":12937:12938   */\n      0x00\n        /* \"#utility.yul\":12954:12974   */\n      tag_359\n        /* \"#utility.yul\":12972:12973   */\n      dup3\n        /* \"#utility.yul\":12954:12974   */\n      tag_207\n      jump\t// in\n    tag_359:\n        /* \"#utility.yul\":12949:12974   */\n      swap2\n      pop\n        /* \"#utility.yul\":12988:13008   */\n      tag_360\n        /* \"#utility.yul\":13006:13007   */\n      dup4\n        /* \"#utility.yul\":12988:13008   */\n      tag_207\n      jump\t// in\n    tag_360:\n        /* \"#utility.yul\":12983:13008   */\n      swap3\n      pop\n        /* \"#utility.yul\":13027:13028   */\n      dup3\n        /* \"#utility.yul\":13017:13052   */\n      tag_361\n      jumpi\n        /* \"#utility.yul\":13032:13050   */\n      tag_362\n      tag_236\n      jump\t// in\n    tag_362:\n        /* \"#utility.yul\":13017:13052   */\n    tag_361:\n        /* \"#utility.yul\":13074:13075   */\n      dup3\n        /* \"#utility.yul\":13071:13072   */\n      dup3\n        /* \"#utility.yul\":13067:13076   */\n      div\n        /* \"#utility.yul\":13062:13076   */\n      swap1\n      pop\n        /* \"#utility.yul\":12897:13082   */\n      swap3\n      swap2\n      pop\n      pop\n      jump\t// out\n        /* \"#utility.yul\":13088:13267   */\n    tag_237:\n        /* \"#utility.yul\":13228:13259   */\n      0x5472616e73616374696f6e206973206e6f7420636f6e6669726d656421000000\n        /* \"#utility.yul\":13224:13225   */\n      0x00\n        /* \"#utility.yul\":13216:13222   */\n      dup3\n        /* \"#utility.yul\":13212:13226   */\n      add\n        /* \"#utility.yul\":13205:13260   */\n      mstore\n        /* \"#utility.yul\":13088:13267   */\n      pop\n      jump\t// out\n        /* \"#utility.yul\":13273:13639   */\n    tag_238:\n        /* \"#utility.yul\":13415:13418   */\n      0x00\n        /* \"#utility.yul\":13436:13503   */\n      tag_365\n        /* \"#utility.yul\":13500:13502   */\n      0x1d\n        /* \"#utility.yul\":13495:13498   */\n      dup4\n        /* \"#utility.yul\":13436:13503   */\n      tag_220\n      jump\t// in\n    tag_365:\n        /* \"#utility.yul\":13429:13503   */\n      swap2\n      pop\n        /* \"#utility.yul\":13512:13605   */\n      tag_366\n        /* \"#utility.yul\":13601:13604   */\n      dup3\n        /* \"#utility.yul\":13512:13605   */\n      tag_237\n      jump\t// in\n    tag_366:\n        /* \"#utility.yul\":13630:13632   */\n      0x20\n        /* \"#utility.yul\":13625:13628   */\n      dup3\n        /* \"#utility.yul\":13621:13633   */\n      add\n        /* \"#utility.yul\":13614:13633   */\n      swap1\n      pop\n        /* \"#utility.yul\":13273:13639   */\n      swap2\n      swap1\n      pop\n      jump\t// out\n        /* \"#utility.yul\":13645:14064   */\n    tag_196:\n        /* \"#utility.yul\":13811:13815   */\n      0x00\n        /* \"#utility.yul\":13849:13851   */\n      0x20\n        /* \"#utility.yul\":13838:13847   */\n      dup3\n        /* \"#utility.yul\":13834:13852   */\n      add\n        /* \"#utility.yul\":13826:13852   */\n      swap1\n      pop\n        /* \"#utility.yul\":13898:13907   */\n      dup2\n        /* \"#utility.yul\":13892:13896   */\n      dup2\n        /* \"#utility.yul\":13888:13908   */\n      sub\n        /* \"#utility.yul\":13884:13885   */\n      0x00\n        /* \"#utility.yul\":13873:13882   */\n      dup4\n        /* \"#utility.yul\":13869:13886   */\n      add\n        /* \"#utility.yul\":13862:13909   */\n      mstore\n        /* \"#utility.yul\":13926:14057   */\n      tag_368\n        /* \"#utility.yul\":14052:14056   */\n      dup2\n        /* \"#utility.yul\":13926:14057   */\n      tag_238\n      jump\t// in\n    tag_368:\n        /* \"#utility.yul\":13918:14057   */\n      swap1\n      pop\n        /* \"#utility.yul\":13645:14064   */\n      swap2\n      swap1\n      pop\n      jump\t// out\n\n    auxdata: 0xa2646970667358221220ebe0d4fc1c3ad1a398146dde8249682abf8493a5046f850586e0e8e4d482e71964736f6c634300081a0033\n}\n",
				"bytecode": {
					"linkReferences": {},
					"object": "6080604052348015600e575f80fd5b50600160035f3373ffffffffffffffffffffffffffffffffffffffff1673ffffffffffffffffffffffffffffffffffffffff1681526020019081526020015f205f6101000a81548160ff021916908315150217905550600133908060018154018082558091505060019003905f5260205f20015f9091909190916101000a81548173ffffffffffffffffffffffffffffffffffffffff021916908373ffffffffffffffffffffffffffffffffffffffff1602179055506118e8806100d15f395ff3fe608060405234801561000f575f80fd5b506004361061009c575f3560e01c806394205469116100645780639420546914610140578063b69ef8a814610170578063c01a8c841461018e578063e598c340146101aa578063ee22610b146101dd5761009c565b8063025e7c27146100a05780631e7f8f0f146100d05780632c526196146100ec5780633380c0d8146101085780637065cb4814610124575b5f80fd5b6100ba60048036038101906100b591906111b4565b6101f9565b6040516100c7919061121e565b60405180910390f35b6100ea60048036038101906100e59190611261565b610234565b005b610106600480360381019061010191906111b4565b61045f565b005b610122600480360381019061011d91906111b4565b610502565b005b61013e6004803603810190610139919061129f565b610767565b005b61015a600480360381019061015591906111b4565b610975565b60405161016791906112d9565b60405180910390f35b6101786109a1565b60405161018591906112d9565b60405180910390f35b6101a860048036038101906101a391906111b4565b6109a6565b005b6101c460048036038101906101bf91906111b4565b610d6e565b6040516101d49493929190611365565b60405180910390f35b6101f760048036038101906101f291906111b4565b610dd4565b005b60018181548110610208575f80fd5b905f5260205f20015f915054906101000a900473ffffffffffffffffffffffffffffffffffffffff1681565b60035f3373ffffffffffffffffffffffffffffffffffffffff1673ffffffffffffffffffffffffffffffffffffffff1681526020019081526020015f205f9054906101000a900460ff166102bd576040517f08c379a00000000000000000000000000000000000000000000000000000000081526004016102b490611402565b60405180910390fd5b80805f541015610302576040517f08c379a00000000000000000000000000000000000000000000000000000000081526004016102f99061146a565b60405180910390fd5b5f600260018160018154018082558091505003905f5260205f209060050201905083815f015f6101000a81548173ffffffffffffffffffffffffffffffffffffffff021916908373ffffffffffffffffffffffffffffffffffffffff1602179055508281600101819055505f816002015f6101000a81548160ff02191690836003811115610393576103926112f2565b5b0217905550600181600401819055506001816003015f3373ffffffffffffffffffffffffffffffffffffffff1673ffffffffffffffffffffffffffffffffffffffff1681526020019081526020015f205f6101000a81548160ff0219169083151502179055508373ffffffffffffffffffffffffffffffffffffffff16600160028054905061042291906114b5565b7ffd27d176b6ebb21e0182c0e43df5818e0d632867e1eb47c383c58d221205fce38560405161045191906112d9565b60405180910390a350505050565b60035f3373ffffffffffffffffffffffffffffffffffffffff1673ffffffffffffffffffffffffffffffffffffffff1681526020019081526020015f205f9054906101000a900460ff166104e8576040517f08c379a00000000000000000000000000000000000000000000000000000000081526004016104df90611402565b60405180910390fd5b805f808282546104f891906114e8565b9250508190555050565b60035f3373ffffffffffffffffffffffffffffffffffffffff1673ffffffffffffffffffffffffffffffffffffffff1681526020019081526020015f205f9054906101000a900460ff1661058b576040517f08c379a000000000000000000000000000000000000000000000000000000000815260040161058290611402565b60405180910390fd5b8060028054905081106105d3576040517f08c379a00000000000000000000000000000000000000000000000000000000081526004016105ca90611565565b60405180910390fd5b815f600282815481106105e9576105e8611583565b5b905f5260205f20906005020190506002600381111561060b5761060a6112f2565b5b816002015f9054906101000a900460ff16600381111561062e5761062d6112f2565b5b0361066e576040517f08c379a0000000000000000000000000000000000000000000000000000000008152600401610665906115fa565b60405180910390fd5b600380811115610681576106806112f2565b5b816002015f9054906101000a900460ff1660038111156106a4576106a36112f2565b5b036106e4576040517f08c379a00000000000000000000000000000000000000000000000000000000081526004016106db90611662565b60405180910390fd5b5f600285815481106106f9576106f8611583565b5b905f5260205f20906005020190506003816002015f6101000a81548160ff0219169083600381111561072e5761072d6112f2565b5b0217905550847f956fb32199d8b882b2039a14e1be35ab14f7a80b9089fc223f14b43937173e6060405160405180910390a25050505050565b60035f3373ffffffffffffffffffffffffffffffffffffffff1673ffffffffffffffffffffffffffffffffffffffff1681526020019081526020015f205f9054906101000a900460ff166107f0576040517f08c379a00000000000000000000000000000000000000000000000000000000081526004016107e790611402565b60405180910390fd5b60035f8273ffffffffffffffffffffffffffffffffffffffff1673ffffffffffffffffffffffffffffffffffffffff1681526020019081526020015f205f9054906101000a900460ff161561087a576040517f08c379a0000000000000000000000000000000000000000000000000000000008152600401610871906116ca565b60405180910390fd5b600160035f8373ffffffffffffffffffffffffffffffffffffffff1673ffffffffffffffffffffffffffffffffffffffff1681526020019081526020015f205f6101000a81548160ff021916908315150217905550600181908060018154018082558091505060019003905f5260205f20015f9091909190916101000a81548173ffffffffffffffffffffffffffffffffffffffff021916908373ffffffffffffffffffffffffffffffffffffffff1602179055508073ffffffffffffffffffffffffffffffffffffffff167f994a936646fe87ffe4f1e469d3d6aa417d6b855598397f323de5b449f765f0c360405160405180910390a250565b5f6002828154811061098a57610989611583565b5b905f5260205f209060050201600401549050919050565b5f5481565b60035f3373ffffffffffffffffffffffffffffffffffffffff1673ffffffffffffffffffffffffffffffffffffffff1681526020019081526020015f205f9054906101000a900460ff16610a2f576040517f08c379a0000000000000000000000000000000000000000000000000000000008152600401610a2690611402565b60405180910390fd5b806002805490508110610a77576040517f08c379a0000000000000000000000000000000000000000000000000000000008152600401610a6e90611565565b60405180910390fd5b815f60028281548110610a8d57610a8c611583565b5b905f5260205f209060050201905060026003811115610aaf57610aae6112f2565b5b816002015f9054906101000a900460ff166003811115610ad257610ad16112f2565b5b03610b12576040517f08c379a0000000000000000000000000000000000000000000000000000000008152600401610b09906115fa565b60405180910390fd5b600380811115610b2557610b246112f2565b5b816002015f9054906101000a900460ff166003811115610b4857610b476112f2565b5b03610b88576040517f08c379a0000000000000000000000000000000000000000000000000000000008152600401610b7f90611662565b60405180910390fd5b5f60028581548110610b9d57610b9c611583565b5b905f5260205f2090600502019050806003015f3373ffffffffffffffffffffffffffffffffffffffff1673ffffffffffffffffffffffffffffffffffffffff1681526020019081526020015f205f9054906101000a900460ff1615610c37576040517f08c379a0000000000000000000000000000000000000000000000000000000008152600401610c2e90611758565b60405180910390fd5b6001816003015f3373ffffffffffffffffffffffffffffffffffffffff1673ffffffffffffffffffffffffffffffffffffffff1681526020019081526020015f205f6101000a81548160ff021916908315150217905550806004015f815480929190610ca290611776565b91905055505f806002600180549050610cbb91906117ea565b14610cc6575f610cc9565b60015b60ff166002600180549050610cde919061181a565b610ce891906114e8565b90503373ffffffffffffffffffffffffffffffffffffffff16867f15c2f311c9e0f53b50388279894aeff029a3457884a6601e924fca879e12adcc60405160405180910390a380826004015410610d66576001826002015f6101000a81548160ff02191690836003811115610d6057610d5f6112f2565b5b02179055505b505050505050565b60028181548110610d7d575f80fd5b905f5260205f2090600502015f91509050805f015f9054906101000a900473ffffffffffffffffffffffffffffffffffffffff1690806001015490806002015f9054906101000a900460ff16908060040154905084565b60035f3373ffffffffffffffffffffffffffffffffffffffff1673ffffffffffffffffffffffffffffffffffffffff1681526020019081526020015f205f9054906101000a900460ff16610e5d576040517f08c379a0000000000000000000000000000000000000000000000000000000008152600401610e5490611402565b60405180910390fd5b806002805490508110610ea5576040517f08c379a0000000000000000000000000000000000000000000000000000000008152600401610e9c90611565565b60405180910390fd5b815f60028281548110610ebb57610eba611583565b5b905f5260205f209060050201905060026003811115610edd57610edc6112f2565b5b816002015f9054906101000a900460ff166003811115610f0057610eff6112f2565b5b03610f40576040517f08c379a0000000000000000000000000000000000000000000000000000000008152600401610f37906115fa565b60405180910390fd5b600380811115610f5357610f526112f2565b5b816002015f9054906101000a900460ff166003811115610f7657610f756112f2565b5b03610fb6576040517f08c379a0000000000000000000000000000000000000000000000000000000008152600401610fad90611662565b60405180910390fd5b5f60028581548110610fcb57610fca611583565b5b905f5260205f209060050201905060016003811115610fed57610fec6112f2565b5b816002015f9054906101000a900460ff1660038111156110105761100f6112f2565b5b14611050576040517f08c379a000000000000000000000000000000000000000000000000000000000815260040161104790611894565b60405180910390fd5b80600101545f541015611098576040517f08c379a000000000000000000000000000000000000000000000000000000000815260040161108f9061146a565b60405180910390fd5b80600101545f808282546110ac91906114b5565b92505081905550805f015f9054906101000a900473ffffffffffffffffffffffffffffffffffffffff1673ffffffffffffffffffffffffffffffffffffffff166108fc826001015490811502906040515f60405180830381858888f1935050505015801561111c573d5f803e3d5ffd5b506002816002015f6101000a81548160ff02191690836003811115611144576111436112f2565b5b0217905550847f15ed165a284872ea7017f03df402a0cadfbfab588320ffaf83f160c2f82781c760405160405180910390a25050505050565b5f80fd5b5f819050919050565b61119381611181565b811461119d575f80fd5b50565b5f813590506111ae8161118a565b92915050565b5f602082840312156111c9576111c861117d565b5b5f6111d6848285016111a0565b91505092915050565b5f73ffffffffffffffffffffffffffffffffffffffff82169050919050565b5f611208826111df565b9050919050565b611218816111fe565b82525050565b5f6020820190506112315f83018461120f565b92915050565b611240816111fe565b811461124a575f80fd5b50565b5f8135905061125b81611237565b92915050565b5f80604083850312156112775761127661117d565b5b5f6112848582860161124d565b9250506020611295858286016111a0565b9150509250929050565b5f602082840312156112b4576112b361117d565b5b5f6112c18482850161124d565b91505092915050565b6112d381611181565b82525050565b5f6020820190506112ec5f8301846112ca565b92915050565b7f4e487b71000000000000000000000000000000000000000000000000000000005f52602160045260245ffd5b600481106113305761132f6112f2565b5b50565b5f8190506113408261131f565b919050565b5f61134f82611333565b9050919050565b61135f81611345565b82525050565b5f6080820190506113785f83018761120f565b61138560208301866112ca565b6113926040830185611356565b61139f60608301846112ca565b95945050505050565b5f82825260208201905092915050565b7f596f75206d75737420626520616e206f776e65722100000000000000000000005f82015250565b5f6113ec6015836113a8565b91506113f7826113b8565b602082019050919050565b5f6020820190508181035f830152611419816113e0565b9050919050565b7f496e73756666696369656e742062616c616e63652100000000000000000000005f82015250565b5f6114546015836113a8565b915061145f82611420565b602082019050919050565b5f6020820190508181035f83015261148181611448565b9050919050565b7f4e487b71000000000000000000000000000000000000000000000000000000005f52601160045260245ffd5b5f6114bf82611181565b91506114ca83611181565b92508282039050818111156114e2576114e1611488565b5b92915050565b5f6114f282611181565b91506114fd83611181565b925082820190508082111561151557611514611488565b5b92915050565b7f5472616e73616374696f6e20646f6573206e6f742065786973742100000000005f82015250565b5f61154f601b836113a8565b915061155a8261151b565b602082019050919050565b5f6020820190508181035f83015261157c81611543565b9050919050565b7f4e487b71000000000000000000000000000000000000000000000000000000005f52603260045260245ffd5b7f5472616e73616374696f6e20616c7265616479206578656375746564210000005f82015250565b5f6115e4601d836113a8565b91506115ef826115b0565b602082019050919050565b5f6020820190508181035f830152611611816115d8565b9050919050565b7f5472616e73616374696f6e20616c72656164792063616e63656c6c65642100005f82015250565b5f61164c601e836113a8565b915061165782611618565b602082019050919050565b5f6020820190508181035f83015261167981611640565b9050919050565b7f4164647265737320697320616c726561647920616e206f776e657221000000005f82015250565b5f6116b4601c836113a8565b91506116bf82611680565b602082019050919050565b5f6020820190508181035f8301526116e1816116a8565b9050919050565b7f596f75206861766520616c7265616479207369676e65642074686973207472615f8201527f6e73616374696f6e210000000000000000000000000000000000000000000000602082015250565b5f6117426029836113a8565b915061174d826116e8565b604082019050919050565b5f6020820190508181035f83015261176f81611736565b9050919050565b5f61178082611181565b91507fffffffffffffffffffffffffffffffffffffffffffffffffffffffffffffffff82036117b2576117b1611488565b5b600182019050919050565b7f4e487b71000000000000000000000000000000000000000000000000000000005f52601260045260245ffd5b5f6117f482611181565b91506117ff83611181565b92508261180f5761180e6117bd565b5b828206905092915050565b5f61182482611181565b915061182f83611181565b92508261183f5761183e6117bd565b5b828204905092915050565b7f5472616e73616374696f6e206973206e6f7420636f6e6669726d6564210000005f82015250565b5f61187e601d836113a8565b91506118898261184a565b602082019050919050565b5f6020820190508181035f8301526118ab81611872565b905091905056fea2646970667358221220ebe0d4fc1c3ad1a398146dde8249682abf8493a5046f850586e0e8e4d482e71964736f6c634300081a0033",
					"opcodes": "PUSH1 0x80 PUSH1 0x40 MSTORE CALLVALUE DUP1 ISZERO PUSH1 0xE JUMPI PUSH0 DUP1 REVERT JUMPDEST POP PUSH1 0x1 PUSH1 0x3 PUSH0 CALLER PUSH20 0xFFFFFFFFFFFFFFFFFFFFFFFFFFFFFFFFFFFFFFFF AND PUSH20 0xFFFFFFFFFFFFFFFFFFFFFFFFFFFFFFFFFFFFFFFF AND DUP2 MSTORE PUSH1 0x20 ADD SWAP1 DUP2 MSTORE PUSH1 0x20 ADD PUSH0 KECCAK256 PUSH0 PUSH2 0x100 EXP DUP2 SLOAD DUP2 PUSH1 0xFF MUL NOT AND SWAP1 DUP4 ISZERO ISZERO MUL OR SWAP1 SSTORE POP PUSH1 0x1 CALLER SWAP1 DUP1 PUSH1 0x1 DUP2 SLOAD ADD DUP1 DUP3 SSTORE DUP1 SWAP2 POP POP PUSH1 0x1 SWAP1 SUB SWAP1 PUSH0 MSTORE PUSH1 0x20 PUSH0 KECCAK256 ADD PUSH0 SWAP1 SWAP2 SWAP1 SWAP2 SWAP1 SWAP2 PUSH2 0x100 EXP DUP2 SLOAD DUP2 PUSH20 0xFFFFFFFFFFFFFFFFFFFFFFFFFFFFFFFFFFFFFFFF MUL NOT AND SWAP1 DUP4 PUSH20 0xFFFFFFFFFFFFFFFFFFFFFFFFFFFFFFFFFFFFFFFF AND MUL OR SWAP1 SSTORE POP PUSH2 0x18E8 DUP1 PUSH2 0xD1 PUSH0 CODECOPY PUSH0 RETURN INVALID PUSH1 0x80 PUSH1 0x40 MSTORE CALLVALUE DUP1 ISZERO PUSH2 0xF JUMPI PUSH0 DUP1 REVERT JUMPDEST POP PUSH1 0x4 CALLDATASIZE LT PUSH2 0x9C JUMPI PUSH0 CALLDATALOAD PUSH1 0xE0 SHR DUP1 PUSH4 0x94205469 GT PUSH2 0x64 JUMPI DUP1 PUSH4 0x94205469 EQ PUSH2 0x140 JUMPI DUP1 PUSH4 0xB69EF8A8 EQ PUSH2 0x170 JUMPI DUP1 PUSH4 0xC01A8C84 EQ PUSH2 0x18E JUMPI DUP1 PUSH4 0xE598C340 EQ PUSH2 0x1AA JUMPI DUP1 PUSH4 0xEE22610B EQ PUSH2 0x1DD JUMPI PUSH2 0x9C JUMP JUMPDEST DUP1 PUSH4 0x25E7C27 EQ PUSH2 0xA0 JUMPI DUP1 PUSH4 0x1E7F8F0F EQ PUSH2 0xD0 JUMPI DUP1 PUSH4 0x2C526196 EQ PUSH2 0xEC JUMPI DUP1 PUSH4 0x3380C0D8 EQ PUSH2 0x108 JUMPI DUP1 PUSH4 0x7065CB48 EQ PUSH2 0x124 JUMPI JUMPDEST PUSH0 DUP1 REVERT JUMPDEST PUSH2 0xBA PUSH1 0x4 DUP1 CALLDATASIZE SUB DUP2 ADD SWAP1 PUSH2 0xB5 SWAP2 SWAP1 PUSH2 0x11B4 JUMP JUMPDEST PUSH2 0x1F9 JUMP JUMPDEST PUSH1 0x40 MLOAD PUSH2 0xC7 SWAP2 SWAP1 PUSH2 0x121E JUMP JUMPDEST PUSH1 0x40 MLOAD DUP1 SWAP2 SUB SWAP1 RETURN JUMPDEST PUSH2 0xEA PUSH1 0x4 DUP1 CALLDATASIZE SUB DUP2 ADD SWAP1 PUSH2 0xE5 SWAP2 SWAP1 PUSH2 0x1261 JUMP JUMPDEST PUSH2 0x234 JUMP JUMPDEST STOP JUMPDEST PUSH2 0x106 PUSH1 0x4 DUP1 CALLDATASIZE SUB DUP2 ADD SWAP1 PUSH2 0x101 SWAP2 SWAP1 PUSH2 0x11B4 JUMP JUMPDEST PUSH2 0x45F JUMP JUMPDEST STOP JUMPDEST PUSH2 0x122 PUSH1 0x4 DUP1 CALLDATASIZE SUB DUP2 ADD SWAP1 PUSH2 0x11D SWAP2 SWAP1 PUSH2 0x11B4 JUMP JUMPDEST PUSH2 0x502 JUMP JUMPDEST STOP JUMPDEST PUSH2 0x13E PUSH1 0x4 DUP1 CALLDATASIZE SUB DUP2 ADD SWAP1 PUSH2 0x139 SWAP2 SWAP1 PUSH2 0x129F JUMP JUMPDEST PUSH2 0x767 JUMP JUMPDEST STOP JUMPDEST PUSH2 0x15A PUSH1 0x4 DUP1 CALLDATASIZE SUB DUP2 ADD SWAP1 PUSH2 0x155 SWAP2 SWAP1 PUSH2 0x11B4 JUMP JUMPDEST PUSH2 0x975 JUMP JUMPDEST PUSH1 0x40 MLOAD PUSH2 0x167 SWAP2 SWAP1 PUSH2 0x12D9 JUMP JUMPDEST PUSH1 0x40 MLOAD DUP1 SWAP2 SUB SWAP1 RETURN JUMPDEST PUSH2 0x178 PUSH2 0x9A1 JUMP JUMPDEST PUSH1 0x40 MLOAD PUSH2 0x185 SWAP2 SWAP1 PUSH2 0x12D9 JUMP JUMPDEST PUSH1 0x40 MLOAD DUP1 SWAP2 SUB SWAP1 RETURN JUMPDEST PUSH2 0x1A8 PUSH1 0x4 DUP1 CALLDATASIZE SUB DUP2 ADD SWAP1 PUSH2 0x1A3 SWAP2 SWAP1 PUSH2 0x11B4 JUMP JUMPDEST PUSH2 0x9A6 JUMP JUMPDEST STOP JUMPDEST PUSH2 0x1C4 PUSH1 0x4 DUP1 CALLDATASIZE SUB DUP2 ADD SWAP1 PUSH2 0x1BF SWAP2 SWAP1 PUSH2 0x11B4 JUMP JUMPDEST PUSH2 0xD6E JUMP JUMPDEST PUSH1 0x40 MLOAD PUSH2 0x1D4 SWAP5 SWAP4 SWAP3 SWAP2 SWAP1 PUSH2 0x1365 JUMP JUMPDEST PUSH1 0x40 MLOAD DUP1 SWAP2 SUB SWAP1 RETURN JUMPDEST PUSH2 0x1F7 PUSH1 0x4 DUP1 CALLDATASIZE SUB DUP2 ADD SWAP1 PUSH2 0x1F2 SWAP2 SWAP1 PUSH2 0x11B4 JUMP JUMPDEST PUSH2 0xDD4 JUMP JUMPDEST STOP JUMPDEST PUSH1 0x1 DUP2 DUP2 SLOAD DUP2 LT PUSH2 0x208 JUMPI PUSH0 DUP1 REVERT JUMPDEST SWAP1 PUSH0 MSTORE PUSH1 0x20 PUSH0 KECCAK256 ADD PUSH0 SWAP2 POP SLOAD SWAP1 PUSH2 0x100 EXP SWAP1 DIV PUSH20 0xFFFFFFFFFFFFFFFFFFFFFFFFFFFFFFFFFFFFFFFF AND DUP2 JUMP JUMPDEST PUSH1 0x3 PUSH0 CALLER PUSH20 0xFFFFFFFFFFFFFFFFFFFFFFFFFFFFFFFFFFFFFFFF AND PUSH20 0xFFFFFFFFFFFFFFFFFFFFFFFFFFFFFFFFFFFFFFFF AND DUP2 MSTORE PUSH1 0x20 ADD SWAP1 DUP2 MSTORE PUSH1 0x20 ADD PUSH0 KECCAK256 PUSH0 SWAP1 SLOAD SWAP1 PUSH2 0x100 EXP SWAP1 DIV PUSH1 0xFF AND PUSH2 0x2BD JUMPI PUSH1 0x40 MLOAD PUSH32 0x8C379A000000000000000000000000000000000000000000000000000000000 DUP2 MSTORE PUSH1 0x4 ADD PUSH2 0x2B4 SWAP1 PUSH2 0x1402 JUMP JUMPDEST PUSH1 0x40 MLOAD DUP1 SWAP2 SUB SWAP1 REVERT JUMPDEST DUP1 DUP1 PUSH0 SLOAD LT ISZERO PUSH2 0x302 JUMPI PUSH1 0x40 MLOAD PUSH32 0x8C379A000000000000000000000000000000000000000000000000000000000 DUP2 MSTORE PUSH1 0x4 ADD PUSH2 0x2F9 SWAP1 PUSH2 0x146A JUMP JUMPDEST PUSH1 0x40 MLOAD DUP1 SWAP2 SUB SWAP1 REVERT JUMPDEST PUSH0 PUSH1 0x2 PUSH1 0x1 DUP2 PUSH1 0x1 DUP2 SLOAD ADD DUP1 DUP3 SSTORE DUP1 SWAP2 POP POP SUB SWAP1 PUSH0 MSTORE PUSH1 0x20 PUSH0 KECCAK256 SWAP1 PUSH1 0x5 MUL ADD SWAP1 POP DUP4 DUP2 PUSH0 ADD PUSH0 PUSH2 0x100 EXP DUP2 SLOAD DUP2 PUSH20 0xFFFFFFFFFFFFFFFFFFFFFFFFFFFFFFFFFFFFFFFF MUL NOT AND SWAP1 DUP4 PUSH20 0xFFFFFFFFFFFFFFFFFFFFFFFFFFFFFFFFFFFFFFFF AND MUL OR SWAP1 SSTORE POP DUP3 DUP2 PUSH1 0x1 ADD DUP2 SWAP1 SSTORE POP PUSH0 DUP2 PUSH1 0x2 ADD PUSH0 PUSH2 0x100 EXP DUP2 SLOAD DUP2 PUSH1 0xFF MUL NOT AND SWAP1 DUP4 PUSH1 0x3 DUP2 GT ISZERO PUSH2 0x393 JUMPI PUSH2 0x392 PUSH2 0x12F2 JUMP JUMPDEST JUMPDEST MUL OR SWAP1 SSTORE POP PUSH1 0x1 DUP2 PUSH1 0x4 ADD DUP2 SWAP1 SSTORE POP PUSH1 0x1 DUP2 PUSH1 0x3 ADD PUSH0 CALLER PUSH20 0xFFFFFFFFFFFFFFFFFFFFFFFFFFFFFFFFFFFFFFFF AND PUSH20 0xFFFFFFFFFFFFFFFFFFFFFFFFFFFFFFFFFFFFFFFF AND DUP2 MSTORE PUSH1 0x20 ADD SWAP1 DUP2 MSTORE PUSH1 0x20 ADD PUSH0 KECCAK256 PUSH0 PUSH2 0x100 EXP DUP2 SLOAD DUP2 PUSH1 0xFF MUL NOT AND SWAP1 DUP4 ISZERO ISZERO MUL OR SWAP1 SSTORE POP DUP4 PUSH20 0xFFFFFFFFFFFFFFFFFFFFFFFFFFFFFFFFFFFFFFFF AND PUSH1 0x1 PUSH1 0x2 DUP1 SLOAD SWAP1 POP PUSH2 0x422 SWAP2 SWAP1 PUSH2 0x14B5 JUMP JUMPDEST PUSH32 0xFD27D176B6EBB21E0182C0E43DF5818E0D632867E1EB47C383C58D221205FCE3 DUP6 PUSH1 0x40 MLOAD PUSH2 0x451 SWAP2 SWAP1 PUSH2 0x12D9 JUMP JUMPDEST PUSH1 0x40 MLOAD DUP1 SWAP2 SUB SWAP1 LOG3 POP POP POP POP JUMP JUMPDEST PUSH1 0x3 PUSH0 CALLER PUSH20 0xFFFFFFFFFFFFFFFFFFFFFFFFFFFFFFFFFFFFFFFF AND PUSH20 0xFFFFFFFFFFFFFFFFFFFFFFFFFFFFFFFFFFFFFFFF AND DUP2 MSTORE PUSH1 0x20 ADD SWAP1 DUP2 MSTORE PUSH1 0x20 ADD PUSH0 KECCAK256 PUSH0 SWAP1 SLOAD SWAP1 PUSH2 0x100 EXP SWAP1 DIV PUSH1 0xFF AND PUSH2 0x4E8 JUMPI PUSH1 0x40 MLOAD PUSH32 0x8C379A000000000000000000000000000000000000000000000000000000000 DUP2 MSTORE PUSH1 0x4 ADD PUSH2 0x4DF SWAP1 PUSH2 0x1402 JUMP JUMPDEST PUSH1 0x40 MLOAD DUP1 SWAP2 SUB SWAP1 REVERT JUMPDEST DUP1 PUSH0 DUP1 DUP3 DUP3 SLOAD PUSH2 0x4F8 SWAP2 SWAP1 PUSH2 0x14E8 JUMP JUMPDEST SWAP3 POP POP DUP2 SWAP1 SSTORE POP POP JUMP JUMPDEST PUSH1 0x3 PUSH0 CALLER PUSH20 0xFFFFFFFFFFFFFFFFFFFFFFFFFFFFFFFFFFFFFFFF AND PUSH20 0xFFFFFFFFFFFFFFFFFFFFFFFFFFFFFFFFFFFFFFFF AND DUP2 MSTORE PUSH1 0x20 ADD SWAP1 DUP2 MSTORE PUSH1 0x20 ADD PUSH0 KECCAK256 PUSH0 SWAP1 SLOAD SWAP1 PUSH2 0x100 EXP SWAP1 DIV PUSH1 0xFF AND PUSH2 0x58B JUMPI PUSH1 0x40 MLOAD PUSH32 0x8C379A000000000000000000000000000000000000000000000000000000000 DUP2 MSTORE PUSH1 0x4 ADD PUSH2 0x582 SWAP1 PUSH2 0x1402 JUMP JUMPDEST PUSH1 0x40 MLOAD DUP1 SWAP2 SUB SWAP1 REVERT JUMPDEST DUP1 PUSH1 0x2 DUP1 SLOAD SWAP1 POP DUP2 LT PUSH2 0x5D3 JUMPI PUSH1 0x40 MLOAD PUSH32 0x8C379A000000000000000000000000000000000000000000000000000000000 DUP2 MSTORE PUSH1 0x4 ADD PUSH2 0x5CA SWAP1 PUSH2 0x1565 JUMP JUMPDEST PUSH1 0x40 MLOAD DUP1 SWAP2 SUB SWAP1 REVERT JUMPDEST DUP2 PUSH0 PUSH1 0x2 DUP3 DUP2 SLOAD DUP2 LT PUSH2 0x5E9 JUMPI PUSH2 0x5E8 PUSH2 0x1583 JUMP JUMPDEST JUMPDEST SWAP1 PUSH0 MSTORE PUSH1 0x20 PUSH0 KECCAK256 SWAP1 PUSH1 0x5 MUL ADD SWAP1 POP PUSH1 0x2 PUSH1 0x3 DUP2 GT ISZERO PUSH2 0x60B JUMPI PUSH2 0x60A PUSH2 0x12F2 JUMP JUMPDEST JUMPDEST DUP2 PUSH1 0x2 ADD PUSH0 SWAP1 SLOAD SWAP1 PUSH2 0x100 EXP SWAP1 DIV PUSH1 0xFF AND PUSH1 0x3 DUP2 GT ISZERO PUSH2 0x62E JUMPI PUSH2 0x62D PUSH2 0x12F2 JUMP JUMPDEST JUMPDEST SUB PUSH2 0x66E JUMPI PUSH1 0x40 MLOAD PUSH32 0x8C379A000000000000000000000000000000000000000000000000000000000 DUP2 MSTORE PUSH1 0x4 ADD PUSH2 0x665 SWAP1 PUSH2 0x15FA JUMP JUMPDEST PUSH1 0x40 MLOAD DUP1 SWAP2 SUB SWAP1 REVERT JUMPDEST PUSH1 0x3 DUP1 DUP2 GT ISZERO PUSH2 0x681 JUMPI PUSH2 0x680 PUSH2 0x12F2 JUMP JUMPDEST JUMPDEST DUP2 PUSH1 0x2 ADD PUSH0 SWAP1 SLOAD SWAP1 PUSH2 0x100 EXP SWAP1 DIV PUSH1 0xFF AND PUSH1 0x3 DUP2 GT ISZERO PUSH2 0x6A4 JUMPI PUSH2 0x6A3 PUSH2 0x12F2 JUMP JUMPDEST JUMPDEST SUB PUSH2 0x6E4 JUMPI PUSH1 0x40 MLOAD PUSH32 0x8C379A000000000000000000000000000000000000000000000000000000000 DUP2 MSTORE PUSH1 0x4 ADD PUSH2 0x6DB SWAP1 PUSH2 0x1662 JUMP JUMPDEST PUSH1 0x40 MLOAD DUP1 SWAP2 SUB SWAP1 REVERT JUMPDEST PUSH0 PUSH1 0x2 DUP6 DUP2 SLOAD DUP2 LT PUSH2 0x6F9 JUMPI PUSH2 0x6F8 PUSH2 0x1583 JUMP JUMPDEST JUMPDEST SWAP1 PUSH0 MSTORE PUSH1 0x20 PUSH0 KECCAK256 SWAP1 PUSH1 0x5 MUL ADD SWAP1 POP PUSH1 0x3 DUP2 PUSH1 0x2 ADD PUSH0 PUSH2 0x100 EXP DUP2 SLOAD DUP2 PUSH1 0xFF MUL NOT AND SWAP1 DUP4 PUSH1 0x3 DUP2 GT ISZERO PUSH2 0x72E JUMPI PUSH2 0x72D PUSH2 0x12F2 JUMP JUMPDEST JUMPDEST MUL OR SWAP1 SSTORE POP DUP5 PUSH32 0x956FB32199D8B882B2039A14E1BE35AB14F7A80B9089FC223F14B43937173E60 PUSH1 0x40 MLOAD PUSH1 0x40 MLOAD DUP1 SWAP2 SUB SWAP1 LOG2 POP POP POP POP POP JUMP JUMPDEST PUSH1 0x3 PUSH0 CALLER PUSH20 0xFFFFFFFFFFFFFFFFFFFFFFFFFFFFFFFFFFFFFFFF AND PUSH20 0xFFFFFFFFFFFFFFFFFFFFFFFFFFFFFFFFFFFFFFFF AND DUP2 MSTORE PUSH1 0x20 ADD SWAP1 DUP2 MSTORE PUSH1 0x20 ADD PUSH0 KECCAK256 PUSH0 SWAP1 SLOAD SWAP1 PUSH2 0x100 EXP SWAP1 DIV PUSH1 0xFF AND PUSH2 0x7F0 JUMPI PUSH1 0x40 MLOAD PUSH32 0x8C379A000000000000000000000000000000000000000000000000000000000 DUP2 MSTORE PUSH1 0x4 ADD PUSH2 0x7E7 SWAP1 PUSH2 0x1402 JUMP JUMPDEST PUSH1 0x40 MLOAD DUP1 SWAP2 SUB SWAP1 REVERT JUMPDEST PUSH1 0x3 PUSH0 DUP3 PUSH20 0xFFFFFFFFFFFFFFFFFFFFFFFFFFFFFFFFFFFFFFFF AND PUSH20 0xFFFFFFFFFFFFFFFFFFFFFFFFFFFFFFFFFFFFFFFF AND DUP2 MSTORE PUSH1 0x20 ADD SWAP1 DUP2 MSTORE PUSH1 0x20 ADD PUSH0 KECCAK256 PUSH0 SWAP1 SLOAD SWAP1 PUSH2 0x100 EXP SWAP1 DIV PUSH1 0xFF AND ISZERO PUSH2 0x87A JUMPI PUSH1 0x40 MLOAD PUSH32 0x8C379A000000000000000000000000000000000000000000000000000000000 DUP2 MSTORE PUSH1 0x4 ADD PUSH2 0x871 SWAP1 PUSH2 0x16CA JUMP JUMPDEST PUSH1 0x40 MLOAD DUP1 SWAP2 SUB SWAP1 REVERT JUMPDEST PUSH1 0x1 PUSH1 0x3 PUSH0 DUP4 PUSH20 0xFFFFFFFFFFFFFFFFFFFFFFFFFFFFFFFFFFFFFFFF AND PUSH20 0xFFFFFFFFFFFFFFFFFFFFFFFFFFFFFFFFFFFFFFFF AND DUP2 MSTORE PUSH1 0x20 ADD SWAP1 DUP2 MSTORE PUSH1 0x20 ADD PUSH0 KECCAK256 PUSH0 PUSH2 0x100 EXP DUP2 SLOAD DUP2 PUSH1 0xFF MUL NOT AND SWAP1 DUP4 ISZERO ISZERO MUL OR SWAP1 SSTORE POP PUSH1 0x1 DUP2 SWAP1 DUP1 PUSH1 0x1 DUP2 SLOAD ADD DUP1 DUP3 SSTORE DUP1 SWAP2 POP POP PUSH1 0x1 SWAP1 SUB SWAP1 PUSH0 MSTORE PUSH1 0x20 PUSH0 KECCAK256 ADD PUSH0 SWAP1 SWAP2 SWAP1 SWAP2 SWAP1 SWAP2 PUSH2 0x100 EXP DUP2 SLOAD DUP2 PUSH20 0xFFFFFFFFFFFFFFFFFFFFFFFFFFFFFFFFFFFFFFFF MUL NOT AND SWAP1 DUP4 PUSH20 0xFFFFFFFFFFFFFFFFFFFFFFFFFFFFFFFFFFFFFFFF AND MUL OR SWAP1 SSTORE POP DUP1 PUSH20 0xFFFFFFFFFFFFFFFFFFFFFFFFFFFFFFFFFFFFFFFF AND PUSH32 0x994A936646FE87FFE4F1E469D3D6AA417D6B855598397F323DE5B449F765F0C3 PUSH1 0x40 MLOAD PUSH1 0x40 MLOAD DUP1 SWAP2 SUB SWAP1 LOG2 POP JUMP JUMPDEST PUSH0 PUSH1 0x2 DUP3 DUP2 SLOAD DUP2 LT PUSH2 0x98A JUMPI PUSH2 0x989 PUSH2 0x1583 JUMP JUMPDEST JUMPDEST SWAP1 PUSH0 MSTORE PUSH1 0x20 PUSH0 KECCAK256 SWAP1 PUSH1 0x5 MUL ADD PUSH1 0x4 ADD SLOAD SWAP1 POP SWAP2 SWAP1 POP JUMP JUMPDEST PUSH0 SLOAD DUP2 JUMP JUMPDEST PUSH1 0x3 PUSH0 CALLER PUSH20 0xFFFFFFFFFFFFFFFFFFFFFFFFFFFFFFFFFFFFFFFF AND PUSH20 0xFFFFFFFFFFFFFFFFFFFFFFFFFFFFFFFFFFFFFFFF AND DUP2 MSTORE PUSH1 0x20 ADD SWAP1 DUP2 MSTORE PUSH1 0x20 ADD PUSH0 KECCAK256 PUSH0 SWAP1 SLOAD SWAP1 PUSH2 0x100 EXP SWAP1 DIV PUSH1 0xFF AND PUSH2 0xA2F JUMPI PUSH1 0x40 MLOAD PUSH32 0x8C379A000000000000000000000000000000000000000000000000000000000 DUP2 MSTORE PUSH1 0x4 ADD PUSH2 0xA26 SWAP1 PUSH2 0x1402 JUMP JUMPDEST PUSH1 0x40 MLOAD DUP1 SWAP2 SUB SWAP1 REVERT JUMPDEST DUP1 PUSH1 0x2 DUP1 SLOAD SWAP1 POP DUP2 LT PUSH2 0xA77 JUMPI PUSH1 0x40 MLOAD PUSH32 0x8C379A000000000000000000000000000000000000000000000000000000000 DUP2 MSTORE PUSH1 0x4 ADD PUSH2 0xA6E SWAP1 PUSH2 0x1565 JUMP JUMPDEST PUSH1 0x40 MLOAD DUP1 SWAP2 SUB SWAP1 REVERT JUMPDEST DUP2 PUSH0 PUSH1 0x2 DUP3 DUP2 SLOAD DUP2 LT PUSH2 0xA8D JUMPI PUSH2 0xA8C PUSH2 0x1583 JUMP JUMPDEST JUMPDEST SWAP1 PUSH0 MSTORE PUSH1 0x20 PUSH0 KECCAK256 SWAP1 PUSH1 0x5 MUL ADD SWAP1 POP PUSH1 0x2 PUSH1 0x3 DUP2 GT ISZERO PUSH2 0xAAF JUMPI PUSH2 0xAAE PUSH2 0x12F2 JUMP JUMPDEST JUMPDEST DUP2 PUSH1 0x2 ADD PUSH0 SWAP1 SLOAD SWAP1 PUSH2 0x100 EXP SWAP1 DIV PUSH1 0xFF AND PUSH1 0x3 DUP2 GT ISZERO PUSH2 0xAD2 JUMPI PUSH2 0xAD1 PUSH2 0x12F2 JUMP JUMPDEST JUMPDEST SUB PUSH2 0xB12 JUMPI PUSH1 0x40 MLOAD PUSH32 0x8C379A000000000000000000000000000000000000000000000000000000000 DUP2 MSTORE PUSH1 0x4 ADD PUSH2 0xB09 SWAP1 PUSH2 0x15FA JUMP JUMPDEST PUSH1 0x40 MLOAD DUP1 SWAP2 SUB SWAP1 REVERT JUMPDEST PUSH1 0x3 DUP1 DUP2 GT ISZERO PUSH2 0xB25 JUMPI PUSH2 0xB24 PUSH2 0x12F2 JUMP JUMPDEST JUMPDEST DUP2 PUSH1 0x2 ADD PUSH0 SWAP1 SLOAD SWAP1 PUSH2 0x100 EXP SWAP1 DIV PUSH1 0xFF AND PUSH1 0x3 DUP2 GT ISZERO PUSH2 0xB48 JUMPI PUSH2 0xB47 PUSH2 0x12F2 JUMP JUMPDEST JUMPDEST SUB PUSH2 0xB88 JUMPI PUSH1 0x40 MLOAD PUSH32 0x8C379A000000000000000000000000000000000000000000000000000000000 DUP2 MSTORE PUSH1 0x4 ADD PUSH2 0xB7F SWAP1 PUSH2 0x1662 JUMP JUMPDEST PUSH1 0x40 MLOAD DUP1 SWAP2 SUB SWAP1 REVERT JUMPDEST PUSH0 PUSH1 0x2 DUP6 DUP2 SLOAD DUP2 LT PUSH2 0xB9D JUMPI PUSH2 0xB9C PUSH2 0x1583 JUMP JUMPDEST JUMPDEST SWAP1 PUSH0 MSTORE PUSH1 0x20 PUSH0 KECCAK256 SWAP1 PUSH1 0x5 MUL ADD SWAP1 POP DUP1 PUSH1 0x3 ADD PUSH0 CALLER PUSH20 0xFFFFFFFFFFFFFFFFFFFFFFFFFFFFFFFFFFFFFFFF AND PUSH20 0xFFFFFFFFFFFFFFFFFFFFFFFFFFFFFFFFFFFFFFFF AND DUP2 MSTORE PUSH1 0x20 ADD SWAP1 DUP2 MSTORE PUSH1 0x20 ADD PUSH0 KECCAK256 PUSH0 SWAP1 SLOAD SWAP1 PUSH2 0x100 EXP SWAP1 DIV PUSH1 0xFF AND ISZERO PUSH2 0xC37 JUMPI PUSH1 0x40 MLOAD PUSH32 0x8C379A000000000000000000000000000000000000000000000000000000000 DUP2 MSTORE PUSH1 0x4 ADD PUSH2 0xC2E SWAP1 PUSH2 0x1758 JUMP JUMPDEST PUSH1 0x40 MLOAD DUP1 SWAP2 SUB SWAP1 REVERT JUMPDEST PUSH1 0x1 DUP2 PUSH1 0x3 ADD PUSH0 CALLER PUSH20 0xFFFFFFFFFFFFFFFFFFFFFFFFFFFFFFFFFFFFFFFF AND PUSH20 0xFFFFFFFFFFFFFFFFFFFFFFFFFFFFFFFFFFFFFFFF AND DUP2 MSTORE PUSH1 0x20 ADD SWAP1 DUP2 MSTORE PUSH1 0x20 ADD PUSH0 KECCAK256 PUSH0 PUSH2 0x100 EXP DUP2 SLOAD DUP2 PUSH1 0xFF MUL NOT AND SWAP1 DUP4 ISZERO ISZERO MUL OR SWAP1 SSTORE POP DUP1 PUSH1 0x4 ADD PUSH0 DUP2 SLOAD DUP1 SWAP3 SWAP2 SWAP1 PUSH2 0xCA2 SWAP1 PUSH2 0x1776 JUMP JUMPDEST SWAP2 SWAP1 POP SSTORE POP PUSH0 DUP1 PUSH1 0x2 PUSH1 0x1 DUP1 SLOAD SWAP1 POP PUSH2 0xCBB SWAP2 SWAP1 PUSH2 0x17EA JUMP JUMPDEST EQ PUSH2 0xCC6 JUMPI PUSH0 PUSH2 0xCC9 JUMP JUMPDEST PUSH1 0x1 JUMPDEST PUSH1 0xFF AND PUSH1 0x2 PUSH1 0x1 DUP1 SLOAD SWAP1 POP PUSH2 0xCDE SWAP2 SWAP1 PUSH2 0x181A JUMP JUMPDEST PUSH2 0xCE8 SWAP2 SWAP1 PUSH2 0x14E8 JUMP JUMPDEST SWAP1 POP CALLER PUSH20 0xFFFFFFFFFFFFFFFFFFFFFFFFFFFFFFFFFFFFFFFF AND DUP7 PUSH32 0x15C2F311C9E0F53B50388279894AEFF029A3457884A6601E924FCA879E12ADCC PUSH1 0x40 MLOAD PUSH1 0x40 MLOAD DUP1 SWAP2 SUB SWAP1 LOG3 DUP1 DUP3 PUSH1 0x4 ADD SLOAD LT PUSH2 0xD66 JUMPI PUSH1 0x1 DUP3 PUSH1 0x2 ADD PUSH0 PUSH2 0x100 EXP DUP2 SLOAD DUP2 PUSH1 0xFF MUL NOT AND SWAP1 DUP4 PUSH1 0x3 DUP2 GT ISZERO PUSH2 0xD60 JUMPI PUSH2 0xD5F PUSH2 0x12F2 JUMP JUMPDEST JUMPDEST MUL OR SWAP1 SSTORE POP JUMPDEST POP POP POP POP POP POP JUMP JUMPDEST PUSH1 0x2 DUP2 DUP2 SLOAD DUP2 LT PUSH2 0xD7D JUMPI PUSH0 DUP1 REVERT JUMPDEST SWAP1 PUSH0 MSTORE PUSH1 0x20 PUSH0 KECCAK256 SWAP1 PUSH1 0x5 MUL ADD PUSH0 SWAP2 POP SWAP1 POP DUP1 PUSH0 ADD PUSH0 SWAP1 SLOAD SWAP1 PUSH2 0x100 EXP SWAP1 DIV PUSH20 0xFFFFFFFFFFFFFFFFFFFFFFFFFFFFFFFFFFFFFFFF AND SWAP1 DUP1 PUSH1 0x1 ADD SLOAD SWAP1 DUP1 PUSH1 0x2 ADD PUSH0 SWAP1 SLOAD SWAP1 PUSH2 0x100 EXP SWAP1 DIV PUSH1 0xFF AND SWAP1 DUP1 PUSH1 0x4 ADD SLOAD SWAP1 POP DUP5 JUMP JUMPDEST PUSH1 0x3 PUSH0 CALLER PUSH20 0xFFFFFFFFFFFFFFFFFFFFFFFFFFFFFFFFFFFFFFFF AND PUSH20 0xFFFFFFFFFFFFFFFFFFFFFFFFFFFFFFFFFFFFFFFF AND DUP2 MSTORE PUSH1 0x20 ADD SWAP1 DUP2 MSTORE PUSH1 0x20 ADD PUSH0 KECCAK256 PUSH0 SWAP1 SLOAD SWAP1 PUSH2 0x100 EXP SWAP1 DIV PUSH1 0xFF AND PUSH2 0xE5D JUMPI PUSH1 0x40 MLOAD PUSH32 0x8C379A000000000000000000000000000000000000000000000000000000000 DUP2 MSTORE PUSH1 0x4 ADD PUSH2 0xE54 SWAP1 PUSH2 0x1402 JUMP JUMPDEST PUSH1 0x40 MLOAD DUP1 SWAP2 SUB SWAP1 REVERT JUMPDEST DUP1 PUSH1 0x2 DUP1 SLOAD SWAP1 POP DUP2 LT PUSH2 0xEA5 JUMPI PUSH1 0x40 MLOAD PUSH32 0x8C379A000000000000000000000000000000000000000000000000000000000 DUP2 MSTORE PUSH1 0x4 ADD PUSH2 0xE9C SWAP1 PUSH2 0x1565 JUMP JUMPDEST PUSH1 0x40 MLOAD DUP1 SWAP2 SUB SWAP1 REVERT JUMPDEST DUP2 PUSH0 PUSH1 0x2 DUP3 DUP2 SLOAD DUP2 LT PUSH2 0xEBB JUMPI PUSH2 0xEBA PUSH2 0x1583 JUMP JUMPDEST JUMPDEST SWAP1 PUSH0 MSTORE PUSH1 0x20 PUSH0 KECCAK256 SWAP1 PUSH1 0x5 MUL ADD SWAP1 POP PUSH1 0x2 PUSH1 0x3 DUP2 GT ISZERO PUSH2 0xEDD JUMPI PUSH2 0xEDC PUSH2 0x12F2 JUMP JUMPDEST JUMPDEST DUP2 PUSH1 0x2 ADD PUSH0 SWAP1 SLOAD SWAP1 PUSH2 0x100 EXP SWAP1 DIV PUSH1 0xFF AND PUSH1 0x3 DUP2 GT ISZERO PUSH2 0xF00 JUMPI PUSH2 0xEFF PUSH2 0x12F2 JUMP JUMPDEST JUMPDEST SUB PUSH2 0xF40 JUMPI PUSH1 0x40 MLOAD PUSH32 0x8C379A000000000000000000000000000000000000000000000000000000000 DUP2 MSTORE PUSH1 0x4 ADD PUSH2 0xF37 SWAP1 PUSH2 0x15FA JUMP JUMPDEST PUSH1 0x40 MLOAD DUP1 SWAP2 SUB SWAP1 REVERT JUMPDEST PUSH1 0x3 DUP1 DUP2 GT ISZERO PUSH2 0xF53 JUMPI PUSH2 0xF52 PUSH2 0x12F2 JUMP JUMPDEST JUMPDEST DUP2 PUSH1 0x2 ADD PUSH0 SWAP1 SLOAD SWAP1 PUSH2 0x100 EXP SWAP1 DIV PUSH1 0xFF AND PUSH1 0x3 DUP2 GT ISZERO PUSH2 0xF76 JUMPI PUSH2 0xF75 PUSH2 0x12F2 JUMP JUMPDEST JUMPDEST SUB PUSH2 0xFB6 JUMPI PUSH1 0x40 MLOAD PUSH32 0x8C379A000000000000000000000000000000000000000000000000000000000 DUP2 MSTORE PUSH1 0x4 ADD PUSH2 0xFAD SWAP1 PUSH2 0x1662 JUMP JUMPDEST PUSH1 0x40 MLOAD DUP1 SWAP2 SUB SWAP1 REVERT JUMPDEST PUSH0 PUSH1 0x2 DUP6 DUP2 SLOAD DUP2 LT PUSH2 0xFCB JUMPI PUSH2 0xFCA PUSH2 0x1583 JUMP JUMPDEST JUMPDEST SWAP1 PUSH0 MSTORE PUSH1 0x20 PUSH0 KECCAK256 SWAP1 PUSH1 0x5 MUL ADD SWAP1 POP PUSH1 0x1 PUSH1 0x3 DUP2 GT ISZERO PUSH2 0xFED JUMPI PUSH2 0xFEC PUSH2 0x12F2 JUMP JUMPDEST JUMPDEST DUP2 PUSH1 0x2 ADD PUSH0 SWAP1 SLOAD SWAP1 PUSH2 0x100 EXP SWAP1 DIV PUSH1 0xFF AND PUSH1 0x3 DUP2 GT ISZERO PUSH2 0x1010 JUMPI PUSH2 0x100F PUSH2 0x12F2 JUMP JUMPDEST JUMPDEST EQ PUSH2 0x1050 JUMPI PUSH1 0x40 MLOAD PUSH32 0x8C379A000000000000000000000000000000000000000000000000000000000 DUP2 MSTORE PUSH1 0x4 ADD PUSH2 0x1047 SWAP1 PUSH2 0x1894 JUMP JUMPDEST PUSH1 0x40 MLOAD DUP1 SWAP2 SUB SWAP1 REVERT JUMPDEST DUP1 PUSH1 0x1 ADD SLOAD PUSH0 SLOAD LT ISZERO PUSH2 0x1098 JUMPI PUSH1 0x40 MLOAD PUSH32 0x8C379A000000000000000000000000000000000000000000000000000000000 DUP2 MSTORE PUSH1 0x4 ADD PUSH2 0x108F SWAP1 PUSH2 0x146A JUMP JUMPDEST PUSH1 0x40 MLOAD DUP1 SWAP2 SUB SWAP1 REVERT JUMPDEST DUP1 PUSH1 0x1 ADD SLOAD PUSH0 DUP1 DUP3 DUP3 SLOAD PUSH2 0x10AC SWAP2 SWAP1 PUSH2 0x14B5 JUMP JUMPDEST SWAP3 POP POP DUP2 SWAP1 SSTORE POP DUP1 PUSH0 ADD PUSH0 SWAP1 SLOAD SWAP1 PUSH2 0x100 EXP SWAP1 DIV PUSH20 0xFFFFFFFFFFFFFFFFFFFFFFFFFFFFFFFFFFFFFFFF AND PUSH20 0xFFFFFFFFFFFFFFFFFFFFFFFFFFFFFFFFFFFFFFFF AND PUSH2 0x8FC DUP3 PUSH1 0x1 ADD SLOAD SWAP1 DUP2 ISZERO MUL SWAP1 PUSH1 0x40 MLOAD PUSH0 PUSH1 0x40 MLOAD DUP1 DUP4 SUB DUP2 DUP6 DUP9 DUP9 CALL SWAP4 POP POP POP POP ISZERO DUP1 ISZERO PUSH2 0x111C JUMPI RETURNDATASIZE PUSH0 DUP1 RETURNDATACOPY RETURNDATASIZE PUSH0 REVERT JUMPDEST POP PUSH1 0x2 DUP2 PUSH1 0x2 ADD PUSH0 PUSH2 0x100 EXP DUP2 SLOAD DUP2 PUSH1 0xFF MUL NOT AND SWAP1 DUP4 PUSH1 0x3 DUP2 GT ISZERO PUSH2 0x1144 JUMPI PUSH2 0x1143 PUSH2 0x12F2 JUMP JUMPDEST JUMPDEST MUL OR SWAP1 SSTORE POP DUP5 PUSH32 0x15ED165A284872EA7017F03DF402A0CADFBFAB588320FFAF83F160C2F82781C7 PUSH1 0x40 MLOAD PUSH1 0x40 MLOAD DUP1 SWAP2 SUB SWAP1 LOG2 POP POP POP POP POP JUMP JUMPDEST PUSH0 DUP1 REVERT JUMPDEST PUSH0 DUP2 SWAP1 POP SWAP2 SWAP1 POP JUMP JUMPDEST PUSH2 0x1193 DUP2 PUSH2 0x1181 JUMP JUMPDEST DUP2 EQ PUSH2 0x119D JUMPI PUSH0 DUP1 REVERT JUMPDEST POP JUMP JUMPDEST PUSH0 DUP2 CALLDATALOAD SWAP1 POP PUSH2 0x11AE DUP2 PUSH2 0x118A JUMP JUMPDEST SWAP3 SWAP2 POP POP JUMP JUMPDEST PUSH0 PUSH1 0x20 DUP3 DUP5 SUB SLT ISZERO PUSH2 0x11C9 JUMPI PUSH2 0x11C8 PUSH2 0x117D JUMP JUMPDEST JUMPDEST PUSH0 PUSH2 0x11D6 DUP5 DUP3 DUP6 ADD PUSH2 0x11A0 JUMP JUMPDEST SWAP2 POP POP SWAP3 SWAP2 POP POP JUMP JUMPDEST PUSH0 PUSH20 0xFFFFFFFFFFFFFFFFFFFFFFFFFFFFFFFFFFFFFFFF DUP3 AND SWAP1 POP SWAP2 SWAP1 POP JUMP JUMPDEST PUSH0 PUSH2 0x1208 DUP3 PUSH2 0x11DF JUMP JUMPDEST SWAP1 POP SWAP2 SWAP1 POP JUMP JUMPDEST PUSH2 0x1218 DUP2 PUSH2 0x11FE JUMP JUMPDEST DUP3 MSTORE POP POP JUMP JUMPDEST PUSH0 PUSH1 0x20 DUP3 ADD SWAP1 POP PUSH2 0x1231 PUSH0 DUP4 ADD DUP5 PUSH2 0x120F JUMP JUMPDEST SWAP3 SWAP2 POP POP JUMP JUMPDEST PUSH2 0x1240 DUP2 PUSH2 0x11FE JUMP JUMPDEST DUP2 EQ PUSH2 0x124A JUMPI PUSH0 DUP1 REVERT JUMPDEST POP JUMP JUMPDEST PUSH0 DUP2 CALLDATALOAD SWAP1 POP PUSH2 0x125B DUP2 PUSH2 0x1237 JUMP JUMPDEST SWAP3 SWAP2 POP POP JUMP JUMPDEST PUSH0 DUP1 PUSH1 0x40 DUP4 DUP6 SUB SLT ISZERO PUSH2 0x1277 JUMPI PUSH2 0x1276 PUSH2 0x117D JUMP JUMPDEST JUMPDEST PUSH0 PUSH2 0x1284 DUP6 DUP3 DUP7 ADD PUSH2 0x124D JUMP JUMPDEST SWAP3 POP POP PUSH1 0x20 PUSH2 0x1295 DUP6 DUP3 DUP7 ADD PUSH2 0x11A0 JUMP JUMPDEST SWAP2 POP POP SWAP3 POP SWAP3 SWAP1 POP JUMP JUMPDEST PUSH0 PUSH1 0x20 DUP3 DUP5 SUB SLT ISZERO PUSH2 0x12B4 JUMPI PUSH2 0x12B3 PUSH2 0x117D JUMP JUMPDEST JUMPDEST PUSH0 PUSH2 0x12C1 DUP5 DUP3 DUP6 ADD PUSH2 0x124D JUMP JUMPDEST SWAP2 POP POP SWAP3 SWAP2 POP POP JUMP JUMPDEST PUSH2 0x12D3 DUP2 PUSH2 0x1181 JUMP JUMPDEST DUP3 MSTORE POP POP JUMP JUMPDEST PUSH0 PUSH1 0x20 DUP3 ADD SWAP1 POP PUSH2 0x12EC PUSH0 DUP4 ADD DUP5 PUSH2 0x12CA JUMP JUMPDEST SWAP3 SWAP2 POP POP JUMP JUMPDEST PUSH32 0x4E487B7100000000000000000000000000000000000000000000000000000000 PUSH0 MSTORE PUSH1 0x21 PUSH1 0x4 MSTORE PUSH1 0x24 PUSH0 REVERT JUMPDEST PUSH1 0x4 DUP2 LT PUSH2 0x1330 JUMPI PUSH2 0x132F PUSH2 0x12F2 JUMP JUMPDEST JUMPDEST POP JUMP JUMPDEST PUSH0 DUP2 SWAP1 POP PUSH2 0x1340 DUP3 PUSH2 0x131F JUMP JUMPDEST SWAP2 SWAP1 POP JUMP JUMPDEST PUSH0 PUSH2 0x134F DUP3 PUSH2 0x1333 JUMP JUMPDEST SWAP1 POP SWAP2 SWAP1 POP JUMP JUMPDEST PUSH2 0x135F DUP2 PUSH2 0x1345 JUMP JUMPDEST DUP3 MSTORE POP POP JUMP JUMPDEST PUSH0 PUSH1 0x80 DUP3 ADD SWAP1 POP PUSH2 0x1378 PUSH0 DUP4 ADD DUP8 PUSH2 0x120F JUMP JUMPDEST PUSH2 0x1385 PUSH1 0x20 DUP4 ADD DUP7 PUSH2 0x12CA JUMP JUMPDEST PUSH2 0x1392 PUSH1 0x40 DUP4 ADD DUP6 PUSH2 0x1356 JUMP JUMPDEST PUSH2 0x139F PUSH1 0x60 DUP4 ADD DUP5 PUSH2 0x12CA JUMP JUMPDEST SWAP6 SWAP5 POP POP POP POP POP JUMP JUMPDEST PUSH0 DUP3 DUP3 MSTORE PUSH1 0x20 DUP3 ADD SWAP1 POP SWAP3 SWAP2 POP POP JUMP JUMPDEST PUSH32 0x596F75206D75737420626520616E206F776E6572210000000000000000000000 PUSH0 DUP3 ADD MSTORE POP JUMP JUMPDEST PUSH0 PUSH2 0x13EC PUSH1 0x15 DUP4 PUSH2 0x13A8 JUMP JUMPDEST SWAP2 POP PUSH2 0x13F7 DUP3 PUSH2 0x13B8 JUMP JUMPDEST PUSH1 0x20 DUP3 ADD SWAP1 POP SWAP2 SWAP1 POP JUMP JUMPDEST PUSH0 PUSH1 0x20 DUP3 ADD SWAP1 POP DUP2 DUP2 SUB PUSH0 DUP4 ADD MSTORE PUSH2 0x1419 DUP2 PUSH2 0x13E0 JUMP JUMPDEST SWAP1 POP SWAP2 SWAP1 POP JUMP JUMPDEST PUSH32 0x496E73756666696369656E742062616C616E6365210000000000000000000000 PUSH0 DUP3 ADD MSTORE POP JUMP JUMPDEST PUSH0 PUSH2 0x1454 PUSH1 0x15 DUP4 PUSH2 0x13A8 JUMP JUMPDEST SWAP2 POP PUSH2 0x145F DUP3 PUSH2 0x1420 JUMP JUMPDEST PUSH1 0x20 DUP3 ADD SWAP1 POP SWAP2 SWAP1 POP JUMP JUMPDEST PUSH0 PUSH1 0x20 DUP3 ADD SWAP1 POP DUP2 DUP2 SUB PUSH0 DUP4 ADD MSTORE PUSH2 0x1481 DUP2 PUSH2 0x1448 JUMP JUMPDEST SWAP1 POP SWAP2 SWAP1 POP JUMP JUMPDEST PUSH32 0x4E487B7100000000000000000000000000000000000000000000000000000000 PUSH0 MSTORE PUSH1 0x11 PUSH1 0x4 MSTORE PUSH1 0x24 PUSH0 REVERT JUMPDEST PUSH0 PUSH2 0x14BF DUP3 PUSH2 0x1181 JUMP JUMPDEST SWAP2 POP PUSH2 0x14CA DUP4 PUSH2 0x1181 JUMP JUMPDEST SWAP3 POP DUP3 DUP3 SUB SWAP1 POP DUP2 DUP2 GT ISZERO PUSH2 0x14E2 JUMPI PUSH2 0x14E1 PUSH2 0x1488 JUMP JUMPDEST JUMPDEST SWAP3 SWAP2 POP POP JUMP JUMPDEST PUSH0 PUSH2 0x14F2 DUP3 PUSH2 0x1181 JUMP JUMPDEST SWAP2 POP PUSH2 0x14FD DUP4 PUSH2 0x1181 JUMP JUMPDEST SWAP3 POP DUP3 DUP3 ADD SWAP1 POP DUP1 DUP3 GT ISZERO PUSH2 0x1515 JUMPI PUSH2 0x1514 PUSH2 0x1488 JUMP JUMPDEST JUMPDEST SWAP3 SWAP2 POP POP JUMP JUMPDEST PUSH32 0x5472616E73616374696F6E20646F6573206E6F74206578697374210000000000 PUSH0 DUP3 ADD MSTORE POP JUMP JUMPDEST PUSH0 PUSH2 0x154F PUSH1 0x1B DUP4 PUSH2 0x13A8 JUMP JUMPDEST SWAP2 POP PUSH2 0x155A DUP3 PUSH2 0x151B JUMP JUMPDEST PUSH1 0x20 DUP3 ADD SWAP1 POP SWAP2 SWAP1 POP JUMP JUMPDEST PUSH0 PUSH1 0x20 DUP3 ADD SWAP1 POP DUP2 DUP2 SUB PUSH0 DUP4 ADD MSTORE PUSH2 0x157C DUP2 PUSH2 0x1543 JUMP JUMPDEST SWAP1 POP SWAP2 SWAP1 POP JUMP JUMPDEST PUSH32 0x4E487B7100000000000000000000000000000000000000000000000000000000 PUSH0 MSTORE PUSH1 0x32 PUSH1 0x4 MSTORE PUSH1 0x24 PUSH0 REVERT JUMPDEST PUSH32 0x5472616E73616374696F6E20616C726561647920657865637574656421000000 PUSH0 DUP3 ADD MSTORE POP JUMP JUMPDEST PUSH0 PUSH2 0x15E4 PUSH1 0x1D DUP4 PUSH2 0x13A8 JUMP JUMPDEST SWAP2 POP PUSH2 0x15EF DUP3 PUSH2 0x15B0 JUMP JUMPDEST PUSH1 0x20 DUP3 ADD SWAP1 POP SWAP2 SWAP1 POP JUMP JUMPDEST PUSH0 PUSH1 0x20 DUP3 ADD SWAP1 POP DUP2 DUP2 SUB PUSH0 DUP4 ADD MSTORE PUSH2 0x1611 DUP2 PUSH2 0x15D8 JUMP JUMPDEST SWAP1 POP SWAP2 SWAP1 POP JUMP JUMPDEST PUSH32 0x5472616E73616374696F6E20616C72656164792063616E63656C6C6564210000 PUSH0 DUP3 ADD MSTORE POP JUMP JUMPDEST PUSH0 PUSH2 0x164C PUSH1 0x1E DUP4 PUSH2 0x13A8 JUMP JUMPDEST SWAP2 POP PUSH2 0x1657 DUP3 PUSH2 0x1618 JUMP JUMPDEST PUSH1 0x20 DUP3 ADD SWAP1 POP SWAP2 SWAP1 POP JUMP JUMPDEST PUSH0 PUSH1 0x20 DUP3 ADD SWAP1 POP DUP2 DUP2 SUB PUSH0 DUP4 ADD MSTORE PUSH2 0x1679 DUP2 PUSH2 0x1640 JUMP JUMPDEST SWAP1 POP SWAP2 SWAP1 POP JUMP JUMPDEST PUSH32 0x4164647265737320697320616C726561647920616E206F776E65722100000000 PUSH0 DUP3 ADD MSTORE POP JUMP JUMPDEST PUSH0 PUSH2 0x16B4 PUSH1 0x1C DUP4 PUSH2 0x13A8 JUMP JUMPDEST SWAP2 POP PUSH2 0x16BF DUP3 PUSH2 0x1680 JUMP JUMPDEST PUSH1 0x20 DUP3 ADD SWAP1 POP SWAP2 SWAP1 POP JUMP JUMPDEST PUSH0 PUSH1 0x20 DUP3 ADD SWAP1 POP DUP2 DUP2 SUB PUSH0 DUP4 ADD MSTORE PUSH2 0x16E1 DUP2 PUSH2 0x16A8 JUMP JUMPDEST SWAP1 POP SWAP2 SWAP1 POP JUMP JUMPDEST PUSH32 0x596F75206861766520616C7265616479207369676E6564207468697320747261 PUSH0 DUP3 ADD MSTORE PUSH32 0x6E73616374696F6E210000000000000000000000000000000000000000000000 PUSH1 0x20 DUP3 ADD MSTORE POP JUMP JUMPDEST PUSH0 PUSH2 0x1742 PUSH1 0x29 DUP4 PUSH2 0x13A8 JUMP JUMPDEST SWAP2 POP PUSH2 0x174D DUP3 PUSH2 0x16E8 JUMP JUMPDEST PUSH1 0x40 DUP3 ADD SWAP1 POP SWAP2 SWAP1 POP JUMP JUMPDEST PUSH0 PUSH1 0x20 DUP3 ADD SWAP1 POP DUP2 DUP2 SUB PUSH0 DUP4 ADD MSTORE PUSH2 0x176F DUP2 PUSH2 0x1736 JUMP JUMPDEST SWAP1 POP SWAP2 SWAP1 POP JUMP JUMPDEST PUSH0 PUSH2 0x1780 DUP3 PUSH2 0x1181 JUMP JUMPDEST SWAP2 POP PUSH32 0xFFFFFFFFFFFFFFFFFFFFFFFFFFFFFFFFFFFFFFFFFFFFFFFFFFFFFFFFFFFFFFFF DUP3 SUB PUSH2 0x17B2 JUMPI PUSH2 0x17B1 PUSH2 0x1488 JUMP JUMPDEST JUMPDEST PUSH1 0x1 DUP3 ADD SWAP1 POP SWAP2 SWAP1 POP JUMP JUMPDEST PUSH32 0x4E487B7100000000000000000000000000000000000000000000000000000000 PUSH0 MSTORE PUSH1 0x12 PUSH1 0x4 MSTORE PUSH1 0x24 PUSH0 REVERT JUMPDEST PUSH0 PUSH2 0x17F4 DUP3 PUSH2 0x1181 JUMP JUMPDEST SWAP2 POP PUSH2 0x17FF DUP4 PUSH2 0x1181 JUMP JUMPDEST SWAP3 POP DUP3 PUSH2 0x180F JUMPI PUSH2 0x180E PUSH2 0x17BD JUMP JUMPDEST JUMPDEST DUP3 DUP3 MOD SWAP1 POP SWAP3 SWAP2 POP POP JUMP JUMPDEST PUSH0 PUSH2 0x1824 DUP3 PUSH2 0x1181 JUMP JUMPDEST SWAP2 POP PUSH2 0x182F DUP4 PUSH2 0x1181 JUMP JUMPDEST SWAP3 POP DUP3 PUSH2 0x183F JUMPI PUSH2 0x183E PUSH2 0x17BD JUMP JUMPDEST JUMPDEST DUP3 DUP3 DIV SWAP1 POP SWAP3 SWAP2 POP POP JUMP JUMPDEST PUSH32 0x5472616E73616374696F6E206973206E6F7420636F6E6669726D656421000000 PUSH0 DUP3 ADD MSTORE POP JUMP JUMPDEST PUSH0 PUSH2 0x187E PUSH1 0x1D DUP4 PUSH2 0x13A8 JUMP JUMPDEST SWAP2 POP PUSH2 0x1889 DUP3 PUSH2 0x184A JUMP JUMPDEST PUSH1 0x20 DUP3 ADD SWAP1 POP SWAP2 SWAP1 POP JUMP JUMPDEST PUSH0 PUSH1 0x20 DUP3 ADD SWAP1 POP DUP2 DUP2 SUB PUSH0 DUP4 ADD MSTORE PUSH2 0x18AB DUP2 PUSH2 0x1872 JUMP JUMPDEST SWAP1 POP SWAP2 SWAP1 POP JUMP INVALID LOG2 PUSH5 0x6970667358 0x22 SLT KECCAK256 0xEB 0xE0 0xD4 0xFC SHR GASPRICE 0xD1 LOG3 SWAP9 EQ PUSH14 0xDE8249682ABF8493A5046F850586 0xE0 0xE8 0xE4 0xD4 DUP3 0xE7 NOT PUSH5 0x736F6C6343 STOP ADDMOD BYTE STOP CALLER "
				},
				"gasEstimates": {
					"creation": {
						"codeDepositCost": "1275200",
						"executionCost": "74255",
						"totalCost": "1349455"
					},
					"external": {
						"_mint(uint256)": "infinite",
						"addOwner(address)": "79111",
						"balance()": "2446",
						"cancelTransaction(uint256)": "39129",
						"confirmTransaction(uint256)": "infinite",
						"createTransaction(address,uint256)": "infinite",
						"executeTransaction(uint256)": "infinite",
						"getTransactionSignatures(uint256)": "infinite",
						"owners(uint256)": "4945",
						"transactionsList(uint256)": "infinite"
					}
				},
				"methodIdentifiers": {
					"_mint(uint256)": "2c526196",
					"addOwner(address)": "7065cb48",
					"balance()": "b69ef8a8",
					"cancelTransaction(uint256)": "3380c0d8",
					"confirmTransaction(uint256)": "c01a8c84",
					"createTransaction(address,uint256)": "1e7f8f0f",
					"executeTransaction(uint256)": "ee22610b",
					"getTransactionSignatures(uint256)": "94205469",
					"owners(uint256)": "025e7c27",
					"transactionsList(uint256)": "e598c340"
				}
			},
			"storageLayout": {
				"storage": [
					{
						"astId": 22,
						"contract": "contracts/2_Owner.sol:MultisignWallet",
						"label": "balance",
						"offset": 0,
						"slot": "0",
						"type": "t_uint256"
					},
					{
						"astId": 25,
						"contract": "contracts/2_Owner.sol:MultisignWallet",
						"label": "owners",
						"offset": 0,
						"slot": "1",
						"type": "t_array(t_address)dyn_storage"
					},
					{
						"astId": 29,
						"contract": "contracts/2_Owner.sol:MultisignWallet",
						"label": "transactionsList",
						"offset": 0,
						"slot": "2",
						"type": "t_array(t_struct(Transaction)20_storage)dyn_storage"
					},
					{
						"astId": 33,
						"contract": "contracts/2_Owner.sol:MultisignWallet",
						"label": "isOwner",
						"offset": 0,
						"slot": "3",
						"type": "t_mapping(t_address,t_bool)"
					}
				],
				"types": {
					"t_address": {
						"encoding": "inplace",
						"label": "address",
						"numberOfBytes": "20"
					},
					"t_array(t_address)dyn_storage": {
						"base": "t_address",
						"encoding": "dynamic_array",
						"label": "address[]",
						"numberOfBytes": "32"
					},
					"t_array(t_struct(Transaction)20_storage)dyn_storage": {
						"base": "t_struct(Transaction)20_storage",
						"encoding": "dynamic_array",
						"label": "struct MultisignWallet.Transaction[]",
						"numberOfBytes": "32"
					},
					"t_bool": {
						"encoding": "inplace",
						"label": "bool",
						"numberOfBytes": "1"
					},
					"t_enum(TransactionStatus)6": {
						"encoding": "inplace",
						"label": "enum MultisignWallet.TransactionStatus",
						"numberOfBytes": "1"
					},
					"t_mapping(t_address,t_bool)": {
						"encoding": "mapping",
						"key": "t_address",
						"label": "mapping(address => bool)",
						"numberOfBytes": "32",
						"value": "t_bool"
					},
					"t_struct(Transaction)20_storage": {
						"encoding": "inplace",
						"label": "struct MultisignWallet.Transaction",
						"members": [
							{
								"astId": 8,
								"contract": "contracts/2_Owner.sol:MultisignWallet",
								"label": "receiver",
								"offset": 0,
								"slot": "0",
								"type": "t_address"
							},
							{
								"astId": 10,
								"contract": "contracts/2_Owner.sol:MultisignWallet",
								"label": "amount",
								"offset": 0,
								"slot": "1",
								"type": "t_uint256"
							},
							{
								"astId": 13,
								"contract": "contracts/2_Owner.sol:MultisignWallet",
								"label": "status",
								"offset": 0,
								"slot": "2",
								"type": "t_enum(TransactionStatus)6"
							},
							{
								"astId": 17,
								"contract": "contracts/2_Owner.sol:MultisignWallet",
								"label": "ownersSigned",
								"offset": 0,
								"slot": "3",
								"type": "t_mapping(t_address,t_bool)"
							},
							{
								"astId": 19,
								"contract": "contracts/2_Owner.sol:MultisignWallet",
								"label": "totalSigns",
								"offset": 0,
								"slot": "4",
								"type": "t_uint256"
							}
						],
						"numberOfBytes": "160"
					},
					"t_uint256": {
						"encoding": "inplace",
						"label": "uint256",
						"numberOfBytes": "32"
					}
				}
			},
			"userdoc": {
				"kind": "user",
				"methods": {},
				"version": 1
			}
		}
	}
}