{
	"contracts/MultisignWallet.sol": {
		"MultisignWallet": {
			"abi": [
				{
					"inputs": [],
					"stateMutability": "nonpayable",
					"type": "constructor"
				},
				{
					"anonymous": false,
					"inputs": [
						{
							"indexed": true,
							"internalType": "address",
							"name": "newOwner",
							"type": "address"
						}
					],
					"name": "OwnerAdded",
					"type": "event"
				},
				{
					"anonymous": false,
					"inputs": [
						{
							"indexed": true,
							"internalType": "uint256",
							"name": "transactionId",
							"type": "uint256"
						}
					],
					"name": "TransactionCancelled",
					"type": "event"
				},
				{
					"anonymous": false,
					"inputs": [
						{
							"indexed": true,
							"internalType": "uint256",
							"name": "transactionId",
							"type": "uint256"
						},
						{
							"indexed": true,
							"internalType": "address",
							"name": "owner",
							"type": "address"
						}
					],
					"name": "TransactionConfirmed",
					"type": "event"
				},
				{
					"anonymous": false,
					"inputs": [
						{
							"indexed": true,
							"internalType": "uint256",
							"name": "transactionId",
							"type": "uint256"
						},
						{
							"indexed": true,
							"internalType": "address",
							"name": "receiver",
							"type": "address"
						},
						{
							"indexed": false,
							"internalType": "uint256",
							"name": "amount",
							"type": "uint256"
						}
					],
					"name": "TransactionCreated",
					"type": "event"
				},
				{
					"anonymous": false,
					"inputs": [
						{
							"indexed": true,
							"internalType": "uint256",
							"name": "transactionId",
							"type": "uint256"
						}
					],
					"name": "TransactionExecuted",
					"type": "event"
				},
				{
					"inputs": [
						{
							"internalType": "uint256",
							"name": "_amount",
							"type": "uint256"
						}
					],
					"name": "_mint",
					"outputs": [],
					"stateMutability": "nonpayable",
					"type": "function"
				},
				{
					"inputs": [
						{
							"internalType": "address",
							"name": "newOwner",
							"type": "address"
						}
					],
					"name": "addOwner",
					"outputs": [],
					"stateMutability": "nonpayable",
					"type": "function"
				},
				{
					"inputs": [],
					"name": "balance",
					"outputs": [
						{
							"internalType": "uint256",
							"name": "",
							"type": "uint256"
						}
					],
					"stateMutability": "view",
					"type": "function"
				},
				{
					"inputs": [
						{
							"internalType": "uint256",
							"name": "_transactionId",
							"type": "uint256"
						}
					],
					"name": "cancelTransaction",
					"outputs": [],
					"stateMutability": "nonpayable",
					"type": "function"
				},
				{
					"inputs": [
						{
							"internalType": "uint256",
							"name": "_transactionId",
							"type": "uint256"
						}
					],
					"name": "confirmTransaction",
					"outputs": [],
					"stateMutability": "nonpayable",
					"type": "function"
				},
				{
					"inputs": [
						{
							"internalType": "address",
							"name": "_receiver",
							"type": "address"
						},
						{
							"internalType": "uint256",
							"name": "_amount",
							"type": "uint256"
						}
					],
					"name": "createTransaction",
					"outputs": [],
					"stateMutability": "nonpayable",
					"type": "function"
				},
				{
					"inputs": [
						{
							"internalType": "uint256",
							"name": "_transactionId",
							"type": "uint256"
						}
					],
					"name": "executeTransaction",
					"outputs": [],
					"stateMutability": "payable",
					"type": "function"
				},
				{
					"inputs": [
						{
							"internalType": "uint256",
							"name": "_transactionId",
							"type": "uint256"
						}
					],
					"name": "getTransactionSignatures",
					"outputs": [
						{
							"internalType": "uint256",
							"name": "",
							"type": "uint256"
						}
					],
					"stateMutability": "view",
					"type": "function"
				},
				{
					"inputs": [
						{
							"internalType": "uint256",
							"name": "",
							"type": "uint256"
						}
					],
					"name": "owners",
					"outputs": [
						{
							"internalType": "address",
							"name": "",
							"type": "address"
						}
					],
					"stateMutability": "view",
					"type": "function"
				},
				{
					"inputs": [
						{
							"internalType": "uint256",
							"name": "",
							"type": "uint256"
						}
					],
					"name": "transactionsList",
					"outputs": [
						{
							"internalType": "address",
							"name": "receiver",
							"type": "address"
						},
						{
							"internalType": "uint256",
							"name": "amount",
							"type": "uint256"
						},
						{
							"internalType": "enum MultisignWallet.TransactionStatus",
							"name": "status",
							"type": "uint8"
						},
						{
							"internalType": "uint256",
							"name": "totalSigns",
							"type": "uint256"
						}
					],
					"stateMutability": "view",
					"type": "function"
				}
			],
			"devdoc": {
				"kind": "dev",
				"methods": {},
				"version": 1
			},
			"evm": {
				"assembly": "    /* \"contracts/MultisignWallet.sol\":58:4672  contract MultisignWallet {... */\n  mstore(0x40, 0x80)\n    /* \"contracts/MultisignWallet.sol\":891:1067  constructor() {... */\n  callvalue\n  dup1\n  iszero\n  tag_1\n  jumpi\n  0x00\n  dup1\n  revert\ntag_1:\n  pop\n    /* \"contracts/MultisignWallet.sol\":937:941  true */\n  0x01\n    /* \"contracts/MultisignWallet.sol\":915:922  isOwner */\n  0x03\n    /* \"contracts/MultisignWallet.sol\":915:934  isOwner[msg.sender] */\n  0x00\n    /* \"contracts/MultisignWallet.sol\":923:933  msg.sender */\n  caller\n    /* \"contracts/MultisignWallet.sol\":915:934  isOwner[msg.sender] */\n  0xffffffffffffffffffffffffffffffffffffffff\n  and\n  0xffffffffffffffffffffffffffffffffffffffff\n  and\n  dup2\n  mstore\n  0x20\n  add\n  swap1\n  dup2\n  mstore\n  0x20\n  add\n  0x00\n  keccak256\n  0x00\n    /* \"contracts/MultisignWallet.sol\":915:941  isOwner[msg.sender] = true */\n  0x0100\n  exp\n  dup2\n  sload\n  dup2\n  0xff\n  mul\n  not\n  and\n  swap1\n  dup4\n  iszero\n  iszero\n  mul\n  or\n  swap1\n  sstore\n  pop\n    /* \"contracts/MultisignWallet.sol\":951:957  owners */\n  0x01\n    /* \"contracts/MultisignWallet.sol\":963:973  msg.sender */\n  caller\n    /* \"contracts/MultisignWallet.sol\":951:974  owners.push(msg.sender) */\n  swap1\n  dup1\n  0x01\n  dup2\n  sload\n  add\n  dup1\n  dup3\n  sstore\n  dup1\n  swap2\n  pop\n  pop\n  0x01\n  swap1\n  sub\n  swap1\n  0x00\n  mstore\n  keccak256(0x00, 0x20)\n  add\n  0x00\n  swap1\n  swap2\n  swap1\n  swap2\n  swap1\n  swap2\n  0x0100\n  exp\n  dup2\n  sload\n  dup2\n  0xffffffffffffffffffffffffffffffffffffffff\n  mul\n  not\n  and\n  swap1\n  dup4\n  0xffffffffffffffffffffffffffffffffffffffff\n  and\n  mul\n  or\n  swap1\n  sstore\n  pop\n    /* \"contracts/MultisignWallet.sol\":58:4672  contract MultisignWallet {... */\n  dataSize(sub_0)\n  dup1\n  dataOffset(sub_0)\n  0x00\n  codecopy\n  0x00\n  return\nstop\n\nsub_0: assembly {\n        /* \"contracts/MultisignWallet.sol\":58:4672  contract MultisignWallet {... */\n      mstore(0x40, 0x80)\n      jumpi(tag_1, lt(calldatasize, 0x04))\n      shr(0xe0, calldataload(0x00))\n      dup1\n      0x94205469\n      gt\n      tag_12\n      jumpi\n      dup1\n      0x94205469\n      eq\n      tag_7\n      jumpi\n      dup1\n      0xb69ef8a8\n      eq\n      tag_8\n      jumpi\n      dup1\n      0xc01a8c84\n      eq\n      tag_9\n      jumpi\n      dup1\n      0xe598c340\n      eq\n      tag_10\n      jumpi\n      dup1\n      0xee22610b\n      eq\n      tag_11\n      jumpi\n      jump(tag_1)\n    tag_12:\n      dup1\n      0x025e7c27\n      eq\n      tag_2\n      jumpi\n      dup1\n      0x1e7f8f0f\n      eq\n      tag_3\n      jumpi\n      dup1\n      0x2c526196\n      eq\n      tag_4\n      jumpi\n      dup1\n      0x3380c0d8\n      eq\n      tag_5\n      jumpi\n      dup1\n      0x7065cb48\n      eq\n      tag_6\n      jumpi\n    tag_1:\n      0x00\n      dup1\n      revert\n        /* \"contracts/MultisignWallet.sol\":417:440  address[] public owners */\n    tag_2:\n      callvalue\n      dup1\n      iszero\n      tag_13\n      jumpi\n      0x00\n      dup1\n      revert\n    tag_13:\n      pop\n      tag_14\n      0x04\n      dup1\n      calldatasize\n      sub\n      dup2\n      add\n      swap1\n      tag_15\n      swap2\n      swap1\n      tag_16\n      jump\t// in\n    tag_15:\n      tag_17\n      jump\t// in\n    tag_14:\n      mload(0x40)\n      tag_18\n      swap2\n      swap1\n      tag_19\n      jump\t// in\n    tag_18:\n      mload(0x40)\n      dup1\n      swap2\n      sub\n      swap1\n      return\n        /* \"contracts/MultisignWallet.sol\":2139:2670  function createTransaction(address _receiver, uint256 _amount) public... */\n    tag_3:\n      callvalue\n      dup1\n      iszero\n      tag_20\n      jumpi\n      0x00\n      dup1\n      revert\n    tag_20:\n      pop\n      tag_21\n      0x04\n      dup1\n      calldatasize\n      sub\n      dup2\n      add\n      swap1\n      tag_22\n      swap2\n      swap1\n      tag_23\n      jump\t// in\n    tag_22:\n      tag_24\n      jump\t// in\n    tag_21:\n      stop\n        /* \"contracts/MultisignWallet.sol\":2048:2133  function _mint(uint256 _amount) public OnlyOwners {... */\n    tag_4:\n      callvalue\n      dup1\n      iszero\n      tag_25\n      jumpi\n      0x00\n      dup1\n      revert\n    tag_25:\n      pop\n      tag_26\n      0x04\n      dup1\n      calldatasize\n      sub\n      dup2\n      add\n      swap1\n      tag_27\n      swap2\n      swap1\n      tag_16\n      jump\t// in\n    tag_27:\n      tag_28\n      jump\t// in\n    tag_26:\n      stop\n        /* \"contracts/MultisignWallet.sol\":4140:4509  function cancelTransaction(uint256 _transactionId) public OnlyOwners... */\n    tag_5:\n      callvalue\n      dup1\n      iszero\n      tag_29\n      jumpi\n      0x00\n      dup1\n      revert\n    tag_29:\n      pop\n      tag_30\n      0x04\n      dup1\n      calldatasize\n      sub\n      dup2\n      add\n      swap1\n      tag_31\n      swap2\n      swap1\n      tag_16\n      jump\t// in\n    tag_31:\n      tag_32\n      jump\t// in\n    tag_30:\n      stop\n        /* \"contracts/MultisignWallet.sol\":1812:2042  function addOwner(address newOwner) public OnlyOwners {... */\n    tag_6:\n      callvalue\n      dup1\n      iszero\n      tag_33\n      jumpi\n      0x00\n      dup1\n      revert\n    tag_33:\n      pop\n      tag_34\n      0x04\n      dup1\n      calldatasize\n      sub\n      dup2\n      add\n      swap1\n      tag_35\n      swap2\n      swap1\n      tag_36\n      jump\t// in\n    tag_35:\n      tag_37\n      jump\t// in\n    tag_34:\n      stop\n        /* \"contracts/MultisignWallet.sol\":4515:4670  function getTransactionSignatures(uint256 _transactionId) public view returns (uint256) {... */\n    tag_7:\n      callvalue\n      dup1\n      iszero\n      tag_38\n      jumpi\n      0x00\n      dup1\n      revert\n    tag_38:\n      pop\n      tag_39\n      0x04\n      dup1\n      calldatasize\n      sub\n      dup2\n      add\n      swap1\n      tag_40\n      swap2\n      swap1\n      tag_16\n      jump\t// in\n    tag_40:\n      tag_41\n      jump\t// in\n    tag_39:\n      mload(0x40)\n      tag_42\n      swap2\n      swap1\n      tag_43\n      jump\t// in\n    tag_42:\n      mload(0x40)\n      dup1\n      swap2\n      sub\n      swap1\n      return\n        /* \"contracts/MultisignWallet.sol\":389:411  uint256 public balance */\n    tag_8:\n      callvalue\n      dup1\n      iszero\n      tag_44\n      jumpi\n      0x00\n      dup1\n      revert\n    tag_44:\n      pop\n      tag_45\n      tag_46\n      jump\t// in\n    tag_45:\n      mload(0x40)\n      tag_47\n      swap2\n      swap1\n      tag_43\n      jump\t// in\n    tag_47:\n      mload(0x40)\n      dup1\n      swap2\n      sub\n      swap1\n      return\n        /* \"contracts/MultisignWallet.sol\":2676:3433  function confirmTransaction(uint256 _transactionId) public OnlyOwners... */\n    tag_9:\n      callvalue\n      dup1\n      iszero\n      tag_48\n      jumpi\n      0x00\n      dup1\n      revert\n    tag_48:\n      pop\n      tag_49\n      0x04\n      dup1\n      calldatasize\n      sub\n      dup2\n      add\n      swap1\n      tag_50\n      swap2\n      swap1\n      tag_16\n      jump\t// in\n    tag_50:\n      tag_51\n      jump\t// in\n    tag_49:\n      stop\n        /* \"contracts/MultisignWallet.sol\":446:483  Transaction[] public transactionsList */\n    tag_10:\n      callvalue\n      dup1\n      iszero\n      tag_52\n      jumpi\n      0x00\n      dup1\n      revert\n    tag_52:\n      pop\n      tag_53\n      0x04\n      dup1\n      calldatasize\n      sub\n      dup2\n      add\n      swap1\n      tag_54\n      swap2\n      swap1\n      tag_16\n      jump\t// in\n    tag_54:\n      tag_55\n      jump\t// in\n    tag_53:\n      mload(0x40)\n      tag_56\n      swap5\n      swap4\n      swap3\n      swap2\n      swap1\n      tag_57\n      jump\t// in\n    tag_56:\n      mload(0x40)\n      dup1\n      swap2\n      sub\n      swap1\n      return\n        /* \"contracts/MultisignWallet.sol\":3439:4134  function executeTransaction(uint256 _transactionId) payable public OnlyOwners... */\n    tag_11:\n      tag_58\n      0x04\n      dup1\n      calldatasize\n      sub\n      dup2\n      add\n      swap1\n      tag_59\n      swap2\n      swap1\n      tag_16\n      jump\t// in\n    tag_59:\n      tag_60\n      jump\t// in\n    tag_58:\n      stop\n        /* \"contracts/MultisignWallet.sol\":417:440  address[] public owners */\n    tag_17:\n      0x01\n      dup2\n      dup2\n      sload\n      dup2\n      lt\n      tag_61\n      jumpi\n      0x00\n      dup1\n      revert\n    tag_61:\n      swap1\n      0x00\n      mstore\n      keccak256(0x00, 0x20)\n      add\n      0x00\n      swap2\n      pop\n      sload\n      swap1\n      0x0100\n      exp\n      swap1\n      div\n      0xffffffffffffffffffffffffffffffffffffffff\n      and\n      dup2\n      jump\t// out\n        /* \"contracts/MultisignWallet.sol\":2139:2670  function createTransaction(address _receiver, uint256 _amount) public... */\n    tag_24:\n        /* \"contracts/MultisignWallet.sol\":1111:1118  isOwner */\n      0x03\n        /* \"contracts/MultisignWallet.sol\":1111:1130  isOwner[msg.sender] */\n      0x00\n        /* \"contracts/MultisignWallet.sol\":1119:1129  msg.sender */\n      caller\n        /* \"contracts/MultisignWallet.sol\":1111:1130  isOwner[msg.sender] */\n      0xffffffffffffffffffffffffffffffffffffffff\n      and\n      0xffffffffffffffffffffffffffffffffffffffff\n      and\n      dup2\n      mstore\n      0x20\n      add\n      swap1\n      dup2\n      mstore\n      0x20\n      add\n      0x00\n      keccak256\n      0x00\n      swap1\n      sload\n      swap1\n      0x0100\n      exp\n      swap1\n      div\n      0xff\n      and\n        /* \"contracts/MultisignWallet.sol\":1103:1156  require(isOwner[msg.sender], \"You must be an owner!\") */\n      tag_64\n      jumpi\n      mload(0x40)\n      0x08c379a000000000000000000000000000000000000000000000000000000000\n      dup2\n      mstore\n      0x04\n      add\n      tag_65\n      swap1\n      tag_66\n      jump\t// in\n    tag_65:\n      mload(0x40)\n      dup1\n      swap2\n      sub\n      swap1\n      revert\n    tag_64:\n        /* \"contracts/MultisignWallet.sol\":2257:2264  _amount */\n      dup1\n        /* \"contracts/MultisignWallet.sol\":1256:1263  _amount */\n      dup1\n        /* \"contracts/MultisignWallet.sol\":1245:1252  balance */\n      sload(0x00)\n        /* \"contracts/MultisignWallet.sol\":1245:1263  balance >= _amount */\n      lt\n      iszero\n        /* \"contracts/MultisignWallet.sol\":1237:1289  require(balance >= _amount, \"Insufficient balance!\") */\n      tag_68\n      jumpi\n      mload(0x40)\n      0x08c379a000000000000000000000000000000000000000000000000000000000\n      dup2\n      mstore\n      0x04\n      add\n      tag_69\n      swap1\n      tag_70\n      jump\t// in\n    tag_69:\n      mload(0x40)\n      dup1\n      swap2\n      sub\n      swap1\n      revert\n    tag_68:\n        /* \"contracts/MultisignWallet.sol\":2280:2314  Transaction storage newTransaction */\n      0x00\n        /* \"contracts/MultisignWallet.sol\":2317:2333  transactionsList */\n      0x02\n        /* \"contracts/MultisignWallet.sol\":2317:2340  transactionsList.push() */\n      0x01\n      dup2\n      0x01\n      dup2\n      sload\n      add\n      dup1\n      dup3\n      sstore\n      dup1\n      swap2\n      pop\n      pop\n      sub\n      swap1\n      0x00\n      mstore\n      keccak256(0x00, 0x20)\n      swap1\n      0x05\n      mul\n      add\n        /* \"contracts/MultisignWallet.sol\":2280:2340  Transaction storage newTransaction = transactionsList.push() */\n      swap1\n      pop\n        /* \"contracts/MultisignWallet.sol\":2376:2385  _receiver */\n      dup4\n        /* \"contracts/MultisignWallet.sol\":2350:2364  newTransaction */\n      dup2\n        /* \"contracts/MultisignWallet.sol\":2350:2373  newTransaction.receiver */\n      0x00\n      add\n      0x00\n        /* \"contracts/MultisignWallet.sol\":2350:2385  newTransaction.receiver = _receiver */\n      0x0100\n      exp\n      dup2\n      sload\n      dup2\n      0xffffffffffffffffffffffffffffffffffffffff\n      mul\n      not\n      and\n      swap1\n      dup4\n      0xffffffffffffffffffffffffffffffffffffffff\n      and\n      mul\n      or\n      swap1\n      sstore\n      pop\n        /* \"contracts/MultisignWallet.sol\":2419:2426  _amount */\n      dup3\n        /* \"contracts/MultisignWallet.sol\":2395:2409  newTransaction */\n      dup2\n        /* \"contracts/MultisignWallet.sol\":2395:2416  newTransaction.amount */\n      0x01\n      add\n        /* \"contracts/MultisignWallet.sol\":2395:2426  newTransaction.amount = _amount */\n      dup2\n      swap1\n      sstore\n      pop\n        /* \"contracts/MultisignWallet.sol\":2460:2485  TransactionStatus.Pending */\n      0x00\n        /* \"contracts/MultisignWallet.sol\":2436:2450  newTransaction */\n      dup2\n        /* \"contracts/MultisignWallet.sol\":2436:2457  newTransaction.status */\n      0x02\n      add\n      0x00\n        /* \"contracts/MultisignWallet.sol\":2436:2485  newTransaction.status = TransactionStatus.Pending */\n      0x0100\n      exp\n      dup2\n      sload\n      dup2\n      0xff\n      mul\n      not\n      and\n      swap1\n      dup4\n      0x03\n      dup2\n      gt\n      iszero\n      tag_73\n      jumpi\n      tag_74\n      tag_75\n      jump\t// in\n    tag_74:\n    tag_73:\n      mul\n      or\n      swap1\n      sstore\n      pop\n        /* \"contracts/MultisignWallet.sol\":2523:2524  1 */\n      0x01\n        /* \"contracts/MultisignWallet.sol\":2495:2509  newTransaction */\n      dup2\n        /* \"contracts/MultisignWallet.sol\":2495:2520  newTransaction.totalSigns */\n      0x04\n      add\n        /* \"contracts/MultisignWallet.sol\":2495:2524  newTransaction.totalSigns = 1 */\n      dup2\n      swap1\n      sstore\n      pop\n        /* \"contracts/MultisignWallet.sol\":2576:2580  true */\n      0x01\n        /* \"contracts/MultisignWallet.sol\":2534:2548  newTransaction */\n      dup2\n        /* \"contracts/MultisignWallet.sol\":2534:2561  newTransaction.ownersSigned */\n      0x03\n      add\n        /* \"contracts/MultisignWallet.sol\":2534:2573  newTransaction.ownersSigned[msg.sender] */\n      0x00\n        /* \"contracts/MultisignWallet.sol\":2562:2572  msg.sender */\n      caller\n        /* \"contracts/MultisignWallet.sol\":2534:2573  newTransaction.ownersSigned[msg.sender] */\n      0xffffffffffffffffffffffffffffffffffffffff\n      and\n      0xffffffffffffffffffffffffffffffffffffffff\n      and\n      dup2\n      mstore\n      0x20\n      add\n      swap1\n      dup2\n      mstore\n      0x20\n      add\n      0x00\n      keccak256\n      0x00\n        /* \"contracts/MultisignWallet.sol\":2534:2580  newTransaction.ownersSigned[msg.sender] = true */\n      0x0100\n      exp\n      dup2\n      sload\n      dup2\n      0xff\n      mul\n      not\n      and\n      swap1\n      dup4\n      iszero\n      iszero\n      mul\n      or\n      swap1\n      sstore\n      pop\n        /* \"contracts/MultisignWallet.sol\":2644:2653  _receiver */\n      dup4\n        /* \"contracts/MultisignWallet.sol\":2596:2663  TransactionCreated(transactionsList.length - 1, _receiver, _amount) */\n      0xffffffffffffffffffffffffffffffffffffffff\n      and\n        /* \"contracts/MultisignWallet.sol\":2641:2642  1 */\n      0x01\n        /* \"contracts/MultisignWallet.sol\":2615:2631  transactionsList */\n      0x02\n        /* \"contracts/MultisignWallet.sol\":2615:2638  transactionsList.length */\n      dup1\n      sload\n      swap1\n      pop\n        /* \"contracts/MultisignWallet.sol\":2615:2642  transactionsList.length - 1 */\n      tag_76\n      swap2\n      swap1\n      tag_77\n      jump\t// in\n    tag_76:\n        /* \"contracts/MultisignWallet.sol\":2596:2663  TransactionCreated(transactionsList.length - 1, _receiver, _amount) */\n      0xfd27d176b6ebb21e0182c0e43df5818e0d632867e1eb47c383c58d221205fce3\n        /* \"contracts/MultisignWallet.sol\":2655:2662  _amount */\n      dup6\n        /* \"contracts/MultisignWallet.sol\":2596:2663  TransactionCreated(transactionsList.length - 1, _receiver, _amount) */\n      mload(0x40)\n      tag_78\n      swap2\n      swap1\n      tag_43\n      jump\t// in\n    tag_78:\n      mload(0x40)\n      dup1\n      swap2\n      sub\n      swap1\n      log3\n        /* \"contracts/MultisignWallet.sol\":2270:2670  {... */\n      pop\n        /* \"contracts/MultisignWallet.sol\":1166:1167  _ */\n      pop\n        /* \"contracts/MultisignWallet.sol\":2139:2670  function createTransaction(address _receiver, uint256 _amount) public... */\n      pop\n      pop\n      jump\t// out\n        /* \"contracts/MultisignWallet.sol\":2048:2133  function _mint(uint256 _amount) public OnlyOwners {... */\n    tag_28:\n        /* \"contracts/MultisignWallet.sol\":1111:1118  isOwner */\n      0x03\n        /* \"contracts/MultisignWallet.sol\":1111:1130  isOwner[msg.sender] */\n      0x00\n        /* \"contracts/MultisignWallet.sol\":1119:1129  msg.sender */\n      caller\n        /* \"contracts/MultisignWallet.sol\":1111:1130  isOwner[msg.sender] */\n      0xffffffffffffffffffffffffffffffffffffffff\n      and\n      0xffffffffffffffffffffffffffffffffffffffff\n      and\n      dup2\n      mstore\n      0x20\n      add\n      swap1\n      dup2\n      mstore\n      0x20\n      add\n      0x00\n      keccak256\n      0x00\n      swap1\n      sload\n      swap1\n      0x0100\n      exp\n      swap1\n      div\n      0xff\n      and\n        /* \"contracts/MultisignWallet.sol\":1103:1156  require(isOwner[msg.sender], \"You must be an owner!\") */\n      tag_80\n      jumpi\n      mload(0x40)\n      0x08c379a000000000000000000000000000000000000000000000000000000000\n      dup2\n      mstore\n      0x04\n      add\n      tag_81\n      swap1\n      tag_66\n      jump\t// in\n    tag_81:\n      mload(0x40)\n      dup1\n      swap2\n      sub\n      swap1\n      revert\n    tag_80:\n        /* \"contracts/MultisignWallet.sol\":2119:2126  _amount */\n      dup1\n        /* \"contracts/MultisignWallet.sol\":2108:2115  balance */\n      0x00\n      dup1\n        /* \"contracts/MultisignWallet.sol\":2108:2126  balance += _amount */\n      dup3\n      dup3\n      sload\n      tag_83\n      swap2\n      swap1\n      tag_84\n      jump\t// in\n    tag_83:\n      swap3\n      pop\n      pop\n      dup2\n      swap1\n      sstore\n      pop\n        /* \"contracts/MultisignWallet.sol\":2048:2133  function _mint(uint256 _amount) public OnlyOwners {... */\n      pop\n      jump\t// out\n        /* \"contracts/MultisignWallet.sol\":4140:4509  function cancelTransaction(uint256 _transactionId) public OnlyOwners... */\n    tag_32:\n        /* \"contracts/MultisignWallet.sol\":1111:1118  isOwner */\n      0x03\n        /* \"contracts/MultisignWallet.sol\":1111:1130  isOwner[msg.sender] */\n      0x00\n        /* \"contracts/MultisignWallet.sol\":1119:1129  msg.sender */\n      caller\n        /* \"contracts/MultisignWallet.sol\":1111:1130  isOwner[msg.sender] */\n      0xffffffffffffffffffffffffffffffffffffffff\n      and\n      0xffffffffffffffffffffffffffffffffffffffff\n      and\n      dup2\n      mstore\n      0x20\n      add\n      swap1\n      dup2\n      mstore\n      0x20\n      add\n      0x00\n      keccak256\n      0x00\n      swap1\n      sload\n      swap1\n      0x0100\n      exp\n      swap1\n      div\n      0xff\n      and\n        /* \"contracts/MultisignWallet.sol\":1103:1156  require(isOwner[msg.sender], \"You must be an owner!\") */\n      tag_86\n      jumpi\n      mload(0x40)\n      0x08c379a000000000000000000000000000000000000000000000000000000000\n      dup2\n      mstore\n      0x04\n      add\n      tag_87\n      swap1\n      tag_66\n      jump\t// in\n    tag_87:\n      mload(0x40)\n      dup1\n      swap2\n      sub\n      swap1\n      revert\n    tag_86:\n        /* \"contracts/MultisignWallet.sol\":4235:4249  _transactionId */\n      dup1\n        /* \"contracts/MultisignWallet.sol\":1399:1415  transactionsList */\n      0x02\n        /* \"contracts/MultisignWallet.sol\":1399:1422  transactionsList.length */\n      dup1\n      sload\n      swap1\n      pop\n        /* \"contracts/MultisignWallet.sol\":1382:1396  _transactionId */\n      dup2\n        /* \"contracts/MultisignWallet.sol\":1382:1422  _transactionId < transactionsList.length */\n      lt\n        /* \"contracts/MultisignWallet.sol\":1374:1454  require(_transactionId < transactionsList.length, \"Transaction does not exist!\") */\n      tag_89\n      jumpi\n      mload(0x40)\n      0x08c379a000000000000000000000000000000000000000000000000000000000\n      dup2\n      mstore\n      0x04\n      add\n      tag_90\n      swap1\n      tag_91\n      jump\t// in\n    tag_90:\n      mload(0x40)\n      dup1\n      swap2\n      sub\n      swap1\n      revert\n    tag_89:\n        /* \"contracts/MultisignWallet.sol\":4282:4296  _transactionId */\n      dup2\n        /* \"contracts/MultisignWallet.sol\":1544:1567  Transaction storage txn */\n      0x00\n        /* \"contracts/MultisignWallet.sol\":1570:1586  transactionsList */\n      0x02\n        /* \"contracts/MultisignWallet.sol\":1587:1601  _transactionId */\n      dup3\n        /* \"contracts/MultisignWallet.sol\":1570:1602  transactionsList[_transactionId] */\n      dup2\n      sload\n      dup2\n      lt\n      tag_93\n      jumpi\n      tag_94\n      tag_95\n      jump\t// in\n    tag_94:\n    tag_93:\n      swap1\n      0x00\n      mstore\n      keccak256(0x00, 0x20)\n      swap1\n      0x05\n      mul\n      add\n        /* \"contracts/MultisignWallet.sol\":1544:1602  Transaction storage txn = transactionsList[_transactionId] */\n      swap1\n      pop\n        /* \"contracts/MultisignWallet.sol\":1634:1660  TransactionStatus.Executed */\n      0x02\n        /* \"contracts/MultisignWallet.sol\":1620:1660  txn.status != TransactionStatus.Executed */\n      0x03\n      dup2\n      gt\n      iszero\n      tag_97\n      jumpi\n      tag_98\n      tag_75\n      jump\t// in\n    tag_98:\n    tag_97:\n        /* \"contracts/MultisignWallet.sol\":1620:1623  txn */\n      dup2\n        /* \"contracts/MultisignWallet.sol\":1620:1630  txn.status */\n      0x02\n      add\n      0x00\n      swap1\n      sload\n      swap1\n      0x0100\n      exp\n      swap1\n      div\n      0xff\n      and\n        /* \"contracts/MultisignWallet.sol\":1620:1660  txn.status != TransactionStatus.Executed */\n      0x03\n      dup2\n      gt\n      iszero\n      tag_99\n      jumpi\n      tag_100\n      tag_75\n      jump\t// in\n    tag_100:\n    tag_99:\n      sub\n        /* \"contracts/MultisignWallet.sol\":1612:1694  require(txn.status != TransactionStatus.Executed, \"Transaction already executed!\") */\n      tag_101\n      jumpi\n      mload(0x40)\n      0x08c379a000000000000000000000000000000000000000000000000000000000\n      dup2\n      mstore\n      0x04\n      add\n      tag_102\n      swap1\n      tag_103\n      jump\t// in\n    tag_102:\n      mload(0x40)\n      dup1\n      swap2\n      sub\n      swap1\n      revert\n    tag_101:\n        /* \"contracts/MultisignWallet.sol\":1726:1753  TransactionStatus.Cancelled */\n      0x03\n        /* \"contracts/MultisignWallet.sol\":1712:1753  txn.status != TransactionStatus.Cancelled */\n      dup1\n      dup2\n      gt\n      iszero\n      tag_104\n      jumpi\n      tag_105\n      tag_75\n      jump\t// in\n    tag_105:\n    tag_104:\n        /* \"contracts/MultisignWallet.sol\":1712:1715  txn */\n      dup2\n        /* \"contracts/MultisignWallet.sol\":1712:1722  txn.status */\n      0x02\n      add\n      0x00\n      swap1\n      sload\n      swap1\n      0x0100\n      exp\n      swap1\n      div\n      0xff\n      and\n        /* \"contracts/MultisignWallet.sol\":1712:1753  txn.status != TransactionStatus.Cancelled */\n      0x03\n      dup2\n      gt\n      iszero\n      tag_106\n      jumpi\n      tag_107\n      tag_75\n      jump\t// in\n    tag_107:\n    tag_106:\n      sub\n        /* \"contracts/MultisignWallet.sol\":1704:1788  require(txn.status != TransactionStatus.Cancelled, \"Transaction already cancelled!\") */\n      tag_108\n      jumpi\n      mload(0x40)\n      0x08c379a000000000000000000000000000000000000000000000000000000000\n      dup2\n      mstore\n      0x04\n      add\n      tag_109\n      swap1\n      tag_110\n      jump\t// in\n    tag_109:\n      mload(0x40)\n      dup1\n      swap2\n      sub\n      swap1\n      revert\n    tag_108:\n        /* \"contracts/MultisignWallet.sol\":4312:4350  Transaction storage currentTransaction */\n      0x00\n        /* \"contracts/MultisignWallet.sol\":4353:4369  transactionsList */\n      0x02\n        /* \"contracts/MultisignWallet.sol\":4370:4384  _transactionId */\n      dup6\n        /* \"contracts/MultisignWallet.sol\":4353:4385  transactionsList[_transactionId] */\n      dup2\n      sload\n      dup2\n      lt\n      tag_112\n      jumpi\n      tag_113\n      tag_95\n      jump\t// in\n    tag_113:\n    tag_112:\n      swap1\n      0x00\n      mstore\n      keccak256(0x00, 0x20)\n      swap1\n      0x05\n      mul\n      add\n        /* \"contracts/MultisignWallet.sol\":4312:4385  Transaction storage currentTransaction = transactionsList[_transactionId] */\n      swap1\n      pop\n        /* \"contracts/MultisignWallet.sol\":4423:4450  TransactionStatus.Cancelled */\n      0x03\n        /* \"contracts/MultisignWallet.sol\":4395:4413  currentTransaction */\n      dup2\n        /* \"contracts/MultisignWallet.sol\":4395:4420  currentTransaction.status */\n      0x02\n      add\n      0x00\n        /* \"contracts/MultisignWallet.sol\":4395:4450  currentTransaction.status = TransactionStatus.Cancelled */\n      0x0100\n      exp\n      dup2\n      sload\n      dup2\n      0xff\n      mul\n      not\n      and\n      swap1\n      dup4\n      0x03\n      dup2\n      gt\n      iszero\n      tag_115\n      jumpi\n      tag_116\n      tag_75\n      jump\t// in\n    tag_116:\n    tag_115:\n      mul\n      or\n      swap1\n      sstore\n      pop\n        /* \"contracts/MultisignWallet.sol\":4487:4501  _transactionId */\n      dup5\n        /* \"contracts/MultisignWallet.sol\":4466:4502  TransactionCancelled(_transactionId) */\n      0x956fb32199d8b882b2039a14e1be35ab14f7a80b9089fc223f14b43937173e60\n      mload(0x40)\n      mload(0x40)\n      dup1\n      swap2\n      sub\n      swap1\n      log2\n        /* \"contracts/MultisignWallet.sol\":4302:4509  {... */\n      pop\n        /* \"contracts/MultisignWallet.sol\":1534:1806  {... */\n      pop\n        /* \"contracts/MultisignWallet.sol\":1464:1465  _ */\n      pop\n        /* \"contracts/MultisignWallet.sol\":1166:1167  _ */\n      pop\n        /* \"contracts/MultisignWallet.sol\":4140:4509  function cancelTransaction(uint256 _transactionId) public OnlyOwners... */\n      pop\n      jump\t// out\n        /* \"contracts/MultisignWallet.sol\":1812:2042  function addOwner(address newOwner) public OnlyOwners {... */\n    tag_37:\n        /* \"contracts/MultisignWallet.sol\":1111:1118  isOwner */\n      0x03\n        /* \"contracts/MultisignWallet.sol\":1111:1130  isOwner[msg.sender] */\n      0x00\n        /* \"contracts/MultisignWallet.sol\":1119:1129  msg.sender */\n      caller\n        /* \"contracts/MultisignWallet.sol\":1111:1130  isOwner[msg.sender] */\n      0xffffffffffffffffffffffffffffffffffffffff\n      and\n      0xffffffffffffffffffffffffffffffffffffffff\n      and\n      dup2\n      mstore\n      0x20\n      add\n      swap1\n      dup2\n      mstore\n      0x20\n      add\n      0x00\n      keccak256\n      0x00\n      swap1\n      sload\n      swap1\n      0x0100\n      exp\n      swap1\n      div\n      0xff\n      and\n        /* \"contracts/MultisignWallet.sol\":1103:1156  require(isOwner[msg.sender], \"You must be an owner!\") */\n      tag_118\n      jumpi\n      mload(0x40)\n      0x08c379a000000000000000000000000000000000000000000000000000000000\n      dup2\n      mstore\n      0x04\n      add\n      tag_119\n      swap1\n      tag_66\n      jump\t// in\n    tag_119:\n      mload(0x40)\n      dup1\n      swap2\n      sub\n      swap1\n      revert\n    tag_118:\n        /* \"contracts/MultisignWallet.sol\":1885:1892  isOwner */\n      0x03\n        /* \"contracts/MultisignWallet.sol\":1885:1902  isOwner[newOwner] */\n      0x00\n        /* \"contracts/MultisignWallet.sol\":1893:1901  newOwner */\n      dup3\n        /* \"contracts/MultisignWallet.sol\":1885:1902  isOwner[newOwner] */\n      0xffffffffffffffffffffffffffffffffffffffff\n      and\n      0xffffffffffffffffffffffffffffffffffffffff\n      and\n      dup2\n      mstore\n      0x20\n      add\n      swap1\n      dup2\n      mstore\n      0x20\n      add\n      0x00\n      keccak256\n      0x00\n      swap1\n      sload\n      swap1\n      0x0100\n      exp\n      swap1\n      div\n      0xff\n      and\n        /* \"contracts/MultisignWallet.sol\":1884:1902  !isOwner[newOwner] */\n      iszero\n        /* \"contracts/MultisignWallet.sol\":1876:1935  require(!isOwner[newOwner], \"Address is already an owner!\") */\n      tag_121\n      jumpi\n      mload(0x40)\n      0x08c379a000000000000000000000000000000000000000000000000000000000\n      dup2\n      mstore\n      0x04\n      add\n      tag_122\n      swap1\n      tag_123\n      jump\t// in\n    tag_122:\n      mload(0x40)\n      dup1\n      swap2\n      sub\n      swap1\n      revert\n    tag_121:\n        /* \"contracts/MultisignWallet.sol\":1965:1969  true */\n      0x01\n        /* \"contracts/MultisignWallet.sol\":1945:1952  isOwner */\n      0x03\n        /* \"contracts/MultisignWallet.sol\":1945:1962  isOwner[newOwner] */\n      0x00\n        /* \"contracts/MultisignWallet.sol\":1953:1961  newOwner */\n      dup4\n        /* \"contracts/MultisignWallet.sol\":1945:1962  isOwner[newOwner] */\n      0xffffffffffffffffffffffffffffffffffffffff\n      and\n      0xffffffffffffffffffffffffffffffffffffffff\n      and\n      dup2\n      mstore\n      0x20\n      add\n      swap1\n      dup2\n      mstore\n      0x20\n      add\n      0x00\n      keccak256\n      0x00\n        /* \"contracts/MultisignWallet.sol\":1945:1969  isOwner[newOwner] = true */\n      0x0100\n      exp\n      dup2\n      sload\n      dup2\n      0xff\n      mul\n      not\n      and\n      swap1\n      dup4\n      iszero\n      iszero\n      mul\n      or\n      swap1\n      sstore\n      pop\n        /* \"contracts/MultisignWallet.sol\":1979:1985  owners */\n      0x01\n        /* \"contracts/MultisignWallet.sol\":1991:1999  newOwner */\n      dup2\n        /* \"contracts/MultisignWallet.sol\":1979:2000  owners.push(newOwner) */\n      swap1\n      dup1\n      0x01\n      dup2\n      sload\n      add\n      dup1\n      dup3\n      sstore\n      dup1\n      swap2\n      pop\n      pop\n      0x01\n      swap1\n      sub\n      swap1\n      0x00\n      mstore\n      keccak256(0x00, 0x20)\n      add\n      0x00\n      swap1\n      swap2\n      swap1\n      swap2\n      swap1\n      swap2\n      0x0100\n      exp\n      dup2\n      sload\n      dup2\n      0xffffffffffffffffffffffffffffffffffffffff\n      mul\n      not\n      and\n      swap1\n      dup4\n      0xffffffffffffffffffffffffffffffffffffffff\n      and\n      mul\n      or\n      swap1\n      sstore\n      pop\n        /* \"contracts/MultisignWallet.sol\":2026:2034  newOwner */\n      dup1\n        /* \"contracts/MultisignWallet.sol\":2015:2035  OwnerAdded(newOwner) */\n      0xffffffffffffffffffffffffffffffffffffffff\n      and\n      0x994a936646fe87ffe4f1e469d3d6aa417d6b855598397f323de5b449f765f0c3\n      mload(0x40)\n      mload(0x40)\n      dup1\n      swap2\n      sub\n      swap1\n      log2\n        /* \"contracts/MultisignWallet.sol\":1812:2042  function addOwner(address newOwner) public OnlyOwners {... */\n      pop\n      jump\t// out\n        /* \"contracts/MultisignWallet.sol\":4515:4670  function getTransactionSignatures(uint256 _transactionId) public view returns (uint256) {... */\n    tag_41:\n        /* \"contracts/MultisignWallet.sol\":4594:4601  uint256 */\n      0x00\n        /* \"contracts/MultisignWallet.sol\":4620:4636  transactionsList */\n      0x02\n        /* \"contracts/MultisignWallet.sol\":4637:4651  _transactionId */\n      dup3\n        /* \"contracts/MultisignWallet.sol\":4620:4652  transactionsList[_transactionId] */\n      dup2\n      sload\n      dup2\n      lt\n      tag_126\n      jumpi\n      tag_127\n      tag_95\n      jump\t// in\n    tag_127:\n    tag_126:\n      swap1\n      0x00\n      mstore\n      keccak256(0x00, 0x20)\n      swap1\n      0x05\n      mul\n      add\n        /* \"contracts/MultisignWallet.sol\":4620:4663  transactionsList[_transactionId].totalSigns */\n      0x04\n      add\n      sload\n        /* \"contracts/MultisignWallet.sol\":4613:4663  return transactionsList[_transactionId].totalSigns */\n      swap1\n      pop\n        /* \"contracts/MultisignWallet.sol\":4515:4670  function getTransactionSignatures(uint256 _transactionId) public view returns (uint256) {... */\n      swap2\n      swap1\n      pop\n      jump\t// out\n        /* \"contracts/MultisignWallet.sol\":389:411  uint256 public balance */\n    tag_46:\n      sload(0x00)\n      dup2\n      jump\t// out\n        /* \"contracts/MultisignWallet.sol\":2676:3433  function confirmTransaction(uint256 _transactionId) public OnlyOwners... */\n    tag_51:\n        /* \"contracts/MultisignWallet.sol\":1111:1118  isOwner */\n      0x03\n        /* \"contracts/MultisignWallet.sol\":1111:1130  isOwner[msg.sender] */\n      0x00\n        /* \"contracts/MultisignWallet.sol\":1119:1129  msg.sender */\n      caller\n        /* \"contracts/MultisignWallet.sol\":1111:1130  isOwner[msg.sender] */\n      0xffffffffffffffffffffffffffffffffffffffff\n      and\n      0xffffffffffffffffffffffffffffffffffffffff\n      and\n      dup2\n      mstore\n      0x20\n      add\n      swap1\n      dup2\n      mstore\n      0x20\n      add\n      0x00\n      keccak256\n      0x00\n      swap1\n      sload\n      swap1\n      0x0100\n      exp\n      swap1\n      div\n      0xff\n      and\n        /* \"contracts/MultisignWallet.sol\":1103:1156  require(isOwner[msg.sender], \"You must be an owner!\") */\n      tag_130\n      jumpi\n      mload(0x40)\n      0x08c379a000000000000000000000000000000000000000000000000000000000\n      dup2\n      mstore\n      0x04\n      add\n      tag_131\n      swap1\n      tag_66\n      jump\t// in\n    tag_131:\n      mload(0x40)\n      dup1\n      swap2\n      sub\n      swap1\n      revert\n    tag_130:\n        /* \"contracts/MultisignWallet.sol\":2772:2786  _transactionId */\n      dup1\n        /* \"contracts/MultisignWallet.sol\":1399:1415  transactionsList */\n      0x02\n        /* \"contracts/MultisignWallet.sol\":1399:1422  transactionsList.length */\n      dup1\n      sload\n      swap1\n      pop\n        /* \"contracts/MultisignWallet.sol\":1382:1396  _transactionId */\n      dup2\n        /* \"contracts/MultisignWallet.sol\":1382:1422  _transactionId < transactionsList.length */\n      lt\n        /* \"contracts/MultisignWallet.sol\":1374:1454  require(_transactionId < transactionsList.length, \"Transaction does not exist!\") */\n      tag_133\n      jumpi\n      mload(0x40)\n      0x08c379a000000000000000000000000000000000000000000000000000000000\n      dup2\n      mstore\n      0x04\n      add\n      tag_134\n      swap1\n      tag_91\n      jump\t// in\n    tag_134:\n      mload(0x40)\n      dup1\n      swap2\n      sub\n      swap1\n      revert\n    tag_133:\n        /* \"contracts/MultisignWallet.sol\":2819:2833  _transactionId */\n      dup2\n        /* \"contracts/MultisignWallet.sol\":1544:1567  Transaction storage txn */\n      0x00\n        /* \"contracts/MultisignWallet.sol\":1570:1586  transactionsList */\n      0x02\n        /* \"contracts/MultisignWallet.sol\":1587:1601  _transactionId */\n      dup3\n        /* \"contracts/MultisignWallet.sol\":1570:1602  transactionsList[_transactionId] */\n      dup2\n      sload\n      dup2\n      lt\n      tag_136\n      jumpi\n      tag_137\n      tag_95\n      jump\t// in\n    tag_137:\n    tag_136:\n      swap1\n      0x00\n      mstore\n      keccak256(0x00, 0x20)\n      swap1\n      0x05\n      mul\n      add\n        /* \"contracts/MultisignWallet.sol\":1544:1602  Transaction storage txn = transactionsList[_transactionId] */\n      swap1\n      pop\n        /* \"contracts/MultisignWallet.sol\":1634:1660  TransactionStatus.Executed */\n      0x02\n        /* \"contracts/MultisignWallet.sol\":1620:1660  txn.status != TransactionStatus.Executed */\n      0x03\n      dup2\n      gt\n      iszero\n      tag_139\n      jumpi\n      tag_140\n      tag_75\n      jump\t// in\n    tag_140:\n    tag_139:\n        /* \"contracts/MultisignWallet.sol\":1620:1623  txn */\n      dup2\n        /* \"contracts/MultisignWallet.sol\":1620:1630  txn.status */\n      0x02\n      add\n      0x00\n      swap1\n      sload\n      swap1\n      0x0100\n      exp\n      swap1\n      div\n      0xff\n      and\n        /* \"contracts/MultisignWallet.sol\":1620:1660  txn.status != TransactionStatus.Executed */\n      0x03\n      dup2\n      gt\n      iszero\n      tag_141\n      jumpi\n      tag_142\n      tag_75\n      jump\t// in\n    tag_142:\n    tag_141:\n      sub\n        /* \"contracts/MultisignWallet.sol\":1612:1694  require(txn.status != TransactionStatus.Executed, \"Transaction already executed!\") */\n      tag_143\n      jumpi\n      mload(0x40)\n      0x08c379a000000000000000000000000000000000000000000000000000000000\n      dup2\n      mstore\n      0x04\n      add\n      tag_144\n      swap1\n      tag_103\n      jump\t// in\n    tag_144:\n      mload(0x40)\n      dup1\n      swap2\n      sub\n      swap1\n      revert\n    tag_143:\n        /* \"contracts/MultisignWallet.sol\":1726:1753  TransactionStatus.Cancelled */\n      0x03\n        /* \"contracts/MultisignWallet.sol\":1712:1753  txn.status != TransactionStatus.Cancelled */\n      dup1\n      dup2\n      gt\n      iszero\n      tag_145\n      jumpi\n      tag_146\n      tag_75\n      jump\t// in\n    tag_146:\n    tag_145:\n        /* \"contracts/MultisignWallet.sol\":1712:1715  txn */\n      dup2\n        /* \"contracts/MultisignWallet.sol\":1712:1722  txn.status */\n      0x02\n      add\n      0x00\n      swap1\n      sload\n      swap1\n      0x0100\n      exp\n      swap1\n      div\n      0xff\n      and\n        /* \"contracts/MultisignWallet.sol\":1712:1753  txn.status != TransactionStatus.Cancelled */\n      0x03\n      dup2\n      gt\n      iszero\n      tag_147\n      jumpi\n      tag_148\n      tag_75\n      jump\t// in\n    tag_148:\n    tag_147:\n      sub\n        /* \"contracts/MultisignWallet.sol\":1704:1788  require(txn.status != TransactionStatus.Cancelled, \"Transaction already cancelled!\") */\n      tag_149\n      jumpi\n      mload(0x40)\n      0x08c379a000000000000000000000000000000000000000000000000000000000\n      dup2\n      mstore\n      0x04\n      add\n      tag_150\n      swap1\n      tag_110\n      jump\t// in\n    tag_150:\n      mload(0x40)\n      dup1\n      swap2\n      sub\n      swap1\n      revert\n    tag_149:\n        /* \"contracts/MultisignWallet.sol\":2849:2887  Transaction storage currentTransaction */\n      0x00\n        /* \"contracts/MultisignWallet.sol\":2890:2906  transactionsList */\n      0x02\n        /* \"contracts/MultisignWallet.sol\":2907:2921  _transactionId */\n      dup6\n        /* \"contracts/MultisignWallet.sol\":2890:2922  transactionsList[_transactionId] */\n      dup2\n      sload\n      dup2\n      lt\n      tag_152\n      jumpi\n      tag_153\n      tag_95\n      jump\t// in\n    tag_153:\n    tag_152:\n      swap1\n      0x00\n      mstore\n      keccak256(0x00, 0x20)\n      swap1\n      0x05\n      mul\n      add\n        /* \"contracts/MultisignWallet.sol\":2849:2922  Transaction storage currentTransaction = transactionsList[_transactionId] */\n      swap1\n      pop\n        /* \"contracts/MultisignWallet.sol\":2942:2960  currentTransaction */\n      dup1\n        /* \"contracts/MultisignWallet.sol\":2942:2973  currentTransaction.ownersSigned */\n      0x03\n      add\n        /* \"contracts/MultisignWallet.sol\":2942:2985  currentTransaction.ownersSigned[msg.sender] */\n      0x00\n        /* \"contracts/MultisignWallet.sol\":2974:2984  msg.sender */\n      caller\n        /* \"contracts/MultisignWallet.sol\":2942:2985  currentTransaction.ownersSigned[msg.sender] */\n      0xffffffffffffffffffffffffffffffffffffffff\n      and\n      0xffffffffffffffffffffffffffffffffffffffff\n      and\n      dup2\n      mstore\n      0x20\n      add\n      swap1\n      dup2\n      mstore\n      0x20\n      add\n      0x00\n      keccak256\n      0x00\n      swap1\n      sload\n      swap1\n      0x0100\n      exp\n      swap1\n      div\n      0xff\n      and\n        /* \"contracts/MultisignWallet.sol\":2941:2985  !currentTransaction.ownersSigned[msg.sender] */\n      iszero\n        /* \"contracts/MultisignWallet.sol\":2933:3031  require(!currentTransaction.ownersSigned[msg.sender], \"You have already signed this transaction!\") */\n      tag_155\n      jumpi\n      mload(0x40)\n      0x08c379a000000000000000000000000000000000000000000000000000000000\n      dup2\n      mstore\n      0x04\n      add\n      tag_156\n      swap1\n      tag_157\n      jump\t// in\n    tag_156:\n      mload(0x40)\n      dup1\n      swap2\n      sub\n      swap1\n      revert\n    tag_155:\n        /* \"contracts/MultisignWallet.sol\":3088:3092  true */\n      0x01\n        /* \"contracts/MultisignWallet.sol\":3042:3060  currentTransaction */\n      dup2\n        /* \"contracts/MultisignWallet.sol\":3042:3073  currentTransaction.ownersSigned */\n      0x03\n      add\n        /* \"contracts/MultisignWallet.sol\":3042:3085  currentTransaction.ownersSigned[msg.sender] */\n      0x00\n        /* \"contracts/MultisignWallet.sol\":3074:3084  msg.sender */\n      caller\n        /* \"contracts/MultisignWallet.sol\":3042:3085  currentTransaction.ownersSigned[msg.sender] */\n      0xffffffffffffffffffffffffffffffffffffffff\n      and\n      0xffffffffffffffffffffffffffffffffffffffff\n      and\n      dup2\n      mstore\n      0x20\n      add\n      swap1\n      dup2\n      mstore\n      0x20\n      add\n      0x00\n      keccak256\n      0x00\n        /* \"contracts/MultisignWallet.sol\":3042:3092  currentTransaction.ownersSigned[msg.sender] = true */\n      0x0100\n      exp\n      dup2\n      sload\n      dup2\n      0xff\n      mul\n      not\n      and\n      swap1\n      dup4\n      iszero\n      iszero\n      mul\n      or\n      swap1\n      sstore\n      pop\n        /* \"contracts/MultisignWallet.sol\":3102:3120  currentTransaction */\n      dup1\n        /* \"contracts/MultisignWallet.sol\":3102:3131  currentTransaction.totalSigns */\n      0x04\n      add\n      0x00\n        /* \"contracts/MultisignWallet.sol\":3102:3133  currentTransaction.totalSigns++ */\n      dup2\n      sload\n      dup1\n      swap3\n      swap2\n      swap1\n      tag_158\n      swap1\n      tag_159\n      jump\t// in\n    tag_158:\n      swap2\n      swap1\n      pop\n      sstore\n      pop\n        /* \"contracts/MultisignWallet.sol\":3144:3165  uint256 requiredSigns */\n      0x00\n        /* \"contracts/MultisignWallet.sol\":3210:3211  0 */\n      dup1\n        /* \"contracts/MultisignWallet.sol\":3205:3206  2 */\n      0x02\n        /* \"contracts/MultisignWallet.sol\":3189:3195  owners */\n      0x01\n        /* \"contracts/MultisignWallet.sol\":3189:3202  owners.length */\n      dup1\n      sload\n      swap1\n      pop\n        /* \"contracts/MultisignWallet.sol\":3189:3206  owners.length % 2 */\n      tag_160\n      swap2\n      swap1\n      tag_161\n      jump\t// in\n    tag_160:\n        /* \"contracts/MultisignWallet.sol\":3189:3211  owners.length % 2 == 0 */\n      eq\n        /* \"contracts/MultisignWallet.sol\":3189:3219  owners.length % 2 == 0 ? 1 : 0 */\n      tag_162\n      jumpi\n        /* \"contracts/MultisignWallet.sol\":3218:3219  0 */\n      0x00\n        /* \"contracts/MultisignWallet.sol\":3189:3219  owners.length % 2 == 0 ? 1 : 0 */\n      jump(tag_163)\n    tag_162:\n        /* \"contracts/MultisignWallet.sol\":3214:3215  1 */\n      0x01\n        /* \"contracts/MultisignWallet.sol\":3189:3219  owners.length % 2 == 0 ? 1 : 0 */\n    tag_163:\n        /* \"contracts/MultisignWallet.sol\":3168:3220  owners.length / 2 + (owners.length % 2 == 0 ? 1 : 0) */\n      0xff\n      and\n        /* \"contracts/MultisignWallet.sol\":3184:3185  2 */\n      0x02\n        /* \"contracts/MultisignWallet.sol\":3168:3174  owners */\n      0x01\n        /* \"contracts/MultisignWallet.sol\":3168:3181  owners.length */\n      dup1\n      sload\n      swap1\n      pop\n        /* \"contracts/MultisignWallet.sol\":3168:3185  owners.length / 2 */\n      tag_164\n      swap2\n      swap1\n      tag_165\n      jump\t// in\n    tag_164:\n        /* \"contracts/MultisignWallet.sol\":3168:3220  owners.length / 2 + (owners.length % 2 == 0 ? 1 : 0) */\n      tag_166\n      swap2\n      swap1\n      tag_84\n      jump\t// in\n    tag_166:\n        /* \"contracts/MultisignWallet.sol\":3144:3220  uint256 requiredSigns = owners.length / 2 + (owners.length % 2 == 0 ? 1 : 0) */\n      swap1\n      pop\n        /* \"contracts/MultisignWallet.sol\":3273:3283  msg.sender */\n      caller\n        /* \"contracts/MultisignWallet.sol\":3236:3284  TransactionConfirmed(_transactionId, msg.sender) */\n      0xffffffffffffffffffffffffffffffffffffffff\n      and\n        /* \"contracts/MultisignWallet.sol\":3257:3271  _transactionId */\n      dup7\n        /* \"contracts/MultisignWallet.sol\":3236:3284  TransactionConfirmed(_transactionId, msg.sender) */\n      0x15c2f311c9e0f53b50388279894aeff029a3457884a6601e924fca879e12adcc\n      mload(0x40)\n      mload(0x40)\n      dup1\n      swap2\n      sub\n      swap1\n      log3\n        /* \"contracts/MultisignWallet.sol\":3332:3345  requiredSigns */\n      dup1\n        /* \"contracts/MultisignWallet.sol\":3299:3317  currentTransaction */\n      dup3\n        /* \"contracts/MultisignWallet.sol\":3299:3328  currentTransaction.totalSigns */\n      0x04\n      add\n      sload\n        /* \"contracts/MultisignWallet.sol\":3299:3345  currentTransaction.totalSigns >= requiredSigns */\n      lt\n        /* \"contracts/MultisignWallet.sol\":3295:3427  if (currentTransaction.totalSigns >= requiredSigns) {... */\n      tag_167\n      jumpi\n        /* \"contracts/MultisignWallet.sol\":3389:3416  TransactionStatus.Confirmed */\n      0x01\n        /* \"contracts/MultisignWallet.sol\":3361:3379  currentTransaction */\n      dup3\n        /* \"contracts/MultisignWallet.sol\":3361:3386  currentTransaction.status */\n      0x02\n      add\n      0x00\n        /* \"contracts/MultisignWallet.sol\":3361:3416  currentTransaction.status = TransactionStatus.Confirmed */\n      0x0100\n      exp\n      dup2\n      sload\n      dup2\n      0xff\n      mul\n      not\n      and\n      swap1\n      dup4\n      0x03\n      dup2\n      gt\n      iszero\n      tag_168\n      jumpi\n      tag_169\n      tag_75\n      jump\t// in\n    tag_169:\n    tag_168:\n      mul\n      or\n      swap1\n      sstore\n      pop\n        /* \"contracts/MultisignWallet.sol\":3295:3427  if (currentTransaction.totalSigns >= requiredSigns) {... */\n    tag_167:\n        /* \"contracts/MultisignWallet.sol\":2839:3433  {... */\n      pop\n      pop\n        /* \"contracts/MultisignWallet.sol\":1534:1806  {... */\n      pop\n        /* \"contracts/MultisignWallet.sol\":1464:1465  _ */\n      pop\n        /* \"contracts/MultisignWallet.sol\":1166:1167  _ */\n      pop\n        /* \"contracts/MultisignWallet.sol\":2676:3433  function confirmTransaction(uint256 _transactionId) public OnlyOwners... */\n      pop\n      jump\t// out\n        /* \"contracts/MultisignWallet.sol\":446:483  Transaction[] public transactionsList */\n    tag_55:\n      0x02\n      dup2\n      dup2\n      sload\n      dup2\n      lt\n      tag_170\n      jumpi\n      0x00\n      dup1\n      revert\n    tag_170:\n      swap1\n      0x00\n      mstore\n      keccak256(0x00, 0x20)\n      swap1\n      0x05\n      mul\n      add\n      0x00\n      swap2\n      pop\n      swap1\n      pop\n      dup1\n      0x00\n      add\n      0x00\n      swap1\n      sload\n      swap1\n      0x0100\n      exp\n      swap1\n      div\n      0xffffffffffffffffffffffffffffffffffffffff\n      and\n      swap1\n      dup1\n      0x01\n      add\n      sload\n      swap1\n      dup1\n      0x02\n      add\n      0x00\n      swap1\n      sload\n      swap1\n      0x0100\n      exp\n      swap1\n      div\n      0xff\n      and\n      swap1\n      dup1\n      0x04\n      add\n      sload\n      swap1\n      pop\n      dup5\n      jump\t// out\n        /* \"contracts/MultisignWallet.sol\":3439:4134  function executeTransaction(uint256 _transactionId) payable public OnlyOwners... */\n    tag_60:\n        /* \"contracts/MultisignWallet.sol\":1111:1118  isOwner */\n      0x03\n        /* \"contracts/MultisignWallet.sol\":1111:1130  isOwner[msg.sender] */\n      0x00\n        /* \"contracts/MultisignWallet.sol\":1119:1129  msg.sender */\n      caller\n        /* \"contracts/MultisignWallet.sol\":1111:1130  isOwner[msg.sender] */\n      0xffffffffffffffffffffffffffffffffffffffff\n      and\n      0xffffffffffffffffffffffffffffffffffffffff\n      and\n      dup2\n      mstore\n      0x20\n      add\n      swap1\n      dup2\n      mstore\n      0x20\n      add\n      0x00\n      keccak256\n      0x00\n      swap1\n      sload\n      swap1\n      0x0100\n      exp\n      swap1\n      div\n      0xff\n      and\n        /* \"contracts/MultisignWallet.sol\":1103:1156  require(isOwner[msg.sender], \"You must be an owner!\") */\n      tag_173\n      jumpi\n      mload(0x40)\n      0x08c379a000000000000000000000000000000000000000000000000000000000\n      dup2\n      mstore\n      0x04\n      add\n      tag_174\n      swap1\n      tag_66\n      jump\t// in\n    tag_174:\n      mload(0x40)\n      dup1\n      swap2\n      sub\n      swap1\n      revert\n    tag_173:\n        /* \"contracts/MultisignWallet.sol\":3543:3557  _transactionId */\n      dup1\n        /* \"contracts/MultisignWallet.sol\":1399:1415  transactionsList */\n      0x02\n        /* \"contracts/MultisignWallet.sol\":1399:1422  transactionsList.length */\n      dup1\n      sload\n      swap1\n      pop\n        /* \"contracts/MultisignWallet.sol\":1382:1396  _transactionId */\n      dup2\n        /* \"contracts/MultisignWallet.sol\":1382:1422  _transactionId < transactionsList.length */\n      lt\n        /* \"contracts/MultisignWallet.sol\":1374:1454  require(_transactionId < transactionsList.length, \"Transaction does not exist!\") */\n      tag_176\n      jumpi\n      mload(0x40)\n      0x08c379a000000000000000000000000000000000000000000000000000000000\n      dup2\n      mstore\n      0x04\n      add\n      tag_177\n      swap1\n      tag_91\n      jump\t// in\n    tag_177:\n      mload(0x40)\n      dup1\n      swap2\n      sub\n      swap1\n      revert\n    tag_176:\n        /* \"contracts/MultisignWallet.sol\":3590:3604  _transactionId */\n      dup2\n        /* \"contracts/MultisignWallet.sol\":1544:1567  Transaction storage txn */\n      0x00\n        /* \"contracts/MultisignWallet.sol\":1570:1586  transactionsList */\n      0x02\n        /* \"contracts/MultisignWallet.sol\":1587:1601  _transactionId */\n      dup3\n        /* \"contracts/MultisignWallet.sol\":1570:1602  transactionsList[_transactionId] */\n      dup2\n      sload\n      dup2\n      lt\n      tag_179\n      jumpi\n      tag_180\n      tag_95\n      jump\t// in\n    tag_180:\n    tag_179:\n      swap1\n      0x00\n      mstore\n      keccak256(0x00, 0x20)\n      swap1\n      0x05\n      mul\n      add\n        /* \"contracts/MultisignWallet.sol\":1544:1602  Transaction storage txn = transactionsList[_transactionId] */\n      swap1\n      pop\n        /* \"contracts/MultisignWallet.sol\":1634:1660  TransactionStatus.Executed */\n      0x02\n        /* \"contracts/MultisignWallet.sol\":1620:1660  txn.status != TransactionStatus.Executed */\n      0x03\n      dup2\n      gt\n      iszero\n      tag_182\n      jumpi\n      tag_183\n      tag_75\n      jump\t// in\n    tag_183:\n    tag_182:\n        /* \"contracts/MultisignWallet.sol\":1620:1623  txn */\n      dup2\n        /* \"contracts/MultisignWallet.sol\":1620:1630  txn.status */\n      0x02\n      add\n      0x00\n      swap1\n      sload\n      swap1\n      0x0100\n      exp\n      swap1\n      div\n      0xff\n      and\n        /* \"contracts/MultisignWallet.sol\":1620:1660  txn.status != TransactionStatus.Executed */\n      0x03\n      dup2\n      gt\n      iszero\n      tag_184\n      jumpi\n      tag_185\n      tag_75\n      jump\t// in\n    tag_185:\n    tag_184:\n      sub\n        /* \"contracts/MultisignWallet.sol\":1612:1694  require(txn.status != TransactionStatus.Executed, \"Transaction already executed!\") */\n      tag_186\n      jumpi\n      mload(0x40)\n      0x08c379a000000000000000000000000000000000000000000000000000000000\n      dup2\n      mstore\n      0x04\n      add\n      tag_187\n      swap1\n      tag_103\n      jump\t// in\n    tag_187:\n      mload(0x40)\n      dup1\n      swap2\n      sub\n      swap1\n      revert\n    tag_186:\n        /* \"contracts/MultisignWallet.sol\":1726:1753  TransactionStatus.Cancelled */\n      0x03\n        /* \"contracts/MultisignWallet.sol\":1712:1753  txn.status != TransactionStatus.Cancelled */\n      dup1\n      dup2\n      gt\n      iszero\n      tag_188\n      jumpi\n      tag_189\n      tag_75\n      jump\t// in\n    tag_189:\n    tag_188:\n        /* \"contracts/MultisignWallet.sol\":1712:1715  txn */\n      dup2\n        /* \"contracts/MultisignWallet.sol\":1712:1722  txn.status */\n      0x02\n      add\n      0x00\n      swap1\n      sload\n      swap1\n      0x0100\n      exp\n      swap1\n      div\n      0xff\n      and\n        /* \"contracts/MultisignWallet.sol\":1712:1753  txn.status != TransactionStatus.Cancelled */\n      0x03\n      dup2\n      gt\n      iszero\n      tag_190\n      jumpi\n      tag_191\n      tag_75\n      jump\t// in\n    tag_191:\n    tag_190:\n      sub\n        /* \"contracts/MultisignWallet.sol\":1704:1788  require(txn.status != TransactionStatus.Cancelled, \"Transaction already cancelled!\") */\n      tag_192\n      jumpi\n      mload(0x40)\n      0x08c379a000000000000000000000000000000000000000000000000000000000\n      dup2\n      mstore\n      0x04\n      add\n      tag_193\n      swap1\n      tag_110\n      jump\t// in\n    tag_193:\n      mload(0x40)\n      dup1\n      swap2\n      sub\n      swap1\n      revert\n    tag_192:\n        /* \"contracts/MultisignWallet.sol\":3620:3658  Transaction storage currentTransaction */\n      0x00\n        /* \"contracts/MultisignWallet.sol\":3661:3677  transactionsList */\n      0x02\n        /* \"contracts/MultisignWallet.sol\":3678:3692  _transactionId */\n      dup6\n        /* \"contracts/MultisignWallet.sol\":3661:3693  transactionsList[_transactionId] */\n      dup2\n      sload\n      dup2\n      lt\n      tag_195\n      jumpi\n      tag_196\n      tag_95\n      jump\t// in\n    tag_196:\n    tag_195:\n      swap1\n      0x00\n      mstore\n      keccak256(0x00, 0x20)\n      swap1\n      0x05\n      mul\n      add\n        /* \"contracts/MultisignWallet.sol\":3620:3693  Transaction storage currentTransaction = transactionsList[_transactionId] */\n      swap1\n      pop\n        /* \"contracts/MultisignWallet.sol\":3741:3768  TransactionStatus.Confirmed */\n      0x01\n        /* \"contracts/MultisignWallet.sol\":3712:3768  currentTransaction.status == TransactionStatus.Confirmed */\n      0x03\n      dup2\n      gt\n      iszero\n      tag_198\n      jumpi\n      tag_199\n      tag_75\n      jump\t// in\n    tag_199:\n    tag_198:\n        /* \"contracts/MultisignWallet.sol\":3712:3730  currentTransaction */\n      dup2\n        /* \"contracts/MultisignWallet.sol\":3712:3737  currentTransaction.status */\n      0x02\n      add\n      0x00\n      swap1\n      sload\n      swap1\n      0x0100\n      exp\n      swap1\n      div\n      0xff\n      and\n        /* \"contracts/MultisignWallet.sol\":3712:3768  currentTransaction.status == TransactionStatus.Confirmed */\n      0x03\n      dup2\n      gt\n      iszero\n      tag_200\n      jumpi\n      tag_201\n      tag_75\n      jump\t// in\n    tag_201:\n    tag_200:\n      eq\n        /* \"contracts/MultisignWallet.sol\":3704:3802  require(currentTransaction.status == TransactionStatus.Confirmed, \"Transaction is not confirmed!\") */\n      tag_202\n      jumpi\n      mload(0x40)\n      0x08c379a000000000000000000000000000000000000000000000000000000000\n      dup2\n      mstore\n      0x04\n      add\n      tag_203\n      swap1\n      tag_204\n      jump\t// in\n    tag_203:\n      mload(0x40)\n      dup1\n      swap2\n      sub\n      swap1\n      revert\n    tag_202:\n        /* \"contracts/MultisignWallet.sol\":3831:3849  currentTransaction */\n      dup1\n        /* \"contracts/MultisignWallet.sol\":3831:3856  currentTransaction.amount */\n      0x01\n      add\n      sload\n        /* \"contracts/MultisignWallet.sol\":3820:3827  balance */\n      sload(0x00)\n        /* \"contracts/MultisignWallet.sol\":3820:3856  balance >= currentTransaction.amount */\n      lt\n      iszero\n        /* \"contracts/MultisignWallet.sol\":3812:3882  require(balance >= currentTransaction.amount, \"Insufficient balance!\") */\n      tag_205\n      jumpi\n      mload(0x40)\n      0x08c379a000000000000000000000000000000000000000000000000000000000\n      dup2\n      mstore\n      0x04\n      add\n      tag_206\n      swap1\n      tag_70\n      jump\t// in\n    tag_206:\n      mload(0x40)\n      dup1\n      swap2\n      sub\n      swap1\n      revert\n    tag_205:\n        /* \"contracts/MultisignWallet.sol\":3904:3922  currentTransaction */\n      dup1\n        /* \"contracts/MultisignWallet.sol\":3904:3929  currentTransaction.amount */\n      0x01\n      add\n      sload\n        /* \"contracts/MultisignWallet.sol\":3893:3900  balance */\n      0x00\n      dup1\n        /* \"contracts/MultisignWallet.sol\":3893:3929  balance -= currentTransaction.amount */\n      dup3\n      dup3\n      sload\n      tag_207\n      swap2\n      swap1\n      tag_77\n      jump\t// in\n    tag_207:\n      swap3\n      pop\n      pop\n      dup2\n      swap1\n      sstore\n      pop\n        /* \"contracts/MultisignWallet.sol\":3947:3965  currentTransaction */\n      dup1\n        /* \"contracts/MultisignWallet.sol\":3947:3974  currentTransaction.receiver */\n      0x00\n      add\n      0x00\n      swap1\n      sload\n      swap1\n      0x0100\n      exp\n      swap1\n      div\n      0xffffffffffffffffffffffffffffffffffffffff\n      and\n        /* \"contracts/MultisignWallet.sol\":3939:3984  payable(currentTransaction.receiver).transfer */\n      0xffffffffffffffffffffffffffffffffffffffff\n      and\n        /* \"contracts/MultisignWallet.sol\":3939:4011  payable(currentTransaction.receiver).transfer(currentTransaction.amount) */\n      0x08fc\n        /* \"contracts/MultisignWallet.sol\":3985:4003  currentTransaction */\n      dup3\n        /* \"contracts/MultisignWallet.sol\":3985:4010  currentTransaction.amount */\n      0x01\n      add\n      sload\n        /* \"contracts/MultisignWallet.sol\":3939:4011  payable(currentTransaction.receiver).transfer(currentTransaction.amount) */\n      swap1\n      dup2\n      iszero\n      mul\n      swap1\n      mload(0x40)\n      0x00\n      mload(0x40)\n      dup1\n      dup4\n      sub\n      dup2\n      dup6\n      dup9\n      dup9\n      call\n      swap4\n      pop\n      pop\n      pop\n      pop\n      iszero\n      dup1\n      iszero\n      tag_209\n      jumpi\n      returndatasize\n      0x00\n      dup1\n      returndatacopy\n      revert(0x00, returndatasize)\n    tag_209:\n      pop\n        /* \"contracts/MultisignWallet.sol\":4050:4076  TransactionStatus.Executed */\n      0x02\n        /* \"contracts/MultisignWallet.sol\":4022:4040  currentTransaction */\n      dup2\n        /* \"contracts/MultisignWallet.sol\":4022:4047  currentTransaction.status */\n      0x02\n      add\n      0x00\n        /* \"contracts/MultisignWallet.sol\":4022:4076  currentTransaction.status = TransactionStatus.Executed */\n      0x0100\n      exp\n      dup2\n      sload\n      dup2\n      0xff\n      mul\n      not\n      and\n      swap1\n      dup4\n      0x03\n      dup2\n      gt\n      iszero\n      tag_210\n      jumpi\n      tag_211\n      tag_75\n      jump\t// in\n    tag_211:\n    tag_210:\n      mul\n      or\n      swap1\n      sstore\n      pop\n        /* \"contracts/MultisignWallet.sol\":4112:4126  _transactionId */\n      dup5\n        /* \"contracts/MultisignWallet.sol\":4092:4127  TransactionExecuted(_transactionId) */\n      0x15ed165a284872ea7017f03df402a0cadfbfab588320ffaf83f160c2f82781c7\n      mload(0x40)\n      mload(0x40)\n      dup1\n      swap2\n      sub\n      swap1\n      log2\n        /* \"contracts/MultisignWallet.sol\":3610:4134  {... */\n      pop\n        /* \"contracts/MultisignWallet.sol\":1534:1806  {... */\n      pop\n        /* \"contracts/MultisignWallet.sol\":1464:1465  _ */\n      pop\n        /* \"contracts/MultisignWallet.sol\":1166:1167  _ */\n      pop\n        /* \"contracts/MultisignWallet.sol\":3439:4134  function executeTransaction(uint256 _transactionId) payable public OnlyOwners... */\n      pop\n      jump\t// out\n        /* \"#utility.yul\":88:205   */\n    tag_213:\n        /* \"#utility.yul\":197:198   */\n      0x00\n        /* \"#utility.yul\":194:195   */\n      dup1\n        /* \"#utility.yul\":187:199   */\n      revert\n        /* \"#utility.yul\":334:411   */\n    tag_215:\n        /* \"#utility.yul\":371:378   */\n      0x00\n        /* \"#utility.yul\":400:405   */\n      dup2\n        /* \"#utility.yul\":389:405   */\n      swap1\n      pop\n        /* \"#utility.yul\":334:411   */\n      swap2\n      swap1\n      pop\n      jump\t// out\n        /* \"#utility.yul\":417:539   */\n    tag_216:\n        /* \"#utility.yul\":490:514   */\n      tag_253\n        /* \"#utility.yul\":508:513   */\n      dup2\n        /* \"#utility.yul\":490:514   */\n      tag_215\n      jump\t// in\n    tag_253:\n        /* \"#utility.yul\":483:488   */\n      dup2\n        /* \"#utility.yul\":480:515   */\n      eq\n        /* \"#utility.yul\":470:533   */\n      tag_254\n      jumpi\n        /* \"#utility.yul\":529:530   */\n      0x00\n        /* \"#utility.yul\":526:527   */\n      dup1\n        /* \"#utility.yul\":519:531   */\n      revert\n        /* \"#utility.yul\":470:533   */\n    tag_254:\n        /* \"#utility.yul\":417:539   */\n      pop\n      jump\t// out\n        /* \"#utility.yul\":545:684   */\n    tag_217:\n        /* \"#utility.yul\":591:596   */\n      0x00\n        /* \"#utility.yul\":629:635   */\n      dup2\n        /* \"#utility.yul\":616:636   */\n      calldataload\n        /* \"#utility.yul\":607:636   */\n      swap1\n      pop\n        /* \"#utility.yul\":645:678   */\n      tag_256\n        /* \"#utility.yul\":672:677   */\n      dup2\n        /* \"#utility.yul\":645:678   */\n      tag_216\n      jump\t// in\n    tag_256:\n        /* \"#utility.yul\":545:684   */\n      swap3\n      swap2\n      pop\n      pop\n      jump\t// out\n        /* \"#utility.yul\":690:1019   */\n    tag_16:\n        /* \"#utility.yul\":749:755   */\n      0x00\n        /* \"#utility.yul\":798:800   */\n      0x20\n        /* \"#utility.yul\":786:795   */\n      dup3\n        /* \"#utility.yul\":777:784   */\n      dup5\n        /* \"#utility.yul\":773:796   */\n      sub\n        /* \"#utility.yul\":769:801   */\n      slt\n        /* \"#utility.yul\":766:885   */\n      iszero\n      tag_258\n      jumpi\n        /* \"#utility.yul\":804:883   */\n      tag_259\n      tag_213\n      jump\t// in\n    tag_259:\n        /* \"#utility.yul\":766:885   */\n    tag_258:\n        /* \"#utility.yul\":924:925   */\n      0x00\n        /* \"#utility.yul\":949:1002   */\n      tag_260\n        /* \"#utility.yul\":994:1001   */\n      dup5\n        /* \"#utility.yul\":985:991   */\n      dup3\n        /* \"#utility.yul\":974:983   */\n      dup6\n        /* \"#utility.yul\":970:992   */\n      add\n        /* \"#utility.yul\":949:1002   */\n      tag_217\n      jump\t// in\n    tag_260:\n        /* \"#utility.yul\":939:1002   */\n      swap2\n      pop\n        /* \"#utility.yul\":895:1012   */\n      pop\n        /* \"#utility.yul\":690:1019   */\n      swap3\n      swap2\n      pop\n      pop\n      jump\t// out\n        /* \"#utility.yul\":1025:1151   */\n    tag_218:\n        /* \"#utility.yul\":1062:1069   */\n      0x00\n        /* \"#utility.yul\":1102:1144   */\n      0xffffffffffffffffffffffffffffffffffffffff\n        /* \"#utility.yul\":1095:1100   */\n      dup3\n        /* \"#utility.yul\":1091:1145   */\n      and\n        /* \"#utility.yul\":1080:1145   */\n      swap1\n      pop\n        /* \"#utility.yul\":1025:1151   */\n      swap2\n      swap1\n      pop\n      jump\t// out\n        /* \"#utility.yul\":1157:1253   */\n    tag_219:\n        /* \"#utility.yul\":1194:1201   */\n      0x00\n        /* \"#utility.yul\":1223:1247   */\n      tag_263\n        /* \"#utility.yul\":1241:1246   */\n      dup3\n        /* \"#utility.yul\":1223:1247   */\n      tag_218\n      jump\t// in\n    tag_263:\n        /* \"#utility.yul\":1212:1247   */\n      swap1\n      pop\n        /* \"#utility.yul\":1157:1253   */\n      swap2\n      swap1\n      pop\n      jump\t// out\n        /* \"#utility.yul\":1259:1377   */\n    tag_220:\n        /* \"#utility.yul\":1346:1370   */\n      tag_265\n        /* \"#utility.yul\":1364:1369   */\n      dup2\n        /* \"#utility.yul\":1346:1370   */\n      tag_219\n      jump\t// in\n    tag_265:\n        /* \"#utility.yul\":1341:1344   */\n      dup3\n        /* \"#utility.yul\":1334:1371   */\n      mstore\n        /* \"#utility.yul\":1259:1377   */\n      pop\n      pop\n      jump\t// out\n        /* \"#utility.yul\":1383:1605   */\n    tag_19:\n        /* \"#utility.yul\":1476:1480   */\n      0x00\n        /* \"#utility.yul\":1514:1516   */\n      0x20\n        /* \"#utility.yul\":1503:1512   */\n      dup3\n        /* \"#utility.yul\":1499:1517   */\n      add\n        /* \"#utility.yul\":1491:1517   */\n      swap1\n      pop\n        /* \"#utility.yul\":1527:1598   */\n      tag_267\n        /* \"#utility.yul\":1595:1596   */\n      0x00\n        /* \"#utility.yul\":1584:1593   */\n      dup4\n        /* \"#utility.yul\":1580:1597   */\n      add\n        /* \"#utility.yul\":1571:1577   */\n      dup5\n        /* \"#utility.yul\":1527:1598   */\n      tag_220\n      jump\t// in\n    tag_267:\n        /* \"#utility.yul\":1383:1605   */\n      swap3\n      swap2\n      pop\n      pop\n      jump\t// out\n        /* \"#utility.yul\":1611:1733   */\n    tag_221:\n        /* \"#utility.yul\":1684:1708   */\n      tag_269\n        /* \"#utility.yul\":1702:1707   */\n      dup2\n        /* \"#utility.yul\":1684:1708   */\n      tag_219\n      jump\t// in\n    tag_269:\n        /* \"#utility.yul\":1677:1682   */\n      dup2\n        /* \"#utility.yul\":1674:1709   */\n      eq\n        /* \"#utility.yul\":1664:1727   */\n      tag_270\n      jumpi\n        /* \"#utility.yul\":1723:1724   */\n      0x00\n        /* \"#utility.yul\":1720:1721   */\n      dup1\n        /* \"#utility.yul\":1713:1725   */\n      revert\n        /* \"#utility.yul\":1664:1727   */\n    tag_270:\n        /* \"#utility.yul\":1611:1733   */\n      pop\n      jump\t// out\n        /* \"#utility.yul\":1739:1878   */\n    tag_222:\n        /* \"#utility.yul\":1785:1790   */\n      0x00\n        /* \"#utility.yul\":1823:1829   */\n      dup2\n        /* \"#utility.yul\":1810:1830   */\n      calldataload\n        /* \"#utility.yul\":1801:1830   */\n      swap1\n      pop\n        /* \"#utility.yul\":1839:1872   */\n      tag_272\n        /* \"#utility.yul\":1866:1871   */\n      dup2\n        /* \"#utility.yul\":1839:1872   */\n      tag_221\n      jump\t// in\n    tag_272:\n        /* \"#utility.yul\":1739:1878   */\n      swap3\n      swap2\n      pop\n      pop\n      jump\t// out\n        /* \"#utility.yul\":1884:2358   */\n    tag_23:\n        /* \"#utility.yul\":1952:1958   */\n      0x00\n        /* \"#utility.yul\":1960:1966   */\n      dup1\n        /* \"#utility.yul\":2009:2011   */\n      0x40\n        /* \"#utility.yul\":1997:2006   */\n      dup4\n        /* \"#utility.yul\":1988:1995   */\n      dup6\n        /* \"#utility.yul\":1984:2007   */\n      sub\n        /* \"#utility.yul\":1980:2012   */\n      slt\n        /* \"#utility.yul\":1977:2096   */\n      iszero\n      tag_274\n      jumpi\n        /* \"#utility.yul\":2015:2094   */\n      tag_275\n      tag_213\n      jump\t// in\n    tag_275:\n        /* \"#utility.yul\":1977:2096   */\n    tag_274:\n        /* \"#utility.yul\":2135:2136   */\n      0x00\n        /* \"#utility.yul\":2160:2213   */\n      tag_276\n        /* \"#utility.yul\":2205:2212   */\n      dup6\n        /* \"#utility.yul\":2196:2202   */\n      dup3\n        /* \"#utility.yul\":2185:2194   */\n      dup7\n        /* \"#utility.yul\":2181:2203   */\n      add\n        /* \"#utility.yul\":2160:2213   */\n      tag_222\n      jump\t// in\n    tag_276:\n        /* \"#utility.yul\":2150:2213   */\n      swap3\n      pop\n        /* \"#utility.yul\":2106:2223   */\n      pop\n        /* \"#utility.yul\":2262:2264   */\n      0x20\n        /* \"#utility.yul\":2288:2341   */\n      tag_277\n        /* \"#utility.yul\":2333:2340   */\n      dup6\n        /* \"#utility.yul\":2324:2330   */\n      dup3\n        /* \"#utility.yul\":2313:2322   */\n      dup7\n        /* \"#utility.yul\":2309:2331   */\n      add\n        /* \"#utility.yul\":2288:2341   */\n      tag_217\n      jump\t// in\n    tag_277:\n        /* \"#utility.yul\":2278:2341   */\n      swap2\n      pop\n        /* \"#utility.yul\":2233:2351   */\n      pop\n        /* \"#utility.yul\":1884:2358   */\n      swap3\n      pop\n      swap3\n      swap1\n      pop\n      jump\t// out\n        /* \"#utility.yul\":2364:2693   */\n    tag_36:\n        /* \"#utility.yul\":2423:2429   */\n      0x00\n        /* \"#utility.yul\":2472:2474   */\n      0x20\n        /* \"#utility.yul\":2460:2469   */\n      dup3\n        /* \"#utility.yul\":2451:2458   */\n      dup5\n        /* \"#utility.yul\":2447:2470   */\n      sub\n        /* \"#utility.yul\":2443:2475   */\n      slt\n        /* \"#utility.yul\":2440:2559   */\n      iszero\n      tag_279\n      jumpi\n        /* \"#utility.yul\":2478:2557   */\n      tag_280\n      tag_213\n      jump\t// in\n    tag_280:\n        /* \"#utility.yul\":2440:2559   */\n    tag_279:\n        /* \"#utility.yul\":2598:2599   */\n      0x00\n        /* \"#utility.yul\":2623:2676   */\n      tag_281\n        /* \"#utility.yul\":2668:2675   */\n      dup5\n        /* \"#utility.yul\":2659:2665   */\n      dup3\n        /* \"#utility.yul\":2648:2657   */\n      dup6\n        /* \"#utility.yul\":2644:2666   */\n      add\n        /* \"#utility.yul\":2623:2676   */\n      tag_222\n      jump\t// in\n    tag_281:\n        /* \"#utility.yul\":2613:2676   */\n      swap2\n      pop\n        /* \"#utility.yul\":2569:2686   */\n      pop\n        /* \"#utility.yul\":2364:2693   */\n      swap3\n      swap2\n      pop\n      pop\n      jump\t// out\n        /* \"#utility.yul\":2699:2817   */\n    tag_223:\n        /* \"#utility.yul\":2786:2810   */\n      tag_283\n        /* \"#utility.yul\":2804:2809   */\n      dup2\n        /* \"#utility.yul\":2786:2810   */\n      tag_215\n      jump\t// in\n    tag_283:\n        /* \"#utility.yul\":2781:2784   */\n      dup3\n        /* \"#utility.yul\":2774:2811   */\n      mstore\n        /* \"#utility.yul\":2699:2817   */\n      pop\n      pop\n      jump\t// out\n        /* \"#utility.yul\":2823:3045   */\n    tag_43:\n        /* \"#utility.yul\":2916:2920   */\n      0x00\n        /* \"#utility.yul\":2954:2956   */\n      0x20\n        /* \"#utility.yul\":2943:2952   */\n      dup3\n        /* \"#utility.yul\":2939:2957   */\n      add\n        /* \"#utility.yul\":2931:2957   */\n      swap1\n      pop\n        /* \"#utility.yul\":2967:3038   */\n      tag_285\n        /* \"#utility.yul\":3035:3036   */\n      0x00\n        /* \"#utility.yul\":3024:3033   */\n      dup4\n        /* \"#utility.yul\":3020:3037   */\n      add\n        /* \"#utility.yul\":3011:3017   */\n      dup5\n        /* \"#utility.yul\":2967:3038   */\n      tag_223\n      jump\t// in\n    tag_285:\n        /* \"#utility.yul\":2823:3045   */\n      swap3\n      swap2\n      pop\n      pop\n      jump\t// out\n        /* \"#utility.yul\":3051:3231   */\n    tag_75:\n        /* \"#utility.yul\":3099:3176   */\n      0x4e487b7100000000000000000000000000000000000000000000000000000000\n        /* \"#utility.yul\":3096:3097   */\n      0x00\n        /* \"#utility.yul\":3089:3177   */\n      mstore\n        /* \"#utility.yul\":3196:3200   */\n      0x21\n        /* \"#utility.yul\":3193:3194   */\n      0x04\n        /* \"#utility.yul\":3186:3201   */\n      mstore\n        /* \"#utility.yul\":3220:3224   */\n      0x24\n        /* \"#utility.yul\":3217:3218   */\n      0x00\n        /* \"#utility.yul\":3210:3225   */\n      revert\n        /* \"#utility.yul\":3237:3361   */\n    tag_224:\n        /* \"#utility.yul\":3329:3330   */\n      0x04\n        /* \"#utility.yul\":3322:3327   */\n      dup2\n        /* \"#utility.yul\":3319:3331   */\n      lt\n        /* \"#utility.yul\":3309:3355   */\n      tag_288\n      jumpi\n        /* \"#utility.yul\":3335:3353   */\n      tag_289\n      tag_75\n      jump\t// in\n    tag_289:\n        /* \"#utility.yul\":3309:3355   */\n    tag_288:\n        /* \"#utility.yul\":3237:3361   */\n      pop\n      jump\t// out\n        /* \"#utility.yul\":3367:3516   */\n    tag_225:\n        /* \"#utility.yul\":3423:3430   */\n      0x00\n        /* \"#utility.yul\":3452:3457   */\n      dup2\n        /* \"#utility.yul\":3441:3457   */\n      swap1\n      pop\n        /* \"#utility.yul\":3458:3510   */\n      tag_291\n        /* \"#utility.yul\":3504:3509   */\n      dup3\n        /* \"#utility.yul\":3458:3510   */\n      tag_224\n      jump\t// in\n    tag_291:\n        /* \"#utility.yul\":3367:3516   */\n      swap2\n      swap1\n      pop\n      jump\t// out\n        /* \"#utility.yul\":3522:3671   */\n    tag_226:\n        /* \"#utility.yul\":3589:3598   */\n      0x00\n        /* \"#utility.yul\":3622:3665   */\n      tag_293\n        /* \"#utility.yul\":3659:3664   */\n      dup3\n        /* \"#utility.yul\":3622:3665   */\n      tag_225\n      jump\t// in\n    tag_293:\n        /* \"#utility.yul\":3609:3665   */\n      swap1\n      pop\n        /* \"#utility.yul\":3522:3671   */\n      swap2\n      swap1\n      pop\n      jump\t// out\n        /* \"#utility.yul\":3677:3842   */\n    tag_227:\n        /* \"#utility.yul\":3781:3835   */\n      tag_295\n        /* \"#utility.yul\":3829:3834   */\n      dup2\n        /* \"#utility.yul\":3781:3835   */\n      tag_226\n      jump\t// in\n    tag_295:\n        /* \"#utility.yul\":3776:3779   */\n      dup3\n        /* \"#utility.yul\":3769:3836   */\n      mstore\n        /* \"#utility.yul\":3677:3842   */\n      pop\n      pop\n      jump\t// out\n        /* \"#utility.yul\":3848:4435   */\n    tag_57:\n        /* \"#utility.yul\":4042:4046   */\n      0x00\n        /* \"#utility.yul\":4080:4083   */\n      0x80\n        /* \"#utility.yul\":4069:4078   */\n      dup3\n        /* \"#utility.yul\":4065:4084   */\n      add\n        /* \"#utility.yul\":4057:4084   */\n      swap1\n      pop\n        /* \"#utility.yul\":4094:4165   */\n      tag_297\n        /* \"#utility.yul\":4162:4163   */\n      0x00\n        /* \"#utility.yul\":4151:4160   */\n      dup4\n        /* \"#utility.yul\":4147:4164   */\n      add\n        /* \"#utility.yul\":4138:4144   */\n      dup8\n        /* \"#utility.yul\":4094:4165   */\n      tag_220\n      jump\t// in\n    tag_297:\n        /* \"#utility.yul\":4175:4247   */\n      tag_298\n        /* \"#utility.yul\":4243:4245   */\n      0x20\n        /* \"#utility.yul\":4232:4241   */\n      dup4\n        /* \"#utility.yul\":4228:4246   */\n      add\n        /* \"#utility.yul\":4219:4225   */\n      dup7\n        /* \"#utility.yul\":4175:4247   */\n      tag_223\n      jump\t// in\n    tag_298:\n        /* \"#utility.yul\":4257:4346   */\n      tag_299\n        /* \"#utility.yul\":4342:4344   */\n      0x40\n        /* \"#utility.yul\":4331:4340   */\n      dup4\n        /* \"#utility.yul\":4327:4345   */\n      add\n        /* \"#utility.yul\":4318:4324   */\n      dup6\n        /* \"#utility.yul\":4257:4346   */\n      tag_227\n      jump\t// in\n    tag_299:\n        /* \"#utility.yul\":4356:4428   */\n      tag_300\n        /* \"#utility.yul\":4424:4426   */\n      0x60\n        /* \"#utility.yul\":4413:4422   */\n      dup4\n        /* \"#utility.yul\":4409:4427   */\n      add\n        /* \"#utility.yul\":4400:4406   */\n      dup5\n        /* \"#utility.yul\":4356:4428   */\n      tag_223\n      jump\t// in\n    tag_300:\n        /* \"#utility.yul\":3848:4435   */\n      swap6\n      swap5\n      pop\n      pop\n      pop\n      pop\n      pop\n      jump\t// out\n        /* \"#utility.yul\":4441:4610   */\n    tag_228:\n        /* \"#utility.yul\":4525:4536   */\n      0x00\n        /* \"#utility.yul\":4559:4565   */\n      dup3\n        /* \"#utility.yul\":4554:4557   */\n      dup3\n        /* \"#utility.yul\":4547:4566   */\n      mstore\n        /* \"#utility.yul\":4599:4603   */\n      0x20\n        /* \"#utility.yul\":4594:4597   */\n      dup3\n        /* \"#utility.yul\":4590:4604   */\n      add\n        /* \"#utility.yul\":4575:4604   */\n      swap1\n      pop\n        /* \"#utility.yul\":4441:4610   */\n      swap3\n      swap2\n      pop\n      pop\n      jump\t// out\n        /* \"#utility.yul\":4616:4787   */\n    tag_229:\n        /* \"#utility.yul\":4756:4779   */\n      0x596f75206d75737420626520616e206f776e6572210000000000000000000000\n        /* \"#utility.yul\":4752:4753   */\n      0x00\n        /* \"#utility.yul\":4744:4750   */\n      dup3\n        /* \"#utility.yul\":4740:4754   */\n      add\n        /* \"#utility.yul\":4733:4780   */\n      mstore\n        /* \"#utility.yul\":4616:4787   */\n      pop\n      jump\t// out\n        /* \"#utility.yul\":4793:5159   */\n    tag_230:\n        /* \"#utility.yul\":4935:4938   */\n      0x00\n        /* \"#utility.yul\":4956:5023   */\n      tag_304\n        /* \"#utility.yul\":5020:5022   */\n      0x15\n        /* \"#utility.yul\":5015:5018   */\n      dup4\n        /* \"#utility.yul\":4956:5023   */\n      tag_228\n      jump\t// in\n    tag_304:\n        /* \"#utility.yul\":4949:5023   */\n      swap2\n      pop\n        /* \"#utility.yul\":5032:5125   */\n      tag_305\n        /* \"#utility.yul\":5121:5124   */\n      dup3\n        /* \"#utility.yul\":5032:5125   */\n      tag_229\n      jump\t// in\n    tag_305:\n        /* \"#utility.yul\":5150:5152   */\n      0x20\n        /* \"#utility.yul\":5145:5148   */\n      dup3\n        /* \"#utility.yul\":5141:5153   */\n      add\n        /* \"#utility.yul\":5134:5153   */\n      swap1\n      pop\n        /* \"#utility.yul\":4793:5159   */\n      swap2\n      swap1\n      pop\n      jump\t// out\n        /* \"#utility.yul\":5165:5584   */\n    tag_66:\n        /* \"#utility.yul\":5331:5335   */\n      0x00\n        /* \"#utility.yul\":5369:5371   */\n      0x20\n        /* \"#utility.yul\":5358:5367   */\n      dup3\n        /* \"#utility.yul\":5354:5372   */\n      add\n        /* \"#utility.yul\":5346:5372   */\n      swap1\n      pop\n        /* \"#utility.yul\":5418:5427   */\n      dup2\n        /* \"#utility.yul\":5412:5416   */\n      dup2\n        /* \"#utility.yul\":5408:5428   */\n      sub\n        /* \"#utility.yul\":5404:5405   */\n      0x00\n        /* \"#utility.yul\":5393:5402   */\n      dup4\n        /* \"#utility.yul\":5389:5406   */\n      add\n        /* \"#utility.yul\":5382:5429   */\n      mstore\n        /* \"#utility.yul\":5446:5577   */\n      tag_307\n        /* \"#utility.yul\":5572:5576   */\n      dup2\n        /* \"#utility.yul\":5446:5577   */\n      tag_230\n      jump\t// in\n    tag_307:\n        /* \"#utility.yul\":5438:5577   */\n      swap1\n      pop\n        /* \"#utility.yul\":5165:5584   */\n      swap2\n      swap1\n      pop\n      jump\t// out\n        /* \"#utility.yul\":5590:5761   */\n    tag_231:\n        /* \"#utility.yul\":5730:5753   */\n      0x496e73756666696369656e742062616c616e6365210000000000000000000000\n        /* \"#utility.yul\":5726:5727   */\n      0x00\n        /* \"#utility.yul\":5718:5724   */\n      dup3\n        /* \"#utility.yul\":5714:5728   */\n      add\n        /* \"#utility.yul\":5707:5754   */\n      mstore\n        /* \"#utility.yul\":5590:5761   */\n      pop\n      jump\t// out\n        /* \"#utility.yul\":5767:6133   */\n    tag_232:\n        /* \"#utility.yul\":5909:5912   */\n      0x00\n        /* \"#utility.yul\":5930:5997   */\n      tag_310\n        /* \"#utility.yul\":5994:5996   */\n      0x15\n        /* \"#utility.yul\":5989:5992   */\n      dup4\n        /* \"#utility.yul\":5930:5997   */\n      tag_228\n      jump\t// in\n    tag_310:\n        /* \"#utility.yul\":5923:5997   */\n      swap2\n      pop\n        /* \"#utility.yul\":6006:6099   */\n      tag_311\n        /* \"#utility.yul\":6095:6098   */\n      dup3\n        /* \"#utility.yul\":6006:6099   */\n      tag_231\n      jump\t// in\n    tag_311:\n        /* \"#utility.yul\":6124:6126   */\n      0x20\n        /* \"#utility.yul\":6119:6122   */\n      dup3\n        /* \"#utility.yul\":6115:6127   */\n      add\n        /* \"#utility.yul\":6108:6127   */\n      swap1\n      pop\n        /* \"#utility.yul\":5767:6133   */\n      swap2\n      swap1\n      pop\n      jump\t// out\n        /* \"#utility.yul\":6139:6558   */\n    tag_70:\n        /* \"#utility.yul\":6305:6309   */\n      0x00\n        /* \"#utility.yul\":6343:6345   */\n      0x20\n        /* \"#utility.yul\":6332:6341   */\n      dup3\n        /* \"#utility.yul\":6328:6346   */\n      add\n        /* \"#utility.yul\":6320:6346   */\n      swap1\n      pop\n        /* \"#utility.yul\":6392:6401   */\n      dup2\n        /* \"#utility.yul\":6386:6390   */\n      dup2\n        /* \"#utility.yul\":6382:6402   */\n      sub\n        /* \"#utility.yul\":6378:6379   */\n      0x00\n        /* \"#utility.yul\":6367:6376   */\n      dup4\n        /* \"#utility.yul\":6363:6380   */\n      add\n        /* \"#utility.yul\":6356:6403   */\n      mstore\n        /* \"#utility.yul\":6420:6551   */\n      tag_313\n        /* \"#utility.yul\":6546:6550   */\n      dup2\n        /* \"#utility.yul\":6420:6551   */\n      tag_232\n      jump\t// in\n    tag_313:\n        /* \"#utility.yul\":6412:6551   */\n      swap1\n      pop\n        /* \"#utility.yul\":6139:6558   */\n      swap2\n      swap1\n      pop\n      jump\t// out\n        /* \"#utility.yul\":6564:6744   */\n    tag_233:\n        /* \"#utility.yul\":6612:6689   */\n      0x4e487b7100000000000000000000000000000000000000000000000000000000\n        /* \"#utility.yul\":6609:6610   */\n      0x00\n        /* \"#utility.yul\":6602:6690   */\n      mstore\n        /* \"#utility.yul\":6709:6713   */\n      0x11\n        /* \"#utility.yul\":6706:6707   */\n      0x04\n        /* \"#utility.yul\":6699:6714   */\n      mstore\n        /* \"#utility.yul\":6733:6737   */\n      0x24\n        /* \"#utility.yul\":6730:6731   */\n      0x00\n        /* \"#utility.yul\":6723:6738   */\n      revert\n        /* \"#utility.yul\":6750:6944   */\n    tag_77:\n        /* \"#utility.yul\":6790:6794   */\n      0x00\n        /* \"#utility.yul\":6810:6830   */\n      tag_316\n        /* \"#utility.yul\":6828:6829   */\n      dup3\n        /* \"#utility.yul\":6810:6830   */\n      tag_215\n      jump\t// in\n    tag_316:\n        /* \"#utility.yul\":6805:6830   */\n      swap2\n      pop\n        /* \"#utility.yul\":6844:6864   */\n      tag_317\n        /* \"#utility.yul\":6862:6863   */\n      dup4\n        /* \"#utility.yul\":6844:6864   */\n      tag_215\n      jump\t// in\n    tag_317:\n        /* \"#utility.yul\":6839:6864   */\n      swap3\n      pop\n        /* \"#utility.yul\":6888:6889   */\n      dup3\n        /* \"#utility.yul\":6885:6886   */\n      dup3\n        /* \"#utility.yul\":6881:6890   */\n      sub\n        /* \"#utility.yul\":6873:6890   */\n      swap1\n      pop\n        /* \"#utility.yul\":6912:6913   */\n      dup2\n        /* \"#utility.yul\":6906:6910   */\n      dup2\n        /* \"#utility.yul\":6903:6914   */\n      gt\n        /* \"#utility.yul\":6900:6937   */\n      iszero\n      tag_318\n      jumpi\n        /* \"#utility.yul\":6917:6935   */\n      tag_319\n      tag_233\n      jump\t// in\n    tag_319:\n        /* \"#utility.yul\":6900:6937   */\n    tag_318:\n        /* \"#utility.yul\":6750:6944   */\n      swap3\n      swap2\n      pop\n      pop\n      jump\t// out\n        /* \"#utility.yul\":6950:7141   */\n    tag_84:\n        /* \"#utility.yul\":6990:6993   */\n      0x00\n        /* \"#utility.yul\":7009:7029   */\n      tag_321\n        /* \"#utility.yul\":7027:7028   */\n      dup3\n        /* \"#utility.yul\":7009:7029   */\n      tag_215\n      jump\t// in\n    tag_321:\n        /* \"#utility.yul\":7004:7029   */\n      swap2\n      pop\n        /* \"#utility.yul\":7043:7063   */\n      tag_322\n        /* \"#utility.yul\":7061:7062   */\n      dup4\n        /* \"#utility.yul\":7043:7063   */\n      tag_215\n      jump\t// in\n    tag_322:\n        /* \"#utility.yul\":7038:7063   */\n      swap3\n      pop\n        /* \"#utility.yul\":7086:7087   */\n      dup3\n        /* \"#utility.yul\":7083:7084   */\n      dup3\n        /* \"#utility.yul\":7079:7088   */\n      add\n        /* \"#utility.yul\":7072:7088   */\n      swap1\n      pop\n        /* \"#utility.yul\":7107:7110   */\n      dup1\n        /* \"#utility.yul\":7104:7105   */\n      dup3\n        /* \"#utility.yul\":7101:7111   */\n      gt\n        /* \"#utility.yul\":7098:7134   */\n      iszero\n      tag_323\n      jumpi\n        /* \"#utility.yul\":7114:7132   */\n      tag_324\n      tag_233\n      jump\t// in\n    tag_324:\n        /* \"#utility.yul\":7098:7134   */\n    tag_323:\n        /* \"#utility.yul\":6950:7141   */\n      swap3\n      swap2\n      pop\n      pop\n      jump\t// out\n        /* \"#utility.yul\":7147:7324   */\n    tag_234:\n        /* \"#utility.yul\":7287:7316   */\n      0x5472616e73616374696f6e20646f6573206e6f74206578697374210000000000\n        /* \"#utility.yul\":7283:7284   */\n      0x00\n        /* \"#utility.yul\":7275:7281   */\n      dup3\n        /* \"#utility.yul\":7271:7285   */\n      add\n        /* \"#utility.yul\":7264:7317   */\n      mstore\n        /* \"#utility.yul\":7147:7324   */\n      pop\n      jump\t// out\n        /* \"#utility.yul\":7330:7696   */\n    tag_235:\n        /* \"#utility.yul\":7472:7475   */\n      0x00\n        /* \"#utility.yul\":7493:7560   */\n      tag_327\n        /* \"#utility.yul\":7557:7559   */\n      0x1b\n        /* \"#utility.yul\":7552:7555   */\n      dup4\n        /* \"#utility.yul\":7493:7560   */\n      tag_228\n      jump\t// in\n    tag_327:\n        /* \"#utility.yul\":7486:7560   */\n      swap2\n      pop\n        /* \"#utility.yul\":7569:7662   */\n      tag_328\n        /* \"#utility.yul\":7658:7661   */\n      dup3\n        /* \"#utility.yul\":7569:7662   */\n      tag_234\n      jump\t// in\n    tag_328:\n        /* \"#utility.yul\":7687:7689   */\n      0x20\n        /* \"#utility.yul\":7682:7685   */\n      dup3\n        /* \"#utility.yul\":7678:7690   */\n      add\n        /* \"#utility.yul\":7671:7690   */\n      swap1\n      pop\n        /* \"#utility.yul\":7330:7696   */\n      swap2\n      swap1\n      pop\n      jump\t// out\n        /* \"#utility.yul\":7702:8121   */\n    tag_91:\n        /* \"#utility.yul\":7868:7872   */\n      0x00\n        /* \"#utility.yul\":7906:7908   */\n      0x20\n        /* \"#utility.yul\":7895:7904   */\n      dup3\n        /* \"#utility.yul\":7891:7909   */\n      add\n        /* \"#utility.yul\":7883:7909   */\n      swap1\n      pop\n        /* \"#utility.yul\":7955:7964   */\n      dup2\n        /* \"#utility.yul\":7949:7953   */\n      dup2\n        /* \"#utility.yul\":7945:7965   */\n      sub\n        /* \"#utility.yul\":7941:7942   */\n      0x00\n        /* \"#utility.yul\":7930:7939   */\n      dup4\n        /* \"#utility.yul\":7926:7943   */\n      add\n        /* \"#utility.yul\":7919:7966   */\n      mstore\n        /* \"#utility.yul\":7983:8114   */\n      tag_330\n        /* \"#utility.yul\":8109:8113   */\n      dup2\n        /* \"#utility.yul\":7983:8114   */\n      tag_235\n      jump\t// in\n    tag_330:\n        /* \"#utility.yul\":7975:8114   */\n      swap1\n      pop\n        /* \"#utility.yul\":7702:8121   */\n      swap2\n      swap1\n      pop\n      jump\t// out\n        /* \"#utility.yul\":8127:8307   */\n    tag_95:\n        /* \"#utility.yul\":8175:8252   */\n      0x4e487b7100000000000000000000000000000000000000000000000000000000\n        /* \"#utility.yul\":8172:8173   */\n      0x00\n        /* \"#utility.yul\":8165:8253   */\n      mstore\n        /* \"#utility.yul\":8272:8276   */\n      0x32\n        /* \"#utility.yul\":8269:8270   */\n      0x04\n        /* \"#utility.yul\":8262:8277   */\n      mstore\n        /* \"#utility.yul\":8296:8300   */\n      0x24\n        /* \"#utility.yul\":8293:8294   */\n      0x00\n        /* \"#utility.yul\":8286:8301   */\n      revert\n        /* \"#utility.yul\":8313:8492   */\n    tag_236:\n        /* \"#utility.yul\":8453:8484   */\n      0x5472616e73616374696f6e20616c726561647920657865637574656421000000\n        /* \"#utility.yul\":8449:8450   */\n      0x00\n        /* \"#utility.yul\":8441:8447   */\n      dup3\n        /* \"#utility.yul\":8437:8451   */\n      add\n        /* \"#utility.yul\":8430:8485   */\n      mstore\n        /* \"#utility.yul\":8313:8492   */\n      pop\n      jump\t// out\n        /* \"#utility.yul\":8498:8864   */\n    tag_237:\n        /* \"#utility.yul\":8640:8643   */\n      0x00\n        /* \"#utility.yul\":8661:8728   */\n      tag_334\n        /* \"#utility.yul\":8725:8727   */\n      0x1d\n        /* \"#utility.yul\":8720:8723   */\n      dup4\n        /* \"#utility.yul\":8661:8728   */\n      tag_228\n      jump\t// in\n    tag_334:\n        /* \"#utility.yul\":8654:8728   */\n      swap2\n      pop\n        /* \"#utility.yul\":8737:8830   */\n      tag_335\n        /* \"#utility.yul\":8826:8829   */\n      dup3\n        /* \"#utility.yul\":8737:8830   */\n      tag_236\n      jump\t// in\n    tag_335:\n        /* \"#utility.yul\":8855:8857   */\n      0x20\n        /* \"#utility.yul\":8850:8853   */\n      dup3\n        /* \"#utility.yul\":8846:8858   */\n      add\n        /* \"#utility.yul\":8839:8858   */\n      swap1\n      pop\n        /* \"#utility.yul\":8498:8864   */\n      swap2\n      swap1\n      pop\n      jump\t// out\n        /* \"#utility.yul\":8870:9289   */\n    tag_103:\n        /* \"#utility.yul\":9036:9040   */\n      0x00\n        /* \"#utility.yul\":9074:9076   */\n      0x20\n        /* \"#utility.yul\":9063:9072   */\n      dup3\n        /* \"#utility.yul\":9059:9077   */\n      add\n        /* \"#utility.yul\":9051:9077   */\n      swap1\n      pop\n        /* \"#utility.yul\":9123:9132   */\n      dup2\n        /* \"#utility.yul\":9117:9121   */\n      dup2\n        /* \"#utility.yul\":9113:9133   */\n      sub\n        /* \"#utility.yul\":9109:9110   */\n      0x00\n        /* \"#utility.yul\":9098:9107   */\n      dup4\n        /* \"#utility.yul\":9094:9111   */\n      add\n        /* \"#utility.yul\":9087:9134   */\n      mstore\n        /* \"#utility.yul\":9151:9282   */\n      tag_337\n        /* \"#utility.yul\":9277:9281   */\n      dup2\n        /* \"#utility.yul\":9151:9282   */\n      tag_237\n      jump\t// in\n    tag_337:\n        /* \"#utility.yul\":9143:9282   */\n      swap1\n      pop\n        /* \"#utility.yul\":8870:9289   */\n      swap2\n      swap1\n      pop\n      jump\t// out\n        /* \"#utility.yul\":9295:9475   */\n    tag_238:\n        /* \"#utility.yul\":9435:9467   */\n      0x5472616e73616374696f6e20616c72656164792063616e63656c6c6564210000\n        /* \"#utility.yul\":9431:9432   */\n      0x00\n        /* \"#utility.yul\":9423:9429   */\n      dup3\n        /* \"#utility.yul\":9419:9433   */\n      add\n        /* \"#utility.yul\":9412:9468   */\n      mstore\n        /* \"#utility.yul\":9295:9475   */\n      pop\n      jump\t// out\n        /* \"#utility.yul\":9481:9847   */\n    tag_239:\n        /* \"#utility.yul\":9623:9626   */\n      0x00\n        /* \"#utility.yul\":9644:9711   */\n      tag_340\n        /* \"#utility.yul\":9708:9710   */\n      0x1e\n        /* \"#utility.yul\":9703:9706   */\n      dup4\n        /* \"#utility.yul\":9644:9711   */\n      tag_228\n      jump\t// in\n    tag_340:\n        /* \"#utility.yul\":9637:9711   */\n      swap2\n      pop\n        /* \"#utility.yul\":9720:9813   */\n      tag_341\n        /* \"#utility.yul\":9809:9812   */\n      dup3\n        /* \"#utility.yul\":9720:9813   */\n      tag_238\n      jump\t// in\n    tag_341:\n        /* \"#utility.yul\":9838:9840   */\n      0x20\n        /* \"#utility.yul\":9833:9836   */\n      dup3\n        /* \"#utility.yul\":9829:9841   */\n      add\n        /* \"#utility.yul\":9822:9841   */\n      swap1\n      pop\n        /* \"#utility.yul\":9481:9847   */\n      swap2\n      swap1\n      pop\n      jump\t// out\n        /* \"#utility.yul\":9853:10272   */\n    tag_110:\n        /* \"#utility.yul\":10019:10023   */\n      0x00\n        /* \"#utility.yul\":10057:10059   */\n      0x20\n        /* \"#utility.yul\":10046:10055   */\n      dup3\n        /* \"#utility.yul\":10042:10060   */\n      add\n        /* \"#utility.yul\":10034:10060   */\n      swap1\n      pop\n        /* \"#utility.yul\":10106:10115   */\n      dup2\n        /* \"#utility.yul\":10100:10104   */\n      dup2\n        /* \"#utility.yul\":10096:10116   */\n      sub\n        /* \"#utility.yul\":10092:10093   */\n      0x00\n        /* \"#utility.yul\":10081:10090   */\n      dup4\n        /* \"#utility.yul\":10077:10094   */\n      add\n        /* \"#utility.yul\":10070:10117   */\n      mstore\n        /* \"#utility.yul\":10134:10265   */\n      tag_343\n        /* \"#utility.yul\":10260:10264   */\n      dup2\n        /* \"#utility.yul\":10134:10265   */\n      tag_239\n      jump\t// in\n    tag_343:\n        /* \"#utility.yul\":10126:10265   */\n      swap1\n      pop\n        /* \"#utility.yul\":9853:10272   */\n      swap2\n      swap1\n      pop\n      jump\t// out\n        /* \"#utility.yul\":10278:10456   */\n    tag_240:\n        /* \"#utility.yul\":10418:10448   */\n      0x4164647265737320697320616c726561647920616e206f776e65722100000000\n        /* \"#utility.yul\":10414:10415   */\n      0x00\n        /* \"#utility.yul\":10406:10412   */\n      dup3\n        /* \"#utility.yul\":10402:10416   */\n      add\n        /* \"#utility.yul\":10395:10449   */\n      mstore\n        /* \"#utility.yul\":10278:10456   */\n      pop\n      jump\t// out\n        /* \"#utility.yul\":10462:10828   */\n    tag_241:\n        /* \"#utility.yul\":10604:10607   */\n      0x00\n        /* \"#utility.yul\":10625:10692   */\n      tag_346\n        /* \"#utility.yul\":10689:10691   */\n      0x1c\n        /* \"#utility.yul\":10684:10687   */\n      dup4\n        /* \"#utility.yul\":10625:10692   */\n      tag_228\n      jump\t// in\n    tag_346:\n        /* \"#utility.yul\":10618:10692   */\n      swap2\n      pop\n        /* \"#utility.yul\":10701:10794   */\n      tag_347\n        /* \"#utility.yul\":10790:10793   */\n      dup3\n        /* \"#utility.yul\":10701:10794   */\n      tag_240\n      jump\t// in\n    tag_347:\n        /* \"#utility.yul\":10819:10821   */\n      0x20\n        /* \"#utility.yul\":10814:10817   */\n      dup3\n        /* \"#utility.yul\":10810:10822   */\n      add\n        /* \"#utility.yul\":10803:10822   */\n      swap1\n      pop\n        /* \"#utility.yul\":10462:10828   */\n      swap2\n      swap1\n      pop\n      jump\t// out\n        /* \"#utility.yul\":10834:11253   */\n    tag_123:\n        /* \"#utility.yul\":11000:11004   */\n      0x00\n        /* \"#utility.yul\":11038:11040   */\n      0x20\n        /* \"#utility.yul\":11027:11036   */\n      dup3\n        /* \"#utility.yul\":11023:11041   */\n      add\n        /* \"#utility.yul\":11015:11041   */\n      swap1\n      pop\n        /* \"#utility.yul\":11087:11096   */\n      dup2\n        /* \"#utility.yul\":11081:11085   */\n      dup2\n        /* \"#utility.yul\":11077:11097   */\n      sub\n        /* \"#utility.yul\":11073:11074   */\n      0x00\n        /* \"#utility.yul\":11062:11071   */\n      dup4\n        /* \"#utility.yul\":11058:11075   */\n      add\n        /* \"#utility.yul\":11051:11098   */\n      mstore\n        /* \"#utility.yul\":11115:11246   */\n      tag_349\n        /* \"#utility.yul\":11241:11245   */\n      dup2\n        /* \"#utility.yul\":11115:11246   */\n      tag_241\n      jump\t// in\n    tag_349:\n        /* \"#utility.yul\":11107:11246   */\n      swap1\n      pop\n        /* \"#utility.yul\":10834:11253   */\n      swap2\n      swap1\n      pop\n      jump\t// out\n        /* \"#utility.yul\":11259:11487   */\n    tag_242:\n        /* \"#utility.yul\":11399:11433   */\n      0x596f75206861766520616c7265616479207369676e6564207468697320747261\n        /* \"#utility.yul\":11395:11396   */\n      0x00\n        /* \"#utility.yul\":11387:11393   */\n      dup3\n        /* \"#utility.yul\":11383:11397   */\n      add\n        /* \"#utility.yul\":11376:11434   */\n      mstore\n        /* \"#utility.yul\":11468:11479   */\n      0x6e73616374696f6e210000000000000000000000000000000000000000000000\n        /* \"#utility.yul\":11463:11465   */\n      0x20\n        /* \"#utility.yul\":11455:11461   */\n      dup3\n        /* \"#utility.yul\":11451:11466   */\n      add\n        /* \"#utility.yul\":11444:11480   */\n      mstore\n        /* \"#utility.yul\":11259:11487   */\n      pop\n      jump\t// out\n        /* \"#utility.yul\":11493:11859   */\n    tag_243:\n        /* \"#utility.yul\":11635:11638   */\n      0x00\n        /* \"#utility.yul\":11656:11723   */\n      tag_352\n        /* \"#utility.yul\":11720:11722   */\n      0x29\n        /* \"#utility.yul\":11715:11718   */\n      dup4\n        /* \"#utility.yul\":11656:11723   */\n      tag_228\n      jump\t// in\n    tag_352:\n        /* \"#utility.yul\":11649:11723   */\n      swap2\n      pop\n        /* \"#utility.yul\":11732:11825   */\n      tag_353\n        /* \"#utility.yul\":11821:11824   */\n      dup3\n        /* \"#utility.yul\":11732:11825   */\n      tag_242\n      jump\t// in\n    tag_353:\n        /* \"#utility.yul\":11850:11852   */\n      0x40\n        /* \"#utility.yul\":11845:11848   */\n      dup3\n        /* \"#utility.yul\":11841:11853   */\n      add\n        /* \"#utility.yul\":11834:11853   */\n      swap1\n      pop\n        /* \"#utility.yul\":11493:11859   */\n      swap2\n      swap1\n      pop\n      jump\t// out\n        /* \"#utility.yul\":11865:12284   */\n    tag_157:\n        /* \"#utility.yul\":12031:12035   */\n      0x00\n        /* \"#utility.yul\":12069:12071   */\n      0x20\n        /* \"#utility.yul\":12058:12067   */\n      dup3\n        /* \"#utility.yul\":12054:12072   */\n      add\n        /* \"#utility.yul\":12046:12072   */\n      swap1\n      pop\n        /* \"#utility.yul\":12118:12127   */\n      dup2\n        /* \"#utility.yul\":12112:12116   */\n      dup2\n        /* \"#utility.yul\":12108:12128   */\n      sub\n        /* \"#utility.yul\":12104:12105   */\n      0x00\n        /* \"#utility.yul\":12093:12102   */\n      dup4\n        /* \"#utility.yul\":12089:12106   */\n      add\n        /* \"#utility.yul\":12082:12129   */\n      mstore\n        /* \"#utility.yul\":12146:12277   */\n      tag_355\n        /* \"#utility.yul\":12272:12276   */\n      dup2\n        /* \"#utility.yul\":12146:12277   */\n      tag_243\n      jump\t// in\n    tag_355:\n        /* \"#utility.yul\":12138:12277   */\n      swap1\n      pop\n        /* \"#utility.yul\":11865:12284   */\n      swap2\n      swap1\n      pop\n      jump\t// out\n        /* \"#utility.yul\":12290:12523   */\n    tag_159:\n        /* \"#utility.yul\":12329:12332   */\n      0x00\n        /* \"#utility.yul\":12352:12376   */\n      tag_357\n        /* \"#utility.yul\":12370:12375   */\n      dup3\n        /* \"#utility.yul\":12352:12376   */\n      tag_215\n      jump\t// in\n    tag_357:\n        /* \"#utility.yul\":12343:12376   */\n      swap2\n      pop\n        /* \"#utility.yul\":12398:12464   */\n      0xffffffffffffffffffffffffffffffffffffffffffffffffffffffffffffffff\n        /* \"#utility.yul\":12391:12396   */\n      dup3\n        /* \"#utility.yul\":12388:12465   */\n      sub\n        /* \"#utility.yul\":12385:12488   */\n      tag_358\n      jumpi\n        /* \"#utility.yul\":12468:12486   */\n      tag_359\n      tag_233\n      jump\t// in\n    tag_359:\n        /* \"#utility.yul\":12385:12488   */\n    tag_358:\n        /* \"#utility.yul\":12515:12516   */\n      0x01\n        /* \"#utility.yul\":12508:12513   */\n      dup3\n        /* \"#utility.yul\":12504:12517   */\n      add\n        /* \"#utility.yul\":12497:12517   */\n      swap1\n      pop\n        /* \"#utility.yul\":12290:12523   */\n      swap2\n      swap1\n      pop\n      jump\t// out\n        /* \"#utility.yul\":12529:12709   */\n    tag_244:\n        /* \"#utility.yul\":12577:12654   */\n      0x4e487b7100000000000000000000000000000000000000000000000000000000\n        /* \"#utility.yul\":12574:12575   */\n      0x00\n        /* \"#utility.yul\":12567:12655   */\n      mstore\n        /* \"#utility.yul\":12674:12678   */\n      0x12\n        /* \"#utility.yul\":12671:12672   */\n      0x04\n        /* \"#utility.yul\":12664:12679   */\n      mstore\n        /* \"#utility.yul\":12698:12702   */\n      0x24\n        /* \"#utility.yul\":12695:12696   */\n      0x00\n        /* \"#utility.yul\":12688:12703   */\n      revert\n        /* \"#utility.yul\":12715:12891   */\n    tag_161:\n        /* \"#utility.yul\":12747:12748   */\n      0x00\n        /* \"#utility.yul\":12764:12784   */\n      tag_362\n        /* \"#utility.yul\":12782:12783   */\n      dup3\n        /* \"#utility.yul\":12764:12784   */\n      tag_215\n      jump\t// in\n    tag_362:\n        /* \"#utility.yul\":12759:12784   */\n      swap2\n      pop\n        /* \"#utility.yul\":12798:12818   */\n      tag_363\n        /* \"#utility.yul\":12816:12817   */\n      dup4\n        /* \"#utility.yul\":12798:12818   */\n      tag_215\n      jump\t// in\n    tag_363:\n        /* \"#utility.yul\":12793:12818   */\n      swap3\n      pop\n        /* \"#utility.yul\":12837:12838   */\n      dup3\n        /* \"#utility.yul\":12827:12862   */\n      tag_364\n      jumpi\n        /* \"#utility.yul\":12842:12860   */\n      tag_365\n      tag_244\n      jump\t// in\n    tag_365:\n        /* \"#utility.yul\":12827:12862   */\n    tag_364:\n        /* \"#utility.yul\":12883:12884   */\n      dup3\n        /* \"#utility.yul\":12880:12881   */\n      dup3\n        /* \"#utility.yul\":12876:12885   */\n      mod\n        /* \"#utility.yul\":12871:12885   */\n      swap1\n      pop\n        /* \"#utility.yul\":12715:12891   */\n      swap3\n      swap2\n      pop\n      pop\n      jump\t// out\n        /* \"#utility.yul\":12897:13082   */\n    tag_165:\n        /* \"#utility.yul\":12937:12938   */\n      0x00\n        /* \"#utility.yul\":12954:12974   */\n      tag_367\n        /* \"#utility.yul\":12972:12973   */\n      dup3\n        /* \"#utility.yul\":12954:12974   */\n      tag_215\n      jump\t// in\n    tag_367:\n        /* \"#utility.yul\":12949:12974   */\n      swap2\n      pop\n        /* \"#utility.yul\":12988:13008   */\n      tag_368\n        /* \"#utility.yul\":13006:13007   */\n      dup4\n        /* \"#utility.yul\":12988:13008   */\n      tag_215\n      jump\t// in\n    tag_368:\n        /* \"#utility.yul\":12983:13008   */\n      swap3\n      pop\n        /* \"#utility.yul\":13027:13028   */\n      dup3\n        /* \"#utility.yul\":13017:13052   */\n      tag_369\n      jumpi\n        /* \"#utility.yul\":13032:13050   */\n      tag_370\n      tag_244\n      jump\t// in\n    tag_370:\n        /* \"#utility.yul\":13017:13052   */\n    tag_369:\n        /* \"#utility.yul\":13074:13075   */\n      dup3\n        /* \"#utility.yul\":13071:13072   */\n      dup3\n        /* \"#utility.yul\":13067:13076   */\n      div\n        /* \"#utility.yul\":13062:13076   */\n      swap1\n      pop\n        /* \"#utility.yul\":12897:13082   */\n      swap3\n      swap2\n      pop\n      pop\n      jump\t// out\n        /* \"#utility.yul\":13088:13267   */\n    tag_245:\n        /* \"#utility.yul\":13228:13259   */\n      0x5472616e73616374696f6e206973206e6f7420636f6e6669726d656421000000\n        /* \"#utility.yul\":13224:13225   */\n      0x00\n        /* \"#utility.yul\":13216:13222   */\n      dup3\n        /* \"#utility.yul\":13212:13226   */\n      add\n        /* \"#utility.yul\":13205:13260   */\n      mstore\n        /* \"#utility.yul\":13088:13267   */\n      pop\n      jump\t// out\n        /* \"#utility.yul\":13273:13639   */\n    tag_246:\n        /* \"#utility.yul\":13415:13418   */\n      0x00\n        /* \"#utility.yul\":13436:13503   */\n      tag_373\n        /* \"#utility.yul\":13500:13502   */\n      0x1d\n        /* \"#utility.yul\":13495:13498   */\n      dup4\n        /* \"#utility.yul\":13436:13503   */\n      tag_228\n      jump\t// in\n    tag_373:\n        /* \"#utility.yul\":13429:13503   */\n      swap2\n      pop\n        /* \"#utility.yul\":13512:13605   */\n      tag_374\n        /* \"#utility.yul\":13601:13604   */\n      dup3\n        /* \"#utility.yul\":13512:13605   */\n      tag_245\n      jump\t// in\n    tag_374:\n        /* \"#utility.yul\":13630:13632   */\n      0x20\n        /* \"#utility.yul\":13625:13628   */\n      dup3\n        /* \"#utility.yul\":13621:13633   */\n      add\n        /* \"#utility.yul\":13614:13633   */\n      swap1\n      pop\n        /* \"#utility.yul\":13273:13639   */\n      swap2\n      swap1\n      pop\n      jump\t// out\n        /* \"#utility.yul\":13645:14064   */\n    tag_204:\n        /* \"#utility.yul\":13811:13815   */\n      0x00\n        /* \"#utility.yul\":13849:13851   */\n      0x20\n        /* \"#utility.yul\":13838:13847   */\n      dup3\n        /* \"#utility.yul\":13834:13852   */\n      add\n        /* \"#utility.yul\":13826:13852   */\n      swap1\n      pop\n        /* \"#utility.yul\":13898:13907   */\n      dup2\n        /* \"#utility.yul\":13892:13896   */\n      dup2\n        /* \"#utility.yul\":13888:13908   */\n      sub\n        /* \"#utility.yul\":13884:13885   */\n      0x00\n        /* \"#utility.yul\":13873:13882   */\n      dup4\n        /* \"#utility.yul\":13869:13886   */\n      add\n        /* \"#utility.yul\":13862:13909   */\n      mstore\n        /* \"#utility.yul\":13926:14057   */\n      tag_376\n        /* \"#utility.yul\":14052:14056   */\n      dup2\n        /* \"#utility.yul\":13926:14057   */\n      tag_246\n      jump\t// in\n    tag_376:\n        /* \"#utility.yul\":13918:14057   */\n      swap1\n      pop\n        /* \"#utility.yul\":13645:14064   */\n      swap2\n      swap1\n      pop\n      jump\t// out\n\n    auxdata: 0xa2646970667358221220fb724bf02197204e42ea320ca160ccc975ab58296b5815d1a7d8763837bcaf6164736f6c634300081a0033\n}\n",
				"bytecode": {
					"linkReferences": {},
					"object": "6080604052348015600e575f80fd5b50600160035f3373ffffffffffffffffffffffffffffffffffffffff1673ffffffffffffffffffffffffffffffffffffffff1681526020019081526020015f205f6101000a81548160ff021916908315150217905550600133908060018154018082558091505060019003905f5260205f20015f9091909190916101000a81548173ffffffffffffffffffffffffffffffffffffffff021916908373ffffffffffffffffffffffffffffffffffffffff160217905550611948806100d15f395ff3fe608060405260043610610090575f3560e01c806394205469116100585780639420546914610170578063b69ef8a8146101ac578063c01a8c84146101d6578063e598c340146101fe578063ee22610b1461023d57610090565b8063025e7c27146100945780631e7f8f0f146100d05780632c526196146100f85780633380c0d8146101205780637065cb4814610148575b5f80fd5b34801561009f575f80fd5b506100ba60048036038101906100b59190611214565b610259565b6040516100c7919061127e565b60405180910390f35b3480156100db575f80fd5b506100f660048036038101906100f191906112c1565b610294565b005b348015610103575f80fd5b5061011e60048036038101906101199190611214565b6104bf565b005b34801561012b575f80fd5b5061014660048036038101906101419190611214565b610562565b005b348015610153575f80fd5b5061016e600480360381019061016991906112ff565b6107c7565b005b34801561017b575f80fd5b5061019660048036038101906101919190611214565b6109d5565b6040516101a39190611339565b60405180910390f35b3480156101b7575f80fd5b506101c0610a01565b6040516101cd9190611339565b60405180910390f35b3480156101e1575f80fd5b506101fc60048036038101906101f79190611214565b610a06565b005b348015610209575f80fd5b50610224600480360381019061021f9190611214565b610dce565b60405161023494939291906113c5565b60405180910390f35b61025760048036038101906102529190611214565b610e34565b005b60018181548110610268575f80fd5b905f5260205f20015f915054906101000a900473ffffffffffffffffffffffffffffffffffffffff1681565b60035f3373ffffffffffffffffffffffffffffffffffffffff1673ffffffffffffffffffffffffffffffffffffffff1681526020019081526020015f205f9054906101000a900460ff1661031d576040517f08c379a000000000000000000000000000000000000000000000000000000000815260040161031490611462565b60405180910390fd5b80805f541015610362576040517f08c379a0000000000000000000000000000000000000000000000000000000008152600401610359906114ca565b60405180910390fd5b5f600260018160018154018082558091505003905f5260205f209060050201905083815f015f6101000a81548173ffffffffffffffffffffffffffffffffffffffff021916908373ffffffffffffffffffffffffffffffffffffffff1602179055508281600101819055505f816002015f6101000a81548160ff021916908360038111156103f3576103f2611352565b5b0217905550600181600401819055506001816003015f3373ffffffffffffffffffffffffffffffffffffffff1673ffffffffffffffffffffffffffffffffffffffff1681526020019081526020015f205f6101000a81548160ff0219169083151502179055508373ffffffffffffffffffffffffffffffffffffffff1660016002805490506104829190611515565b7ffd27d176b6ebb21e0182c0e43df5818e0d632867e1eb47c383c58d221205fce3856040516104b19190611339565b60405180910390a350505050565b60035f3373ffffffffffffffffffffffffffffffffffffffff1673ffffffffffffffffffffffffffffffffffffffff1681526020019081526020015f205f9054906101000a900460ff16610548576040517f08c379a000000000000000000000000000000000000000000000000000000000815260040161053f90611462565b60405180910390fd5b805f808282546105589190611548565b9250508190555050565b60035f3373ffffffffffffffffffffffffffffffffffffffff1673ffffffffffffffffffffffffffffffffffffffff1681526020019081526020015f205f9054906101000a900460ff166105eb576040517f08c379a00000000000000000000000000000000000000000000000000000000081526004016105e290611462565b60405180910390fd5b806002805490508110610633576040517f08c379a000000000000000000000000000000000000000000000000000000000815260040161062a906115c5565b60405180910390fd5b815f60028281548110610649576106486115e3565b5b905f5260205f20906005020190506002600381111561066b5761066a611352565b5b816002015f9054906101000a900460ff16600381111561068e5761068d611352565b5b036106ce576040517f08c379a00000000000000000000000000000000000000000000000000000000081526004016106c59061165a565b60405180910390fd5b6003808111156106e1576106e0611352565b5b816002015f9054906101000a900460ff16600381111561070457610703611352565b5b03610744576040517f08c379a000000000000000000000000000000000000000000000000000000000815260040161073b906116c2565b60405180910390fd5b5f60028581548110610759576107586115e3565b5b905f5260205f20906005020190506003816002015f6101000a81548160ff0219169083600381111561078e5761078d611352565b5b0217905550847f956fb32199d8b882b2039a14e1be35ab14f7a80b9089fc223f14b43937173e6060405160405180910390a25050505050565b60035f3373ffffffffffffffffffffffffffffffffffffffff1673ffffffffffffffffffffffffffffffffffffffff1681526020019081526020015f205f9054906101000a900460ff16610850576040517f08c379a000000000000000000000000000000000000000000000000000000000815260040161084790611462565b60405180910390fd5b60035f8273ffffffffffffffffffffffffffffffffffffffff1673ffffffffffffffffffffffffffffffffffffffff1681526020019081526020015f205f9054906101000a900460ff16156108da576040517f08c379a00000000000000000000000000000000000000000000000000000000081526004016108d19061172a565b60405180910390fd5b600160035f8373ffffffffffffffffffffffffffffffffffffffff1673ffffffffffffffffffffffffffffffffffffffff1681526020019081526020015f205f6101000a81548160ff021916908315150217905550600181908060018154018082558091505060019003905f5260205f20015f9091909190916101000a81548173ffffffffffffffffffffffffffffffffffffffff021916908373ffffffffffffffffffffffffffffffffffffffff1602179055508073ffffffffffffffffffffffffffffffffffffffff167f994a936646fe87ffe4f1e469d3d6aa417d6b855598397f323de5b449f765f0c360405160405180910390a250565b5f600282815481106109ea576109e96115e3565b5b905f5260205f209060050201600401549050919050565b5f5481565b60035f3373ffffffffffffffffffffffffffffffffffffffff1673ffffffffffffffffffffffffffffffffffffffff1681526020019081526020015f205f9054906101000a900460ff16610a8f576040517f08c379a0000000000000000000000000000000000000000000000000000000008152600401610a8690611462565b60405180910390fd5b806002805490508110610ad7576040517f08c379a0000000000000000000000000000000000000000000000000000000008152600401610ace906115c5565b60405180910390fd5b815f60028281548110610aed57610aec6115e3565b5b905f5260205f209060050201905060026003811115610b0f57610b0e611352565b5b816002015f9054906101000a900460ff166003811115610b3257610b31611352565b5b03610b72576040517f08c379a0000000000000000000000000000000000000000000000000000000008152600401610b699061165a565b60405180910390fd5b600380811115610b8557610b84611352565b5b816002015f9054906101000a900460ff166003811115610ba857610ba7611352565b5b03610be8576040517f08c379a0000000000000000000000000000000000000000000000000000000008152600401610bdf906116c2565b60405180910390fd5b5f60028581548110610bfd57610bfc6115e3565b5b905f5260205f2090600502019050806003015f3373ffffffffffffffffffffffffffffffffffffffff1673ffffffffffffffffffffffffffffffffffffffff1681526020019081526020015f205f9054906101000a900460ff1615610c97576040517f08c379a0000000000000000000000000000000000000000000000000000000008152600401610c8e906117b8565b60405180910390fd5b6001816003015f3373ffffffffffffffffffffffffffffffffffffffff1673ffffffffffffffffffffffffffffffffffffffff1681526020019081526020015f205f6101000a81548160ff021916908315150217905550806004015f815480929190610d02906117d6565b91905055505f806002600180549050610d1b919061184a565b14610d26575f610d29565b60015b60ff166002600180549050610d3e919061187a565b610d489190611548565b90503373ffffffffffffffffffffffffffffffffffffffff16867f15c2f311c9e0f53b50388279894aeff029a3457884a6601e924fca879e12adcc60405160405180910390a380826004015410610dc6576001826002015f6101000a81548160ff02191690836003811115610dc057610dbf611352565b5b02179055505b505050505050565b60028181548110610ddd575f80fd5b905f5260205f2090600502015f91509050805f015f9054906101000a900473ffffffffffffffffffffffffffffffffffffffff1690806001015490806002015f9054906101000a900460ff16908060040154905084565b60035f3373ffffffffffffffffffffffffffffffffffffffff1673ffffffffffffffffffffffffffffffffffffffff1681526020019081526020015f205f9054906101000a900460ff16610ebd576040517f08c379a0000000000000000000000000000000000000000000000000000000008152600401610eb490611462565b60405180910390fd5b806002805490508110610f05576040517f08c379a0000000000000000000000000000000000000000000000000000000008152600401610efc906115c5565b60405180910390fd5b815f60028281548110610f1b57610f1a6115e3565b5b905f5260205f209060050201905060026003811115610f3d57610f3c611352565b5b816002015f9054906101000a900460ff166003811115610f6057610f5f611352565b5b03610fa0576040517f08c379a0000000000000000000000000000000000000000000000000000000008152600401610f979061165a565b60405180910390fd5b600380811115610fb357610fb2611352565b5b816002015f9054906101000a900460ff166003811115610fd657610fd5611352565b5b03611016576040517f08c379a000000000000000000000000000000000000000000000000000000000815260040161100d906116c2565b60405180910390fd5b5f6002858154811061102b5761102a6115e3565b5b905f5260205f20906005020190506001600381111561104d5761104c611352565b5b816002015f9054906101000a900460ff1660038111156110705761106f611352565b5b146110b0576040517f08c379a00000000000000000000000000000000000000000000000000000000081526004016110a7906118f4565b60405180910390fd5b80600101545f5410156110f8576040517f08c379a00000000000000000000000000000000000000000000000000000000081526004016110ef906114ca565b60405180910390fd5b80600101545f8082825461110c9190611515565b92505081905550805f015f9054906101000a900473ffffffffffffffffffffffffffffffffffffffff1673ffffffffffffffffffffffffffffffffffffffff166108fc826001015490811502906040515f60405180830381858888f1935050505015801561117c573d5f803e3d5ffd5b506002816002015f6101000a81548160ff021916908360038111156111a4576111a3611352565b5b0217905550847f15ed165a284872ea7017f03df402a0cadfbfab588320ffaf83f160c2f82781c760405160405180910390a25050505050565b5f80fd5b5f819050919050565b6111f3816111e1565b81146111fd575f80fd5b50565b5f8135905061120e816111ea565b92915050565b5f60208284031215611229576112286111dd565b5b5f61123684828501611200565b91505092915050565b5f73ffffffffffffffffffffffffffffffffffffffff82169050919050565b5f6112688261123f565b9050919050565b6112788161125e565b82525050565b5f6020820190506112915f83018461126f565b92915050565b6112a08161125e565b81146112aa575f80fd5b50565b5f813590506112bb81611297565b92915050565b5f80604083850312156112d7576112d66111dd565b5b5f6112e4858286016112ad565b92505060206112f585828601611200565b9150509250929050565b5f60208284031215611314576113136111dd565b5b5f611321848285016112ad565b91505092915050565b611333816111e1565b82525050565b5f60208201905061134c5f83018461132a565b92915050565b7f4e487b71000000000000000000000000000000000000000000000000000000005f52602160045260245ffd5b600481106113905761138f611352565b5b50565b5f8190506113a08261137f565b919050565b5f6113af82611393565b9050919050565b6113bf816113a5565b82525050565b5f6080820190506113d85f83018761126f565b6113e5602083018661132a565b6113f260408301856113b6565b6113ff606083018461132a565b95945050505050565b5f82825260208201905092915050565b7f596f75206d75737420626520616e206f776e65722100000000000000000000005f82015250565b5f61144c601583611408565b915061145782611418565b602082019050919050565b5f6020820190508181035f83015261147981611440565b9050919050565b7f496e73756666696369656e742062616c616e63652100000000000000000000005f82015250565b5f6114b4601583611408565b91506114bf82611480565b602082019050919050565b5f6020820190508181035f8301526114e1816114a8565b9050919050565b7f4e487b71000000000000000000000000000000000000000000000000000000005f52601160045260245ffd5b5f61151f826111e1565b915061152a836111e1565b9250828203905081811115611542576115416114e8565b5b92915050565b5f611552826111e1565b915061155d836111e1565b9250828201905080821115611575576115746114e8565b5b92915050565b7f5472616e73616374696f6e20646f6573206e6f742065786973742100000000005f82015250565b5f6115af601b83611408565b91506115ba8261157b565b602082019050919050565b5f6020820190508181035f8301526115dc816115a3565b9050919050565b7f4e487b71000000000000000000000000000000000000000000000000000000005f52603260045260245ffd5b7f5472616e73616374696f6e20616c7265616479206578656375746564210000005f82015250565b5f611644601d83611408565b915061164f82611610565b602082019050919050565b5f6020820190508181035f83015261167181611638565b9050919050565b7f5472616e73616374696f6e20616c72656164792063616e63656c6c65642100005f82015250565b5f6116ac601e83611408565b91506116b782611678565b602082019050919050565b5f6020820190508181035f8301526116d9816116a0565b9050919050565b7f4164647265737320697320616c726561647920616e206f776e657221000000005f82015250565b5f611714601c83611408565b915061171f826116e0565b602082019050919050565b5f6020820190508181035f83015261174181611708565b9050919050565b7f596f75206861766520616c7265616479207369676e65642074686973207472615f8201527f6e73616374696f6e210000000000000000000000000000000000000000000000602082015250565b5f6117a2602983611408565b91506117ad82611748565b604082019050919050565b5f6020820190508181035f8301526117cf81611796565b9050919050565b5f6117e0826111e1565b91507fffffffffffffffffffffffffffffffffffffffffffffffffffffffffffffffff8203611812576118116114e8565b5b600182019050919050565b7f4e487b71000000000000000000000000000000000000000000000000000000005f52601260045260245ffd5b5f611854826111e1565b915061185f836111e1565b92508261186f5761186e61181d565b5b828206905092915050565b5f611884826111e1565b915061188f836111e1565b92508261189f5761189e61181d565b5b828204905092915050565b7f5472616e73616374696f6e206973206e6f7420636f6e6669726d6564210000005f82015250565b5f6118de601d83611408565b91506118e9826118aa565b602082019050919050565b5f6020820190508181035f83015261190b816118d2565b905091905056fea2646970667358221220fb724bf02197204e42ea320ca160ccc975ab58296b5815d1a7d8763837bcaf6164736f6c634300081a0033",
					"opcodes": "PUSH1 0x80 PUSH1 0x40 MSTORE CALLVALUE DUP1 ISZERO PUSH1 0xE JUMPI PUSH0 DUP1 REVERT JUMPDEST POP PUSH1 0x1 PUSH1 0x3 PUSH0 CALLER PUSH20 0xFFFFFFFFFFFFFFFFFFFFFFFFFFFFFFFFFFFFFFFF AND PUSH20 0xFFFFFFFFFFFFFFFFFFFFFFFFFFFFFFFFFFFFFFFF AND DUP2 MSTORE PUSH1 0x20 ADD SWAP1 DUP2 MSTORE PUSH1 0x20 ADD PUSH0 KECCAK256 PUSH0 PUSH2 0x100 EXP DUP2 SLOAD DUP2 PUSH1 0xFF MUL NOT AND SWAP1 DUP4 ISZERO ISZERO MUL OR SWAP1 SSTORE POP PUSH1 0x1 CALLER SWAP1 DUP1 PUSH1 0x1 DUP2 SLOAD ADD DUP1 DUP3 SSTORE DUP1 SWAP2 POP POP PUSH1 0x1 SWAP1 SUB SWAP1 PUSH0 MSTORE PUSH1 0x20 PUSH0 KECCAK256 ADD PUSH0 SWAP1 SWAP2 SWAP1 SWAP2 SWAP1 SWAP2 PUSH2 0x100 EXP DUP2 SLOAD DUP2 PUSH20 0xFFFFFFFFFFFFFFFFFFFFFFFFFFFFFFFFFFFFFFFF MUL NOT AND SWAP1 DUP4 PUSH20 0xFFFFFFFFFFFFFFFFFFFFFFFFFFFFFFFFFFFFFFFF AND MUL OR SWAP1 SSTORE POP PUSH2 0x1948 DUP1 PUSH2 0xD1 PUSH0 CODECOPY PUSH0 RETURN INVALID PUSH1 0x80 PUSH1 0x40 MSTORE PUSH1 0x4 CALLDATASIZE LT PUSH2 0x90 JUMPI PUSH0 CALLDATALOAD PUSH1 0xE0 SHR DUP1 PUSH4 0x94205469 GT PUSH2 0x58 JUMPI DUP1 PUSH4 0x94205469 EQ PUSH2 0x170 JUMPI DUP1 PUSH4 0xB69EF8A8 EQ PUSH2 0x1AC JUMPI DUP1 PUSH4 0xC01A8C84 EQ PUSH2 0x1D6 JUMPI DUP1 PUSH4 0xE598C340 EQ PUSH2 0x1FE JUMPI DUP1 PUSH4 0xEE22610B EQ PUSH2 0x23D JUMPI PUSH2 0x90 JUMP JUMPDEST DUP1 PUSH4 0x25E7C27 EQ PUSH2 0x94 JUMPI DUP1 PUSH4 0x1E7F8F0F EQ PUSH2 0xD0 JUMPI DUP1 PUSH4 0x2C526196 EQ PUSH2 0xF8 JUMPI DUP1 PUSH4 0x3380C0D8 EQ PUSH2 0x120 JUMPI DUP1 PUSH4 0x7065CB48 EQ PUSH2 0x148 JUMPI JUMPDEST PUSH0 DUP1 REVERT JUMPDEST CALLVALUE DUP1 ISZERO PUSH2 0x9F JUMPI PUSH0 DUP1 REVERT JUMPDEST POP PUSH2 0xBA PUSH1 0x4 DUP1 CALLDATASIZE SUB DUP2 ADD SWAP1 PUSH2 0xB5 SWAP2 SWAP1 PUSH2 0x1214 JUMP JUMPDEST PUSH2 0x259 JUMP JUMPDEST PUSH1 0x40 MLOAD PUSH2 0xC7 SWAP2 SWAP1 PUSH2 0x127E JUMP JUMPDEST PUSH1 0x40 MLOAD DUP1 SWAP2 SUB SWAP1 RETURN JUMPDEST CALLVALUE DUP1 ISZERO PUSH2 0xDB JUMPI PUSH0 DUP1 REVERT JUMPDEST POP PUSH2 0xF6 PUSH1 0x4 DUP1 CALLDATASIZE SUB DUP2 ADD SWAP1 PUSH2 0xF1 SWAP2 SWAP1 PUSH2 0x12C1 JUMP JUMPDEST PUSH2 0x294 JUMP JUMPDEST STOP JUMPDEST CALLVALUE DUP1 ISZERO PUSH2 0x103 JUMPI PUSH0 DUP1 REVERT JUMPDEST POP PUSH2 0x11E PUSH1 0x4 DUP1 CALLDATASIZE SUB DUP2 ADD SWAP1 PUSH2 0x119 SWAP2 SWAP1 PUSH2 0x1214 JUMP JUMPDEST PUSH2 0x4BF JUMP JUMPDEST STOP JUMPDEST CALLVALUE DUP1 ISZERO PUSH2 0x12B JUMPI PUSH0 DUP1 REVERT JUMPDEST POP PUSH2 0x146 PUSH1 0x4 DUP1 CALLDATASIZE SUB DUP2 ADD SWAP1 PUSH2 0x141 SWAP2 SWAP1 PUSH2 0x1214 JUMP JUMPDEST PUSH2 0x562 JUMP JUMPDEST STOP JUMPDEST CALLVALUE DUP1 ISZERO PUSH2 0x153 JUMPI PUSH0 DUP1 REVERT JUMPDEST POP PUSH2 0x16E PUSH1 0x4 DUP1 CALLDATASIZE SUB DUP2 ADD SWAP1 PUSH2 0x169 SWAP2 SWAP1 PUSH2 0x12FF JUMP JUMPDEST PUSH2 0x7C7 JUMP JUMPDEST STOP JUMPDEST CALLVALUE DUP1 ISZERO PUSH2 0x17B JUMPI PUSH0 DUP1 REVERT JUMPDEST POP PUSH2 0x196 PUSH1 0x4 DUP1 CALLDATASIZE SUB DUP2 ADD SWAP1 PUSH2 0x191 SWAP2 SWAP1 PUSH2 0x1214 JUMP JUMPDEST PUSH2 0x9D5 JUMP JUMPDEST PUSH1 0x40 MLOAD PUSH2 0x1A3 SWAP2 SWAP1 PUSH2 0x1339 JUMP JUMPDEST PUSH1 0x40 MLOAD DUP1 SWAP2 SUB SWAP1 RETURN JUMPDEST CALLVALUE DUP1 ISZERO PUSH2 0x1B7 JUMPI PUSH0 DUP1 REVERT JUMPDEST POP PUSH2 0x1C0 PUSH2 0xA01 JUMP JUMPDEST PUSH1 0x40 MLOAD PUSH2 0x1CD SWAP2 SWAP1 PUSH2 0x1339 JUMP JUMPDEST PUSH1 0x40 MLOAD DUP1 SWAP2 SUB SWAP1 RETURN JUMPDEST CALLVALUE DUP1 ISZERO PUSH2 0x1E1 JUMPI PUSH0 DUP1 REVERT JUMPDEST POP PUSH2 0x1FC PUSH1 0x4 DUP1 CALLDATASIZE SUB DUP2 ADD SWAP1 PUSH2 0x1F7 SWAP2 SWAP1 PUSH2 0x1214 JUMP JUMPDEST PUSH2 0xA06 JUMP JUMPDEST STOP JUMPDEST CALLVALUE DUP1 ISZERO PUSH2 0x209 JUMPI PUSH0 DUP1 REVERT JUMPDEST POP PUSH2 0x224 PUSH1 0x4 DUP1 CALLDATASIZE SUB DUP2 ADD SWAP1 PUSH2 0x21F SWAP2 SWAP1 PUSH2 0x1214 JUMP JUMPDEST PUSH2 0xDCE JUMP JUMPDEST PUSH1 0x40 MLOAD PUSH2 0x234 SWAP5 SWAP4 SWAP3 SWAP2 SWAP1 PUSH2 0x13C5 JUMP JUMPDEST PUSH1 0x40 MLOAD DUP1 SWAP2 SUB SWAP1 RETURN JUMPDEST PUSH2 0x257 PUSH1 0x4 DUP1 CALLDATASIZE SUB DUP2 ADD SWAP1 PUSH2 0x252 SWAP2 SWAP1 PUSH2 0x1214 JUMP JUMPDEST PUSH2 0xE34 JUMP JUMPDEST STOP JUMPDEST PUSH1 0x1 DUP2 DUP2 SLOAD DUP2 LT PUSH2 0x268 JUMPI PUSH0 DUP1 REVERT JUMPDEST SWAP1 PUSH0 MSTORE PUSH1 0x20 PUSH0 KECCAK256 ADD PUSH0 SWAP2 POP SLOAD SWAP1 PUSH2 0x100 EXP SWAP1 DIV PUSH20 0xFFFFFFFFFFFFFFFFFFFFFFFFFFFFFFFFFFFFFFFF AND DUP2 JUMP JUMPDEST PUSH1 0x3 PUSH0 CALLER PUSH20 0xFFFFFFFFFFFFFFFFFFFFFFFFFFFFFFFFFFFFFFFF AND PUSH20 0xFFFFFFFFFFFFFFFFFFFFFFFFFFFFFFFFFFFFFFFF AND DUP2 MSTORE PUSH1 0x20 ADD SWAP1 DUP2 MSTORE PUSH1 0x20 ADD PUSH0 KECCAK256 PUSH0 SWAP1 SLOAD SWAP1 PUSH2 0x100 EXP SWAP1 DIV PUSH1 0xFF AND PUSH2 0x31D JUMPI PUSH1 0x40 MLOAD PUSH32 0x8C379A000000000000000000000000000000000000000000000000000000000 DUP2 MSTORE PUSH1 0x4 ADD PUSH2 0x314 SWAP1 PUSH2 0x1462 JUMP JUMPDEST PUSH1 0x40 MLOAD DUP1 SWAP2 SUB SWAP1 REVERT JUMPDEST DUP1 DUP1 PUSH0 SLOAD LT ISZERO PUSH2 0x362 JUMPI PUSH1 0x40 MLOAD PUSH32 0x8C379A000000000000000000000000000000000000000000000000000000000 DUP2 MSTORE PUSH1 0x4 ADD PUSH2 0x359 SWAP1 PUSH2 0x14CA JUMP JUMPDEST PUSH1 0x40 MLOAD DUP1 SWAP2 SUB SWAP1 REVERT JUMPDEST PUSH0 PUSH1 0x2 PUSH1 0x1 DUP2 PUSH1 0x1 DUP2 SLOAD ADD DUP1 DUP3 SSTORE DUP1 SWAP2 POP POP SUB SWAP1 PUSH0 MSTORE PUSH1 0x20 PUSH0 KECCAK256 SWAP1 PUSH1 0x5 MUL ADD SWAP1 POP DUP4 DUP2 PUSH0 ADD PUSH0 PUSH2 0x100 EXP DUP2 SLOAD DUP2 PUSH20 0xFFFFFFFFFFFFFFFFFFFFFFFFFFFFFFFFFFFFFFFF MUL NOT AND SWAP1 DUP4 PUSH20 0xFFFFFFFFFFFFFFFFFFFFFFFFFFFFFFFFFFFFFFFF AND MUL OR SWAP1 SSTORE POP DUP3 DUP2 PUSH1 0x1 ADD DUP2 SWAP1 SSTORE POP PUSH0 DUP2 PUSH1 0x2 ADD PUSH0 PUSH2 0x100 EXP DUP2 SLOAD DUP2 PUSH1 0xFF MUL NOT AND SWAP1 DUP4 PUSH1 0x3 DUP2 GT ISZERO PUSH2 0x3F3 JUMPI PUSH2 0x3F2 PUSH2 0x1352 JUMP JUMPDEST JUMPDEST MUL OR SWAP1 SSTORE POP PUSH1 0x1 DUP2 PUSH1 0x4 ADD DUP2 SWAP1 SSTORE POP PUSH1 0x1 DUP2 PUSH1 0x3 ADD PUSH0 CALLER PUSH20 0xFFFFFFFFFFFFFFFFFFFFFFFFFFFFFFFFFFFFFFFF AND PUSH20 0xFFFFFFFFFFFFFFFFFFFFFFFFFFFFFFFFFFFFFFFF AND DUP2 MSTORE PUSH1 0x20 ADD SWAP1 DUP2 MSTORE PUSH1 0x20 ADD PUSH0 KECCAK256 PUSH0 PUSH2 0x100 EXP DUP2 SLOAD DUP2 PUSH1 0xFF MUL NOT AND SWAP1 DUP4 ISZERO ISZERO MUL OR SWAP1 SSTORE POP DUP4 PUSH20 0xFFFFFFFFFFFFFFFFFFFFFFFFFFFFFFFFFFFFFFFF AND PUSH1 0x1 PUSH1 0x2 DUP1 SLOAD SWAP1 POP PUSH2 0x482 SWAP2 SWAP1 PUSH2 0x1515 JUMP JUMPDEST PUSH32 0xFD27D176B6EBB21E0182C0E43DF5818E0D632867E1EB47C383C58D221205FCE3 DUP6 PUSH1 0x40 MLOAD PUSH2 0x4B1 SWAP2 SWAP1 PUSH2 0x1339 JUMP JUMPDEST PUSH1 0x40 MLOAD DUP1 SWAP2 SUB SWAP1 LOG3 POP POP POP POP JUMP JUMPDEST PUSH1 0x3 PUSH0 CALLER PUSH20 0xFFFFFFFFFFFFFFFFFFFFFFFFFFFFFFFFFFFFFFFF AND PUSH20 0xFFFFFFFFFFFFFFFFFFFFFFFFFFFFFFFFFFFFFFFF AND DUP2 MSTORE PUSH1 0x20 ADD SWAP1 DUP2 MSTORE PUSH1 0x20 ADD PUSH0 KECCAK256 PUSH0 SWAP1 SLOAD SWAP1 PUSH2 0x100 EXP SWAP1 DIV PUSH1 0xFF AND PUSH2 0x548 JUMPI PUSH1 0x40 MLOAD PUSH32 0x8C379A000000000000000000000000000000000000000000000000000000000 DUP2 MSTORE PUSH1 0x4 ADD PUSH2 0x53F SWAP1 PUSH2 0x1462 JUMP JUMPDEST PUSH1 0x40 MLOAD DUP1 SWAP2 SUB SWAP1 REVERT JUMPDEST DUP1 PUSH0 DUP1 DUP3 DUP3 SLOAD PUSH2 0x558 SWAP2 SWAP1 PUSH2 0x1548 JUMP JUMPDEST SWAP3 POP POP DUP2 SWAP1 SSTORE POP POP JUMP JUMPDEST PUSH1 0x3 PUSH0 CALLER PUSH20 0xFFFFFFFFFFFFFFFFFFFFFFFFFFFFFFFFFFFFFFFF AND PUSH20 0xFFFFFFFFFFFFFFFFFFFFFFFFFFFFFFFFFFFFFFFF AND DUP2 MSTORE PUSH1 0x20 ADD SWAP1 DUP2 MSTORE PUSH1 0x20 ADD PUSH0 KECCAK256 PUSH0 SWAP1 SLOAD SWAP1 PUSH2 0x100 EXP SWAP1 DIV PUSH1 0xFF AND PUSH2 0x5EB JUMPI PUSH1 0x40 MLOAD PUSH32 0x8C379A000000000000000000000000000000000000000000000000000000000 DUP2 MSTORE PUSH1 0x4 ADD PUSH2 0x5E2 SWAP1 PUSH2 0x1462 JUMP JUMPDEST PUSH1 0x40 MLOAD DUP1 SWAP2 SUB SWAP1 REVERT JUMPDEST DUP1 PUSH1 0x2 DUP1 SLOAD SWAP1 POP DUP2 LT PUSH2 0x633 JUMPI PUSH1 0x40 MLOAD PUSH32 0x8C379A000000000000000000000000000000000000000000000000000000000 DUP2 MSTORE PUSH1 0x4 ADD PUSH2 0x62A SWAP1 PUSH2 0x15C5 JUMP JUMPDEST PUSH1 0x40 MLOAD DUP1 SWAP2 SUB SWAP1 REVERT JUMPDEST DUP2 PUSH0 PUSH1 0x2 DUP3 DUP2 SLOAD DUP2 LT PUSH2 0x649 JUMPI PUSH2 0x648 PUSH2 0x15E3 JUMP JUMPDEST JUMPDEST SWAP1 PUSH0 MSTORE PUSH1 0x20 PUSH0 KECCAK256 SWAP1 PUSH1 0x5 MUL ADD SWAP1 POP PUSH1 0x2 PUSH1 0x3 DUP2 GT ISZERO PUSH2 0x66B JUMPI PUSH2 0x66A PUSH2 0x1352 JUMP JUMPDEST JUMPDEST DUP2 PUSH1 0x2 ADD PUSH0 SWAP1 SLOAD SWAP1 PUSH2 0x100 EXP SWAP1 DIV PUSH1 0xFF AND PUSH1 0x3 DUP2 GT ISZERO PUSH2 0x68E JUMPI PUSH2 0x68D PUSH2 0x1352 JUMP JUMPDEST JUMPDEST SUB PUSH2 0x6CE JUMPI PUSH1 0x40 MLOAD PUSH32 0x8C379A000000000000000000000000000000000000000000000000000000000 DUP2 MSTORE PUSH1 0x4 ADD PUSH2 0x6C5 SWAP1 PUSH2 0x165A JUMP JUMPDEST PUSH1 0x40 MLOAD DUP1 SWAP2 SUB SWAP1 REVERT JUMPDEST PUSH1 0x3 DUP1 DUP2 GT ISZERO PUSH2 0x6E1 JUMPI PUSH2 0x6E0 PUSH2 0x1352 JUMP JUMPDEST JUMPDEST DUP2 PUSH1 0x2 ADD PUSH0 SWAP1 SLOAD SWAP1 PUSH2 0x100 EXP SWAP1 DIV PUSH1 0xFF AND PUSH1 0x3 DUP2 GT ISZERO PUSH2 0x704 JUMPI PUSH2 0x703 PUSH2 0x1352 JUMP JUMPDEST JUMPDEST SUB PUSH2 0x744 JUMPI PUSH1 0x40 MLOAD PUSH32 0x8C379A000000000000000000000000000000000000000000000000000000000 DUP2 MSTORE PUSH1 0x4 ADD PUSH2 0x73B SWAP1 PUSH2 0x16C2 JUMP JUMPDEST PUSH1 0x40 MLOAD DUP1 SWAP2 SUB SWAP1 REVERT JUMPDEST PUSH0 PUSH1 0x2 DUP6 DUP2 SLOAD DUP2 LT PUSH2 0x759 JUMPI PUSH2 0x758 PUSH2 0x15E3 JUMP JUMPDEST JUMPDEST SWAP1 PUSH0 MSTORE PUSH1 0x20 PUSH0 KECCAK256 SWAP1 PUSH1 0x5 MUL ADD SWAP1 POP PUSH1 0x3 DUP2 PUSH1 0x2 ADD PUSH0 PUSH2 0x100 EXP DUP2 SLOAD DUP2 PUSH1 0xFF MUL NOT AND SWAP1 DUP4 PUSH1 0x3 DUP2 GT ISZERO PUSH2 0x78E JUMPI PUSH2 0x78D PUSH2 0x1352 JUMP JUMPDEST JUMPDEST MUL OR SWAP1 SSTORE POP DUP5 PUSH32 0x956FB32199D8B882B2039A14E1BE35AB14F7A80B9089FC223F14B43937173E60 PUSH1 0x40 MLOAD PUSH1 0x40 MLOAD DUP1 SWAP2 SUB SWAP1 LOG2 POP POP POP POP POP JUMP JUMPDEST PUSH1 0x3 PUSH0 CALLER PUSH20 0xFFFFFFFFFFFFFFFFFFFFFFFFFFFFFFFFFFFFFFFF AND PUSH20 0xFFFFFFFFFFFFFFFFFFFFFFFFFFFFFFFFFFFFFFFF AND DUP2 MSTORE PUSH1 0x20 ADD SWAP1 DUP2 MSTORE PUSH1 0x20 ADD PUSH0 KECCAK256 PUSH0 SWAP1 SLOAD SWAP1 PUSH2 0x100 EXP SWAP1 DIV PUSH1 0xFF AND PUSH2 0x850 JUMPI PUSH1 0x40 MLOAD PUSH32 0x8C379A000000000000000000000000000000000000000000000000000000000 DUP2 MSTORE PUSH1 0x4 ADD PUSH2 0x847 SWAP1 PUSH2 0x1462 JUMP JUMPDEST PUSH1 0x40 MLOAD DUP1 SWAP2 SUB SWAP1 REVERT JUMPDEST PUSH1 0x3 PUSH0 DUP3 PUSH20 0xFFFFFFFFFFFFFFFFFFFFFFFFFFFFFFFFFFFFFFFF AND PUSH20 0xFFFFFFFFFFFFFFFFFFFFFFFFFFFFFFFFFFFFFFFF AND DUP2 MSTORE PUSH1 0x20 ADD SWAP1 DUP2 MSTORE PUSH1 0x20 ADD PUSH0 KECCAK256 PUSH0 SWAP1 SLOAD SWAP1 PUSH2 0x100 EXP SWAP1 DIV PUSH1 0xFF AND ISZERO PUSH2 0x8DA JUMPI PUSH1 0x40 MLOAD PUSH32 0x8C379A000000000000000000000000000000000000000000000000000000000 DUP2 MSTORE PUSH1 0x4 ADD PUSH2 0x8D1 SWAP1 PUSH2 0x172A JUMP JUMPDEST PUSH1 0x40 MLOAD DUP1 SWAP2 SUB SWAP1 REVERT JUMPDEST PUSH1 0x1 PUSH1 0x3 PUSH0 DUP4 PUSH20 0xFFFFFFFFFFFFFFFFFFFFFFFFFFFFFFFFFFFFFFFF AND PUSH20 0xFFFFFFFFFFFFFFFFFFFFFFFFFFFFFFFFFFFFFFFF AND DUP2 MSTORE PUSH1 0x20 ADD SWAP1 DUP2 MSTORE PUSH1 0x20 ADD PUSH0 KECCAK256 PUSH0 PUSH2 0x100 EXP DUP2 SLOAD DUP2 PUSH1 0xFF MUL NOT AND SWAP1 DUP4 ISZERO ISZERO MUL OR SWAP1 SSTORE POP PUSH1 0x1 DUP2 SWAP1 DUP1 PUSH1 0x1 DUP2 SLOAD ADD DUP1 DUP3 SSTORE DUP1 SWAP2 POP POP PUSH1 0x1 SWAP1 SUB SWAP1 PUSH0 MSTORE PUSH1 0x20 PUSH0 KECCAK256 ADD PUSH0 SWAP1 SWAP2 SWAP1 SWAP2 SWAP1 SWAP2 PUSH2 0x100 EXP DUP2 SLOAD DUP2 PUSH20 0xFFFFFFFFFFFFFFFFFFFFFFFFFFFFFFFFFFFFFFFF MUL NOT AND SWAP1 DUP4 PUSH20 0xFFFFFFFFFFFFFFFFFFFFFFFFFFFFFFFFFFFFFFFF AND MUL OR SWAP1 SSTORE POP DUP1 PUSH20 0xFFFFFFFFFFFFFFFFFFFFFFFFFFFFFFFFFFFFFFFF AND PUSH32 0x994A936646FE87FFE4F1E469D3D6AA417D6B855598397F323DE5B449F765F0C3 PUSH1 0x40 MLOAD PUSH1 0x40 MLOAD DUP1 SWAP2 SUB SWAP1 LOG2 POP JUMP JUMPDEST PUSH0 PUSH1 0x2 DUP3 DUP2 SLOAD DUP2 LT PUSH2 0x9EA JUMPI PUSH2 0x9E9 PUSH2 0x15E3 JUMP JUMPDEST JUMPDEST SWAP1 PUSH0 MSTORE PUSH1 0x20 PUSH0 KECCAK256 SWAP1 PUSH1 0x5 MUL ADD PUSH1 0x4 ADD SLOAD SWAP1 POP SWAP2 SWAP1 POP JUMP JUMPDEST PUSH0 SLOAD DUP2 JUMP JUMPDEST PUSH1 0x3 PUSH0 CALLER PUSH20 0xFFFFFFFFFFFFFFFFFFFFFFFFFFFFFFFFFFFFFFFF AND PUSH20 0xFFFFFFFFFFFFFFFFFFFFFFFFFFFFFFFFFFFFFFFF AND DUP2 MSTORE PUSH1 0x20 ADD SWAP1 DUP2 MSTORE PUSH1 0x20 ADD PUSH0 KECCAK256 PUSH0 SWAP1 SLOAD SWAP1 PUSH2 0x100 EXP SWAP1 DIV PUSH1 0xFF AND PUSH2 0xA8F JUMPI PUSH1 0x40 MLOAD PUSH32 0x8C379A000000000000000000000000000000000000000000000000000000000 DUP2 MSTORE PUSH1 0x4 ADD PUSH2 0xA86 SWAP1 PUSH2 0x1462 JUMP JUMPDEST PUSH1 0x40 MLOAD DUP1 SWAP2 SUB SWAP1 REVERT JUMPDEST DUP1 PUSH1 0x2 DUP1 SLOAD SWAP1 POP DUP2 LT PUSH2 0xAD7 JUMPI PUSH1 0x40 MLOAD PUSH32 0x8C379A000000000000000000000000000000000000000000000000000000000 DUP2 MSTORE PUSH1 0x4 ADD PUSH2 0xACE SWAP1 PUSH2 0x15C5 JUMP JUMPDEST PUSH1 0x40 MLOAD DUP1 SWAP2 SUB SWAP1 REVERT JUMPDEST DUP2 PUSH0 PUSH1 0x2 DUP3 DUP2 SLOAD DUP2 LT PUSH2 0xAED JUMPI PUSH2 0xAEC PUSH2 0x15E3 JUMP JUMPDEST JUMPDEST SWAP1 PUSH0 MSTORE PUSH1 0x20 PUSH0 KECCAK256 SWAP1 PUSH1 0x5 MUL ADD SWAP1 POP PUSH1 0x2 PUSH1 0x3 DUP2 GT ISZERO PUSH2 0xB0F JUMPI PUSH2 0xB0E PUSH2 0x1352 JUMP JUMPDEST JUMPDEST DUP2 PUSH1 0x2 ADD PUSH0 SWAP1 SLOAD SWAP1 PUSH2 0x100 EXP SWAP1 DIV PUSH1 0xFF AND PUSH1 0x3 DUP2 GT ISZERO PUSH2 0xB32 JUMPI PUSH2 0xB31 PUSH2 0x1352 JUMP JUMPDEST JUMPDEST SUB PUSH2 0xB72 JUMPI PUSH1 0x40 MLOAD PUSH32 0x8C379A000000000000000000000000000000000000000000000000000000000 DUP2 MSTORE PUSH1 0x4 ADD PUSH2 0xB69 SWAP1 PUSH2 0x165A JUMP JUMPDEST PUSH1 0x40 MLOAD DUP1 SWAP2 SUB SWAP1 REVERT JUMPDEST PUSH1 0x3 DUP1 DUP2 GT ISZERO PUSH2 0xB85 JUMPI PUSH2 0xB84 PUSH2 0x1352 JUMP JUMPDEST JUMPDEST DUP2 PUSH1 0x2 ADD PUSH0 SWAP1 SLOAD SWAP1 PUSH2 0x100 EXP SWAP1 DIV PUSH1 0xFF AND PUSH1 0x3 DUP2 GT ISZERO PUSH2 0xBA8 JUMPI PUSH2 0xBA7 PUSH2 0x1352 JUMP JUMPDEST JUMPDEST SUB PUSH2 0xBE8 JUMPI PUSH1 0x40 MLOAD PUSH32 0x8C379A000000000000000000000000000000000000000000000000000000000 DUP2 MSTORE PUSH1 0x4 ADD PUSH2 0xBDF SWAP1 PUSH2 0x16C2 JUMP JUMPDEST PUSH1 0x40 MLOAD DUP1 SWAP2 SUB SWAP1 REVERT JUMPDEST PUSH0 PUSH1 0x2 DUP6 DUP2 SLOAD DUP2 LT PUSH2 0xBFD JUMPI PUSH2 0xBFC PUSH2 0x15E3 JUMP JUMPDEST JUMPDEST SWAP1 PUSH0 MSTORE PUSH1 0x20 PUSH0 KECCAK256 SWAP1 PUSH1 0x5 MUL ADD SWAP1 POP DUP1 PUSH1 0x3 ADD PUSH0 CALLER PUSH20 0xFFFFFFFFFFFFFFFFFFFFFFFFFFFFFFFFFFFFFFFF AND PUSH20 0xFFFFFFFFFFFFFFFFFFFFFFFFFFFFFFFFFFFFFFFF AND DUP2 MSTORE PUSH1 0x20 ADD SWAP1 DUP2 MSTORE PUSH1 0x20 ADD PUSH0 KECCAK256 PUSH0 SWAP1 SLOAD SWAP1 PUSH2 0x100 EXP SWAP1 DIV PUSH1 0xFF AND ISZERO PUSH2 0xC97 JUMPI PUSH1 0x40 MLOAD PUSH32 0x8C379A000000000000000000000000000000000000000000000000000000000 DUP2 MSTORE PUSH1 0x4 ADD PUSH2 0xC8E SWAP1 PUSH2 0x17B8 JUMP JUMPDEST PUSH1 0x40 MLOAD DUP1 SWAP2 SUB SWAP1 REVERT JUMPDEST PUSH1 0x1 DUP2 PUSH1 0x3 ADD PUSH0 CALLER PUSH20 0xFFFFFFFFFFFFFFFFFFFFFFFFFFFFFFFFFFFFFFFF AND PUSH20 0xFFFFFFFFFFFFFFFFFFFFFFFFFFFFFFFFFFFFFFFF AND DUP2 MSTORE PUSH1 0x20 ADD SWAP1 DUP2 MSTORE PUSH1 0x20 ADD PUSH0 KECCAK256 PUSH0 PUSH2 0x100 EXP DUP2 SLOAD DUP2 PUSH1 0xFF MUL NOT AND SWAP1 DUP4 ISZERO ISZERO MUL OR SWAP1 SSTORE POP DUP1 PUSH1 0x4 ADD PUSH0 DUP2 SLOAD DUP1 SWAP3 SWAP2 SWAP1 PUSH2 0xD02 SWAP1 PUSH2 0x17D6 JUMP JUMPDEST SWAP2 SWAP1 POP SSTORE POP PUSH0 DUP1 PUSH1 0x2 PUSH1 0x1 DUP1 SLOAD SWAP1 POP PUSH2 0xD1B SWAP2 SWAP1 PUSH2 0x184A JUMP JUMPDEST EQ PUSH2 0xD26 JUMPI PUSH0 PUSH2 0xD29 JUMP JUMPDEST PUSH1 0x1 JUMPDEST PUSH1 0xFF AND PUSH1 0x2 PUSH1 0x1 DUP1 SLOAD SWAP1 POP PUSH2 0xD3E SWAP2 SWAP1 PUSH2 0x187A JUMP JUMPDEST PUSH2 0xD48 SWAP2 SWAP1 PUSH2 0x1548 JUMP JUMPDEST SWAP1 POP CALLER PUSH20 0xFFFFFFFFFFFFFFFFFFFFFFFFFFFFFFFFFFFFFFFF AND DUP7 PUSH32 0x15C2F311C9E0F53B50388279894AEFF029A3457884A6601E924FCA879E12ADCC PUSH1 0x40 MLOAD PUSH1 0x40 MLOAD DUP1 SWAP2 SUB SWAP1 LOG3 DUP1 DUP3 PUSH1 0x4 ADD SLOAD LT PUSH2 0xDC6 JUMPI PUSH1 0x1 DUP3 PUSH1 0x2 ADD PUSH0 PUSH2 0x100 EXP DUP2 SLOAD DUP2 PUSH1 0xFF MUL NOT AND SWAP1 DUP4 PUSH1 0x3 DUP2 GT ISZERO PUSH2 0xDC0 JUMPI PUSH2 0xDBF PUSH2 0x1352 JUMP JUMPDEST JUMPDEST MUL OR SWAP1 SSTORE POP JUMPDEST POP POP POP POP POP POP JUMP JUMPDEST PUSH1 0x2 DUP2 DUP2 SLOAD DUP2 LT PUSH2 0xDDD JUMPI PUSH0 DUP1 REVERT JUMPDEST SWAP1 PUSH0 MSTORE PUSH1 0x20 PUSH0 KECCAK256 SWAP1 PUSH1 0x5 MUL ADD PUSH0 SWAP2 POP SWAP1 POP DUP1 PUSH0 ADD PUSH0 SWAP1 SLOAD SWAP1 PUSH2 0x100 EXP SWAP1 DIV PUSH20 0xFFFFFFFFFFFFFFFFFFFFFFFFFFFFFFFFFFFFFFFF AND SWAP1 DUP1 PUSH1 0x1 ADD SLOAD SWAP1 DUP1 PUSH1 0x2 ADD PUSH0 SWAP1 SLOAD SWAP1 PUSH2 0x100 EXP SWAP1 DIV PUSH1 0xFF AND SWAP1 DUP1 PUSH1 0x4 ADD SLOAD SWAP1 POP DUP5 JUMP JUMPDEST PUSH1 0x3 PUSH0 CALLER PUSH20 0xFFFFFFFFFFFFFFFFFFFFFFFFFFFFFFFFFFFFFFFF AND PUSH20 0xFFFFFFFFFFFFFFFFFFFFFFFFFFFFFFFFFFFFFFFF AND DUP2 MSTORE PUSH1 0x20 ADD SWAP1 DUP2 MSTORE PUSH1 0x20 ADD PUSH0 KECCAK256 PUSH0 SWAP1 SLOAD SWAP1 PUSH2 0x100 EXP SWAP1 DIV PUSH1 0xFF AND PUSH2 0xEBD JUMPI PUSH1 0x40 MLOAD PUSH32 0x8C379A000000000000000000000000000000000000000000000000000000000 DUP2 MSTORE PUSH1 0x4 ADD PUSH2 0xEB4 SWAP1 PUSH2 0x1462 JUMP JUMPDEST PUSH1 0x40 MLOAD DUP1 SWAP2 SUB SWAP1 REVERT JUMPDEST DUP1 PUSH1 0x2 DUP1 SLOAD SWAP1 POP DUP2 LT PUSH2 0xF05 JUMPI PUSH1 0x40 MLOAD PUSH32 0x8C379A000000000000000000000000000000000000000000000000000000000 DUP2 MSTORE PUSH1 0x4 ADD PUSH2 0xEFC SWAP1 PUSH2 0x15C5 JUMP JUMPDEST PUSH1 0x40 MLOAD DUP1 SWAP2 SUB SWAP1 REVERT JUMPDEST DUP2 PUSH0 PUSH1 0x2 DUP3 DUP2 SLOAD DUP2 LT PUSH2 0xF1B JUMPI PUSH2 0xF1A PUSH2 0x15E3 JUMP JUMPDEST JUMPDEST SWAP1 PUSH0 MSTORE PUSH1 0x20 PUSH0 KECCAK256 SWAP1 PUSH1 0x5 MUL ADD SWAP1 POP PUSH1 0x2 PUSH1 0x3 DUP2 GT ISZERO PUSH2 0xF3D JUMPI PUSH2 0xF3C PUSH2 0x1352 JUMP JUMPDEST JUMPDEST DUP2 PUSH1 0x2 ADD PUSH0 SWAP1 SLOAD SWAP1 PUSH2 0x100 EXP SWAP1 DIV PUSH1 0xFF AND PUSH1 0x3 DUP2 GT ISZERO PUSH2 0xF60 JUMPI PUSH2 0xF5F PUSH2 0x1352 JUMP JUMPDEST JUMPDEST SUB PUSH2 0xFA0 JUMPI PUSH1 0x40 MLOAD PUSH32 0x8C379A000000000000000000000000000000000000000000000000000000000 DUP2 MSTORE PUSH1 0x4 ADD PUSH2 0xF97 SWAP1 PUSH2 0x165A JUMP JUMPDEST PUSH1 0x40 MLOAD DUP1 SWAP2 SUB SWAP1 REVERT JUMPDEST PUSH1 0x3 DUP1 DUP2 GT ISZERO PUSH2 0xFB3 JUMPI PUSH2 0xFB2 PUSH2 0x1352 JUMP JUMPDEST JUMPDEST DUP2 PUSH1 0x2 ADD PUSH0 SWAP1 SLOAD SWAP1 PUSH2 0x100 EXP SWAP1 DIV PUSH1 0xFF AND PUSH1 0x3 DUP2 GT ISZERO PUSH2 0xFD6 JUMPI PUSH2 0xFD5 PUSH2 0x1352 JUMP JUMPDEST JUMPDEST SUB PUSH2 0x1016 JUMPI PUSH1 0x40 MLOAD PUSH32 0x8C379A000000000000000000000000000000000000000000000000000000000 DUP2 MSTORE PUSH1 0x4 ADD PUSH2 0x100D SWAP1 PUSH2 0x16C2 JUMP JUMPDEST PUSH1 0x40 MLOAD DUP1 SWAP2 SUB SWAP1 REVERT JUMPDEST PUSH0 PUSH1 0x2 DUP6 DUP2 SLOAD DUP2 LT PUSH2 0x102B JUMPI PUSH2 0x102A PUSH2 0x15E3 JUMP JUMPDEST JUMPDEST SWAP1 PUSH0 MSTORE PUSH1 0x20 PUSH0 KECCAK256 SWAP1 PUSH1 0x5 MUL ADD SWAP1 POP PUSH1 0x1 PUSH1 0x3 DUP2 GT ISZERO PUSH2 0x104D JUMPI PUSH2 0x104C PUSH2 0x1352 JUMP JUMPDEST JUMPDEST DUP2 PUSH1 0x2 ADD PUSH0 SWAP1 SLOAD SWAP1 PUSH2 0x100 EXP SWAP1 DIV PUSH1 0xFF AND PUSH1 0x3 DUP2 GT ISZERO PUSH2 0x1070 JUMPI PUSH2 0x106F PUSH2 0x1352 JUMP JUMPDEST JUMPDEST EQ PUSH2 0x10B0 JUMPI PUSH1 0x40 MLOAD PUSH32 0x8C379A000000000000000000000000000000000000000000000000000000000 DUP2 MSTORE PUSH1 0x4 ADD PUSH2 0x10A7 SWAP1 PUSH2 0x18F4 JUMP JUMPDEST PUSH1 0x40 MLOAD DUP1 SWAP2 SUB SWAP1 REVERT JUMPDEST DUP1 PUSH1 0x1 ADD SLOAD PUSH0 SLOAD LT ISZERO PUSH2 0x10F8 JUMPI PUSH1 0x40 MLOAD PUSH32 0x8C379A000000000000000000000000000000000000000000000000000000000 DUP2 MSTORE PUSH1 0x4 ADD PUSH2 0x10EF SWAP1 PUSH2 0x14CA JUMP JUMPDEST PUSH1 0x40 MLOAD DUP1 SWAP2 SUB SWAP1 REVERT JUMPDEST DUP1 PUSH1 0x1 ADD SLOAD PUSH0 DUP1 DUP3 DUP3 SLOAD PUSH2 0x110C SWAP2 SWAP1 PUSH2 0x1515 JUMP JUMPDEST SWAP3 POP POP DUP2 SWAP1 SSTORE POP DUP1 PUSH0 ADD PUSH0 SWAP1 SLOAD SWAP1 PUSH2 0x100 EXP SWAP1 DIV PUSH20 0xFFFFFFFFFFFFFFFFFFFFFFFFFFFFFFFFFFFFFFFF AND PUSH20 0xFFFFFFFFFFFFFFFFFFFFFFFFFFFFFFFFFFFFFFFF AND PUSH2 0x8FC DUP3 PUSH1 0x1 ADD SLOAD SWAP1 DUP2 ISZERO MUL SWAP1 PUSH1 0x40 MLOAD PUSH0 PUSH1 0x40 MLOAD DUP1 DUP4 SUB DUP2 DUP6 DUP9 DUP9 CALL SWAP4 POP POP POP POP ISZERO DUP1 ISZERO PUSH2 0x117C JUMPI RETURNDATASIZE PUSH0 DUP1 RETURNDATACOPY RETURNDATASIZE PUSH0 REVERT JUMPDEST POP PUSH1 0x2 DUP2 PUSH1 0x2 ADD PUSH0 PUSH2 0x100 EXP DUP2 SLOAD DUP2 PUSH1 0xFF MUL NOT AND SWAP1 DUP4 PUSH1 0x3 DUP2 GT ISZERO PUSH2 0x11A4 JUMPI PUSH2 0x11A3 PUSH2 0x1352 JUMP JUMPDEST JUMPDEST MUL OR SWAP1 SSTORE POP DUP5 PUSH32 0x15ED165A284872EA7017F03DF402A0CADFBFAB588320FFAF83F160C2F82781C7 PUSH1 0x40 MLOAD PUSH1 0x40 MLOAD DUP1 SWAP2 SUB SWAP1 LOG2 POP POP POP POP POP JUMP JUMPDEST PUSH0 DUP1 REVERT JUMPDEST PUSH0 DUP2 SWAP1 POP SWAP2 SWAP1 POP JUMP JUMPDEST PUSH2 0x11F3 DUP2 PUSH2 0x11E1 JUMP JUMPDEST DUP2 EQ PUSH2 0x11FD JUMPI PUSH0 DUP1 REVERT JUMPDEST POP JUMP JUMPDEST PUSH0 DUP2 CALLDATALOAD SWAP1 POP PUSH2 0x120E DUP2 PUSH2 0x11EA JUMP JUMPDEST SWAP3 SWAP2 POP POP JUMP JUMPDEST PUSH0 PUSH1 0x20 DUP3 DUP5 SUB SLT ISZERO PUSH2 0x1229 JUMPI PUSH2 0x1228 PUSH2 0x11DD JUMP JUMPDEST JUMPDEST PUSH0 PUSH2 0x1236 DUP5 DUP3 DUP6 ADD PUSH2 0x1200 JUMP JUMPDEST SWAP2 POP POP SWAP3 SWAP2 POP POP JUMP JUMPDEST PUSH0 PUSH20 0xFFFFFFFFFFFFFFFFFFFFFFFFFFFFFFFFFFFFFFFF DUP3 AND SWAP1 POP SWAP2 SWAP1 POP JUMP JUMPDEST PUSH0 PUSH2 0x1268 DUP3 PUSH2 0x123F JUMP JUMPDEST SWAP1 POP SWAP2 SWAP1 POP JUMP JUMPDEST PUSH2 0x1278 DUP2 PUSH2 0x125E JUMP JUMPDEST DUP3 MSTORE POP POP JUMP JUMPDEST PUSH0 PUSH1 0x20 DUP3 ADD SWAP1 POP PUSH2 0x1291 PUSH0 DUP4 ADD DUP5 PUSH2 0x126F JUMP JUMPDEST SWAP3 SWAP2 POP POP JUMP JUMPDEST PUSH2 0x12A0 DUP2 PUSH2 0x125E JUMP JUMPDEST DUP2 EQ PUSH2 0x12AA JUMPI PUSH0 DUP1 REVERT JUMPDEST POP JUMP JUMPDEST PUSH0 DUP2 CALLDATALOAD SWAP1 POP PUSH2 0x12BB DUP2 PUSH2 0x1297 JUMP JUMPDEST SWAP3 SWAP2 POP POP JUMP JUMPDEST PUSH0 DUP1 PUSH1 0x40 DUP4 DUP6 SUB SLT ISZERO PUSH2 0x12D7 JUMPI PUSH2 0x12D6 PUSH2 0x11DD JUMP JUMPDEST JUMPDEST PUSH0 PUSH2 0x12E4 DUP6 DUP3 DUP7 ADD PUSH2 0x12AD JUMP JUMPDEST SWAP3 POP POP PUSH1 0x20 PUSH2 0x12F5 DUP6 DUP3 DUP7 ADD PUSH2 0x1200 JUMP JUMPDEST SWAP2 POP POP SWAP3 POP SWAP3 SWAP1 POP JUMP JUMPDEST PUSH0 PUSH1 0x20 DUP3 DUP5 SUB SLT ISZERO PUSH2 0x1314 JUMPI PUSH2 0x1313 PUSH2 0x11DD JUMP JUMPDEST JUMPDEST PUSH0 PUSH2 0x1321 DUP5 DUP3 DUP6 ADD PUSH2 0x12AD JUMP JUMPDEST SWAP2 POP POP SWAP3 SWAP2 POP POP JUMP JUMPDEST PUSH2 0x1333 DUP2 PUSH2 0x11E1 JUMP JUMPDEST DUP3 MSTORE POP POP JUMP JUMPDEST PUSH0 PUSH1 0x20 DUP3 ADD SWAP1 POP PUSH2 0x134C PUSH0 DUP4 ADD DUP5 PUSH2 0x132A JUMP JUMPDEST SWAP3 SWAP2 POP POP JUMP JUMPDEST PUSH32 0x4E487B7100000000000000000000000000000000000000000000000000000000 PUSH0 MSTORE PUSH1 0x21 PUSH1 0x4 MSTORE PUSH1 0x24 PUSH0 REVERT JUMPDEST PUSH1 0x4 DUP2 LT PUSH2 0x1390 JUMPI PUSH2 0x138F PUSH2 0x1352 JUMP JUMPDEST JUMPDEST POP JUMP JUMPDEST PUSH0 DUP2 SWAP1 POP PUSH2 0x13A0 DUP3 PUSH2 0x137F JUMP JUMPDEST SWAP2 SWAP1 POP JUMP JUMPDEST PUSH0 PUSH2 0x13AF DUP3 PUSH2 0x1393 JUMP JUMPDEST SWAP1 POP SWAP2 SWAP1 POP JUMP JUMPDEST PUSH2 0x13BF DUP2 PUSH2 0x13A5 JUMP JUMPDEST DUP3 MSTORE POP POP JUMP JUMPDEST PUSH0 PUSH1 0x80 DUP3 ADD SWAP1 POP PUSH2 0x13D8 PUSH0 DUP4 ADD DUP8 PUSH2 0x126F JUMP JUMPDEST PUSH2 0x13E5 PUSH1 0x20 DUP4 ADD DUP7 PUSH2 0x132A JUMP JUMPDEST PUSH2 0x13F2 PUSH1 0x40 DUP4 ADD DUP6 PUSH2 0x13B6 JUMP JUMPDEST PUSH2 0x13FF PUSH1 0x60 DUP4 ADD DUP5 PUSH2 0x132A JUMP JUMPDEST SWAP6 SWAP5 POP POP POP POP POP JUMP JUMPDEST PUSH0 DUP3 DUP3 MSTORE PUSH1 0x20 DUP3 ADD SWAP1 POP SWAP3 SWAP2 POP POP JUMP JUMPDEST PUSH32 0x596F75206D75737420626520616E206F776E6572210000000000000000000000 PUSH0 DUP3 ADD MSTORE POP JUMP JUMPDEST PUSH0 PUSH2 0x144C PUSH1 0x15 DUP4 PUSH2 0x1408 JUMP JUMPDEST SWAP2 POP PUSH2 0x1457 DUP3 PUSH2 0x1418 JUMP JUMPDEST PUSH1 0x20 DUP3 ADD SWAP1 POP SWAP2 SWAP1 POP JUMP JUMPDEST PUSH0 PUSH1 0x20 DUP3 ADD SWAP1 POP DUP2 DUP2 SUB PUSH0 DUP4 ADD MSTORE PUSH2 0x1479 DUP2 PUSH2 0x1440 JUMP JUMPDEST SWAP1 POP SWAP2 SWAP1 POP JUMP JUMPDEST PUSH32 0x496E73756666696369656E742062616C616E6365210000000000000000000000 PUSH0 DUP3 ADD MSTORE POP JUMP JUMPDEST PUSH0 PUSH2 0x14B4 PUSH1 0x15 DUP4 PUSH2 0x1408 JUMP JUMPDEST SWAP2 POP PUSH2 0x14BF DUP3 PUSH2 0x1480 JUMP JUMPDEST PUSH1 0x20 DUP3 ADD SWAP1 POP SWAP2 SWAP1 POP JUMP JUMPDEST PUSH0 PUSH1 0x20 DUP3 ADD SWAP1 POP DUP2 DUP2 SUB PUSH0 DUP4 ADD MSTORE PUSH2 0x14E1 DUP2 PUSH2 0x14A8 JUMP JUMPDEST SWAP1 POP SWAP2 SWAP1 POP JUMP JUMPDEST PUSH32 0x4E487B7100000000000000000000000000000000000000000000000000000000 PUSH0 MSTORE PUSH1 0x11 PUSH1 0x4 MSTORE PUSH1 0x24 PUSH0 REVERT JUMPDEST PUSH0 PUSH2 0x151F DUP3 PUSH2 0x11E1 JUMP JUMPDEST SWAP2 POP PUSH2 0x152A DUP4 PUSH2 0x11E1 JUMP JUMPDEST SWAP3 POP DUP3 DUP3 SUB SWAP1 POP DUP2 DUP2 GT ISZERO PUSH2 0x1542 JUMPI PUSH2 0x1541 PUSH2 0x14E8 JUMP JUMPDEST JUMPDEST SWAP3 SWAP2 POP POP JUMP JUMPDEST PUSH0 PUSH2 0x1552 DUP3 PUSH2 0x11E1 JUMP JUMPDEST SWAP2 POP PUSH2 0x155D DUP4 PUSH2 0x11E1 JUMP JUMPDEST SWAP3 POP DUP3 DUP3 ADD SWAP1 POP DUP1 DUP3 GT ISZERO PUSH2 0x1575 JUMPI PUSH2 0x1574 PUSH2 0x14E8 JUMP JUMPDEST JUMPDEST SWAP3 SWAP2 POP POP JUMP JUMPDEST PUSH32 0x5472616E73616374696F6E20646F6573206E6F74206578697374210000000000 PUSH0 DUP3 ADD MSTORE POP JUMP JUMPDEST PUSH0 PUSH2 0x15AF PUSH1 0x1B DUP4 PUSH2 0x1408 JUMP JUMPDEST SWAP2 POP PUSH2 0x15BA DUP3 PUSH2 0x157B JUMP JUMPDEST PUSH1 0x20 DUP3 ADD SWAP1 POP SWAP2 SWAP1 POP JUMP JUMPDEST PUSH0 PUSH1 0x20 DUP3 ADD SWAP1 POP DUP2 DUP2 SUB PUSH0 DUP4 ADD MSTORE PUSH2 0x15DC DUP2 PUSH2 0x15A3 JUMP JUMPDEST SWAP1 POP SWAP2 SWAP1 POP JUMP JUMPDEST PUSH32 0x4E487B7100000000000000000000000000000000000000000000000000000000 PUSH0 MSTORE PUSH1 0x32 PUSH1 0x4 MSTORE PUSH1 0x24 PUSH0 REVERT JUMPDEST PUSH32 0x5472616E73616374696F6E20616C726561647920657865637574656421000000 PUSH0 DUP3 ADD MSTORE POP JUMP JUMPDEST PUSH0 PUSH2 0x1644 PUSH1 0x1D DUP4 PUSH2 0x1408 JUMP JUMPDEST SWAP2 POP PUSH2 0x164F DUP3 PUSH2 0x1610 JUMP JUMPDEST PUSH1 0x20 DUP3 ADD SWAP1 POP SWAP2 SWAP1 POP JUMP JUMPDEST PUSH0 PUSH1 0x20 DUP3 ADD SWAP1 POP DUP2 DUP2 SUB PUSH0 DUP4 ADD MSTORE PUSH2 0x1671 DUP2 PUSH2 0x1638 JUMP JUMPDEST SWAP1 POP SWAP2 SWAP1 POP JUMP JUMPDEST PUSH32 0x5472616E73616374696F6E20616C72656164792063616E63656C6C6564210000 PUSH0 DUP3 ADD MSTORE POP JUMP JUMPDEST PUSH0 PUSH2 0x16AC PUSH1 0x1E DUP4 PUSH2 0x1408 JUMP JUMPDEST SWAP2 POP PUSH2 0x16B7 DUP3 PUSH2 0x1678 JUMP JUMPDEST PUSH1 0x20 DUP3 ADD SWAP1 POP SWAP2 SWAP1 POP JUMP JUMPDEST PUSH0 PUSH1 0x20 DUP3 ADD SWAP1 POP DUP2 DUP2 SUB PUSH0 DUP4 ADD MSTORE PUSH2 0x16D9 DUP2 PUSH2 0x16A0 JUMP JUMPDEST SWAP1 POP SWAP2 SWAP1 POP JUMP JUMPDEST PUSH32 0x4164647265737320697320616C726561647920616E206F776E65722100000000 PUSH0 DUP3 ADD MSTORE POP JUMP JUMPDEST PUSH0 PUSH2 0x1714 PUSH1 0x1C DUP4 PUSH2 0x1408 JUMP JUMPDEST SWAP2 POP PUSH2 0x171F DUP3 PUSH2 0x16E0 JUMP JUMPDEST PUSH1 0x20 DUP3 ADD SWAP1 POP SWAP2 SWAP1 POP JUMP JUMPDEST PUSH0 PUSH1 0x20 DUP3 ADD SWAP1 POP DUP2 DUP2 SUB PUSH0 DUP4 ADD MSTORE PUSH2 0x1741 DUP2 PUSH2 0x1708 JUMP JUMPDEST SWAP1 POP SWAP2 SWAP1 POP JUMP JUMPDEST PUSH32 0x596F75206861766520616C7265616479207369676E6564207468697320747261 PUSH0 DUP3 ADD MSTORE PUSH32 0x6E73616374696F6E210000000000000000000000000000000000000000000000 PUSH1 0x20 DUP3 ADD MSTORE POP JUMP JUMPDEST PUSH0 PUSH2 0x17A2 PUSH1 0x29 DUP4 PUSH2 0x1408 JUMP JUMPDEST SWAP2 POP PUSH2 0x17AD DUP3 PUSH2 0x1748 JUMP JUMPDEST PUSH1 0x40 DUP3 ADD SWAP1 POP SWAP2 SWAP1 POP JUMP JUMPDEST PUSH0 PUSH1 0x20 DUP3 ADD SWAP1 POP DUP2 DUP2 SUB PUSH0 DUP4 ADD MSTORE PUSH2 0x17CF DUP2 PUSH2 0x1796 JUMP JUMPDEST SWAP1 POP SWAP2 SWAP1 POP JUMP JUMPDEST PUSH0 PUSH2 0x17E0 DUP3 PUSH2 0x11E1 JUMP JUMPDEST SWAP2 POP PUSH32 0xFFFFFFFFFFFFFFFFFFFFFFFFFFFFFFFFFFFFFFFFFFFFFFFFFFFFFFFFFFFFFFFF DUP3 SUB PUSH2 0x1812 JUMPI PUSH2 0x1811 PUSH2 0x14E8 JUMP JUMPDEST JUMPDEST PUSH1 0x1 DUP3 ADD SWAP1 POP SWAP2 SWAP1 POP JUMP JUMPDEST PUSH32 0x4E487B7100000000000000000000000000000000000000000000000000000000 PUSH0 MSTORE PUSH1 0x12 PUSH1 0x4 MSTORE PUSH1 0x24 PUSH0 REVERT JUMPDEST PUSH0 PUSH2 0x1854 DUP3 PUSH2 0x11E1 JUMP JUMPDEST SWAP2 POP PUSH2 0x185F DUP4 PUSH2 0x11E1 JUMP JUMPDEST SWAP3 POP DUP3 PUSH2 0x186F JUMPI PUSH2 0x186E PUSH2 0x181D JUMP JUMPDEST JUMPDEST DUP3 DUP3 MOD SWAP1 POP SWAP3 SWAP2 POP POP JUMP JUMPDEST PUSH0 PUSH2 0x1884 DUP3 PUSH2 0x11E1 JUMP JUMPDEST SWAP2 POP PUSH2 0x188F DUP4 PUSH2 0x11E1 JUMP JUMPDEST SWAP3 POP DUP3 PUSH2 0x189F JUMPI PUSH2 0x189E PUSH2 0x181D JUMP JUMPDEST JUMPDEST DUP3 DUP3 DIV SWAP1 POP SWAP3 SWAP2 POP POP JUMP JUMPDEST PUSH32 0x5472616E73616374696F6E206973206E6F7420636F6E6669726D656421000000 PUSH0 DUP3 ADD MSTORE POP JUMP JUMPDEST PUSH0 PUSH2 0x18DE PUSH1 0x1D DUP4 PUSH2 0x1408 JUMP JUMPDEST SWAP2 POP PUSH2 0x18E9 DUP3 PUSH2 0x18AA JUMP JUMPDEST PUSH1 0x20 DUP3 ADD SWAP1 POP SWAP2 SWAP1 POP JUMP JUMPDEST PUSH0 PUSH1 0x20 DUP3 ADD SWAP1 POP DUP2 DUP2 SUB PUSH0 DUP4 ADD MSTORE PUSH2 0x190B DUP2 PUSH2 0x18D2 JUMP JUMPDEST SWAP1 POP SWAP2 SWAP1 POP JUMP INVALID LOG2 PUSH5 0x6970667358 0x22 SLT KECCAK256 0xFB PUSH19 0x4BF02197204E42EA320CA160CCC975AB58296B PC ISZERO 0xD1 0xA7 0xD8 PUSH23 0x3837BCAF6164736F6C634300081A003300000000000000 "
				},
				"gasEstimates": {
					"creation": {
						"codeDepositCost": "1294400",
						"executionCost": "74275",
						"totalCost": "1368675"
					},
					"external": {
						"_mint(uint256)": "infinite",
						"addOwner(address)": "79111",
						"balance()": "2446",
						"cancelTransaction(uint256)": "39129",
						"confirmTransaction(uint256)": "infinite",
						"createTransaction(address,uint256)": "infinite",
						"executeTransaction(uint256)": "infinite",
						"getTransactionSignatures(uint256)": "infinite",
						"owners(uint256)": "4945",
						"transactionsList(uint256)": "infinite"
					}
				},
				"methodIdentifiers": {
					"_mint(uint256)": "2c526196",
					"addOwner(address)": "7065cb48",
					"balance()": "b69ef8a8",
					"cancelTransaction(uint256)": "3380c0d8",
					"confirmTransaction(uint256)": "c01a8c84",
					"createTransaction(address,uint256)": "1e7f8f0f",
					"executeTransaction(uint256)": "ee22610b",
					"getTransactionSignatures(uint256)": "94205469",
					"owners(uint256)": "025e7c27",
					"transactionsList(uint256)": "e598c340"
				}
			},
			"storageLayout": {
				"storage": [
					{
						"astId": 22,
						"contract": "contracts/MultisignWallet.sol:MultisignWallet",
						"label": "balance",
						"offset": 0,
						"slot": "0",
						"type": "t_uint256"
					},
					{
						"astId": 25,
						"contract": "contracts/MultisignWallet.sol:MultisignWallet",
						"label": "owners",
						"offset": 0,
						"slot": "1",
						"type": "t_array(t_address)dyn_storage"
					},
					{
						"astId": 29,
						"contract": "contracts/MultisignWallet.sol:MultisignWallet",
						"label": "transactionsList",
						"offset": 0,
						"slot": "2",
						"type": "t_array(t_struct(Transaction)20_storage)dyn_storage"
					},
					{
						"astId": 33,
						"contract": "contracts/MultisignWallet.sol:MultisignWallet",
						"label": "isOwner",
						"offset": 0,
						"slot": "3",
						"type": "t_mapping(t_address,t_bool)"
					}
				],
				"types": {
					"t_address": {
						"encoding": "inplace",
						"label": "address",
						"numberOfBytes": "20"
					},
					"t_array(t_address)dyn_storage": {
						"base": "t_address",
						"encoding": "dynamic_array",
						"label": "address[]",
						"numberOfBytes": "32"
					},
					"t_array(t_struct(Transaction)20_storage)dyn_storage": {
						"base": "t_struct(Transaction)20_storage",
						"encoding": "dynamic_array",
						"label": "struct MultisignWallet.Transaction[]",
						"numberOfBytes": "32"
					},
					"t_bool": {
						"encoding": "inplace",
						"label": "bool",
						"numberOfBytes": "1"
					},
					"t_enum(TransactionStatus)6": {
						"encoding": "inplace",
						"label": "enum MultisignWallet.TransactionStatus",
						"numberOfBytes": "1"
					},
					"t_mapping(t_address,t_bool)": {
						"encoding": "mapping",
						"key": "t_address",
						"label": "mapping(address => bool)",
						"numberOfBytes": "32",
						"value": "t_bool"
					},
					"t_struct(Transaction)20_storage": {
						"encoding": "inplace",
						"label": "struct MultisignWallet.Transaction",
						"members": [
							{
								"astId": 8,
								"contract": "contracts/MultisignWallet.sol:MultisignWallet",
								"label": "receiver",
								"offset": 0,
								"slot": "0",
								"type": "t_address"
							},
							{
								"astId": 10,
								"contract": "contracts/MultisignWallet.sol:MultisignWallet",
								"label": "amount",
								"offset": 0,
								"slot": "1",
								"type": "t_uint256"
							},
							{
								"astId": 13,
								"contract": "contracts/MultisignWallet.sol:MultisignWallet",
								"label": "status",
								"offset": 0,
								"slot": "2",
								"type": "t_enum(TransactionStatus)6"
							},
							{
								"astId": 17,
								"contract": "contracts/MultisignWallet.sol:MultisignWallet",
								"label": "ownersSigned",
								"offset": 0,
								"slot": "3",
								"type": "t_mapping(t_address,t_bool)"
							},
							{
								"astId": 19,
								"contract": "contracts/MultisignWallet.sol:MultisignWallet",
								"label": "totalSigns",
								"offset": 0,
								"slot": "4",
								"type": "t_uint256"
							}
						],
						"numberOfBytes": "160"
					},
					"t_uint256": {
						"encoding": "inplace",
						"label": "uint256",
						"numberOfBytes": "32"
					}
				}
			},
			"userdoc": {
				"kind": "user",
				"methods": {},
				"version": 1
			}
		}
	}
}